:020000040800F2
:1000000000000A207D400008691500086F150008EF
:10001000751500087B15000881150008CD40000803
:10002000000000000000000000000000CD400008BB
:10003000871500080000000031030008DD020008F9
:10004000CD400008CD400008CD400008CD4000085C
:10005000CD400008CD400008CD400008CD4000084C
:10006000CD400008CD400008CD400008CD4000083C
:10007000CD400008CD40000895150008A3150008E4
:10008000CD400008CD400008CD400008CD4000081C
:10009000CD400008CD400008CD400008CD4000080C
:1000A000CD400008CD400008CD400008CD400008FC
:1000B000CD400008CD400008CD400008B115000833
:1000C000C5150008CD400008CD400008CD4000080F
:1000D000CD400008CD400008CD400008CD400008CC
:1000E000CD400008CD400008CD400008CD400008BC
:1000F000CD400008CD400008CD400008CD400008AC
:10010000CD400008D9150008CD400008CD400008BA
:10011000CD400008CD400008CD400008CD4000088B
:10012000CD400008CD400008ED150008CD40000886
:10013000CD400008CD400008CD400008CD4000086B
:10014000CD400008CD400008CD400008CD4000085B
:10015000CD400008CD400008CD400008CD4000084B
:10016000CD400008CD400008CD400008CD4000083B
:10017000CD400008CD400008CD400008CD4000082B
:10018000CD400008CD400008CD4000080116000811
:10019000CD400008CD400008CD400008CD4000080B
:1001A000CD400008CD400008CD400008CD400008FB
:1001B000CD400008CD400008CD400008CD400008EB
:1001C000CD400008CD400008CD400008CD400008DB
:1001D000CD400008CD400008CD400008CD400008CB
:1001E000CD400008CD400008CD400008CD400008BB
:1001F000CD400008CD400008CD400008CD400008AB
:10020000CD400008CD400008CD400008CD4000089A
:10021000CD400008CD400008CD400008CD4000088A
:10022000CD400008CD400008CD400008CD4000087A
:10023000CD400008CD400008CD400008CD4000086A
:0C024000CD400008CD400008CD40000873
:10024C0010B5054C237833B9044B13B10448AFF304
:10025C0000800123237010BD30010020000000003D
:10026C00104D030808B5034B1BB103490348AFF30A
:10027C00008008BD0000000034010020104D030870
:10028C0072B64FF0E0201749C0F8081D16480168F7
:10029C0041F00101016015481249096801604FF0F5
:1002AC00E020134941614FF0070101614FF000015B
:1002BC00C0F8181D4FF07F41C0F81C1D0D49C0F847
:1002CC00201D7047FFF7FEBF01B5BDE80140704728
:1002DC0001B500F097F8BDE801407047FFF7FEBF8D
:1002EC00FFF7FEBF00000008001000E0745503206B
:1002FC007FA903000000FF404FF000002D4A106062
:10030C00EFF3148020F0040080F3148862B64FF0F1
:10031C0080504FF0E021C1F8040DBFF34F8FBFF3B5
:10032C006F8FFEE72448254A4FF00003016891B116
:10033C000360EFF3098C2CE9F00F1EF0100F01D1C4
:10034C002CED108A1E4C4CF804EDC1F808C0256841
:10035C000DB18D61236072B61168D1B1016062B6C6
:10036C004F68174C8D6907F101074F602560D1F874
:10037C000CC08CF30B88D1F808C05CF804EB1EF0B1
:10038C00100F01D1BCEC108ABCE8F00F8CF309887B
:10039C00704772B61168016009B962B6F9E74FF09F
:1003AC0000674FF0E028C8F8047D62B6D8E700BFBC
:1003BC007047000010560320785503207C5503200D
:1003CC00805B0320026922F00702A2F144026FF065
:1003DC00430313604FF0000353609360D3601361C9
:1003EC0053619361D361136253629362D36213635B
:1003FC0053634FF0FF339363D1634FF080731364F7
:10040C00826070472249086800F101000860214BA6
:10041C001A683AB1A2F101021A601AB91E4B4FF0D8
:10042C00010018601D490868026822B11C4B4FF08E
:10043C0001021A6008E000F104001A4B1A6890429D
:10044C0001D1194B18680860134B1A6812B914497A
:10045C000868C8B101B51249086808B130F074FDDC
:10046C000D4B1A6872B130F041FB1048016849B964
:10047C000F4801680F4A13680F484FF08052994299
:10048C0000D00260BDE80140BFF34F8F7047000001
:10049C001C560320805B032020560320AC560320FF
:1004AC00B0560320A8560320A45603201056032050
:1004BC00785503207C55032004ED00E010F8012B47
:1004CC0011F8013B012A28BF9A42F7D0D01A704785
:1004DC00034613F8012B002AFBD1181A0138704778
:1004EC0053B94AB9002908BF00281CBF4FF0FF318F
:1004FC004FF0FF3000F082B9ADF1080C6DE904CE7D
:10050C0000F006F8DDF804E0DDE9022304B07047E2
:10051C002DE9F04F099E0D4604460F46002B46D19F
:10052C008A4294465ED9B2FA82F343B102FA03FCD2
:10053C00C3F120029F409C4020FA02F217434FEA7D
:10054C001C4E1FFA8CF5220CB7FBFEF10EFB11773B
:10055C0001FB05F042EA0742904208D91CEB02026B
:10056C0001F1FF3702D2904200F234813946121A5F
:10057C00A4B2B2FBFEF00EFB102200FB05F544EA20
:10058C000244A54208D91CEB040400F1FF3202D24C
:10059C00A54200F21981104640EA0140641B00217B
:1005AC001EB1DC400023C6E90043BDE8F08F8B424E
:1005BC0008D9002E00F0FC800021C6E90005084691
:1005CC00BDE8F08FB3FA83F100294CD1AB42C0F0F7
:1005DC00F280824240F2EF800846002EE5D0C6E958
:1005EC000047E2E702B9FFDEB2FA82F3002B40F0DB
:1005FC009F808A1A4FEA1C4E1FFA8CF70121B2FB1E
:10060C00FEF50EFB1520220C42EA004207FB05F01A
:10061C0090420FD91CEB020205F1FF382CBF4FF0B2
:10062C0001094FF00009904203D9B9F1000F00F015
:10063C00CE804546121AA4B2B2FBFEF00EFB10227D
:10064C0000FB07F744EA0244A74208D91CEB040458
:10065C0000F1FF3202D2A74200F2B3801046E41B35
:10066C0040EA05409CE7C1F120048B4005FA01FCEF
:10067C0022FA04F7E5408A401F4320FA04F388402D
:10068C004FEA174843EA0C031FFA87FC4FEA134959
:10069C00B5FBF8FE08FB1E5549EA05450EFB0CF9A7
:1006AC00A9450ED97D190EF1FF3A2CBF4FF0010B65
:1006BC004FF0000BA94503D9BBF1000F00F08D8062
:1006CC00D646A5EB09051FFA83F9B5FBF8F308FB31
:1006DC00135503FB0CFC49EA0545AC4506D97D19BD
:1006EC0003F1FF3801D2AC457ED8434643EA0E43B2
:1006FC00A5EB0C05A3FB02984545CE46C44602D398
:10070C0006D1484504D2013BB9EB020E68EB070C4D
:10071C00002E6FD0B0EB0E0265EB0C05CA4005FA4B
:10072C0004F4CD40184614430021C6E900453CE7CB
:10073C0002FA03FCC3F1200299409C40D5404FEAD9
:10074C001C4E20FA02F21FFA8CF7B5FBFEF00A439E
:10075C000EFB1055110C41EA054100FB07F58D42CB
:10076C000ED91CEB010100F1FF382CBF4FF0010931
:10077C004FF000098D4202D9B9F1000F31D040463B
:10078C00491B92B2B1FBFEF50EFB151142EA014278
:10079C0005FB07F1914207D91CEB020205F1FF386A
:1007AC0001D2914223D84546521A45EA004126E728
:1007BC0031463046F9E6841A65EB030201201746F0
:1007CC000BE7644402384AE764440238E4E6023D2D
:1007DC0062442FE702396244C9E6AEF1020E3D4491
:1007EC006FE702386144CBE7023B3D447EE7023DB4
:1007FC006244D9E718463146D7E600BF704700BFC0
:10080C0080B586B002AF78600023FB603423009380
:10081C004FF40063154A1649164830F09FFF034603
:10082C00002B09D1134BBB60B86800F02BF8F860B3
:10083C00FB68002B00D0FEE7342300934FF42033E9
:10084C000D4A0E490E4830F089FF0346002B09D1A2
:10085C000B4BBB60B86800F09DFFF860FB68002B89
:10086C0000D0FEE700BF1037BD4680BD4C01002014
:10087C00284D03084C090020800900203C4D03083A
:10088C008089022080B485B000AF78600023FB60C3
:10089C00FB6818461437BD465DF8047B704780B57D
:1008AC0000AF2DF089FB00BF80BD0000B0B5A8B033
:1008BC0004AF05F079FB00F0A7F800F001FA00F0A6
:1008CC000FF900F035F900F0ABF900F053F900F036
:1008DC003BF9424B07F168041D460FCD0FC495E858
:1008EC00030084E8030007F168031846FFF7F0FDE6
:1008FC000346A7F88E30B7F88E2007F168014FF643
:10090C00FF73374811F07EFC364B1B689B68002147
:10091C00184632F095FB00233B603B1D6022002102
:10092C00184632F0A7FD3B461846FFF7D1FD0346AB
:10093C001A463B4613442C491A460B4603CB10600F
:10094C0051601B88138105F069FBC7F888000023F0
:10095C007B6607E0254B1B680133244A13607B6ED2
:10096C0001337B667B6E224A9342F3D305F056FB30
:10097C00C7F88400D7F88420D7F88830D31A1B4ADC
:10098C001268029201933B4600931A4B1A4AD7F80D
:10099C0084101A4832F0C6FA00F0FCFAC7F880004E
:1009AC00D7F88030184632F0E3F832F00FF90346EE
:1009BC001A46D7F88010124832F0B4FA01221149C5
:1009CC00074811F0BDFC074B1B685B6800211846FB
:1009DC0032F036FBFFF763FFFEE700BFD04D030894
:1009EC00488B02202C010020504D03081C8C022047
:1009FC00009F24005C4D0308684D0308744D0308E8
:100A0C00AC4D0308DC8B022080B59CB000AF07F125
:100A1C00200350220021184632F02CFD07F1080368
:100A2C0000221A605A609A60DA601A615A612B4B84
:100A3C001B692A4A43F030031361284B1B6903F0EE
:100A4C0030037B607B6800BF244B5B6903F00803B9
:100A5C00082BF9D122233B620123FB6200233B6369
:100A6C0040237B634FF480537B640223BB640123DC
:100A7C00FB6408233B653C237B650223BB65022397
:100A8C00FB6502233B660C237B660023BB660023BD
:100A9C00FB6607F12003184607F0B6F80346002B57
:100AAC0001D000F09DFA1F23BB600323FB600023E1
:100ABC003B6100237B610023BB610023FB6107F1D9
:100ACC0008030521184607F01DFE0346002B01D034
:100ADC0000F086FA00BF7037BD4680BD00080244A6
:100AEC0080B582B000AF114BD3F888300F4A43F079
:100AFC000103C2F888300D4BD3F8883003F00103A2
:100B0C007B607B68002202211F2005F085FB1F20E3
:100B1C0005F0ACFB00220221202005F07DFB2020FB
:100B2C0005F0A4FB00BF0837BD4680BD000C024495
:100B3C0080B500AF07F058F80346002B01D000F049
:100B4C004FFA00BF80BD000080B500AF074B084ACC
:100B5C001A60064B00225A6004480EF0E5FC03466E
:100B6C00002B01D000F03CFA00BF80BDB4890220FC
:100B7C0000080C4280B500AF274B284A1A60264B60
:100B8C004FF480025A60244B00229A60224B0722B9
:100B9C00DA60214B00221A611F4B00225A611E4B56
:100BAC004FF080629A611C4B4FF00052DA611A4B85
:100BBC0000221A62184B00225A62174B00229A62CA
:100BCC00154B0722DA62144B00225A63124B002297
:100BDC009A63114B0022DA630F4B00229A640E4B7E
:100BEC000022DA640C4B00221A650B4B00225A656A
:100BFC00094B00229A65084B0022DA65064B00224D
:100C0C001A6605480EF04AFD0346002B01D000F091
:100C1C00E7F900BF80BD00BFC88902200020004456
:100C2C0080B500AF244B254A1A60234B4FF4E132B8
:100C3C005A60214B00229A601F4B0022DA601E4B37
:100C4C0000221A611C4B0C225A611B4B00229A6128
:100C5C00194B0022DA61184B00221A62164B002243
:100C6C005A62154B20229A62134B4FF400521A64AD
:100C7C00114811F0DFF80346002B01D000F0B0F959
:100C8C0000210D4813F090FC0346002B01D000F01E
:100C9C00A7F90021084813F09DFD0346002B01D055
:100CAC0000F09EF9044813F08BFB0346002B01D097
:100CBC0000F096F900BF80BD488B0220003801403F
:100CCC0080B58AB000AF07F1140300221A605A6095
:100CDC009A60DA601A61514BD3F88C304F4A43F06A
:100CEC000203C2F88C304D4BD3F88C3003F0020366
:100CFC003B613B69494BD3F88C30484A43F00103C4
:100D0C00C2F88C30454BD3F88C3003F00103FB60F8
:100D1C00FB68424BD3F88C30404A43F02003C2F8B6
:100D2C008C303E4BD3F88C3003F02003BB60BB6897
:100D3C003A4BD3F88C30394A43F08003C2F88C30EC
:100D4C00364BD3F88C3003F080037B607B68012238
:100D5C004021334806F0E6FE01224FF48071314801
:100D6C0006F0E0FE012201212F4806F0DBFE0823ED
:100D7C007B612E4BBB610023FB6107F11403194609
:100D8C00274806F0DBFB40237B610123BB6100237A
:100D9C00FB6102233B6207F114031946204806F05D
:100DAC00CDFB4FF480737B610123BB610023FB619E
:100DBC0000233B6207F1140319461A4806F0BEFBE8
:100DCC0010237B61194BBB610023FB6107F11403FA
:100DDC001946144806F0B2FB01237B610123BB6169
:100DEC000023FB6100233B6207F1140319460E48F4
:100DFC0006F0A4FB002202210E2005F00DFA0E20B5
:100E0C0005F034FA002202210F2005F005FA0F201C
:100E1C0005F02CFA00BF2837BD4680BD000C0244FB
:100E2C0000140242001C0242000402420000111095
:100E3C0080B582B000AF7860391D4FF6FF73012288
:100E4C00034811F0DFF97B6818460837BD4680BDB2
:100E5C00488B022080B483B000AF00BF0D4B1A68E2
:100E6C000D4B1B689A42F9D00B4B1B685A1C0A4954
:100E7C000A600A4AD35CFB71074B1B683C2B02D1FE
:100E8C00054B00221A60FB7918460C37BD465DF8FD
:100E9C00047B7047188C0220208C0220DC8B0220F3
:100EAC0080B582B000AF78607B68054A934202D16E
:100EBC00786803F085FE00BF0837BD4680BD00BFD3
:100ECC00C889022080B582B000AF78607B68054A83
:100EDC00934202D1786803F073FE00BF0837BD4619
:100EEC0080BD00BFC889022080B582B000AF786099
:100EFC007B68054A934202D1786803F061FE00BF1B
:100F0C000837BD4680BD00BFC889022080B582B0BD
:100F1C0000AF0346FB80FB88082B02D0102B06D0B9
:100F2C000BE0082003F06CFE14F082FA05E01020B0
:100F3C0003F066FE14F07CFA00BF00BF0837BD4614
:100F4C0080BD000080B582B000AF78607B680E4A2F
:100F5C00934214D10D4B1B6801330C4A13600B4B9D
:100F6C001B683C2B02D1094B00221A60074B1B68F3
:100F7C00074A134401221946786811F0E1F900BFC1
:100F8C000837BD4680BD00BF488B0220188C02205C
:100F9C00DC8B022080B400AF00BF074B1B685B6882
:100FAC0003F00103002BF8D0034B1B689B68184619
:100FBC00BD465DF8047B7047B489022080B582B0D1
:100FCC0000AF78607B681B68044A934201D105F03E
:100FDC0011F800BF0837BD4680BD00BF00100040AF
:100FEC0080B500AF024832F00BF872B600BFFEE7D6
:100FFC00E84D030880B582B000AF786039603A687C
:10100C007968024831F08EFFFEE700BFFC4D030803
:10101C0080B400AF00BFBD465DF8047B7047000094
:10102C0080B5C6B000AF07F58C73A3F58A73186052
:10103C0007F58C73A3F5847318464FF484731A4622
:10104C00002132F017FA07F58C73A3F58A731B682D
:10105C001B681D4A934231D107F58C73A3F584713B
:10106C004FF080624FF00003C1E9002307F58C7349
:10107C00A3F584730022C3F8C82007F110031846A7
:10108C0008F012F80346002B01D0FFF7A9FF0F4B15
:10109C00D3F88C300D4A43F48023C2F88C300B4BC0
:1010AC00D3F88C3003F4802207F58C73A3F5867388
:1010BC001A6007F58C73A3F586731B6800BF07F5E0
:1010CC008C77BD4680BD00BF00080C42000C02446A
:1010DC0080B5CCB000AF07F59873A3F59673186084
:1010EC0007F58E7300221A605A609A60DA601A61F2
:1010FC0007F59873A3F5907318464FF484731A464A
:10110C00002132F0B7F907F59873A3F596731B68B5
:10111C001B68854A934240F0018107F59873A3F54B
:10112C0090714FF000424FF00003C1E9002307F526
:10113C009873A3F590730022C3F8F02007F1100305
:10114C00184607F0B1FF0346002B01D0FFF748FF0C
:10115C00764BD3F8A830754A43F02003C2F8A83078
:10116C00724BD3F8A83003F0200207F59873A3F55F
:10117C0092731A6007F59873A3F592731B686B4B07
:10118C00D3F88C30694A43F02003C2F88C30674B9B
:10119C00D3F88C3003F0200207F59873A3F5947301
:1011AC001A6007F59873A3F594731B684FF460737A
:1011BC00C7F81C310223C7F820310023C7F82431AB
:1011CC000223C7F828310523C7F82C3107F58E7395
:1011DC001946574806F0B2F9564B574A1A60554B08
:1011EC0032225A60534B00229A60524B4FF4806269
:1011FC00DA60504B08221A614E4B00225A614D4B5B
:10120C0000229A614B4B0022DA614A4B4FF40002E8
:10121C001A62484B01225A62464B01229A62454B94
:10122C004FF08042DA62434B00221A63414B00229A
:10123C005A63404805F032F80346002B01D0FFF703
:10124C00CFFE07F59873A3F596731B68394AC3F85C
:10125C008020384A07F59873A3F596731B68D365FD
:10126C001021344805F0B4FD0346002B01D0FFF7E4
:10127C00B7FE324B324A1A60304B31225A602F4B38
:10128C0000229A602D4B0022DA602C4B00221A614E
:10129C002A4B4FF400225A61284B00229A61274BAB
:1012AC000022DA61254B4FF400021A62234B012213
:1012BC005A62224B01229A62204B4FF08042DA6232
:1012CC001E4B00221A631D4B00225A631B4804F06C
:1012DC00E5FF0346002B01D0FFF782FE07F598735C
:1012EC00A3F596731B68154AC3F88420134A07F5B7
:1012FC009873A3F596731B68D36510210F4805F0FE
:10130C0067FD0346002B01D0FFF76AFE0022022185
:10131C00532004F081FF532004F0A8FF00BF07F511
:10132C009877BD4680BD00BF00200044000C0244ED
:10133C0000140242588A0220D0020240D08A0220B5
:10134C005002024080B5CCB000AF07F59873A3F5FE
:10135C009673186007F58E7300221A605A609A60B3
:10136C00DA601A6107F59873A3F5907318464FF479
:10137C0084731A46002132F07DF807F59873A3F5B3
:10138C0096731B681B68374A934265D107F59873AF
:10139C00A3F590714FF001024FF00003C1E9002357
:1013AC0007F59873A3F590730022DA6507F1100323
:1013BC00184607F079FE0346002B01D0FFF710FE0C
:1013CC00294BD3F8A430284A43F48043C2F8A43004
:1013DC00254BD3F8A43003F4804207F59873A3F59A
:1013EC0092731A6007F59873A3F592731B681E4BE2
:1013FC00D3F88C301C4A43F00103C2F88C301A4BE2
:10140C00D3F88C3003F0010207F59873A3F59473AD
:10141C001A6007F59873A3F594731B684FF4C063B7
:10142C00C7F81C310223C7F820310023C7F8243138
:10143C000223C7F828310723C7F82C3107F58E7320
:10144C0019460A4806F07AF8002203213A2004F0E3
:10145C00E3FE3A2004F00AFF00BF07F59877BD467B
:10146C0080BD00BF00380140000C02440000024265
:10147C0080B58EB000AF7860334BD3F89C30324AD5
:10148C0043F01003C2F89C302F4BD3F89C3003F080
:10149C001003BB60BB6807F10C0207F11003114687
:1014AC00184607F0B9FDFB69FB62FB6A002B03D100
:1014BC0007F070FD786304E007F06CFD03465B00F9
:1014CC007B637B6B5B09214AA2FB0323DB09013B9A
:1014DC00BB621F4B1F4A1A601D4B6322DA601C4A09
:1014EC00BB6A53601A4B00221A61194B00229A6096
:1014FC0017480FF0BBFE034687F8333097F83330AC
:10150C00002B18D1124810F049F8034687F83330F5
:10151C0097F83330002B0ED17B680F2B08D80022A4
:10152C007968312004F078FE0B4A7B68136002E086
:10153C00012387F83330312004F098FE97F83330CC
:10154C0018463837BD4680BD000C0244C55A7C0A8B
:10155C00248C0220001000405C00002080B400AFFE
:10156C00FEE780B400AFFEE780B400AFFEE780B4C6
:10157C0000AFFEE780B400AFFEE780B400AF00BF61
:10158C00BD465DF8047B704780B500AF082006F0BF
:10159C00F9FA00BF80BD80B500AF102006F0F2FA5A
:1015AC0000BF80BD80B500AF024805F08AFA00BFCD
:1015BC0080BD00BFD08A022080B500AF024805F084
:1015CC0080FA00BF80BD00BF588A022080B500AFF2
:1015DC00024810F059F900BF80BD00BF248C0220D6
:1015EC0080B500AF024810F00DFF00BF80BD00BFFA
:1015FC00488B022080B500AF02480FF0A9FA00BF5B
:10160C0080BD00BFC889022080B400AF01231846FA
:10161C00BD465DF8047B704780B582B000AF786042
:10162C00396032F007F8034616221A604FF0FF3388
:10163C0018460837BD4680BD80B582B000AF7860D3
:10164C004FF0FF317868FFF7E7FFFEE780B586B013
:10165C0000AFF860B9607A6000237B610AE0FFF7A5
:10166C00F9FB0146BB685A1CBA60CAB21A707B6996
:10167C0001337B617A697B689A42F0DB7B681846A0
:10168C001837BD4680BD80B586B000AFF860B96034
:10169C007A6000237B6109E0BB685A1CBA601B7836
:1016AC001846FFF7C5FB7B6901337B617A697B6860
:1016BC009A42F1DB7B6818461837BD4680BD80B472
:1016CC0083B000AF78604FF0FF3318460C37BD463F
:1016DC005DF8047B704780B483B000AF78603960EC
:1016EC003B684FF400525A60002318460C37BD4635
:1016FC005DF8047B704780B483B000AF7860012341
:10170C0018460C37BD465DF8047B704780B485B035
:10171C0000AFF860B9607A60002318461437BD46F4
:10172C005DF8047B7047000080B586B000AF786030
:10173C00144A154BD31A7B617B693B61134B1B68B5
:10174C00002B02D1114B124A1A60104B1A687B689D
:10175C0013443A699A4207D231F06CFF03460C22CB
:10176C001A604FF0FF3309E0084B1B68FB60074B16
:10177C001A687B681344054A1360FB6818461837CF
:10178C00BD4680BD00000A2000200000708C0220A5
:10179C00D05C032080B59CB008AF78600023FB645C
:1017AC007B68BB649E4831F02BFC9E4831F028FCD2
:1017BC009D4B01939D4B00939D4B9E4A9E499F4888
:1017CC0031F0B0FB4FF47A719D4831F0ABFB4FF424
:1017DC007A719C4831F0A6FB22F05CFA4FF4FA4384
:1017EC007B6407F1240100237A6CB86C2FF042FF64
:1017FC000346002B01D002235DE17A6A3C2301935E
:10180C007B6C009313464FF4C1628F498F482AF0CA
:10181C002BF8F864FB6C002B01D014234BE14FF434
:10182C00A0533B6407F1200100233A6CB86C2FF0F5
:10183C0021FF0346002B01D002233CE13B6A4FF40D
:10184C00F16205920A2204923A6C03920293804B45
:10185C0001937E4B0093002300227E497E4829F0A1
:10186C00A9FCF864FB6C002B01D0142323E10022AB
:10187C007A49794829F01CFCF864FB6C002B01D0E8
:10188C00FFF7AEFB764A7449764814F001F8F86419
:10189C00FB6C002B01D014230DE14FF48063FB6330
:1018AC0007F11C010023FA6BB86C2FF0E3FE034622
:1018BC00002B01D00223FEE0FB69FA6B1946664847
:1018CC0029F088FAF864FB6C002B01D01423F2E0A9
:1018DC00614829F0CBFAF864FB6C002B01D014237F
:1018EC00E9E05D482AF0BCFDF864FB6C002B01D0EC
:1018FC001423E0E058482AF0ADF9F864FB6C002B97
:10190C0001D01423D7E04FF44063BB6307F11801F7
:10191C000023BA6BB86C2FF0ADFE0346002B01D040
:10192C000223C8E0B96CBB69B4220692012205926D
:10193C00002204920D2203920D220292BA6B0192A4
:10194C0000930B46484A4949494830F087FDF864F2
:10195C00FB6C002B01D01423ADE04FF400637B63D0
:10196C0007F1140100237A6BB86C2FF083FE034649
:10197C00002B01D002239EE0B96C7B69B422069245
:10198C0001220592002204920D2203920D22029252
:10199C007A6B019200930B46364A3749374830F040
:1019AC005DFDF864FB6C002B01D0142383E04FF435
:1019BC00C0533B6307F1100100233A6BB86C2FF056
:1019CC0059FE0346002B01D0022374E0B96C3B692D
:1019DC00B422069200220592002204920C22039259
:1019EC000C2202923A6B019200930B46244A254931
:1019FC00254830F033FDF864FB6C002B01D0142328
:101A0C0059E04FF40063FB6207F10C010023FA6A02
:101A1C00B86C2FF02FFE0346002B37D002234AE080
:101A2C00F44E0308244F03089C4F0308A84F0308E7
:101A3C00644F0308744F03087C4F0308804F03085E
:101A4C00B44F0308D84F0308FC4F0308948E0220B0
:101A5C00B95301083C000020D08E0220DD1A00088A
:101A6C001050030858960220F91A000800000020B4
:101A7C00748C0220251D000810000020288D0220E7
:101A8C00091E000824000020DC8D0220FA680C23BB
:101A9C000093FB6A0A490B4818F0E6F8B862BB6A77
:101AAC00002B01D0142306E01C2300220649074812
:101ABC0030F0A0FBFB6C18465037BD4680BD00BF14
:101ACC00948E0220D08E02201C5003083CB60220BB
:101ADC0080B582B000AF78603960034830F0A0FC6C
:101AEC0000BF0837BD4680BD3CB6022080B596B01D
:101AFC0004AF786000237B6400227849784829F091
:101B0C00D7FA78647B6C002B01D0FFF769FA754823
:101B1C0014F088F978647B6C002B01D0FFF760FA25
:101B2C004FF0FF31704830F039FC0346002B0AD0DF
:101B3C004FF4C7726D496E4831F0F4F96D4831F0CD
:101B4C005FFAFFF74DFA6C4B00221A7040F2BF138C
:101B5C003B6400233B6307F130034FF0FF320092EC
:101B6C003A6C00215E4829F0A7FC78643B6B19465F
:101B7C00624831F0D7F90023FB630023FB6200239A
:101B8C00BB6200237B6200233B620023FB610023CA
:101B9C00BB6107F1280107F12C0207F1180303932D
:101BAC0007F11C03029307F12003019307F12403AF
:101BBC0000930B46F96B4A481FF0DCFFFB6A3A6A4C
:101BCC0019464F4831F0AEF900237B6100233B618D
:101BDC000023FB6007F1100207F11403194640487B
:101BEC0029F0A4FA78647B6C002B01D0FFF7F8F98C
:101BFC0007F10C0319463A4829F0E0FB78647B6C3A
:101C0C00002B01D0FFF7ECF93E4831F08BF97B69E2
:101C1C00190E7B691B0CDAB27B691B0AD8B27B6983
:101C2C00DBB200930346384831F07CF90A2031F0DE
:101C3C008BF9364831F076F93B69190E3B691B0C70
:101C4C00DAB23B691B0AD8B23B69DBB2009303469C
:101C5C002D4831F067F92E4831F064F9FB68190E04
:101C6C00FB681B0CDAB2FB681B0AD8B2FB68DBB250
:101C7C0000930346244831F055F90423BB6007F167
:101C8C00080307F134020321164814F007FB7864AB
:101C9C007B6C002B01D0FFF7A3F907F13803194631
:101CAC000F4829F08BFB78647B6C002B01D0FFF77D
:101CBC0097F9BB6B19460A4829F0BEFB78647B6C1C
:101CCC00002B01D0FFF78CF9124830F003FD30F0F7
:101CDC00E5FC00BF4837BD4680BD00BFDD1A0008DB
:101CEC00D08E0220589602203CB60220586403087D
:101CFC002C5003083C5003082100002068500308B6
:101D0C00845003089C500308C0500308D4500308A7
:101D1C00DC500308DC8D022080B584B000AF786005
:101D2C004FF47A73BB600023FB600E4B01221A70D8
:101D3C000DE0B8682EF018FAFB680133FB60FB6805
:101D4C00142B04D1084831F05BF9FFF749F9054B26
:101D5C001B78DBB2002BECD100BF00BF1037BD46A7
:101D6C0080BD00BF21000020E850030880B586B07C
:101D7C0000AF786000237B611C4A1D49786816F01F
:101D8C002BF878617B69002B01D0FFF729F94FF410
:101D9C0000621849786817F003FB78610423BB6074
:101DAC0007F1080307F10C020621134814F076FA28
:101DBC0078617B69002B01D0FFF712F907F10C0356
:101DCC00184614F0B7FB38613B691BBA3B613969A3
:101DDC00786816F01DF978617B69002B01D0FFF74C
:101DEC00FFF87B6918461837BD4680BD10510308B3
:101DFC00D08E022098DF0220589602202DE9F04365
:101E0C008DB004AF78607B68FB615348FFF7AEFF81
:101E1C00B861BB69002B01D0FFF7E2F803F020FAA0
:101E2C000346143319464D4831F07CF803F018FA88
:101E3C000346343319464A4831F074F803F010FA6B
:101E4C00034654331946474831F06CF803F008FA4E
:101E5C00034693F86C301E4603F002FA034693F8DF
:101E6C006D30984603F0FCF9034693F86E309946B2
:101E7C0003F0F6F9034693F86F301C4603F0F0F9C3
:101E8C00034693F870301D4603F0EAF9034693F8C5
:101E9C0071300293019500944B46424631463248CC
:101EAC0031F040F800237B6103F0DAF907F11403F9
:101EBC000122194603F057FE3B7D19467B7D1A46DD
:101ECC00BB7D1846FB7D00930346284831F02AF869
:101EDC0000233B6103F0C4F907F1100300221946FB
:101EEC0003F041FE3B7C19467B7C1A46BB7C1846B2
:101EFC00FB7C009303461E4831F014F81D4A07F191
:101F0C00080392E8030018600433198003F0A8F961
:101F1C0007F108030622194603F08DFB07F10803AD
:101F2C001946154830F0FEFF144AFB691360002176
:101F3C00002001F0E7FD1249124800F051FD124853
:101F4C0031F05EF800F022F82E2030F0FDFF4FF457
:101F5C00FA602EF009F9F7E758B602201C51030875
:101F6C00385103085451030870510308A451030855
:101F7C00C851030828520308EC510308908E022024
:101F8C0004640308FC5103080452030890B593B091
:101F9C0004AF424813F04EFE7863796B404830F042
:101FAC00C1FF404815F0CEFF3863396B3E4830F026
:101FBC00B9FF3E4831F024F83D4829F0CBF9F862DE
:101FCC00F96A3C4830F0AEFF0023BB6200237B6211
:101FDC0000233B62384B186807F1200407F12402F8
:101FEC0007F1280107F11403029307F11803019379
:101FFC0007F11C03009323462FF050FCBB6A002B07
:10200C0001D0BB6A00E02D4B2B4A1268D2691946ED
:10201C002B4830F087FF7B6A19462A4830F082FF44
:10202C003B6A1946284830F07DFFBB6919462748A2
:10203C0030F078FF00233B610023FB600023BB6082
:10204C0000237B6000233B6007F1080007F10C02C2
:10205C0007F110013B4601933B1D009303461C48BE
:10206C0029F0CCFC1A4B5B68194A926A194619483C
:10207C0030F058FF3B691946174830F053FFFB68A6
:10208C001946164830F04EFF3B681946144830F09C
:10209C0049FF00BF3C37BD4690BD00BF589602209B
:1020AC003052030858B602205452030878520308E1
:1020BC00D08E022088520308908E0220A85203086A
:1020CC00AC520308C0520308DC520308F852030850
:1020DC00948E0220145303082C5303085053030806
:1020EC007453030880B584B000AF78603960002366
:1020FC00FB60154B1968FA6813465B0013449B0090
:10210C000B441868104B1968FA6813465B001344AB
:10211C009B000B445B681A4601460C4830F002FFEA
:10212C00FB680133FB60084B1968FA6813465B00C7
:10213C0013449B000B441B68002BDAD10023184678
:10214C001037BD4680BD00BFA0E70220985303089E
:10215C0080B483B000AF78603960054B01221A60FF
:10216C00002318460C37BD465DF8047B704700BF52
:10217C0098E7022080B584B000AF78600023FB6044
:10218C007B68002B12D07868FEF7A2F90346013366
:10219C00BB60B86830F030FC0346FB60FB68002B7A
:1021AC0004D0BA687968F86831F078FAFB68184698
:1021BC001037BD4680BD000080B586B000AFF8601A
:1021CC00B9607A607B6800221A60BB68002B01D171
:1021DC00002362E0B868FEF77BF938613B69002B9D
:1021EC0001D1002359E00023FB7544E0FA7D13462E
:1021FC005B0013449B001A46FB6813441B683A6946
:10220C00B968184631F03EF90346002B30D1FA7DFF
:10221C0013465B0013449B001A46FB6813441B686F
:10222C001846FEF755F902463B6993420ED17B687E
:10223C0001221A60FA7D13465B0013449B001A4678
:10224C00FB681344174A1360164B26E0FA7D1346BD
:10225C005B0013449B0019467B681B68FA680A44B0
:10226C00104941F823207B681B685A1C7B681A6054
:10227C00FB7D0133FB75FA7D13465B0013449B0019
:10228C001A46FB6813441B68002BAFD17B681B6894
:10229C00002B01DD034B00E0002318461837BD4628
:1022AC0080BD00BFBCE7022080B584B000AF786071
:1022BC0039600023BB6007F108031A463968786857
:1022CC00FFF77AFFF860BB68012B02D1FB681B6833
:1022DC0000E0002318461037BD4680BD80B582B0A3
:1022EC0000AF00237B6014E00E4A7B6852F8233069
:1022FC00002B0BD00B4A7B6852F82330184630F079
:10230C0083FB084A7B68002142F823107B68013369
:10231C007B607B68042BE7D900BF00BF0837BD4644
:10232C0080BD00BFA4E7022080B582B000AF0023BF
:10233C007B600BE00D4A7B6852F823301A467968B3
:10234C000B4830F0EFFD7B6801337B60094B1B6859
:10235C007A689A42EED3084B1B681946074830F04E
:10236C00E1FD00BF0837BD4680BD00BFA4E70220D9
:10237C00B0530308B8E702209CE70220B8530308C7
:10238C0080B584B000AF7860414B1B68002B04D142
:10239C00142200213F4831F06DF80023FB6051E01E
:1023AC003C4AFB6852F82330002B26D0394AFB6894
:1023BC0052F8233079681846FEF780F80346002B54
:1023CC001BD1FB68002B5ED0324AFB6852F82330DD
:1023DC00BB600BE0FB68013B2E4A52F823202D49D1
:1023EC00FB6841F82320FB68013BFB60FB68002B7A
:1023FC00F0D1284ABB68136046E0264AFB6852F8C5
:10240C002330002B1BD10BE0FB68013B214A52F817
:10241C0023202049FB6841F82320FB68013BFB602B
:10242C00FB68002BF0D17868FFF7A4FE0346194A2D
:10243C001360174B1B680133154A136024E0FB68CB
:10244C000133FB60FB68042BAAD9124B1B6918469D
:10245C0030F0DAFA0423FB600BE0FB68013B0D4A19
:10246C0052F823200B49FB6841F82320FB68013B01
:10247C00FB60FB68002BF0D17868FFF77BFE03460E
:10248C00044A136000E000BF1037BD4680BD00BF9A
:10249C00B8E70220A4E7022080B582B000AF0A4B57
:1024AC001B685B68184630F00DFD38600023FB712B
:1024BC003B68B3F1FF3F01D03B68FB71FB791846D9
:1024CC000837BD4680BD00BF2C01002080B582B00E
:1024DC0000AFFFF7E1FF0346FB71FB791B2B49D1E2
:1024EC00FFF7DAFF0346FB71FFF7D6FF0346BB711C
:1024FC00FB795B2B06D1BB79322B03D1FFF7CCFFD9
:10250C007E2338E0FB794F2B04D1BB79532B01D1BF
:10251C002D2330E0FB794F2B04D1BB79522B01D109
:10252C002A2328E0FB794F2B04D1BB79512B01D105
:10253C002F2320E0FB795B2B04D1BB79412B01D1FC
:10254C00802318E0FB795B2B04D1BB79422B01D1A2
:10255C00812310E0FB795B2B04D1BB79432B01D198
:10256C00832308E0FB795B2B04D1BB79442B01D18D
:10257C00822300E0FB7918460837BD4680BD000079
:10258C0080B58CB000AF786039600023FB6200230B
:10259C00BB62002387F827304FF0FF333B627B6828
:1025AC0000221A70FFF792FF034687F8273097F83E
:1025BC0027307F2B02D1082387F8273097F8273054
:1025CC007E2B11D19E4B1B68C3F101039C4A1360F7
:1025DC009B4B1B68002B03D09A4830F0A3FCA2E164
:1025EC00994830F09FFC9EE197F82730802B30D132
:1025FC003B6A032B02DC3B6A01333B62934A3B6A26
:10260C0052F82330002B00F08E81914830F08AFC78
:10261C00904B1B681946904830F084FC8B4A3B6AFF
:10262C0052F8233019468C4830F07CFC874A3B6AC0
:10263C0052F823301846FDF74BFFF862834A3B6A89
:10264C0052F823301946786831F020F8FB6ABB62E7
:10265C0069E197F82730812B35D13B6A002B02DDDD
:10266C003B6A013B3B623B6A002B01DA00233B6275
:10267C00764A3B6A52F82330002B00F054817448A0
:10268C0030F050FC734B1B681946734830F04AFC11
:10269C006E4A3B6A52F8233019466F4830F042FCC0
:1026AC006A4A3B6A52F823301846FDF711FFF8626C
:1026BC00FB6ABB62654A3B6A52F82330194678685C
:1026CC0030F0E4FF2FE197F82730822B0AD1BB6A58
:1026DC00002B00F02881614830F024FCBB6A013BE0
:1026EC00BB6220E197F82730832B0BD1BA6AFB6AC7
:1026FC009A4280F01881BB6A0133BB62584830F0B3
:10270C0011FC10E197F82730082B36D1BB6A002B4F
:10271C0000F00981BB6A013B7A68D0187A68BB6A01
:10272C00D118FA6ABB6AD31A01331A4630F088FE04
:10273C007A68FB6A134400221A70454830F0F2FBA9
:10274C00444B1B681946444830F0ECFB796842480E
:10275C0030F0E8FBBB6A013BBB62FB6A013BFB62EE
:10276C00BA6AFB6A9A4280F0DE80FA6ABB6AD31AB4
:10277C0019463C4830F0D6FBD5E097F82730092BAA
:10278C0072D10023FB607A68FB6A134400221A7032
:10279C0007F10C031A4679683868FFF70DFD78616C
:1027AC00FB68012B1CD17B691B683B613B691B6877
:1027BC001946786830F06AFF254830F0B3FB254B9A
:1027CC001B681946244830F0ADFB7968224830F07C
:1027DC00A9FB7868FDF77CFEB862BB6AFB62A2E0DD
:1027EC00FB68012B40F39F800A2030F0ADFB0023E7
:1027FC00FB610DE0FB699B007A6913441B683B612C
:10280C003B691B68184630F0FBFBFB690133FB612D
:10281C00FB68FA699A42EDDB0D4830F083FB0D4BF7
:10282C001B6819460C4830F07DFB79680A4830F07B
:10283C0079FB7868FDF74CFEB862BB6AFB6272E00C
:10284C0050000020BC530308C4530308A4E7022023
:10285C00CC5303089CE70220B8530308D453030855
:10286C00DC530308E453030897F827300A2B5AD09B
:10287C0097F827300D2B56D0BA6AFB6A9A4214BFD0
:10288C0001230023DBB21A46344B1B681340002B88
:10289C0036D0FB6ABB610BE0BB697A681A44BB6932
:1028AC00013379680B4412781A70BB69013BBB6128
:1028BC00BB6ABA699A42EFDABB6A5A1CBA627A6886
:1028CC00134497F827201A70FB6A0133FB622448E3
:1028DC0030F028FB234B1B681946234830F022FBB1
:1028EC007968214830F01EFBBA6AFB6A9A421AD208
:1028FC00FA6ABB6AD31A19461C4830F013FB12E073
:10290C00BB6A5A1CBA627A68134497F827201A706B
:10291C0097F82730184630F017FBBA6AFB6A9A42D0
:10292C0001D9BB6AFB62FB6A502B02D14F23FB62BD
:10293C0008E097F827300A2B04D097F827300D2B96
:10294C007FF430AE7A68FB6A134400221A700A20B6
:10295C0030F0FAFA00BF3037BD4680BD5000002081
:10296C00CC5303089CE70220B8530308E453030834
:10297C0080B584B000AF7860396039687868FFF74B
:10298C00FFFD7B681B78212B16D17B680133184621
:10299C0030F02EF8F860FB68002BEEDBFA680D4B7C
:1029AC001B689A42E9D80C4AFB6852F82330194646
:1029BC00786830F06BFE0AE008497868FDF77EFD18
:1029CC000346002B02D1FFF7AFFCD6E700BF103750
:1029DC00BD4680BDB8E70220A4E70220EC530308F3
:1029EC0080B5B6B000AF786039604C4B1B689B6803
:1029FC000021184630F024FB484B1B685B68002113
:102A0C00184630F01DFB464A7B681360454A3B680C
:102A1C001360454830F086FA444830F0F1FA002152
:102A2C000020FFF75FFB0023C7F8D4303C4B1B683A
:102A3C0019463F4830F076FA07F18003396818469A
:102A4C00FFF796FF97F88030002B5CD007F18002DF
:102A5C0007F130031146184630F018FE07F18003D9
:102A6C003449184630F034FD0246D7F8D4309B0078
:102A7C00D8333B4443F8D02CD7F8D4309B00D83310
:102A8C003B4453F8D03C19463868FFF70DFCC7F8A7
:102A9C00D000D7F8D030002B2FD014E0D7F8D4309A
:102AAC000133C7F8D4302349002030F011FD024621
:102ABC00D7F8D4309B00D8333B4443F8D02CD7F80C
:102ACC00D4300A2B09D0D7F8D4309B00D8333B44F0
:102ADC0053F8D03C002BE1D100E000BFD7F8D03048
:102AEC009B6807F108021146D7F8D400984707F104
:102AFC0030031846FFF744FC05E007F13003194694
:102B0C000D4830F00FFA0D4B1B68002B8BD0FFF7E4
:102B1C00E5FB00BFD837BD4680BD00BF2C010020AF
:102B2C009CE70220A0E70220F4530308FC5303089F
:102B3C00B8530308305403083454030898E70220B0
:102B4C0080B586B000AFF860B9607A603B60002356
:102B5C007B61BB6800221A607B6800221A60072226
:102B6C002049F86830F08EFC0346002B06D1FB6838
:102B7C0007337B613B6800221A7010E008221A4967
:102B8C00F86830F07FFC0346002B06D1FB68083355
:102B9C007B613B6801221A7001E000237B617B6939
:102BAC00002B1BD0114B3B6107E07A69531C7B61F6
:102BBC003B69591C396112781A707B691B78002BA0
:102BCC0003D07B691B782F2BEFD13B6900221A7045
:102BDC00BB68064A1A607B687A691A6000BF1837AE
:102BEC00BD4680BD545403085C5403080CE8022015
:102BFC0080B588B000AFF860B9607A603B60BB68A4
:102C0C00FB617B68BB6100237B613B68002B03D0BD
:102C1C003B6800221A6024E04FF0FF3330E00023C1
:102C2C000122F969F86818F059FA38613B69002BF0
:102C3C0001DA3B6924E0FB690133FB61BB69013BB1
:102C4C00BB617B6901337B617B69042B09D9FB690F
:102C5C00043B04220C49184630F014FC0346002BAC
:102C6C0003D0BB69002BDAD100E000BFBB69002B9D
:102C7C0002D14FF0FF3303E03B687A691A600023FE
:102C8C0018462037BD4680BD6854030880B487B011
:102C9C0000AFF860B9607A6000237B61FB681B7839
:102CAC00002B24D01BE07B699B00BA681344FA68A4
:102CBC001A6002E0FB680133FB60FB681B78002B99
:102CCC0003D0FB681B780A2BF4D17B6901337B6141
:102CDC00FB681B78002B02D0FB680133FB607A6920
:102CEC007B689A4203D2FB681B78002BDBD17B6993
:102CFC0018461C37BD465DF8047B704780B483B022
:102D0C0000AF78600B46FB7002E07B6801337B60A0
:102D1C007B681B78002B04D07B681B78FA789A426E
:102D2C00F3D17B681B78002B02D07B6801337B606E
:102D3C007B6818460C37BD465DF8047B704780B441
:102D4C0083B000AF78600B46FB707B68002B0CD017
:102D5C0002E07B6801337B607B681B78002B04D01E
:102D6C007B681B78FA789A42F3D07B6818460C374C
:102D7C00BD465DF8047B704780B483B000AF7860CB
:102D8C000B46FB707B68002B0CD002E07B68013398
:102D9C007B607B681B78002B04D07B681B78FA78EF
:102DAC009A42F3D17B6818460C37BD465DF8047B1C
:102DBC007047000080B592B000AF7860396007F1C1
:102DCC00100328220021184630F054FB07F11003A1
:102DDC000A2219463868FFF759FF386479684FF0B2
:102DEC00FF324FF0FF33C1E902234FF4C8727B6806
:102DFC005A6079684FF000024FF00003C1E90423D8
:102E0C003B6C002B02D14FF0FF335EE03B69FB6360
:102E1C002021F86BFFF7B0FFF8632021F86BFFF768
:102E2C008EFFF8637B6804331A462A49F86B30F03E
:102E3C00F1F900237B6435E07B6C9B0048333B4409
:102E4C0053F8383C0E222449184630F01BFB03463D
:102E5C00002B24D17B6C9B0048333B4453F8383C0B
:102E6C003A211846FFF74AFFB8632021B86BFFF7E9
:102E7C0066FFB863BB6B002B11D04FF000024FF014
:102E8C000003C7E9022307F108031A461349B86B7C
:102E9C0030F0C0F9D7E902237968C1E902237B6CD1
:102EAC0001337B647A6C3B6C9A42C5D37B685B685C
:102EBC00C822934205D37B685B684FF496729342A9
:102ECC0002D34FF0FF3300E0002318464837BD46CD
:102EDC0080BD00BF70540308745403088454030865
:102EEC002DE9F04FA3B002AF78623962FA6100238A
:102EFC007B640023FB670023BB6700237B670023F5
:102F0C003B6700233B644FF000024FF00003C7E91E
:102F1C001A2307F1280300221A605A609A60DA60BB
:102F2C001A615A61994B7B66994B186807F14401F9
:102F3C00002340F209622EF09DFB0346002B0BD0C0
:102F4C0040F22712934994482FF0ECFF934830F04D
:102F5C0057F84FF0FF3313E14FF4C1633B667A6CC3
:102F6C003B6E1A4400231370786C3B6A0093FB6928
:102F7C008B4A396E30F01AF97C6C7B6C1846FDF775
:102F8C00A7FA03461A4600232146786A17F06EFF0B
:102F9C000346002B08DA40F233127E497E482FF0AC
:102FAC00C1FF804830F02CF8796C07F140033A6E81
:102FBC00786AFFF71DFE0346002B0CD040F2391245
:102FCC00744975482FF0AEFF774830F019F84FF080
:102FDC00FF337B67CCE07B6C07F128021946104667
:102FEC00FFF7E8FE0346002B17D07A6C3B6EDB082C
:102FFC00134400221A707B6C19466C482FF092FF18
:10300C004FF4A172634964482FF08CFF68482FF08D
:10301C00F7FF4FF0FF337B67AAE0D7E90C23C7E932
:10302C001A23BB6E194663482FF07CFF7B6E00227F
:10303C0098469146D7E91A23904579EB03030ED2B3
:10304C0042F210731A46796E5B482FF06BFF7B6E61
:10305C000022BB60FA60D7E90234C7E91A3402F0E7
:10306C00DDFFF867FB6FBB6767E03B6E00229A469B
:10307C009346D7E91A2392457BEB030301D3BB6E2E
:10308C0000E03B6EFB65796CFA6D0023786A18F0F2
:10309C0025F8B865BB6DB3F1FF3F03D14FF0FF339B
:1030AC007B6750E0BB6D002B4CD02E202FF04CFFDB
:1030BC00BB6D3A6F13443B6702F0B0FF0246BB6F27
:1030CC00D31A7B6542F210727B6D934212D93B6F1F
:1030DC00DA007B6DB2FBF3F33B65BA6E3B6D396F77
:1030EC0036482FF01FFF00233B6702F097FFF8676D
:1030FC00FB6FBB67BB6DDA171D461646D7E91A2363
:10310C00AA42B34113D3BB6DDA173B617A61D7E99D
:10311C001A23D7E904894146511A3960494663EBB1
:10312C0001037B60D7E90034C7E91A3405E04FF09E
:10313C0000024FF00003C7E91A23D7E91A231343FF
:10314C0093D100E000BF786A18F058FA02F066FFDD
:10315C000246FB6FD31AFB643B6FDA00FB6CB2FBCD
:10316C00F3F3BB64BB6CFA6C396F15482FF0DAFEC5
:10317C00786A18F043FA7B6C18462EF0B9FB7B6F1B
:10318C0018468437BD46BDE8F08F00BFE022020030
:10319C00908E0220C86403088C5403089C540308C6
:1031AC0070640308B8540308C8540308E4540308B3
:1031BC00F4540308145503082C55030870550308E0
:1031CC00AC550308B0B5A0B002AF786039600023ED
:1031DC00BB65002387F853300023FB660223BB66D4
:1031EC0007F1400300221A605A609A60DA607B682B
:1031FC00012B02D1924B7B6702E03B685B687B67DB
:10320C0007F1530307F1540207F15801786FFFF7E8
:10321C0097FCBB6D002B02D07B6D002B0CD140F2C8
:10322C00C312884988482FF07DFE796F87482FF0AC
:10323C0079FE4FF0FF33FEE0BB6D7A6D1946844882
:10324C002FF070FE5023A7F8723097F85330002BF4
:10325C0003D040F2BB13A7F87230B7F872305BBAE8
:10326C009BB2A7F842300023FB6307F1080320222E
:10327C000021184630F0FEF80223FB6002233B616C
:10328C000123BB60B86D07F13C0307F10802002174
:10329C001AF024FE0346002B0ED04FF4ED72694950
:1032AC0069482FF03FFEBB6D7A6F194669482FF0C5
:1032BC0039FE4FF0FF33BEE0FB6B5B68BA6E9A428F
:1032CC000BD1BB6E9BB2A7F84030FB6B5B695B68A4
:1032DC007B64FB6B18461BF021F9786C18F0B6FB7D
:1032EC00034619465C482FF01DFE06220121B86EDC
:1032FC0016F0A6FE78667B6E002B0BDA40F2ED1210
:10330C00504951482FF00EFE54482FF079FE4FF0E3
:10331C00FF3390E00023BB6343F6FF73BB6307F1FD
:10332C0038030422009208220121786E18F03EFD29
:10333C0038663B6EB3F1FF3F08D140F2032241499E
:10334C0041482FF0EFFD46482FF05AFE07F12803B5
:10335C0000221A605A609A60DA604FF00A024FF04D
:10336C000003C7E90A2307F1280310220092142254
:10337C000121786E18F01AFDF865FB6DB3F1FF3F73
:10338C0008D140F20F222F492F482FF0CBFD3448A3
:10339C002FF036FE07F1280310220092152201218E
:1033AC00786E18F003FDF865FB6DB3F1FF3F08D1A3
:1033BC0040F21522234924482FF0B4FD28482FF061
:1033CC001FFE07F1400310221946786E17F0BCF867
:1033DC000346002B19D17B6D5C1CBD6D786C18F00D
:1033EC0035FB0246B7F842305BBA9BB200931346EA
:1033FC002A4621461B482FF095FDBB6D7A6D194668
:10340C00786EFFF76DFDF86614E040F229220D4945
:10341C000D482FF087FDB96DB7F842305BBA9BB2FF
:10342C001A4611482FF07EFD786E18F0E7F84FF031
:10343C00FF33FB66FB6E18467837BD46B0BD00BF48
:10344C00A4640308DC6403088C540308E8550308DF
:10345C00FC550308105603083C5603084456030851
:10346C006456030878560308A456030880B489B040
:10347C0000AF786039607B68FB610023FB8100231F
:10348C007B61FB6903F001033B613B69002B0DD0B1
:10349C003B68002B0ADDFA69531CFB6107F10E0334
:1034AC00013312781A703B68013B3B60FB69BB61CE
:1034BC000AE0BB699A1CBA611B881A467B691344E3
:1034CC007B613B68023B3B603B68012BF1DC3B685A
:1034DC00002B04DD07F10E03BA6912781A70FB8910
:1034EC001A467B6913447B617B691A0C7B699BB21E
:1034FC0013447B617B691A0C7B699BB213447B611F
:10350C003B69002B07D07B691B029AB27B691B0AB3
:10351C00DBB213437B617B699BB2DB439BB21846E6
:10352C002437BD465DF8047B704780B584B000AF8E
:10353C0078600B467B8013463B807B88083BBB60E6
:10354C007B6808221A707B6800225A707B68002204
:10355C005A807B684AF6AF729A803B885BBA9AB203
:10356C007B68DA800023FB6009E0FB6808337A682B
:10357C001344FA68D2B21A70FB680133FB60FA6824
:10358C00BB689A42F1D37B8819467868FFF76EFFC7
:10359C0003461A467B685A8000BF1037BD4680BD73
:1035AC00B0B5AEB002AFF860B9607A603B60002392
:1035BC00C7F8AC300123A7F8AA300023FB672823F7
:1035CC00C7F89C3007F1680300221A605A609A60B1
:1035DC00DA603B6800221C461546C7E91A450023F1
:1035EC00C7F8A4300DE0D7F8A4309B00D7F8C02062
:1035FC0013444FF0FF321A60D7F8A4300133C7F8E8
:10360C00A430D7F8A4207B689A42ECD30122032182
:10361C00022016F015FDC7F89800D7F89830B3F1D2
:10362C00FF3F0CD197228B498B482FF07BFC8B48AA
:10363C002FF0E6FC4FF0FF33C7F8AC3040E007F159
:10364C0068031022009214220121D7F8980018F078
:10365C00ADFB0346002B0CDA9C227E497E482FF0F2
:10366C0061FC7F482FF0CCFC4FF0FF33C7F8AC3037
:10367C0026E07C4B186807F17C010023D7F89C20CE
:10368C002DF0F8FF0346002B0BD0A3227149724892
:10369C002FF048FC74482FF0B3FC4FF0FF33C7F801
:1036AC00AC30FB6F002B0BD1A9226A496A482FF072
:1036BC0039FC6D482FF0A4FC4FF0FF33C7F8AC3049
:1036CC00D7F8AC30002B40F0BB800023C7F8A030FB
:1036DC00ACE0FB6F002B08D0FB6FD7F89C2091B2AD
:1036EC00B7F8AA201846FFF720FF02F097FCC7F89E
:1036FC009400F96FD7F89C20BB680193FB6800938A
:10370C000023D7F8980017F011FC0346002B08DAB9
:10371C00BB22504950482FF005FC54482FF070FC48
:10372C008AE007F1580300221A605A609A60DA6046
:10373C0010237B6500237B6107F118033C220021D9
:10374C0018462FF097FED7F89C2007F1140107F1CB
:10375C005403019307F1580300930023D7F8980002
:10376C0017F0CCFEC7F8900002F058FCC7F88C009C
:10377C00D7F890301B2B3DDD07F11403C7F88830C8
:10378C00D7F888301B681BBA1B0E03F00F039B0085
:10379C0007F114021344C7F88430B7F8AA305BBAA7
:1037AC00A7F88230D7F884309B884AF6AF729342E0
:1037BC0029D1D7F88430DB88B7F882209A4222D1FD
:1037CC00D7F884301B78002B10D1D7F88C20D7F881
:1037DC009430D11AD7F8A0309B00D7F8C0201344EE
:1037EC000A461A600023C7F8AC3015E020482FF0C9
:1037FC0007FC08E0D7F88C30D7F89420D7F8901055
:10380C001C482FF08FFB02F009FC0146D7F89420DE
:10381C003B681344994284D3B7F8AA300133A7F814
:10382C00AA30D7F8A0300133C7F8A030D7F8A020C1
:10383C007B689A42FFF44DAFFB6F18462EF058F898
:10384C00D7F8980017F0DAFED7F8AC301846B03736
:10385C00BD46B0BDF0640308C4560308D456030833
:10386C00E4560308908E0220085703081C570308DF
:10387C00285703084857030880B58EB000AF78600E
:10388C0039604FF0FF337B6307F1100320220021D6
:10389C0018462FF0EFFD0023FB607B681B887B61D3
:1038AC000223BB6101233B6107F10C0307F11002FA
:1038BC00002138681AF012FB0346002B12D1FB686A
:1038CC005B687A681288934208D17B683B63FB681B
:1038DC005B695A683B6B5A6000237B63FB68184634
:1038EC001AF01CFE7B6B18463837BD4680BD0000B5
:1038FC0080B596B002AF78603960394BFB6407F144
:10390C000C0300221A605A609A60DA600223BB81B1
:10391C000023FB810023BB640AE0BB6C9B0050338B
:10392C003B444FF0FF3243F8342CBB6C0133BB6487
:10393C00BB6C092BF1D97B68022B02D13B685B680D
:10394C00FB64F96C27482FF0EDFA07F10C03F96CC6
:10395C001846FFF791FF0346002B06DAF96C224854
:10396C002FF0E0FA4FF0FF3336E0386918F06EF8BC
:10397C000246FB89F96C1D482FF0D4FA07F10C00B4
:10398C0007F11C03009301230A221021FFF708FE04
:10399C000346002B1CDB00237B6415E07B6C9B0037
:1039AC0050333B4453F8343C002B0ADB7B6C9B00BC
:1039BC0050333B4453F8343C1A46796C0C482FF086
:1039CC00B1FA7B6C01337B647B6C092BE6D902E08A
:1039DC0008482FF015FB002318465037BD4680BD14
:1039EC00685703087457030880570308A057030847
:1039FC00C4570308E857030880B584B000AF0346EA
:103A0C003960FB710023FB603B68002B04D03868E5
:103A1C00FCF75EFD0346FB6001F022FCF979FB68C4
:103A2C003A6801F085FE0346BB60BB681846103748
:103A3C00BD4680BD80B584B000AF78600B46FB708E
:103A4C00FB78FB737B68002B02D0FB7B002B02D135
:103A5C006FF00303BB6001F003FCFB7B1A46796833
:103A6C0001F0D6FE0346BB60BB6818461037BD4656
:103A7C0080BD000080B485B000AF0346FB71FB79BC
:103A8C00002B02D1174BFB6025E0FB79012B02D1F7
:103A9C00154BFB601FE0FB79022B02D1134BFB6033
:103AAC0019E0FB79032B02D1114BFB6013E0FB797E
:103ABC00042B02D10F4BFB600DE0FB79052B02D1DF
:103ACC000D4BFB6007E0FB79062B02D10B4BFB6027
:103ADC0001E00B4BFB60FB6818461437BD465DF8E4
:103AEC00047B7047F8570308005803080C58030868
:103AFC0018580308205803082C5803083858030892
:103B0C0044580308F0B595B00AAFF861B9610021CB
:103B1C000020FFF771FF78627B6A002B0AD14FF40B
:103B2C00F072002156482FF0A5FC0A215448FFF7EB
:103B3C0081FF78627B6A002B40F39480796A51484C
:103B4C002FF0F0F900233B6283E04D493A6A1346AB
:103B5C005B0013441B010B44243300221A703A6A95
:103B6C0013465B0013441B01454A13441D1D444975
:103B7C003A6A13465B0013441B010B442833D3F8F9
:103B8C0003603F493A6A13465B0013441B010B4424
:103B9C001C683B493A6A13465B0013441B010B44F7
:103BAC002F331B781846FFF765FF014634483A6AF5
:103BBC0013465B0013441B01034425331B787B61C4
:103BCC002F483A6A13465B0013441B010344263307
:103BDC001B783B612A483A6A13465B0013441B016D
:103BEC00034427331B78FB6025483A6A13465B0075
:103BFC0013441B01034428331B78BB6020483A6AEA
:103C0C0013465B0013441B01034429331B787B6070
:103C1C001B483A6A13465B0013441B0103442A33C6
:103C2C001B7808937A680792BA680692FA6805922C
:103C3C003A6904927B690393134B029301910094AC
:103C4C0033462A46396A11482FF06CF93B6A013326
:103C5C003B623A6A7B6A9A42FFF677AF0C482FF0C8
:103C6C00CFF908E0A2220B490B482FF05BF9796AD7
:103C7C000A482FF057F9002318462C37BD46F0BDE3
:103C8C0040E802204C580308CC580308705803082D
:103C9C00D0580308FC640308F458030804590308BB
:103CAC0080B485B000AF786039600023FB6008E019
:103CBC007B685A1C7A60FA68D2B21A70FB680133BE
:103CCC00FB60FA683B689A42F2D300BF00BF14371E
:103CDC00BD465DF8047B704780B586B000AFF860D8
:103CEC00B9607A6000237B6100233B6120E0FA68B5
:103CFC003B6913441B7819463A697B681344DBB261
:103D0C00994212D03A220F490F482FF00BF93B6918
:103D1C00D9B2FA683B6913441B781A463B690B48C5
:103D2C002FF000F97B6901337B613B6901333B6107
:103D3C003A69BB689A42DAD37B6918461837BD4694
:103D4C0080BD00BF086503082459030834590308D3
:103D5C0080B59AB002AF7860396007F11803002281
:103D6C001A605A609A60DA6002233B644FF4E06395
:103D7C007B833B6C9BB23B8307F1180304331946DE
:103D8C008D4817F0E3FEF863FB6BB3F1FF3F08D1EE
:103D9C004F228A498A482FF0C5F88A482FF030F90B
:103DAC0006E106220121386C16F04AF9B863BB6BA8
:103DBC00B3F1FF3F08D15722804981482FF0B2F868
:103DCC0081482FF01DF9F3E007F1080300221A6077
:103DDC005A609A60DA604FF00A024FF00003C7E9AC
:103DEC00022307F108031022009214220121B86B60
:103DFC0017F0DCFF78637B6BB3F1FF3F07D16222D6
:103E0C006E496F482FF08EF870482FF0F9F807F1D3
:103E1C0008031022009215220121B86B17F0C6FF7F
:103E2C0078637B6BB3F1FF3F07D168226349644829
:103E3C002FF078F865482FF0E3F85F4964482FF0CD
:103E4C0071F807F1180310221946B86B16F07CFBB9
:103E5C0038633B6B002B40F09E800023FB650023F6
:103E6C00BB6555495B482FF05DF85B482FF05AF85D
:103E7C003A687B68134419465848FFF711FF02F063
:103E8C00CDF8F86202F0CAF8786500233B6563E070
:103E9C000023FB643A6DFB6C1344504A99183A6842
:103EAC00FB6CD31A1A460023B86B16F0DFFFB8640C
:103EBC002E202FF049F8BB6C002B05DAB96C484862
:103ECC002FF030F80023BB64BB6CFA6C1344FB641A
:103EDC00FA6C3B689A42DDD3FA6DFB6C1344FB65BC
:103EEC0040F2DA7200213F482FF0C4FA00237B64C1
:103EFC007B6C3C4A99183A687B6CD31A1A4600239F
:103F0C00B86B17F0EBF8B862BB6A002B09DA9E228B
:103F1C002A492B482FF006F8B96A33482FF002F8DB
:103F2C0043E0BB6A7A6C13447B647A6C3B689A42BC
:103F3C00DED302F073F878653A6D39682948FFF7DB
:103F4C00CBFEB86578202EF0FFFFFA6D7B6C134426
:103F5C00FB653B6D01333B653A6D7B689A4297D3A9
:103F6C00BB6D002B12D17A6DFB6AD31AFA6DD1009E
:103F7C00786DFA6A821AB1FBF2F201920093FB6D32
:103F8C003A68796819482EF0CDFF0EE0B96D1848E3
:103F9C002EF0C8FF09E0BB22084909482EF0C2FFE9
:103FAC003A6B054913482EF0BDFFB86B17F026FB92
:103FBC006037BD4680BD00BF7C59030814650308FB
:103FCC00245903088C590308A0590308B059030855
:103FDC00C4590308EC5903080C5A030820EA0220C0
:103FEC00245A0308FCF102205C5A0308785A03088F
:103FFC00D85A03080C5B030880B586B000AF786014
:10400C0039600123FB607B68022B08D13B680433C9
:10401C001B6807F10C02144918462FF0FBF801231A
:10402C007B6117E0FB681A46796910482EF07AFF1D
:10403C004FF47A733B6106E039690A20FFF788FE7A
:10404C003B69C8333B613B69B3F5FA6FF4D97B69C3
:10405C0001337B61FB687A699A42E3DD00231846E1
:10406C001837BD4680BD00BF2C5B0308305B0308CE
:10407C000D48854601F01CFF0C480D490D4A0023E4
:10408C0002E0D458C4500433C4188C42F9D30A4A01
:10409C000A4C002301E013600432A242FBD32FF040
:1040AC00CFFAFCF703FCFEE700000A20000000201A
:1040BC0030010020E867030830010020D05C0320A9
:1040CC00FEE7000080B48FB000AF78603960002349
:1040DC007B637B68BB6207F10C037B6201233B6251
:1040EC000023FB61BB6A1B7887F82F30FB69012B1F
:1040FC0000F09F8097F82F302F2B03D997F82F3093
:10410C00392B04D900233B620123FB6190E000238F
:10411C007B630A233B6397F82F30302B1AD1BB6A91
:10412C000133BB62BB6A1B7887F82F3097F82F30AE
:10413C00782B03D097F82F30582B09D110233B63E1
:10414C00BB6A0133BB62BB6A1B7887F82F3001E076
:10415C0008233B6397F82F302F2B14D997F82F3067
:10416C00392B10D87B6B3A6B03FB02F297F82F308C
:10417C001344303B7B63BB6A0133BB62BB6A1B7865
:10418C0087F82F3034E03B6B102B32D197F82F305F
:10419C002F2B03D997F82F30392B0FD997F82F30B5
:1041AC00602B03D997F82F30662B07D997F82F304F
:1041BC00402B1ED997F82F30462B1AD87B6B1A013F
:1041CC0097F82F1097F82F30602B05D997F82F30D0
:1041DC007A2B01D8612300E04123CB1A0A33134315
:1041EC007B63BB6A0133BB62BB6A1B7887F82F30D9
:1041FC00B0E797F82F302E2B18D107F10C030C33A6
:10420C007A6A9A4204D300233B620123FB616DE777
:10421C007B6A7A6B1A607B6A04337B62BB6A0133FC
:10422C00BB62BB6A1B7887F82F305FE70123FB6109
:10423C005CE700BF97F82F30002B1FD097F82F307A
:10424C00202B13D097F82F300C2B0FD097F82F3042
:10425C000A2B0BD097F82F300D2B07D097F82F3057
:10426C00092B03D097F82F300B2B01D1012300E041
:10427C000023002B02D100233B624AE007F10C0320
:10428C007A6AD31A9B100133042B3ED801A252F840
:10429C0023F000BFB54200081D430008BB420008D4
:1042AC00D3420008F342000800233B6231E07B6BF1
:1042BC00B3F1807F01D300233B62FB681B067A6B52
:1042CC0013437B6325E07B6BB3F5803F02D3002364
:1042DC003B621EE0FB681A063B691B0413437A6BB6
:1042EC0013437B6315E07B6BFF2B02D900233B62EE
:1042FC000FE0FB681A063B691B041A437B691B021F
:10430C0013437A6B13437B6303E000233B6200E0AF
:10431C0000BF3B6A012B13D13B68002B10D07B6B89
:10432C001A0E7B6B1B0A03F47F431A437B6B1B0235
:10433C0003F47F031A437B6B1B061A433B681A601A
:10434C003B6A18463C37BD465DF8047B704700BF9E
:10435C0080B584B000AF78600023BB600023FB60A5
:10436C0007F1080319467868FFF7ACFE0346002BEB
:10437C0001D0BB68FB60FB6818461037BD4680BD9A
:10438C0080B48BB000AF786000237B621023FB619C
:10439C007B681B683B6107F11003BB61002387F846
:1043AC00233060E0002387F8223097F82330BA6975
:1043BC0013441B7887F8213097F82120344BA3FB4A
:1043CC000213D9080B469B000B445B00D31AFB75F8
:1043DC0097F821302E4AA2FB0323DB0887F8213003
:1043EC0097F82230FA7D3032D2B228333B4403F8AE
:1043FC001C2C97F82230013387F8223097F82130A3
:10440C00002BD9D116E097F82230013B87F82230E7
:10441C007A6AFB699A420DDA97F8223028333B44CA
:10442C0013F81C1C1B4A7B6A13440A461A707B6ADD
:10443C0001337B6297F82230002BE4D197F82330BC
:10444C00022B0BD87A6AFB699A4207DA114A7B6A0B
:10445C0013442E221A707B6A01337B6297F8233047
:10446C00013387F8233097F82330032B9AD97A6AD3
:10447C00FB699A42FBDA074A7B6A134400221A70E2
:10448C00044B18462C37BD465DF8047B704700BFC3
:10449C00CDCCCCCCD8F9022080B483B000AF7860FE
:1044AC003960012318460C37BD465DF8047B704714
:1044BC0080B582B000AF7860064A7B6813600C222E
:1044CC000549064810F0DEFB002318460837BD46A8
:1044DC0080BD00BFE8F902205C5B0308ECF9022008
:1044EC0080B500AF024810F0F1FB0023184680BDE8
:1044FC00ECF9022080B584B000AF78600B467B806D
:10450C000023FB6000237B810C4B1B687A881146CF
:10451C007868984703467B817A887B899A4207D0D2
:10452C007B89194606482EF0FDFC4FF0FF33FB60EB
:10453C00FB6818461037BD4680BD00BFE8F9022065
:10454C006C5B030880B584B000AF78607968044870
:10455C0010F0E7FBF860FB6818461037BD4680BDCD
:10456C00ECF9022080B582B000AF78607B68002B3C
:10457C0002D0786810F022FB00BF0837BD4680BD22
:10458C0080B584B000AF78607B68002B28D07B6846
:10459C009B68FB607B685B6ABB60FB68002B1FD071
:1045AC00BB68002B1CD0B968F868FFF775FF034691
:1045BC00002B11D03B1D4FF0FF3219460A4810F06A
:1045CC009DFB0346002B0BD008482EF019FD7B6891
:1045DC00184610F0F3FA03E07B68184610F0EEFA78
:1045EC0000BF1037BD4680BDECF90220905B03087C
:1045FC0080B483B000AF786039603B687A6813444C
:10460C0018460C37BD465DF8047B704780B400AF8C
:10461C00044B1B685A1C03490A601846BD465DF8DA
:10462C00047B70475400002080B483B000AF7860E6
:10463C007B681B6818460C37BD465DF8047B7047D9
:10464C0080B483B000AF78607B6804331B88184655
:10465C000C37BD465DF8047B7047000090B58BB0FD
:10466C0000AF78607B68002B00F095807B689B68BE
:10467C003B627B685B6AFB613B6A002B00F08680C7
:10468C00FB69052B40F28280386AFFF7CDFFB861D9
:10469C00386AFFF7D5FF0346FB82B7F91630002BBB
:1046AC0047DBBB69002B44D03D4B1B68BA699A426F
:1046BC003BD13B4B1B6A002B29D0394B1B6A1B8807
:1046CC00002B24D0364B5B6A002B20D0344B1B6A5A
:1046DC001B881A46FB69063B9A4203D2304B1B6A75
:1046EC001B8803E0FB699BB2063B9BB22C4A126A07
:1046FC0013802B4B5C6A0621386AFFF779FF014661
:10470C00274B1B6A1B881A4620462EF0C7FF244BEA
:10471C004FF0FF321A6023482DF082FE0346002B27
:10472C0003D021482EF06CFCFEE77868FFF71AFFE7
:10473C0030E004233B6100237B6216E01B4A7B6A5A
:10474C0032F83330FA8A9A420CD1184A7B6ADB0071
:10475C0013445B68FB60FB68002B03D0FB68786834
:10476C00984706E07B6A01337B627A6A3B699A421E
:10477C00E4D37A6A3B699A420CD1FB8A19460C48FD
:10478C002EF0D0FB7868FFF7EDFE03E07868FFF7BA
:10479C00E9FE00E000BF00BF2C37BD4690BD00BF56
:1047AC0024FA022028FA0220AC5B030824650308D3
:1047BC00D05B030880B584B000AF7860094B4FF034
:1047CC00FF321A601C230022074908482DF012FD05
:1047DC007868FFF76DFEF860FB6818461037BD4629
:1047EC0080BD00BF24FA0220EC5B030828FA0220EB
:1047FC0080B582B000AF05482DF092FDFFF770FE3A
:10480C0078607B6818460837BD4680BD28FA0220C0
:10481C0080B588B000AFB9607B600346FB8113465E
:10482C00BB814FF0FF33FB610123FB7500F018FDDA
:10483C00034603F5C2634FF0FF3118462DF0C4FA5E
:10484C00BB89B3F5C06F71D8BB890633BB82FB89BA
:10485C00B3F5877F08D16FF00501B868FFF7C8FE84
:10486C00B8610023FB7504E0BB8A184610F032F9DE
:10487C00B861BB69002B59D0FFF7C8FE03463B61FA
:10488C000021B869FFF7B4FE02463B6913600421AE
:10489C00B869FFF7ADFE0246FB891380FB7D002B48
:1048AC000BD0BB89002B08D00621B869FFF7A0FEFE
:1048BC00BB891A46B9682EF0F1FE234B1B68B3F185
:1048CC00FF3F00D0FEE73B691F4A13601E4A7B681E
:1048DC0053621D4ABB6A1362BB8A1946B869FFF75B
:1048EC0009FEF861FB69002B16D1F96A17482DF007
:1048FC0055FD0346002B13D0FB891946124B1B6840
:10490C00FA6A13482EF00EFB0F4B4FF0FF321A6071
:10491C004FF0FF33FB6103E00E482EF071FBFEE716
:10492C00FB7D002B02D0B86910F0F2F800F098FC77
:10493C00034603F5C26318462DF0A0FAFB6918462E
:10494C002037BD4680BD00BF24FA022028FA022081
:10495C00085C0308445C030880B584B000AF786041
:10496C007868FFF7EFFDF860FB68002B0CD0FB6854
:10497C005B6ABB60BB68002B03D0F868FFF76EFE68
:10498C0002E0F86810F01AF900BF1037BD4680BD80
:10499C0080B582B000AF78607B68002B02D078685D
:1049AC00FFF7E0FD00BF0837BD4680BD80B586B07F
:1049BC0000AF78607B68002B23D07B689B687B61A1
:1049CC007B69002B1DD006217869FFF711FE034689
:1049DC001B78FB747868FFF7C5FD00F041FC0346BB
:1049EC00D3F81432FB6000F03BFC0346D3F81832CA
:1049FC00BB60FB68002B04D0FA7CFB68B9681046DE
:104A0C00984700BF1837BD4680BD80B588B000AF51
:104A1C0078600023BB6100237B617B68002B3FD057
:104A2C007B689B683B6106213869FFF7E1FD034613
:104A3C001B78FB737868FFF795FDFB7B032B02DC7F
:104A4C00002B04DC21E0043B012B1ED80EE00123DB
:104A5C00FB7700F005FC0346D3F80432BB6100F091
:104A6C00FFFB0346D3F80C327B6111E00023FB778C
:104A7C0000F0F6FB0346D3F80832BB6100F0F0FB04
:104A8C000346D3F810327B6102E00023FB77FEE78C
:104A9C00BB69002B04D0F97BF87FBB697A69984716
:104AAC0000BF2037BD4680BD80B586B000AF7860B2
:104ABC007B68002B31D07B689B687B610621786911
:104ACC00FFF796FD386100F0CBFB0346D3F81C32A0
:104ADC00002B1FD03B699B8A9BB2002B1AD03B69E1
:104AEC001B68FB607B689B6803F11C027B689A6007
:104AFC007B685B6AA3F11C027B685A6200F0B0FB16
:104B0C000346D3F81C3207F10C021146786898471B
:104B1C0000BF02E0786810F051F800BF1837BD46AE
:104B2C0080BD000080B582B000AF78607B68012B3F
:104B3C0002D12DF0B3FD0BE07B684FF47A7202FBCF
:104B4C0003F3054AA2FB03239B0918462BF00CFB2D
:104B5C0000BF0837BD4680BDD34D621080B584B010
:104B6C0000AF0346FB800023FB73FB88012B13D1A2
:104B7C0000224FF480710D4802F0D4FF642001F044
:104B8C0059FA01224FF48071084802F0CBFF4FF420
:104B9C00966001F04FFA03E000F0B6FA0346FB739F
:104BAC0097F90F3018461037BD4680BD001C0242E5
:104BBC0080B500AF00F0FAFA0023184680BD000063
:104BCC0080B582B000AF786003482DF029FC00BF9F
:104BDC000837BD4680BD00BFFC00032080B483B005
:104BEC0000AF7860054A7B68934200D1FEE700BFB6
:104BFC000C37BD465DF8047B704700BFC8890220A6
:104C0C0080B582B000AF0346FB80FB88102B02D12D
:104C1C0006482DF005FCFB88082B02D104482DF02A
:104C2C00FFFB00BF0837BD4680BD00BFC40003209A
:104C3C00E000032080B584B000AF78600023FB73E4
:104C4C0079680D482DF0AAFB0346002B01D0FF23F9
:104C5C00FB730821094802F03FFF0346002B04D1E7
:104C6C0007482EF0CDF9FF23FB7397F90F30184648
:104C7C001037BD4680BD00BFE00003200014024287
:104C8C00645C030880B584B000AF78600B467B8011
:104C9C004FF0FF3118482DF097F87B68002B07D0A8
:104CAC007B88002B04D07B8840F2066293420AD9A1
:104CBC007B88194611482EF035F9114B00221A80C9
:104CCC000023FB8110E00F4A7B6813600C4A7B8841
:104CDC0013800D482DF0A4FB0346002B02D00B488B
:104CEC002EF08EF97B88FB8103482DF0C7F8FB89E9
:104CFC0018461037BD4680BD90000320705C030839
:104D0C001C01032018010320C4000320A45C030829
:104D1C0080B483B000AF78600B467B8000231846CC
:104D2C000C37BD465DF8047B7047000080B586B03B
:104D3C0000AFF860B9607A607B807B887A68B9686C
:104D4C00F8680BF047FC0346FB75396A03482DF0F5
:104D5C0025FBFB7D18461837BD4680BDFC000320A3
:104D6C0080B586B000AFF860B9603B601346FB803D
:104D7C00FB881A46B968F8680BF046F80346FB75D1
:104D8C00396804482DF00AFBFB7D18461837BD46E0
:104D9C0080BD00BFFC00032080B586B000AFF8607A
:104DAC00B9603B601346FB80FB881A46B968F8680B
:104DBC000BF01CFA0346FB75396804482DF0EEFA2B
:104DCC00FB7D18461837BD4680BD00BFFC00032094
:104DDC0080B58EB002AF7860012387F82F300122A6
:104DEC004021A74802F09EFE13E040F206600FF04F
:104DFC00A3FE0346A34A1360A24B1B68002B08D1E9
:104E0C002DF04CFC97F82F30002B02D0002387F8A4
:104E1C002F309C4B1B68002BE7D079689A482DF0FB
:104E2C00BDFA0346002B40F027814FF0FF31974825
:104E3C002CF0CAFF07F1140300221A605A6007F124
:104E4C000C0300221A605A600023BB62012387F80E
:104E5C0027308F4B1B68002B17D110218D4802F087
:104E6C003BFE0346012B17D0002387F827308A4BD3
:104E7C001B78DBB2002B0FD0824B1B6818460FF04F
:104E8C009DFE804B00221A6006E0844B1B88A7F81D
:104E9C0015307F4B1B68BB6297F82730002B00F056
:104EAC00E8800A233B75B7F815309BB2DB439BB205
:104EBC00A7F8173000224021714802F033FE7868C1
:104ECC00FFF7B8FE0346002B03D075482EF098F878
:104EDC00CAE0744807F10C0207F114017B680093D7
:104EEC000823FFF723FF0346002B03D06E482EF058
:104EFC0087F8B9E03B7B0B2B05D03B7B19466B4805
:104F0C002EF010F8B0E0B7F80D309AB2B7F80F30B9
:104F1C009BB253409BB24FF6FF7293420BD0B7F843
:104F2C000D309BB21946B7F80F309BB21A46604849
:104F3C002DF0F8FF98E0B7F80D309BB2002B05D19F
:104F4C00B7F815309BB2002B00F08E80B7F80D30FF
:104F5C009BB240F20662934206D8B7F815309BB26A
:104F6C0040F2066293420BD9B7F80D309BB219464A
:104F7C00B7F815309BB21A464E482DF0D3FF73E0AC
:104F8C0000233B62B7F815309AB2B7F80D309BB2DC
:104F9C009A4204D97B69C3F30F23BB8403E0FB68FB
:104FAC00C3F30F23BB84B7F80D309BB2002B03D097
:104FBC00344B1B689B683B627868FFF73BFE0346EB
:104FCC00002B03D03C482EF01BF84DE0BB6A002BA5
:104FDC001DD02F4B00221A60304B00221A803B6AE6
:104FEC00002B0BD02F48BA8C7B68009313463A6A7F
:104FFC00B96AFFF79BFE0346FB7710E02948BA8C91
:10500C007B68B96AFFF7ACFE0346FB7707E02548DF
:10501C00BA8C7B68396AFFF7BFFE0346FB77FB7FD0
:10502C00002B03D025482DF0EBFF1DE0B7F80D3019
:10503C009BB2002B18D0B7F80D309AB2114B1B68ED
:10504C005A62104B1B689A68B7F80D309BB2194620
:10505C000C4B1B680A44DA600A4B1B681846FFF7B6
:10506C008FFA084B00221A6001224021044802F0FA
:10507C0059FD06482CF002FF00BF3037BD4680BDFD
:10508C0000140242D8010320C40003209000032026
:10509C0018010320001C0242D40103201C01032030
:1050AC00D85C0308C8890220EC5C0308005D030887
:1050BC00185D0308345D0308505D0308645D030844
:1050CC0080B582B000AF78600D4B00221A7003E0FF
:1050DC004FF0FF30FFF77CFE094B1B78DBB283F0FF
:1050EC000103DBB2002BF3D1054B00221A700FF039
:1050FC00BDFD04480FF0A2FD00BF0837BD4680BDC2
:10510C00D40103202001032080B584B002AF00231A
:10511C00FB7134230022194919482CF079FD1C230A
:10512C000022184918482DF065F81C230022174955
:10513C0017482DF05FF81C230022164916482DF055
:10514C0059F8082301934FF4806300930023134A0A
:10515C00134914480FF046FD0346002B02D0FF23E1
:10516C00FB7104E0012240210F4802F0DBFC97F9AF
:10517C00073018460837BD4680BD00BF845D030864
:10518C0090000320905D0308C40003209C5D03087D
:10519C00E0000320AC5D0308FC000320CD500008A8
:1051AC00C05D0308200103200014024280B500AF4B
:1051BC000F4B01221A700F482DF032F903E04FF417
:1051CC00FA702AF0D1FF0A4B1B78DBB2002BF6D118
:1051DC0009480FF033FD07482DF0A2F807482DF0D1
:1051EC009FF807482CF0B2FD0023184680BD00BF85
:1051FC00D4010320C400032020010320E00003207D
:10520C009000032080B586B002AF78604FF0FF337A
:10521C00FB600D4B01930D4B00930D4B0D4A0E494A
:10522C000E4800F027F80346002B07D17B68002BB3
:10523C0002D07B68094A1A600023FB60FB681846A1
:10524C001037BD4680BD00BF1D4D0008914C0008B5
:10525C00314B0008BD4B0008694B00084CFA02208A
:10526C0080B400AF024B1846BD465DF8047B704716
:10527C004CFA022080B487B000AFF860B9607A6055
:10528C003B60FB68002B0ED0BB68002B0BD07B68FF
:10529C00002B08D03B6A002B05D07B6A002B02D078
:1052AC003B68002B02D1FF23FB7510E0FB68BA684A
:1052BC001A60FB687A685A60FB683A6ADA60FB68C5
:1052CC007A6A1A61FB683A689A600023FB7597F951
:1052DC00173018461C37BD465DF8047B704780B507
:1052EC0084B000AF7860FF23FB737B68002B0ED07B
:1052FC007B681B68012098470346BB7397F90E30F7
:10530C00002B02D10023FB7301E0FF23FB7397F901
:10531C000F3018461037BD4680BD000080B582B0F6
:10532C0000AF78600F4B00221A7007E0FFF798FF70
:10533C0003464FF4FA71184600F06AF9094B1B78D2
:10534C00DBB283F00103DBB2002BEFD1054B002263
:10535C001A700FF08BFC04480FF070FC00BF08377C
:10536C00BD4680BDDC010320E001032080B58EB07A
:10537C0002AF7860FF2387F82F307B68002B03D1B6
:10538C00FC2387F82F30E2E07B6893F80E36002B75
:10539C0040F0D2807B6803F5C260342300226F4951
:1053AC002CF036FC7B6842F21072C3F800227B684A
:1053BC001B68002098477B68DB681846FFF7FAF9F2
:1053CC000346002B40F0C380092301934FF4C063C4
:1053DC0000930023624A634963480FF003FC0346C1
:1053EC00002B40F0B4807B685433182200211846FF
:1053FC002EF040F81823FB847B6803F1540242F230
:10540C001073019307F12603009313460022002129
:10541C000320FFF7FDF90346002B40F0988007F1BD
:10542C00180300221A605A609A60504A07F10C0364
:10543C0007CA83E807007B6803F1540007F11803DF
:10544C00191D07F1180207F11803083300930B46D6
:10545C0047492DF0DFFEB862BB6A002B03DC4548E0
:10546C002DF0CEFDFEE7002387F82E3028E097F8CC
:10547C002E309B0030333B4453F8182C97F82E30C9
:10548C009B0030333B4453F8243C9A421DD897F888
:10549C002E309B0030333B4453F8182C97F82E30A9
:1054AC009B0030333B4453F8243C9A4203D232489D
:1054BC002DF0A6FDFEE797F82E30013387F82E303D
:1054CC0097F82E30022BD2D900E000BF7B68143342
:1054DC001F222A49184600F0DBFC7B6834331F225C
:1054EC002749184600F0D4FC7B686C330622002157
:1054FC0018462DF0BFFF0623FB847B6803F16C027A
:10550C0042F21073019307F1260300931346002215
:10551C00002140F20110FFF77BF90346002B16D156
:10552C00002387F82F307B6893F80E360133DAB2FC
:10553C007B6883F80E260AE07B6893F80E360133FD
:10554C00DAB27B6883F80E26002387F82F3097F9A0
:10555C002F3018463037BD4680BD00BFD85D0308DC
:10556C0029530008E85D0308E0010320805E03086E
:10557C00005E0308105E0308405E0308685E0308C3
:10558C00745E030880B584B000AF7860FC23FB73B5
:10559C007B68002B32D07B6893F80E36012B1ED122
:1055AC00194B01221A7002E032202AF0DDFD164B55
:1055BC001B78DBB2002BF7D114480FF03FFBFFF741
:1055CC0017F97B685B6898470023FB737B6893F83B
:1055DC000E36013BDAB27B6883F80E260EE0002310
:1055EC00FB737B6893F80E36002B07D07B6893F81F
:1055FC000E36013BDAB27B6883F80E2697F90F3032
:10560C0018461037BD4680BDDC010320E0010320A5
:10561C0080B584B000AF786039600023FB737B6881
:10562C00002B02D03868FFF797F997F90F3018461E
:10563C001037BD4680BD80B588B002AFF860B96048
:10564C007A60FF23FB75FB68002B32D0BB68002B04
:10565C002FD07B68182B2CD87B68002B29D01823D3
:10566C00BB82FB6854331822002118462DF002FF30
:10567C00FB6803F1540242F21073019307F1140317
:10568C0000931346002200210320FFF7C1F80346C4
:10569C00002B0ED1FB6854337A681946B8682DF08C
:1056AC00FDFF7B68013BBA68134400221A7000238B
:1056BC00FB7597F9173018461837BD4680BD80B575
:1056CC0086B002AF78603960FF23FB737B68002BD8
:1056DC0027D03B68002B24D00623BB817B68723318
:1056EC000622002118462DF0C5FE7B6803F17202DC
:1056FC0042F21073019307F10C030093134600223E
:10570C00002140F21510FFF783F80346002B08D157
:10571C007B6872330622194638682DF0BFFF0023D0
:10572C00FB7397F90F3018461037BD4680BD00004B
:10573C00B0B592B002AFF8607A603B600B46FB727A
:10574C00FF2387F83F30FB68002B0BD0FB7A012B33
:10575C000CD17B68002B05D03B68002B02DD3B682D
:10576C00202B03DDFC2387F83F3049E0274B07F162
:10577C0010041D460FCD0FC40FCD0FC42B68237022
:10578C002123BB87FB6803F50973BB6340F2E93344
:10579C00BB863B681F2B01DC3B6800E0202307F134
:1057AC0010001A4679682DF079FFBA8F07F11001B5
:1057BC0041F28833019307F134030093BB6B4FF430
:1057CC008170FFF725F80346002B19D1BB6B1B78B2
:1057DC0087F83730FB6803F50970BB6B591C97F8D9
:1057EC00372013465B0013441B011A462DF028FE8C
:1057FC00FB6897F8372083F80D26002387F83F3095
:10580C0097F93F3018464037BD46B0BD8C5E030853
:10581C0080B586B000AFF860B9601346FB71002309
:10582C00FB75FB68002B19D0BB68002B16D0FB79DD
:10583C00002B13D0FB6893F80D36FA79934228BFEE
:10584C001346FB75FB6803F50971FA7D13465B0083
:10585C0013441B011A46B8682DF020FF97F9173036
:10586C0018461837BD4680BD80B487B000AFF860CD
:10587C00B9607A60FB70FF23FB75FB68002B16D0B8
:10588C00FB78002B0CBF01230023DBB2BB75BB7D67
:10589C00FA6880339B001344BA685A60BB7DFA687F
:1058AC0082339B0013447A685A600023FB7597F986
:1058BC00173018461C37BD465DF8047B7047B0B5F1
:1058CC00CCB002AF07F59474A4F58E74206007F584
:1058DC009470A0F59070016007F59471A1F5927128
:1058EC000A601A4607F59473A3F225131A70FF2366
:1058FC0087F8273107F59473A3F58E731B68002B7B
:10590C0000F0FF8007F59473A3F590731B68002BD0
:10591C0000F0F78007F59473A3F592731B68002BC6
:10592C0000F0EF8007F59473A3F590731868FAF7FD
:10593C00CFFDC7F8200107F59473A3F5927318688F
:10594C00FAF7C6FDC7F81C01D7F82031202B03D875
:10595C00D7F81C31402B03D9FC2387F82731D0E032
:10596C0007F15003B022002118462DF083FDB0231F
:10597C00A7F81A314FF0FF33C7F814310423A7F8F6
:10598C00123107F59473A3F5907307F150002022A0
:10599C00196800F07DFA07F59473A3F5927307F17B
:1059AC00500202F121004022196800F071FAD7F878
:1059BC001C31C7F8B23007F59473A3F58E731B68CE
:1059CC0093F8DB30002B40F0818007F59473A3F53E
:1059DC008C73184640231A4600212DF04BFD0023F2
:1059EC00C7F80C3107F59473A3F58E731B68DD3380
:1059FC001B68C7F80C3107F586731846FEF7C0FC18
:105A0C00014607F110030F22184600F041FA00235B
:105A1C00C7F8083107F59473A3F58E731B68E1334F
:105A2C001B68C7F8083107F584731846FEF7A8FC05
:105A3C00014607F1100310330F22184600F028FA24
:105A4C000023C7F8043107F59473A3F58E731B6814
:105A5C00E5331B68C7F8043107F582731846FEF767
:105A6C008FFC014607F1100320330F22184600F07B
:105A7C000FFA0023C7F8003107F59473A3F58E7362
:105A8C001B68E9331B68C7F8003107F580731846AB
:105A9C00FEF776FC014607F1100330330F2218464F
:105AAC0000F0F6F9012387F8B73007F59473A3F5E6
:105ABC008C7307F1C0041D460FCD0FC40FCD0FC45E
:105ACC000FCD0FC495E80F0084E80F0007F58A701E
