:020000040800F2
:1000000000000A20C15F0008AD340008B3340008C6
:10001000B9340008BF340008C53400081160000876
:100020000000000000000000000000001160000857
:10003000CB3400080000000031030008DD02000896
:1000400011600008116000081160000811600008CC
:1000500011600008116000081160000811600008BC
:1000600011600008116000081160000811600008AC
:100070001160000811600008D9340008E734000856
:10008000116000081160000811600008116000088C
:10009000116000081160000811600008116000087C
:1000A000116000081160000811600008116000086C
:1000B000116000081160000811600008F5340008A4
:1000C000093500081160000811600008116000087F
:1000D000116000081160000811600008116000083C
:1000E000116000081160000811600008116000082C
:1000F000116000081160000811600008116000081C
:10010000116000081D35000811600008116000082A
:1001100011600008116000081160000811600008FB
:1001200011600008116000083135000811600008F6
:1001300011600008116000081160000811600008DB
:1001400011600008116000081160000811600008CB
:1001500011600008116000081160000811600008BB
:1001600011600008116000081160000811600008AB
:10017000116000081160000811600008116000089B
:100180001160000811600008116000084535000882
:10019000116000081160000811600008116000087B
:1001A000116000081160000811600008116000086B
:1001B000116000081160000811600008116000085B
:1001C000116000081160000811600008116000084B
:1001D000116000081160000811600008116000083B
:1001E000116000081160000811600008116000082B
:1001F000116000081160000811600008116000081B
:10020000116000081160000811600008116000080A
:1002100011600008116000081160000811600008FA
:1002200011600008116000081160000811600008EA
:1002300011600008116000081160000811600008DA
:0C02400011600008116000081160000847
:10024C0010B5054C237833B9044B13B10448AFF304
:10025C0000800123237010BD30010020000000003D
:10026C008885030808B5034B1BB103490348AFF35A
:10027C00008008BD000000003401002088850308C0
:10028C0072B64FF0E0201749C0F8081D16480168F7
:10029C0041F00101016015481249096801604FF0F5
:1002AC00E020134941614FF0070101614FF000015B
:1002BC00C0F8181D4FF07F41C0F81C1D0D49C0F847
:1002CC00201D7047FFF7FEBF01B5BDE80140704728
:1002DC0001B500F097F8BDE801407047FFF7FEBF8D
:1002EC00FFF7FEBF00000008001000E030560320AE
:1002FC007FA903000000FF404FF000002D4A106062
:10030C00EFF3148020F0040080F3148862B64FF0F1
:10031C0080504FF0E021C1F8040DBFF34F8FBFF3B5
:10032C006F8FFEE72448254A4FF00003016891B116
:10033C000360EFF3098C2CE9F00F1EF0100F01D1C4
:10034C002CED108A1E4C4CF804EDC1F808C0256841
:10035C000DB18D61236072B61168D1B1016062B6C6
:10036C004F68174C8D6907F101074F602560D1F874
:10037C000CC08CF30B88D1F808C05CF804EB1EF0B1
:10038C00100F01D1BCEC108ABCE8F00F8CF309887B
:10039C00704772B61168016009B962B6F9E74FF09F
:1003AC0000674FF0E028C8F8047D62B6D8E700BFBC
:1003BC0070470000CC5603203456032038560320D7
:1003CC003C5C0320026922F00702A2F144026FF0A8
:1003DC00430313604FF0000353609360D3601361C9
:1003EC0053619361D361136253629362D36213635B
:1003FC0053634FF0FF339363D1634FF080731364F7
:10040C00826070472249086800F101000860214BA6
:10041C001A683AB1A2F101021A601AB91E4B4FF0D8
:10042C00010018601D490868026822B11C4B4FF08E
:10043C0001021A6008E000F104001A4B1A6890429D
:10044C0001D1194B18680860134B1A6812B914497A
:10045C000868C8B101B51249086808B134F0B0F9A0
:10046C000D4B1A6872B133F07DFF1048016849B921
:10047C000F4801680F4A13680F484FF08052994299
:10048C0000D00260BDE80140BFF34F8F7047000001
:10049C00D85603203C5C0320DC560320685703200D
:1004AC006C5703206457032060570320CC5603205D
:1004BC00345603203856032004ED00E010F8012BCD
:1004CC0011F8013B012A28BF9A42F7D0D01A704785
:1004DC00034613F8012B002AFBD1181A0138704778
:1004EC0053B94AB9002908BF00281CBF4FF0FF318F
:1004FC004FF0FF3000F082B9ADF1080C6DE904CE7D
:10050C0000F006F8DDF804E0DDE9022304B07047E2
:10051C002DE9F04F099E0D4604460F46002B46D19F
:10052C008A4294465ED9B2FA82F343B102FA03FCD2
:10053C00C3F120029F409C4020FA02F217434FEA7D
:10054C001C4E1FFA8CF5220CB7FBFEF10EFB11773B
:10055C0001FB05F042EA0742904208D91CEB02026B
:10056C0001F1FF3702D2904200F234813946121A5F
:10057C00A4B2B2FBFEF00EFB102200FB05F544EA20
:10058C000244A54208D91CEB040400F1FF3202D24C
:10059C00A54200F21981104640EA0140641B00217B
:1005AC001EB1DC400023C6E90043BDE8F08F8B424E
:1005BC0008D9002E00F0FC800021C6E90005084691
:1005CC00BDE8F08FB3FA83F100294CD1AB42C0F0F7
:1005DC00F280824240F2EF800846002EE5D0C6E958
:1005EC000047E2E702B9FFDEB2FA82F3002B40F0DB
:1005FC009F808A1A4FEA1C4E1FFA8CF70121B2FB1E
:10060C00FEF50EFB1520220C42EA004207FB05F01A
:10061C0090420FD91CEB020205F1FF382CBF4FF0B2
:10062C0001094FF00009904203D9B9F1000F00F015
:10063C00CE804546121AA4B2B2FBFEF00EFB10227D
:10064C0000FB07F744EA0244A74208D91CEB040458
:10065C0000F1FF3202D2A74200F2B3801046E41B35
:10066C0040EA05409CE7C1F120048B4005FA01FCEF
:10067C0022FA04F7E5408A401F4320FA04F388402D
:10068C004FEA174843EA0C031FFA87FC4FEA134959
:10069C00B5FBF8FE08FB1E5549EA05450EFB0CF9A7
:1006AC00A9450ED97D190EF1FF3A2CBF4FF0010B65
:1006BC004FF0000BA94503D9BBF1000F00F08D8062
:1006CC00D646A5EB09051FFA83F9B5FBF8F308FB31
:1006DC00135503FB0CFC49EA0545AC4506D97D19BD
:1006EC0003F1FF3801D2AC457ED8434643EA0E43B2
:1006FC00A5EB0C05A3FB02984545CE46C44602D398
:10070C0006D1484504D2013BB9EB020E68EB070C4D
:10071C00002E6FD0B0EB0E0265EB0C05CA4005FA4B
:10072C0004F4CD40184614430021C6E900453CE7CB
:10073C0002FA03FCC3F1200299409C40D5404FEAD9
:10074C001C4E20FA02F21FFA8CF7B5FBFEF00A439E
:10075C000EFB1055110C41EA054100FB07F58D42CB
:10076C000ED91CEB010100F1FF382CBF4FF0010931
:10077C004FF000098D4202D9B9F1000F31D040463B
:10078C00491B92B2B1FBFEF50EFB151142EA014278
:10079C0005FB07F1914207D91CEB020205F1FF386A
:1007AC0001D2914223D84546521A45EA004126E728
:1007BC0031463046F9E6841A65EB030201201746F0
:1007CC000BE7644402384AE764440238E4E6023D2D
:1007DC0062442FE702396244C9E6AEF1020E3D4491
:1007EC006FE702386144CBE7023B3D447EE7023DB4
:1007FC006244D9E718463146D7E600BF704700BFC0
:10080C0080B586B002AF78600023FB603423009380
:10081C004FF40063154A1649164834F0DBFB0346C7
:10082C00002B09D1134BBB60B86800F02BF8F860B3
:10083C00FB68002B00D0FEE7342300934FF42033E9
:10084C000D4A0E490E4834F0C5FB0346002B09D166
:10085C000B4BBB60B86802F03FFFF860FB68002BE5
:10086C0000D0FEE700BF1037BD4680BD4C01002014
:10087C00A08503084C09002080090020B4850308DA
:10088C008089022080B485B000AF78600023FB60C3
:10089C00FB6818461437BD465DF8047B704780B57D
:1008AC0000AF30F0C5FF00BF80BD0000B0B5A8B0F0
:1008BC0004AF07F01BFB00F0A9F800F067FA00F09A
:1008CC0011F900F037F900F011FA00F0B9F900F065
:1008DC00A1F900F03BF9424B07F168041D460FCD1E
:1008EC000FC495E8030084E8030007F16803184679
:1008FC00FFF7EEFD0346A7F88E30B7F88E2007F110
:10090C0068014FF6FF73374813F0EAFD364B1B684E
:10091C009B680021184635F0CFFF00233B603B1D40
:10092C0060220021184636F0E1F93B461846FFF7E5
:10093C00CFFD03461A463B4613442C491A460B4638
:10094C0003CB106051601B88138107F009FBC7F8BB
:10095C00880000237B6607E0254B1B680133244A83
:10096C0013607B6E01337B667B6E224A9342F3D31A
:10097C0007F0F6FAC7F88400D7F88420D7F8883047
:10098C00D31A1B4A1268029201933B4600931A4BEE
:10099C001A4AD7F884101A4835F000FF00F09CFB77
:1009AC00C7F88000D7F88030184635F01DFD35F0BB
:1009BC0049FD03461A46D7F88010124835F0EEFE72
:1009CC0001221149074813F029FE074B1B685B688D
:1009DC000021184635F070FFFFF761FFFEE700BFFE
:1009EC0048860308A48B02202C010020C88503082C
:1009FC00788C0220009F2400D4850308E08503082E
:100A0C00EC85030824860308388C022080B59CB042
:100A1C0000AF07F1200350220021184636F066F98A
:100A2C0007F1080300221A605A609A60DA601A61B2
:100A3C005A612B4B1B692A4A43F030031361284B34
:100A4C001B6903F030037B607B6800BF244B5B6940
:100A5C0003F00803082BF9D122233B620123FB622C
:100A6C0000233B6340237B634FF480537B6402235E
:100A7C00BB640123FB6408233B653C237B65022399
:100A8C00BB650223FB6502233B660C237B660023BC
:100A9C00BB660023FB6607F12003184609F022FA17
:100AAC000346002B01D000F03DFB1F23BB6003234A
:100ABC00FB6000233B6100237B610023BB610023AF
:100ACC00FB6107F108030521184609F089FF03466D
:100ADC00002B01D000F026FB00BF7037BD4680BD57
:100AEC000008024480B582B000AF114BD3F88830B7
:100AFC000F4A43F00103C2F888300D4BD3F888300D
:100B0C0003F001037B607B68002202211F2007F0A9
:100B1C0025FB1F2007F04CFB00220221202007F0B0
:100B2C001DFB202007F044FB00BF0837BD4680BDED
:100B3C00000C024480B500AF09F0C4F90346002B49
:100B4C0001D000F0EFFA00BF80BD000080B582B08C
:100B5C0000AF2E4B2E4A1A602C4B01225A602B4BA5
:100B6C0000229A60294B0022DA60284B0D221A6170
:100B7C00264B01225A61254B00229A61234B0022FD
:100B8C00DA61224B00221A62204B00225A621F4B60
:100B9C0000229A621D4B0022DA621C4B00221A635F
:100BAC001A4B08225A63194B00229A63174816F005
:100BBC0003F90346002B01D000F0B4FA01233B717A
:100BCC0001237B71002001F0A9F83B1D1946002080
:100BDC0001F00AF80346002B01D000F0A3FA012221
:100BEC000021002001F044F90346002B01D000F055
:100BFC0099FA002001F0BAF90346002B01D000F05D
:100C0C0091FA00BF0837BD4680BD00BFB4890220F1
:100C1C000014004780B500AF074B084A1A60064B1A
:100C2C0000225A60044810F0EDFD0346002B01D061
:100C3C0000F078FA00BF80BD108A022000080C4238
:100C4C0080B500AF274B284A1A60264B4FF4800220
:100C5C005A60244B00229A60224B0722DA60214B07
:100C6C0000221A611F4B00225A611E4B4FF080620A
:100C7C009A611C4B4FF00052DA611A4B00221A6237
:100C8C00184B00225A62174B00229A62154B07220E
:100C9C00DA62144B00225A63124B00229A63114BF6
:100CAC000022DA630F4B00229A640E4B0022DA64A6
:100CBC000C4B00221A650B4B00225A65094B002283
:100CCC009A65084B0022DA65064B00221A66054825
:100CDC0010F052FE0346002B01D000F023FA00BFA7
:100CEC0080BD00BF248A02200020004480B500AFE4
:100CFC00244B254A1A60234B4FF4E1325A60214BA6
:100D0C0000229A601F4B0022DA601E4B00221A61EF
:100D1C001C4B0C225A611B4B00229A61194B00226E
:100D2C00DA61184B00221A62164B00225A62154BDC
:100D3C0020229A62134B4FF400521A64114813F09C
:100D4C00E7F90346002B01D000F0ECF900210D4827
:100D5C0015F098FD0346002B01D000F0E3F90021BB
:100D6C00084815F0A5FE0346002B01D000F0DAF977
:100D7C00044815F093FC0346002B01D000F0D2F987
:100D8C0000BF80BDA48B02200038014080B58EB01E
:100D9C0000AF07F1240300221A605A609A60DA60EF
:100DAC001A616F4BD3F88C306D4A43F04003C2F894
:100DBC008C306B4BD3F88C3003F040033B623B6AB6
:100DCC00674BD3F88C30664A43F00803C2F88C307A
:100DDC00634BD3F88C3003F00803FB61FB69604B69
:100DEC00D3F88C305E4A43F00203C2F88C305C4B73
:100DFC00D3F88C3003F00203BB61BB69584BD3F8BA
:100E0C008C30574A43F00103C2F88C30544BD3F862
:100E1C008C3003F001037B617B69514BD3F88C3030
:100E2C004F4A43F01003C2F88C304D4BD3F88C3042
:100E3C0003F010033B613B69494BD3F88C30484AB3
:100E4C0043F00403C2F88C30454BD3F88C3003F0DC
:100E5C000403FB60FB68424BD3F88C30404A43F0F0
:100E6C002003C2F88C303E4BD3F88C3003F02003B7
:100E7C00BB60BB683A4BD3F88C30394A43F08003E3
:100E8C00C2F88C30364BD3F88C3003F080037B6087
:100E9C007B6801224021334808F022FF01224FF4E5
:100EAC008071314808F01CFF012201212F4808F005
:100EBC0017FF08237B622E4BBB620023FB6207F1FA
:100ECC0024031946274808F0DBFA40237B620123F0
:100EDC00BB620023FB6202233B6307F12403194628
:100EEC00204808F0CDFA4FF480737B620123BB627B
:100EFC000023FB6200233B6307F1240319461A48C5
:100F0C0008F0BEFA10237B62194BBB620023FB6214
:100F1C0007F124031946144808F0B2FA01237B6246
:100F2C000123BB620023FB6200233B6307F1240314
:100F3C0019460E4808F0A4FA002202210E2007F0F0
:100F4C000DF90E2007F034F9002202210F2007F0D2
:100F5C0005F90F2007F02CF900BF3837BD4680BDCE
:100F6C00000C024400140242001C02420004024223
:100F7C000000111080B582B000AF7860391D4FF6BB
:100F8C00FF730122034813F0ABFA7B68184608374D
:100F9C00BD4680BDA48B022080B483B000AF00BFDF
:100FAC000D4B1A680D4B1B689A42F9D00B4B1B6802
:100FBC005A1C0A490A600A4AD35CFB71074B1B682E
:100FCC003C2B02D1054B00221A60FB7918460C37DA
:100FDC00BD465DF8047B7047748C02207C8C02202B
:100FEC00388C022080B582B000AF78607B68054AEF
:100FFC00934202D1786805F085FD00BF0837BD46E5
:10100C0080BD00BF248A022080B582B000AF78601A
:10101C007B68054A934202D1786805F073FD00BFE6
:10102C000837BD4680BD00BF248A022080B582B03F
:10103C0000AF78607B68054A934202D1786805F06E
:10104C0061FD00BF0837BD4680BD00BF248A022069
:10105C0080B582B000AF0346FB80FB88082B02D022
:10106C00102B06D00BE0082005F06CFD17F01CFED1
:10107C0005E0102005F066FD17F016FE00BF00BF5E
:10108C000837BD4680BD000080B582B000AF7860E7
:10109C007B680E4A934214D10D4B1B6801330C4AEA
:1010AC0013600B4B1B683C2B02D1094B00221A60BE
:1010BC00074B1B68074A134401221946786813F042
:1010CC00ADFA00BF0837BD4680BD00BFA48B02201F
:1010DC00748C0220388C022080B400AF00BF074B08
:1010EC001B685B6803F00103002BF8D0034B1B68F3
:1010FC009B681846BD465DF8047B7047108A022039
:10110C0080B582B000AF78607B681B68044A93425C
:10111C0001D106F011FF00BF0837BD4680BD00BFEE
:10112C000010004080B500AF024835F0A5FB72B648
:10113C0000BFFEE76086030880B582B000AF786020
:10114C0039603A687968024835F028FBFEE700BF41
:10115C007486030880B483B000AF78607B684FF06E
:10116C0080621A607B684FF480325A607B684FF45F
:10117C0080629A607B684FF48052DA607B684FF42F
:10118C0080421A617B684FF480525A617B684FF43D
:10119C0080429A617B684FF48072DA617B684FF40D
:1011AC0080221A62002318460C37BD465DF8047B7A
:1011BC00704780B59CB000AF78600B46FB7013464F
:1011CC00BB7007F1200350220021184635F08EFD2C
:1011DC0007F10C0300221A605A609A60DA601A61F7
:1011EC00FB78002B05D1BB78012B02D14FF0FF33DC
:1011FC008DE000233B6200237B62FB78002B01D146
:10120C00012300E00423FB62BB78012B01D10823EE
:10121C0000E000237B63FB78002B01D1002300E06E
:10122C0010233B63FB78002B01D1052301E040F236
:10123C00FA53BB62FB78002B01D1002301E04FF481
:10124C008063FB63BB78012B02D14FF4006300E099
:10125C0000237B644FF440533B640023BB630023A7
:10126C00FB64FB78002B02D14FF0807301E04FF050
:10127C008063BB65BB78012B02D14FF0006300E0AB
:10128C0000233B66FB78002B06D0BB78012B01D1E9
:10129C00052302E0042300E000237B66BB78012BCE
:1012AC0001D1022300E00123FB65BB78012B02D1A5
:1012BC004FF0005300E00023BB660023FB660023C5
:1012CC00FB6001233B6100237B611023FB614FF426
:1012DC008003BB6107F1200341F28832194678681C
:1012EC0016F032F80346002B02D04FF0FF330EE01D
:1012FC0007F10C0341F288321946786816F026FB88
:10130C000346002B02D04FF0FF3300E000231846B9
:10131C007037BD4680BD80B596B000AF786008468A
:10132C0011461A460346FB700B46BB7013467B7086
:10133C0007F1080350220021184635F0D7FCFB7842
:10134C00002B05D1BB78012B02D14FF0FF3379E094
:10135C00FB78012B05D17B78002B02D14FF0FF33AA
:10136C0070E00023BB600023FB60FB78002B01D1F5
:10137C00012300E004237B61BB78012B01D10823FE
:10138C0000E00023FB61FB78002B01D1002300E07F
:10139C001023BB61FB78002B02D14FF4807301E06A
:1013AC004FF480637B62BB78012B02D14FF4006356
:1013BC0000E00023FB627B78002B02D14FF400533A
:1013CC0001E04FF44053BB623B6E3B6200237B63F6
:1013DC0000233B640023FB6400233B6500237B65F7
:1013EC00FB78012B0BD197F86430012B03D14DF610
:1013FC0023433B6117E042F2DE133B6113E097F8A5
:10140C006430012B07D17B78002B01D1D82300E06D
:10141C00DC233B6106E07B78002B01D1202300E02C
:10142C0021233B6100BF07F1080341F288321946C2
:10143C00786815F089FF0346002B02D04FF0FF337C
:10144C0000E0002318465837BD4680BD80B598B0E3
:10145C0000AF78600B46FB701346BB7007F11003AE
:10146C0050220021184635F041FC07F108030022F8
:10147C001A605A60FB78012B05D1BB78002B02D186
:10148C004FF0FF3388E001233B6100237B61FB7845
:10149C00002B01D1012300E00423FB6100237B62BC
:1014AC00FB78002B01D1002300E010233B62FB787A
:1014BC00002B06D1BB78002B01D10B2303E00C23AE
:1014CC0001E04EF61343BB61FB78002B02D14FF4C5
:1014DC00807301E04FF48063FB6200237B63BB7875
:1014EC00002B02D14FF4005301E04FF440533B6307
:1014FC000023FB63FB78002B02D14FF0807301E0DB
:10150C004FF08063BB6400233B65FB78002B01D15B
:10151C00082300E006237B650023BB650023FB65E5
:10152C0007F1100341F288321946786815F00CFF68
:10153C000346002B02D04FF0FF332DE002233B611A
:10154C00FB78002B06D1BB78002B01D1022303E0E2
:10155C00122301E041F2ED23BB6100237B6507F10F
:10156C00100341F288321946786815F0EDFE0346F7
:10157C00002B02D04FF0FF330EE00023BB6007F1CD
:10158C0008031946786816F0ABFA0346002B02D014
:10159C004FF0FF3300E0002318466037BD4680BD96
:1015AC0080B598B000AF78600B46FB7007F1100364
:1015BC0050220021184635F099FB07F10803002250
:1015CC001A605A6001233B6100237B610423FB6199
:1015DC0008237B6210233B624EF61163BB614FF410
:1015EC008063FB624FF400637B634FF440533B63B7
:1015FC000023FB634FF08063BB644FF000633B65DB
:10160C0006237B654FF00053BB650023FB6507F198
:10161C00100341F288321946786815F095FE03469E
:10162C00002B02D04FF0FF3325E002233B6141F247
:10163C00ED23BB6100237B650023BB6507F1100321
:10164C0041F288321946786815F07EFE0346002B6D
:10165C0002D04FF0FF330EE00023BB6007F108030C
:10166C001946786816F03CFA0346002B02D04FF06E
:10167C00FF3300E0002318466037BD4680BD80B5BF
:10168C009CB000AF78600B46FB701346BB7007F143
:10169C00200350220021184635F028FB07F10C03DB
:1016AC0000221A605A609A60DA601A61FB78002B8B
:1016BC0005D1BB78012B02D14FF0FF33ABE00023F7
:1016CC003B6200237B62FB78002B01D1012300E0FD
:1016DC000423FB62BB78012B01D1082300E000231B
:1016EC007B63FB78002B01D1002300E010233B63CC
:1016FC00FB78002B01D1062301E040F2F963BB62B9
:10170C000023FB630023FB640023BB6500237B6683
:10171C000023BB660023FB6607F1200341F28832ED
:10172C001946786815F010FE0346002B02D04FF0D6
:10173C00FF3370E0FB78002B01D1052301E040F270
:10174C00FA53BB62FB78002B01D1002301E04FF46C
:10175C008063FB63BB78012B02D14FF4006300E084
:10176C0000237B644FF440533B640023BB63FB7842
:10177C00002B02D14FF0807301E04FF08063BB650A
:10178C00BB78012B02D14FF0006300E000233B66D5
:10179C00FB78002B06D0BB78012B01D1052302E08E
:1017AC00042300E000237B66BB78012B01D10223CC
:1017BC0000E00123FB65BB78012B02D14FF00053F5
:1017CC0000E00023BB6607F1200341F28832194682
:1017DC00786815F0B9FD0346002B02D04FF0FF33AB
:1017EC0019E00223FB6002233B6100237B61102381
:1017FC00FB614FF48003BB6107F10C0341F28832AB
:10180C001946786816F0A2F80346002B02D04FF068
:10181C00FF3300E0002318467037BD4680BD80B50D
:10182C0098B000AFF8607B600B46FB721346BB723E
:10183C0007F1100350220021184635F057FAFB7AB5
:10184C00002B05D1BB7A012B02D14FF0FF3377E08F
:10185C0000233B6100237B61FB7A002B01D1012328
:10186C0000E00423FB61BB7A012B01D1082300E0CB
:10187C0000237B62FB7A002B01D1002300E01023B4
:10188C003B62FB7A002B01D1722301E047F28D23DE
:10189C00BB61FB7A002B02D14FF4807301E04FF453
:1018AC008063FB62BB7A012B02D14FF4006300E032
:1018BC0000237B634FF440533B637B68BB62002384
:1018CC00FB63FB7A002B02D14FF0807301E04FF0E9
:1018DC008063BB64BB7A012B02D14FF0006300E044
:1018EC0000233B6500237B65FB7A002B06D0BB7A7B
:1018FC00012B01D1022302E0012300E00123FB6450
:10190C000023BB650023FB6507F1100341F288320D
:10191C001946F86815F018FD0346002B02D04FF05D
:10192C00FF330DE041F2883207F16801F86815F0D9
:10193C00F7FE0346002B02D04FF0FF3300E00023EC
:10194C0018466037BD4680BD80B598B000AFF860D2
:10195C007B600B46FB721346BB7207F110035022DF
:10196C000021184635F0C2F9FB7A002B05D1BB7A61
:10197C00012B02D14FF0FF3381E000233B610023A8
:10198C007B61FB7A002B01D1012300E00423FB6176
:10199C00BB7A012B01D1082300E000237B62FB7A88
:1019AC00002B01D1002300E010233B62FB7A002BBB
:1019BC0001D1712301E047F28E13BB61FB7A002B3E
:1019CC0002D14FF4807301E04FF48063FB62BB7A69
:1019DC00012B02D14FF4006300E000237B634FF432
:1019EC0040533B637B68BB620023FB63FB7A002B99
:1019FC0002D14FF0807301E04FF08063BB64BB7A7F
:101A0C00012B02D14FF0006300E000233B65FB7A11
:101A1C00002B06D0BB7A012B01D1052302E0042355
:101A2C0000E000237B65BB7A012B01D1022300E08F
:101A3C000123FB64BB7A012B02D14FF0005300E071
:101A4C000023BB650023FB6507F1100341F28832CC
:101A5C001946F86815F078FC0346002B02D04FF0BD
:101A6C00FF330CE041F28832B96EF86815F0CBFE0A
:101A7C000346002B02D04FF0FF3300E00023184642
:101A8C006037BD4680BD80B596B000AF78600B4620
:101A9C00FB701346BB7007F1080350220021184657
:101AAC0035F024F9FB78002B05D1BB78012B02D142
:101ABC004FF0FF333BE00023BB600023FB60FB785F
:101ACC00002B01D1012300E004237B61BB78012BA7
:101ADC0001D1082300E00023FB61FB78002B01D12E
:101AEC00002300E01023BB61FB78002B01D166239F
:101AFC0001E046F299633B6100237B6200237B6328
:101B0C0000233B640023FB6400233B6500237B65BF
:101B1C0007F1080341F288321946786815F014FC75
:101B2C000346002B02D04FF0FF3300E00023184691
:101B3C005837BD4680BD80B596B000AF78600B4677
:101B4C00FB701346BB7007F10803502200211846A6
:101B5C0035F0CCF8FB78002B05D1BB78012B02D1EA
:101B6C004FF0FF333BE00023BB600023FB60FB78AE
:101B7C00002B01D1012300E004237B61BB78012BF6
:101B8C0001D1082300E00023FB61FB78002B01D17D
:101B9C00002300E01023BB61FB78002B01D19923BB
:101BAC0001E049F666133B6100237B6200237B63F3
:101BBC0000233B640023FB6400233B6500237B650F
:101BCC0007F1080341F288321946786815F0BCFB1E
:101BDC000346002B02D04FF0FF3300E000231846E1
:101BEC005837BD4680BD000090B595B000AF786009
:101BFC0039607B68002B03D06FF00103FB6483E03A
:101C0C0044497A6813465B0013440B441B78002B41
:101C1C0078D17B685C2202FB03F33F4A13441846DD
:101C2C0000F0CEFA07F11C031846FFF793FA0123D4
:101C3C003B61FB697B647B6C93FAA3F33B643B6C69
:101C4C00BB64BB6C002B01D1202303E0BB6CB3FA4B
:101C5C0083F3DBB2FB6000237B613B685B78BB6189
:101C6C007B685C2202FB03F32B4A134407F10C0242
:101C7C001146184600F0B6F80346002B03D06FF05F
:101C8C000303FB6440E0786800F072FF786800F0B2
:101C9C0073FC0346002B03D06FF00403FB6433E0AA
:101CAC007B685C2202FB03F31B4A981819497A687B
:101CBC0013465B0013440B4401331978154C7A68B6
:101CCC0013465B001344234402331B781A46FFF778
:101CDC0070FA0346002B03D06FF00403FB6413E08F
:101CEC003B6819783B685B781A46786800F0DCF939
:101CFC000346002B03D06FF00403FB6404E00023C5
:101D0C00FB6401E00023FB64FB6C18465437BD46B2
:101D1C0090BD00BFDC8C0220808C022080B584B08A
:101D2C0000AF78600023FB607B68002B03D06FF062
:101D3C000103FB604CE029497A6813465B001344AD
:101D4C000B441B78002B43D024497A6813465B0064
:101D5C0013440B441B78022B08D1786800F068F907
:101D6C000346002B02D06FF0040332E01B497A6863
:101D7C0013465B0013440B4400221A7017497A680F
:101D8C0013465B0013440B44013300221A701349B1
:101D9C007A6813465B0013440B44023300221A701A
:101DAC007B685C2202FB03F30D4A1344184600F0D7
:101DBC0089FB7B685C2202FB03F3094A1344184637
:101DCC0015F09AFA0346002B02D06FF00303FB6068
:101DDC00FB6818461037BD4680BD00BFDC8C022066
:101DEC00808C022080B582B000AF786039607B684F
:101DFC001E4A1A607B6801225A607B6800229A6036
:101E0C003B681A687B681A617B6802225A617B689E
:101E1C0000229A617B680022DA617B6800221A62D8
:101E2C003B685A687B685A623B689A687B689A621E
:101E3C007B6800221A633B68DB68012B08D17B6846
:101E4C004FF08072DA607B684FF08052DA6205E006
:101E5C007B680022DA607B680022DA62786814F012
:101E6C00ABFF034618460837BD4680BD001400473B
:101E7C0090B589B002AFF860B9601346FB71FB688E
:101E8C00002B03D06FF001037B6165E0FB685C22E3
:101E9C0002FB03F3334A98183349FA6813465B0084
:101EAC0013440B44013319782F4CFA6813465B002A
:101EBC001344234402331B781A46FFF77AF903467E
:101ECC00002B03D06FF004037B6145E0FB685C22C0
:101EDC0002FB03F3234A98182349FA6813465B0064
:101EEC0013440B44013319781F4CFA6813465B00FA
:101EFC001344234402331B781A46FFF7C0FB0346F6
:101F0C00002B03D06FF004037B6125E0FB685C229F
:101F1C0002FB03F3134A98181349FA6813465B0043
:101F2C0013440B44013319780F4CFA6813465B00C9
:101F3C001344234402331A78FB790193BB68009352
:101F4C000123FFF7E8F90346002B03D06FF00403DD
:101F5C007B6101E000237B617B6918461C37BD4621
:101F6C0090BD00BF808C0220DC8C022080B584B038
:101F7C0000AF78600023FB607B68002B03D06FF010
:101F8C000103FB604BE028497A6813465B0013445D
:101F9C000B4402331B78002B21D17B685C2202FBA3
:101FAC0003F3224A981820497A6813465B001344BD
:101FBC000B4401331B7801221946FFF747FA0346FD
:101FCC00002B03D06FF00403FB6028E016497A68FD
:101FDC0013465B0013440B4402221A701FE07B680B
:101FEC005C2202FB03F3114A98180F497A681346D6
:101FFC005B0013440B4401331B781946FFF7D0FAEE
:10200C000346002B03D06FF00403FB6007E0064986
:10201C007A6813465B0013440B4402221A70FB6867
:10202C0018461037BD4680BDDC8C0220808C022007
:10203C0080B584B000AF78600023FB607B68002B18
:10204C0003D06FF00103FB6024E015497A68134656
:10205C005B0013440B441B78022B03D06FF01A0364
:10206C00FB6017E07B685C2202FB03F30D4A134410
:10207C00184615F09BFD0346002B03D06FF00303AD
:10208C00FB6007E006497A6813465B0013440B4477
:10209C0001221A70FB6818461037BD4680BD00BF80
:1020AC00DC8C0220808C022080B584B000AF78607C
:1020BC000B46FB701346BB700023FB607B68002B48
:1020CC0003D06FF00103FB6072E03C497A68134661
:1020DC005B0013440B441B78022B03D16FF01903E4
:1020EC00FB6065E035497A6813465B0013440B448A
:1020FC0001331B78012B2BD1FB78012B0AD12F49F3
:10210C007A6813465B0013440B4402331B78BA788D
:10211C009A422DD0786800F077FCF860FB68002BB1
:10212C0026D1FB78012B23D124497A6813465B0016
:10213C0013440B4402331B78002B04D1786800F055
:10214C00B3FAF86014E0786800F098FBF8600FE0E0
:10215C00FB78012B0ED1BB78002B04D1786800F0F2
:10216C008DFBF86006E0786800F09EFAF86001E0FC
:10217C0000BF00E000BFFB68002B19D10F497A6843
:10218C0013465B0013440B4401221A700B497A6806
:10219C0013465B0013440B440133FA781A70074959
:1021AC007A6813465B0013440B440233BA781A70F6
:1021BC00FB6818461037BD4680BD00BFDC8C022082
:1021CC0080B594B000AF7860B74BD3F89430B64A72
:1021DC0043F48013C2F89430B34BD3F8943003F427
:1021EC008013BB63BB6BB04BDB6EAF4A43F4801305
:1021FC00D366AD4BDB6EAC4A23F48013D366AA4B8B
:10220C00D3F88C30A84A43F02003C2F88C30A64B8C
:10221C00D3F88C3003F020037B637B6BA24BD3F899
:10222C008C30A14A43F00203C2F88C309E4BD3F899
:10223C008C3003F002033B633B6B9B4BD3F88C302D
:10224C00994A43F04003C2F88C30974BD3F88C304A
:10225C0003F04003FB62FB6A934BD3F88C30924A39
:10226C0043F00203C2F88C308F4BD3F88C3003F060
:10227C000203BB62BB6A8C4BD3F88C308A4A43F0A6
:10228C000803C2F88C30884BD3F88C3003F0080369
:10229C007B627B6A844BD3F88C30834A43F0040313
:1022AC00C2F88C30804BD3F88C3003F004033B62C3
:1022BC003B6A7D4BD3F88C307B4A43F00803C2F861
:1022CC008C30794BD3F88C3003F00803FB61FB693D
:1022DC00754BD3F88C30744A43F08003C2F88C30C1
:1022EC00714BD3F88C3003F08003BB61BB696E4B30
:1022FC00D3F88C306C4A43F08003C2F88C306A4BB4
:10230C00D3F88C3003F080037B617B69664BD3F888
:10231C008C30654A43F04003C2F88C30624BD3F8E2
:10232C008C3003F040033B613B695F4BD3F88C303E
:10233C005D4A43F00403C2F88C305B4BD3F88C300D
:10234C0003F00403FB60FB684021584807F0F8FCDD
:10235C004FF48061564807F0F3FC0221554807F012
:10236C00EFFC4FF48051544807F0EAFC4FF4005155
:10237C00524807F0E5FC4FF400514F4807F0E0FCE1
:10238C0004214F4807F0DCFC08214D4807F0D8FC2D
:10239C004FF40071454807F0D3FC0121474807F082
:1023AC00CFFC0421434807F0CBFC4023FB63022302
:1023BC003B6401237B640223BB640A23FB6407F1A7
:1023CC003C031946394807F05BF80423FB630A23E6
:1023DC00FB6407F13C031946364807F051F84FF4FB
:1023EC008063FB6300237B640923FB6407F13C03DC
:1023FC0019462F4807F044F80223FB630623FB64BD
:10240C0007F13C0319462B4807F03AF84FF4805378
:10241C00FB630923FB6407F13C031946264807F0CC
:10242C002FF80423FB630923FB6407F13C031946D3
:10243C00224807F025F84FF40053FB630923FB6493
:10244C0007F13C0319461C4807F01AF80423FB63F8
:10245C000923FB6407F13C031946194807F010F8EF
:10246C000823FB630923FB6407F13C03194614485A
:10247C0007F006F84FF40073FB630923FB6407F1C4
:10248C003C031946094806F0FBFF0123FB630A23B2
:10249C00FB6407F13C031946084806F0F1FF00BF46
:1024AC005037BD4680BD00BF000C024400180242EC
:1024BC000014024200040242000C024200080242D4
:1024CC00001C024280B582B000AF78604FF480618E
:1024DC00224807F0A3FA0421214807F09FFA402173
:1024EC00204807F09BFA02211D4807F097FA4FF499
:1024FC0080511D4807F092FA04211C4807F08EFA0F
:10250C004FF40051184807F089FA0421184807F0D5
:10251C0085FA0821164807F081FA4FF4007111482A
:10252C0007F07CFA0121114807F078FA114BDB6EA9
:10253C00104A43F48013D3660E4BDB6E0D4A23F422
:10254C008013D3660B4BD3F894300A4A23F48013D0
:10255C00C2F8943000BF0837BD4680BD001402425B
:10256C000004024200180242000C0242000802421F
:10257C00001C0242000C024480B584B000AF7860AD
:10258C000023FB607B685C2202FB03F3444A134488
:10259C00002200211846FFF776FA0346002B03D0E1
:1025AC006FF00403FB6076E07B685C2202FB03F3B4
:1025BC003B4A1344002200211846FFF7BCFA03469D
:1025CC00002B03D06FF00403FB6064E07B685C229B
:1025DC0002FB03F3324A1344002201211846FFF791
:1025EC0052FA0346002B03D06FF00403FB6052E059
:1025FC007B685C2202FB03F3294A1344002201216D
:10260C001846FFF798FA0346002B03D06FF004032B
:10261C00FB6040E07B685C2202FB03F3204A13441E
:10262C00012201211846FFF72EFA0346002B03D096
:10263C006FF00403FB602EE07B685C2202FB03F36B
:10264C00174A1344012201211846FFF774FA034676
:10265C00002B03D06FF00403FB601CE011497A6877
:10266C0013465B0013440B4401221A700D497A681F
:10267C0013465B0013440B44013300221A700949C2
:10268C007A6813465B0013440B44023300221A7021
:10269C00642005F071FCFB6818461037BD4680BD00
:1026AC00808C0220DC8C022090B587B002AF786061
:1026BC007B685C2202FB03F36E4A98186E497A68B9
:1026CC0013465B0013440B44013319786A4C7A6847
:1026DC0013465B001344234402331B781A46FEF75F
:1026EC00CEFF0346002B03D06FF00403FB60BBE06E
:1026FC007B685C2202FB03F35E4A98185E497A6899
:10270C0013465B0013440B44013319785A4C7A6816
:10271C0013465B001344234402331A7807230093B7
:10272C004FF44073FFF77BF80346002B03D06FF098
:10273C000403FB6098E07B685C2202FB03F34D4AC8
:10274C0098184D497A6813465B0013440B440133C7
:10275C001978494C7A6813465B00134423440233BE
:10276C001B781A46FEF78BFF0346002B03D06FF045
:10277C000403FB6078E07B685C2202FB03F33D4AB8
:10278C0098183D497A6813465B0013440B44013397
:10279C001978394C7A6813465B001344234402338E
:1027AC001A78022300930023FFF739F80346002B15
:1027BC0003D06FF00403FB6056E0282005F0DCFB2F
:1027CC002C4A7B685C2101FB03F313440C334FF060
:1027DC0080721A60274A7B685C2101FB03F3134467
:1027EC002C334FF080521A607B685C2202FB03F39F
:1027FC00204A1344184614F0DFFA0346002B03D08A
:10280C006FF00303FB602FE07B685C2202FB03F399
:10281C00184A1344012201211846FEF7CAFC03464C
:10282C00002B03D06FF00403FB601DE07B685C227F
:10283C0002FB03F30F4A981807F1080300930023D7
:10284C0001220121FFF780F80346002B03D06FF023
:10285C000403FB6008E03B7A022B03D06FF0040307
:10286C00FB6001E00023FB60FB6818461437BD4693
:10287C0090BD00BF808C0220DC8C022090B587B00C
:10288C0002AF78607B685C2202FB03F35C4A981809
:10289C005C497A6813465B0013440B440133197886
:1028AC00584C7A6813465B001344234402331B785C
:1028BC001A46FEF7E4FE0346002B03D06FF0040328
:1028CC00FB6097E07B685C2202FB03F34C4A981890
:1028DC004C497A6813465B0013440B440133197856
:1028EC00484C7A6813465B001344234402331A782D
:1028FC00072300934FF44073FEF791FF0346002B20
:10290C0003D06FF00403FB6074E07B685C2202FB75
:10291C0003F33B4A98183B497A6813465B0013440F
:10292C000B4401331978374C7A6813465B00134417
:10293C00234402331B781A46FEF7A1FE0346002BF4
:10294C0003D06FF00403FB6054E07B685C2202FB55
:10295C0003F32B4A98182B497A6813465B001344EF
:10296C000B4401331978274C7A6813465B001344E7
:10297C00234402331A78012300930023FEF74FFF00
:10298C000346002B03D06FF00403FB6032E02820D9
:10299C0005F0F2FA7B685C2202FB03F3184A13443D
:1029AC00002201211846FEF704FC0346002B03D03D
:1029BC006FF00403FB601DE07B685C2202FB03F3F9
:1029CC000F4A981807F108030093002300220121F5
:1029DC00FEF7BAFF0346002B03D06FF00403FB6035
:1029EC0008E03B7A012B03D06FF00403FB6001E09D
:1029FC000023FB60FB6818461437BD4690BD00BF32
:102A0C00808C0220DC8C022090B587B002AF7860FD
:102A1C000023FB607B685C2202FB03F3524A98188C
:102A2C0052497A6813465B0013440B4401331978FE
:102A3C004E4C7A6813465B001344234402331B78D4
:102A4C001A46FEF71CFE0346002B03D06FF004035E
:102A5C00FB6083E000233B7200237B727B685C226B
:102A6C0002FB03F3404A981840497A6813465B000E
:102A7C0013440B44013319783C4C7A6813465B00C1
:102A8C001344234402331A783B7A00930023FEF755
:102A9C00C6FE0346002B03D06FF00403FB605DE021
:102AAC00282005F069FA31497A6813465B00134413
:102ABC000B4402331B78012B20D12B4A7B685C2101
:102ACC0001FB03F313440C3300221A60264A7B6883
:102ADC005C2101FB03F313442C3300221A607B6846
:102AEC005C2202FB03F3204A1344184614F064F9E9
:102AFC000346002B02D06FF00303FB60FB68002B36
:102B0C002CD17B685C2202FB03F3174A134400228E
:102B1C0000211846FEF74DFB0346002B03D06FF047
:102B2C000403FB601AE07B685C2202FB03F30E4A91
:102B3C00981807F108030093002300220021FEF7E8
:102B4C0003FF0346002B03D06FF00403FB6005E08A
:102B5C003B7A002B02D06FF00403FB60FB68184635
:102B6C001437BD4690BD00BF808C0220DC8C022047
:102B7C0080B584B000AF78607B685C2202FB03F305
:102B8C000D4A134407F108021146184615F0DCF8FB
:102B9C00FB689B08FB607B685C2202FB03F3064A24
:102BAC00134407F108021146184615F091F800BFBE
:102BBC001037BD4680BD00BF808C022080B400AFB2
:102BCC0000BFBD465DF8047B7047000080B5D2B0F5
:102BDC0000AF07F5A473A3F5A273186007F59A73F9
:102BEC0000221A605A609A60DA601A6107F5A473C1
:102BFC00A3F5907318464FF484731A46002134F0F1
:102C0C0075F807F5A473A3F5A2731B681B68AD4A8E
:102C1C00934240F0518107F5A473A3F590714FF0E6
:102C2C0000024FF00203C1E9002307F5A473A3F5DA
:102C3C0090730022C3F8DC2007F12803184608F033
:102C4C00A1FB0346002B01D0FEF76CFA9E4BD3F888
:102C5C0094309D4A43F48013C2F894309A4BD3F8C5
:102C6C00943003F4801207F5A473A3F592731A60E1
:102C7C0007F5A473A3F592731B68934BD3F88C30B0
:102C8C00914A43F04003C2F88C308F4BD3F88C3010
:102C9C0003F0400207F5A473A3F594731A6007F5CB
:102CAC00A473A3F594731B68874BD3F88C30864AB6
:102CBC0043F00803C2F88C30834BD3F88C3003F00C
:102CCC00080207F5A473A3F596731A6007F5A473AD
:102CDC00A3F596731B687C4BD3F88C307A4A43F07F
:102CEC000203C2F88C30784BD3F88C3003F002021C
:102CFC0007F5A473A3F598731A6007F5A473A3F5ED
:102D0C0098731B68704BD3F88C306F4A43F01003E8
:102D1C00C2F88C306C4BD3F88C3003F0100207F5F2
:102D2C00A473A3F59A731A6007F5A473A3F59A73A9
:102D3C001B68654BD3F88C30634A43F00403C2F82C
:102D4C008C30614BD3F88C3003F0040207F5A4737C
:102D5C00A3F59C731A6007F5A473A3F59C731B6809
:102D6C00594BD3F88C30584A43F00103C2F88C30DD
:102D7C00554BD3F88C3003F0010207F5A473A3F57F
:102D8C009E731A6007F5A473A3F59E731B684FF42A
:102D9C008443C7F834310223C7F838310023C7F80D
:102DAC003C310323C7F840310923C7F8443107F5F8
:102DBC009A731946454806F063FB3023C7F8343143
:102DCC000223C7F838310023C7F83C310323C7F876
:102DDC0040310A23C7F8443107F59A7319463C4829
:102DEC0006F04EFB4023C7F834310223C7F83831C4
:102DFC000023C7F83C310323C7F840310A23C7F836
:102E0C00443107F59A731946324806F039FB102302
:102E1C00C7F834310223C7F838310023C7F83C31E6
:102E2C000323C7F840310323C7F8443107F59A73DD
:102E3C001946284806F024FB0423C7F83431022332
:102E4C00C7F838310023C7F83C310323C7F84031A9
:102E5C000923C7F8443107F59A7319461E4806F042
:102E6C000FFB4FF4C063C7F834310223C7F8383175
:102E7C000023C7F83C310323C7F840310923C7F8B6
:102E8C00443107F59A731946144806F0F9FA0223EF
:102E9C00C7F834310223C7F838310023C7F83C3166
:102EAC000323C7F840310923C7F8443107F59A7357
:102EBC0019460B4806F0E4FA00BF07F5A477BD46A7
:102ECC0080BD00BF00140047000C024400180242F1
:102EDC00000C0242000402420010024200080242AE
:102EEC000000024280B582B000AF78607B681B683E
:102EFC00144A934221D1144BD3F89430124A23F440
:102F0C008013C2F894304FF48441104806F086FDCB
:102F1C0030210F4806F082FD50210E4806F07EFD50
:102F2C0004210D4806F07AFD4FF4C0610B4806F001
:102F3C0075FD02210A4806F071FD00BF0837BD4639
:102F4C0080BD00BF00140047000C02440018024270
:102F5C00000C02420004024200100242000802422D
:102F6C000000024280B5C6B000AF07F58C73A3F524
:102F7C008A73186007F58C73A3F5847318464FF4A5
:102F8C0084731A46002133F0B1FE07F58C73A3F558
:102F9C008A731B681B681D4A934231D107F58C73E9
:102FAC00A3F584714FF080624FF00003C1E9002358
:102FBC0007F58C73A3F584730022C3F8C82007F1BE
:102FCC001003184608F0DEF90346002B01D0FEF77B
:102FDC00A9F80F4BD3F88C300D4A43F48023C2F878
:102FEC008C300B4BD3F88C3003F4802207F58C73A8
:102FFC00A3F586731A6007F58C73A3F586731B68AB
:10300C0000BF07F58C77BD4680BD00BF00080C42A1
:10301C00000C024480B5CCB000AF07F59873A3F553
:10302C009673186007F58E7300221A605A609A60C6
:10303C00DA601A6107F59873A3F5907318464FF48C
:10304C0084731A46002133F051FE07F59873A3F5EB
:10305C0096731B681B68854A934240F0018107F503
:10306C009873A3F590714FF000424FF00003C1E943
:10307C00002307F59873A3F590730022C3F8F02092
:10308C0007F11003184608F07DF90346002B01D018
:10309C00FEF748F8764BD3F8A830754A43F0200376
:1030AC00C2F8A830724BD3F8A83003F0200207F511
:1030BC009873A3F592731A6007F59873A3F592733E
:1030CC001B686B4BD3F88C30694A43F02003C2F871
:1030DC008C30674BD3F88C3003F0200207F59873D3
:1030EC00A3F594731A6007F59873A3F594731B6892
:1030FC004FF46073C7F81C310223C7F8203100234A
:10310C00C7F824310223C7F828310523C7F82C311E
:10311C0007F58E731946574806F0B2F9564B574AC5
:10312C001A60554B32225A60534B00229A60524B14
:10313C004FF48062DA60504B08221A614E4B002229
:10314C005A614D4B00229A614B4B0022DA614A4B7B
:10315C004FF400021A62484B01225A62464B01227C
:10316C009A62454B4FF08042DA62434B00221A635D
:10317C00414B00225A63404805F032F80346002BBD
:10318C0001D0FDF7CFFF07F59873A3F596731B6875
:10319C00394AC3F88020384A07F59873A3F596731B
:1031AC001B68D3651021344805F0B4FD0346002B91
:1031BC0001D0FDF7B7FF324B324A1A60304B312247
:1031CC005A602F4B00229A602D4B0022DA602C4B58
:1031DC0000221A612A4B4FF400225A61284B00221C
:1031EC009A61274B0022DA61254B4FF400021A62D8
:1031FC00234B01225A62224B01229A62204B4FF040
:10320C008042DA621E4B00221A631D4B00225A6365
:10321C001B4804F0E5FF0346002B01D0FDF782FFAD
:10322C0007F59873A3F596731B68154AC3F88420A9
:10323C00134A07F59873A3F596731B68D365102191
:10324C000F4805F067FD0346002B01D0FDF76AFF20
:10325C0000220221532004F081FF532004F0A8FF28
:10326C0000BF07F59877BD4680BD00BF0020004425
:10327C00000C024400140242B48A0220D002024024
:10328C002C8B02205002024080B5CCB000AF07F569
:10329C009873A3F59673186007F58E7300221A6065
:1032AC005A609A60DA601A6107F59873A3F5907307
:1032BC0018464FF484731A46002133F017FD07F5B6
:1032CC009873A3F596731B681B68374A934265D1B4
:1032DC0007F59873A3F590714FF001024FF00003BE
:1032EC00C1E9002307F59873A3F590730022DA6502
:1032FC0007F11003184608F045F80346002B01D0DF
:10330C00FDF710FF294BD3F8A430284A43F480432F
:10331C00C2F8A430254BD3F8A43003F4804207F54F
:10332C009873A3F592731A6007F59873A3F59273CB
:10333C001B681E4BD3F88C301C4A43F00103C2F8B7
:10334C008C301A4BD3F88C3003F0010207F59873CC
:10335C00A3F594731A6007F59873A3F594731B681F
:10336C004FF4C063C7F81C310223C7F82031002387
:10337C00C7F824310223C7F828310723C7F82C31AA
:10338C0007F58E7319460A4806F07AF800220321D5
:10339C003A2004F0E3FE3A2004F00AFF00BF07F5E0
:1033AC009877BD4680BD00BF00380140000C024438
:1033BC000000024280B58EB000AF7860334BD3F87A
:1033CC009C30324A43F01003C2F89C302F4BD3F898
:1033DC009C3003F01003BB60BB6807F10C0207F1D3
:1033EC0010031146184607F085FFFB69FB62FB6A68
:1033FC00002B03D107F03CFF786304E007F038FFA3
:10340C0003465B007B637B6B5B09214AA2FB0323B6
:10341C00DB09013BBB621F4B1F4A1A601D4B632229
:10342C00DA601C4ABB6A53601A4B00221A61194BB2
:10343C0000229A60174810F087F8034687F833305B
:10344C0097F83330002B18D1124810F015FA0346B8
:10345C0087F8333097F83330002B0ED17B680F2B65
:10346C0008D800227968312004F078FE0B4A7B687A
:10347C00136002E0012387F83330312004F098FE0A
:10348C0097F8333018463837BD4680BD000C0244DF
:10349C00C55A7C0AE08C0220001000405C00002021
:1034AC0080B400AFFEE780B400AFFEE780B400AF9D
:1034BC00FEE780B400AFFEE780B400AFFEE780B457
:1034CC0000AF00BFBD465DF8047B704780B500AF10
:1034DC00082006F0C5FC00BF80BD80B500AF1020F1
:1034EC0006F0BEFC00BF80BD80B500AF024805F001
:1034FC008AFA00BF80BD00BF2C8B022080B500AFC4
:10350C00024805F080FA00BF80BD00BFB48A0220DB
:10351C0080B500AF024810F025FB00BF80BD00BF96
:10352C00E08C022080B500AF024811F0D9F800BF42
:10353C0080BD00BFA48B022080B500AF02480FF005
:10354C0075FC00BF80BD00BF248A022080B400AF90
:10355C0001231846BD465DF8047B704780B582B0E8
:10356C0000AF7860396033F0A1FC034616221A6074
:10357C004FF0FF3318460837BD4680BD80B582B08A
:10358C0000AF78604FF0FF317868FFF7E7FFFEE798
:10359C0080B586B000AFF860B9607A6000237B61BB
:1035AC000AE0FDF7F9FC0146BB685A1CBA60CAB2C6
:1035BC001A707B6901337B617A697B689A42F0DB14
:1035CC007B6818461837BD4680BD80B586B000AF05
:1035DC00F860B9607A6000237B6109E0BB685A1C13
:1035EC00BA601B781846FDF7C5FC7B6901337B611B
:1035FC007A697B689A42F1DB7B6818461837BD46BE
:10360C0080BD80B483B000AF78604FF0FF331846B4
:10361C000C37BD465DF8047B704780B483B000AFB7
:10362C00786039603B684FF400525A6000231846AA
:10363C000C37BD465DF8047B704780B483B000AF97
:10364C007860012318460C37BD465DF8047B704743
:10365C0080B485B000AFF860B9607A60002318467A
:10366C001437BD465DF8047B7047000080B586B00A
:10367C0000AF7860144A154BD31A7B617B693B61B0
:10368C00134B1B68002B02D1114B124A1A60104BC2
:10369C001A687B6813443A699A4207D233F006FCE5
:1036AC0003460C221A604FF0FF3309E0084B1B68ED
:1036BC00FB60074B1A687B681344054A1360FB6870
:1036CC0018461837BD4680BD00000A2000200000B7
:1036DC002C8D0220905D032080B59CB008AF7860E3
:1036EC000023FB647B68BB649E4833F0C5F89E489E
:1036FC0033F0C2F89D4B01939D4B00939D4B9E4A1A
:10370C009E499F4833F04AF84FF47A719D4833F044
:10371C0045F84FF47A719C4833F040F823F0F6FEEC
:10372C004FF4FA437B6407F1240100237A6CB86CE4
:10373C0031F0DCFB0346002B01D002235DE17A6AF9
:10374C003C2301937B6C009313464FF4C1628F4969
:10375C008F482BF0C5FCF864FB6C002B01D01423B4
:10376C004BE14FF4A0533B6407F1200100233A6C6A
:10377C00B86C31F0BBFB0346002B01D002233CE1BB
:10378C003B6A4FF4F16205920A2204923A6C03925E
:10379C000293804B01937E4B0093002300227E49C1
:1037AC007E482BF043F9F864FB6C002B01D01423FA
:1037BC0023E100227A4979482BF0B6F8F864FB6CC7
:1037CC00002B01D0FDF7AEFC764A7449764815F013
:1037DC009BFCF864FB6C002B01D014230DE14FF41F
:1037EC008063FB6307F11C010023FA6BB86C31F0AA
:1037FC007DFB0346002B01D00223FEE0FB69FA6B34
:10380C00194666482AF022FFF864FB6C002B01D0A5
:10381C001423F2E061482AF065FFF864FB6C002B7E
:10382C0001D01423E9E05D482CF056FAF864FB6CE7
:10383C00002B01D01423E0E058482BF047FEF8642D
:10384C00FB6C002B01D01423D7E04FF44063BB6317
:10385C0007F118010023BA6BB86C31F047FB034633
:10386C00002B01D00223C8E0B96CBB69B4220692CC
:10387C0001220592002204920D2203920D22029243
:10388C00BA6B019200930B46484A4949494832F0B9
:10389C0021FAF864FB6C002B01D01423ADE04FF43B
:1038AC0000637B6307F1140100237A6BB86C31F071
:1038BC001DFB0346002B01D002239EE0B96C7B69F3
:1038CC00B422069201220592002204920D22039248
:1038DC000D2202927A6B019200930B46364A3749BD
:1038EC00374832F0F7F9F864FB6C002B01D0142345
:1038FC0083E04FF4C0533B6307F1100100233A6B94
:10390C00B86C31F0F3FA0346002B01D0022374E0BB
:10391C00B96C3B69B42206920022059200220492F3
:10392C000C2203920C2202923A6B019200930B46EA
:10393C00244A2549254832F0CDF9F864FB6C002B5C
:10394C0001D0142359E04FF40063FB6207F10C0122
:10395C000023FA6AB86C31F0C9FA0346002B37D051
:10396C0002234AE06C8703089C8703081488030829
:10397C0020880308DC870308EC870308F487030816
:10398C00F88703082C8803085088030874880308F8
:10399C00508F0220318C01083C0000208C8F0220BB
:1039AC00213A000888880308149702203D3A000841
:1039BC0000000020308D0220693C0008100000201F
:1039CC00E48D02204D3D000824000020988E02203A
:1039DC00FA680C230093FB6A0A490B4819F080FD26
:1039EC00B862BB6A002B01D0142306E01C23002212
:1039FC000649074832F03AF8FB6C18465037BD467A
:103A0C0080BD00BF508F02208C8F02209488030849
:103A1C00F8B6022080B582B000AF786039600348F8
:103A2C0032F03AF900BF0837BD4680BDF8B6022027
:103A3C0080B596B004AF786000237B64002278498F
:103A4C0078482AF071FF78647B6C002B01D0FDF76D
:103A5C0069FB754815F022FE78647B6C002B01D055
:103A6C00FDF760FB4FF0FF31704832F0D3F803469E
:103A7C00002B0AD04FF4C7726D496E4832F08EFE9F
:103A8C006D4832F0F9FEFDF74DFB6C4B00221A70BD
:103A9C0040F2BF133B6400233B6307F130034FF04C
:103AAC00FF3200923A6C00215E482BF041F97864A9
:103ABC003B6B1946624832F071FE0023FB63002316
:103ACC00FB620023BB6200237B6200233B6200236A
:103ADC00FB610023BB6107F1280107F12C0207F100
:103AEC001803039307F11C03029307F120030193BE
:103AFC0007F1240300930B46F96B4A4821F076FC3E
:103B0C00FB6A3A6A19464F4832F048FE00237B6143
:103B1C0000233B610023FB6007F1100207F1140343
:103B2C00194640482AF03EFF78647B6C002B01D08C
:103B3C00FDF7F8FA07F10C0319463A482BF07AF81E
:103B4C0078647B6C002B01D0FDF7ECFA3E4832F028
:103B5C0025FE7B69190E7B691B0CDAB27B691B0A8B
:103B6C00D8B27B69DBB200930346384832F016FEBC
:103B7C000A2032F025FE364832F010FE3B69190E51
:103B8C003B691B0CDAB23B691B0AD8B23B69DBB24E
:103B9C00009303462D4832F001FE2E4832F0FEFD14
:103BAC00FB68190EFB681B0CDAB2FB681B0AD8B257
:103BBC00FB68DBB200930346244832F0EFFD04238C
:103BCC00BB6007F1080307F134020321164815F016
:103BDC00A1FF78647B6C002B01D0FDF7A3FA07F1F1
:103BEC00380319460F482BF025F878647B6C002BB2
:103BFC0001D0FDF797FABB6B19460A482BF058F821
:103C0C0078647B6C002B01D0FDF78CFA124832F0F3
:103C1C009DF932F07FF900BF4837BD4680BD00BF2B
:103C2C00213A00088C8F022014970220F8B602204B
:103C3C00A49D0308A4880308B4880308210000206D
:103C4C00E0880308FC8803081489030838890308F2
:103C5C004C89030854890308988E022080B584B0DF
:103C6C0000AF78604FF47A73BB600023FB600E4B9F
:103C7C0001221A700DE0B8682FF0B2FEFB68013318
:103C8C00FB60FB68142B04D1084832F0F5FDFDF7FE
:103C9C0049FA054B1B78DBB2002BECD100BF00BFFF
:103CAC001037BD4680BD00BF21000020608903088D
:103CBC0080B586B000AF786000237B611C4A1D493B
:103CCC00786817F0C5FC78617B69002B01D0FDF793
:103CDC0029FA4FF400621849786818F09DFF786152
:103CEC000423BB6007F1080307F10C0206211348FB
:103CFC0015F010FF78617B69002B01D0FDF712FAEB
:103D0C0007F10C03184616F051F838613B691BBAE1
:103D1C003B613969786817F0B7FD78617B69002BD6
:103D2C0001D0FDF7FFF97B6918461837BD4680BDF9
:103D3C00888903088C8F022054E0022014970220FB
:103D4C002DE9F0438DB004AF78607B68FB6153487C
:103D5C00FFF7AEFFB861BB69002B01D0FDF7E2F9AC
:103D6C0003F020FA0346143319464D4832F016FD81
:103D7C0003F018FA0346343319464A4832F00EFD64
:103D8C0003F010FA034654331946474832F006FD47
:103D9C0003F008FA034693F86C301E4603F002FA5F
:103DAC00034693F86D30984603F0FCF9034693F8FC
:103DBC006E30994603F0F6F9034693F86F301C46C3
:103DCC0003F0F0F9034693F870301D4603F0EAF95E
:103DDC00034693F871300293019500944B4642468A
:103DEC003146324832F0DAFC00237B6103F0DAF919
:103DFC0007F114030122194603F057FE3B7D1946C7
:103E0C007B7D1A46BB7D1846FB7D009303462848F4
:103E1C0032F0C4FC00233B6103F0C4F907F110033A
:103E2C000022194603F041FE3B7C19467B7C1A4666
:103E3C00BB7C1846FB7C009303461E4832F0AEFC5C
:103E4C001D4A07F1080392E8030018600433198037
:103E5C0003F0A8F907F108030622194603F08DFBBD
:103E6C0007F108031946154832F098FC144AFB690F
:103E7C0013600021002001F0E7FD1249124800F008
:103E8C0051FD124832F0F8FC00F022F82E2032F0EE
:103E9C0097FC4FF4FA602FF0A3FDF7E714B702205C
:103EAC0094890308B0890308CC890308E8890308BE
:103EBC001C8A0308408A0308A08A0308648A030842
:103ECC004C8F0220509D0308748A03087C8A0308D7
:103EDC0090B593B004AF424815F0E8FA7863796B6B
:103EEC00404832F05BFC404817F068FC3863396B93
:103EFC003E4832F053FC3E4832F0BEFC3D482AF0BE
:103F0C0065FEF862F96A3C4832F048FC0023BB625B
:103F1C0000237B6200233B62384B186807F12004B6
:103F2C0007F1240207F1280107F11403029307F1AA
:103F3C001803019307F11C030093234631F0EAF8B0
:103F4C00BB6A002B01D0BB6A00E02D4B2B4A1268D8
:103F5C00D26919462B4832F021FC7B6A19462A4853
:103F6C0032F01CFC3B6A1946284832F017FCBB693E
:103F7C001946274832F012FC00233B610023FB60FA
:103F8C000023BB6000237B6000233B6007F108002B
:103F9C0007F10C0207F110013B4601933B1D009306
:103FAC0003461C482BF066F91A4B5B68194A926A57
:103FBC001946194832F0F2FB3B691946174832F0A2
:103FCC00EDFBFB681946164832F0E8FB3B681946D6
:103FDC00144832F0E3FB00BF3C37BD4690BD00BF38
:103FEC0014970220A88A030814B70220CC8A03086D
:103FFC00F08A03088C8F0220008B03084C8F022060
:10400C00208B0308248B0308388B0308548B03087C
:10401C00708B0308508F02208C8B0308A48B030831
:10402C00C88B0308EC8B030880B584B000AF7860B4
:10403C0039600023FB60154B1968FA6813465B0066
:10404C0013449B000B441868104B1968FA6813460C
:10405C005B0013449B000B445B681A4601460C48FA
:10406C0032F09CFBFB680133FB60084B1968FA6863
:10407C0013465B0013449B000B441B68002BDAD1E6
:10408C00002318461037BD4680BD00BF5CE80220F7
:10409C00108C030880B483B000AF78603960054B96
:1040AC0001221A60002318460C37BD465DF8047BCC
:1040BC00704700BF54E8022080B584B000AF786030
:1040CC000023FB607B68002B12D07868FCF700FAA9
:1040DC0003460133BB60B86832F0CAF80346FB6094
:1040EC00FB68002B04D0BA687968F86832F012FFCC
:1040FC00FB6818461037BD4680BD000080B586B001
:10410C0000AFF860B9607A607B6800221A60BB6807
:10411C00002B01D1002362E0B868FCF7D9F93861B3
:10412C003B69002B01D1002359E00023FB7544E0CF
:10413C00FA7D13465B0013449B001A46FB6813443C
:10414C001B683A69B968184632F0D8FD0346002B53
:10415C0030D1FA7D13465B0013449B001A46FB6872
:10416C0013441B681846FCF7B3F902463B699342AB
:10417C000ED17B6801221A60FA7D13465B00134452
:10418C009B001A46FB681344174A1360164B26E033
:10419C00FA7D13465B0013449B0019467B681B6831
:1041AC00FA680A44104941F823207B681B685A1CA2
:1041BC007B681A60FB7D0133FB75FA7D13465B004F
:1041CC0013449B001A46FB6813441B68002BAFD1A9
:1041DC007B681B68002B01DD034B00E000231846B5
:1041EC001837BD4680BD00BF78E8022080B584B08A
:1041FC0000AF786039600023BB6007F108031A46F2
:10420C0039687868FFF77AFFF860BB68012B02D138
:10421C00FB681B6800E0002318461037BD4680BDC4
:10422C0080B582B000AF00237B6014E00E4A7B683F
:10423C0052F82330002B0BD00B4A7B6852F82330FA
:10424C00184632F01DF8084A7B68002142F823100A
:10425C007B6801337B607B68042BE7D900BF00BF10
:10426C000837BD4680BD00BF60E8022080B582B033
:10427C0000AF00237B600BE00D4A7B6852F82330C3
:10428C001A4679680B4832F089FA7B6801337B60F7
:10429C00094B1B687A689A42EED3084B1B68194687
:1042AC00074832F07BFA00BF0837BD4680BD00BF1F
:1042BC0060E80220288C030874E8022058E80220E9
:1042CC00308C030880B584B000AF7860414B1B681C
:1042DC00002B04D1142200213F4832F007FD0023AB
:1042EC00FB6051E03C4AFB6852F82330002B26D08F
:1042FC00394AFB6852F8233079681846FCF7DEF827
:10430C000346002B1BD1FB68002B5ED0324AFB68A6
:10431C0052F82330BB600BE0FB68013B2E4A52F88D
:10432C0023202D49FB6841F82320FB68013BFB60EF
:10433C00FB68002BF0D1284ABB68136046E0264A84
:10434C00FB6852F82330002B1BD10BE0FB68013BC0
:10435C00214A52F823202049FB6841F82320FB68AE
:10436C00013BFB60FB68002BF0D17868FFF7A4FEE3
:10437C000346194A1360174B1B680133154A136027
:10438C0024E0FB680133FB60FB68042BAAD9124BB9
:10439C001B69184631F074FF0423FB600BE0FB68CB
:1043AC00013B0D4A52F823200B49FB6841F82320AE
:1043BC00FB68013BFB60FB68002BF0D17868FFF7D2
:1043CC007BFE0346044A136000E000BF1037BD4675
:1043DC0080BD00BF74E8022060E8022080B582B086
:1043EC0000AF0A4B1B685B68184632F0A7F93860BF
:1043FC000023FB713B68B3F1FF3F01D03B68FB71BD
:10440C00FB7918460837BD4680BD00BF2C01002043
:10441C0080B582B000AFFFF7E1FF0346FB71FB797B
:10442C001B2B49D1FFF7DAFF0346FB71FFF7D6FFD1
:10443C000346BB71FB795B2B06D1BB79322B03D1C5
:10444C00FFF7CCFF7E2338E0FB794F2B04D1BB79EF
:10445C00532B01D12D2330E0FB794F2B04D1BB79A9
:10446C00522B01D12A2328E0FB794F2B04D1BB79A5
:10447C00512B01D12F2320E0FB795B2B04D1BB798D
:10448C00412B01D1802318E0FB795B2B04D1BB7944
:10449C00422B01D1812310E0FB795B2B04D1BB793A
:1044AC00432B01D1832308E0FB795B2B04D1BB792F
:1044BC00442B01D1822300E0FB7918460837BD4616
:1044CC0080BD000080B58CB000AF786039600023EF
:1044DC00FB620023BB62002387F827304FF0FF33C9
:1044EC003B627B6800221A70FFF792FF034687F845
:1044FC00273097F827307F2B02D1082387F82730F5
:10450C0097F827307E2B11D19E4B1B68C3F101030A
:10451C009C4A13609B4B1B68002B03D09A4832F0CB
:10452C003DF9A2E1994832F039F99EE197F827302C
:10453C00802B30D13B6A032B02DC3B6A01333B629C
:10454C00934A3B6A52F82330002B00F08E8191483D
:10455C0032F024F9904B1B681946904832F01EF942
:10456C008B4A3B6A52F8233019468C4832F016F9C4
:10457C00874A3B6A52F823301846FBF7A9FFF862CA
:10458C00834A3B6A52F823301946786832F0BAFCF9
:10459C00FB6ABB6269E197F82730812B35D13B6A06
:1045AC00002B02DD3B6A013B3B623B6A002B01DACC
:1045BC0000233B62764A3B6A52F82330002B00F012
:1045CC005481744832F0EAF8734B1B6819467348EF
:1045DC0032F0E4F86E4A3B6A52F8233019466F48C1
:1045EC0032F0DCF86A4A3B6A52F823301846FBF783
:1045FC006FFFF862FB6ABB62654A3B6A52F8233074
:10460C001946786832F07EFC2FE197F82730822B20
:10461C000AD1BB6A002B00F02881614832F0BEF849
:10462C00BB6A013BBB6220E197F82730832B0BD18F
:10463C00BA6AFB6A9A4280F01881BB6A0133BB628A
:10464C00584832F0ABF810E197F82730082B36D1E8
:10465C00BB6A002B00F00981BB6A013B7A68D01859
:10466C007A68BB6AD118FA6ABB6AD31A01331A4644
:10467C0032F022FB7A68FB6A134400221A70454818
:10468C0032F08CF8444B1B681946444832F086F8DB
:10469C007968424832F082F8BB6A013BBB62FB6A24
:1046AC00013BFB62BA6AFB6A9A4280F0DE80FA6ACE
:1046BC00BB6AD31A19463C4832F070F8D5E097F82B
:1046CC002730092B72D10023FB607A68FB6A1344F4
:1046DC0000221A7007F10C031A4679683868FFF744
:1046EC000DFD7861FB68012B1CD17B691B683B615C
:1046FC003B691B681946786832F004FC254832F097
:10470C004DF8254B1B681946244832F047F8796858
:10471C00224832F043F87868FBF7DAFEB862BB6ADD
:10472C00FB62A2E0FB68012B40F39F800A2032F071
:10473C0047F80023FB610DE0FB699B007A69134489
:10474C001B683B613B691B68184632F095F8FB69A6
:10475C000133FB61FB68FA699A42EDDB0D4832F0DC
:10476C001DF80D4B1B6819460C4832F017F8796888
:10477C000A4832F013F87868FBF7AAFEB862BB6AF5
:10478C00FB6272E050000020348C03083C8C030860
:10479C0060E80220448C030858E80220308C03089F
:1047AC004C8C0308548C03085C8C030897F8273056
:1047BC000A2B5AD097F827300D2B56D0BA6AFB6AC1
:1047CC009A4214BF01230023DBB21A46344B1B68F8
:1047DC001340002B36D0FB6ABB610BE0BB697A68D7
:1047EC001A44BB69013379680B4412781A70BB699F
:1047FC00013BBB61BB6ABA699A42EFDABB6A5A1CCD
:10480C00BA627A68134497F827201A70FB6A01334E
:10481C00FB62244831F0C2FF234B1B681946234826
:10482C0031F0BCFF7968214831F0B8FFBA6AFB6AF5
:10483C009A421AD2FA6ABB6AD31A19461C4831F04A
:10484C00ADFF12E0BB6A5A1CBA627A68134497F83F
:10485C0027201A7097F82730184631F0B1FFBA6A42
:10486C00FB6A9A4201D9BB6AFB62FB6A502B02D1EC
:10487C004F23FB6208E097F827300A2B04D097F8F7
:10488C0027300D2B7FF430AE7A68FB6A134400227C
:10489C001A700A2031F094FF00BF3037BD4680BD3E
:1048AC0050000020448C030858E80220308C030888
:1048BC005C8C030880B584B000AF786039603968CF
:1048CC007868FFF7FFFD7B681B78212B16D17B687E
:1048DC000133184631F0C8FCF860FB68002BEEDBA6
:1048EC00FA680D4B1B689A42E9D80C4AFB6852F8DF
:1048FC0023301946786832F005FB0AE008497868DD
:10490C00FBF7DCFD0346002B02D1FFF7AFFCD6E72B
:10491C0000BF1037BD4680BD74E8022060E802205D
:10492C00648C030880B5B6B000AF786039604C4B2E
:10493C001B689B680021184631F0BEFF484B1B6872
:10494C005B680021184631F0B7FF464A7B6813605C
:10495C00454A3B681360454831F020FF444831F02C
:10496C008BFF00210020FFF75FFB0023C7F8D4303A
:10497C003C4B1B6819463F4831F010FF07F1800390
:10498C0039681846FFF796FF97F88030002B5CD0FB
:10499C0007F1800207F130031146184632F0B2FAE3
:1049AC0007F180033449184632F0CEF90246D7F8A5
:1049BC00D4309B00D8333B4443F8D02CD7F8D430B8
:1049CC009B00D8333B4453F8D03C19463868FFF76A
:1049DC000DFCC7F8D000D7F8D030002B2FD014E046
:1049EC00D7F8D4300133C7F8D4302349002032F043
:1049FC00ABF90246D7F8D4309B00D8333B4443F88C
:104A0C00D02CD7F8D4300A2B09D0D7F8D4309B004F
:104A1C00D8333B4453F8D03C002BE1D100E000BF2D
:104A2C00D7F8D0309B6807F108021146D7F8D400AC
:104A3C00984707F130031846FFF744FC05E007F1EF
:104A4C00300319460D4831F0A9FE0D4B1B68002BA5
:104A5C008BD0FFF7E5FB00BFD837BD4680BD00BF4C
:104A6C002C01002058E802205CE802206C8C030822
:104A7C00748C0308308C0308A88C0308AC8C0308D6
:104A8C0054E8022080B586B000AFF860B9607A6057
:104A9C003B6000237B61BB6800221A607B680022AC
:104AAC001A6007222049F86832F028F90346002BD7
:104ABC0006D1FB6807337B613B6800221A7010E05B
:104ACC0008221A49F86832F019F90346002B06D16E
:104ADC00FB6808337B613B6801221A7001E00023FC
:104AEC007B617B69002B1BD0114B3B6107E07A6922
:104AFC00531C7B613B69591C396112781A707B69B4
:104B0C001B78002B03D07B691B782F2BEFD13B69D3
:104B1C0000221A70BB68064A1A607B687A691A60B0
:104B2C0000BF1837BD4680BDCC8C0308D48C03085D
:104B3C00C8E8022080B588B000AFF860B9607A6030
:104B4C003B60BB68FB617B68BB6100237B613B689E
:104B5C00002B03D03B6800221A6024E04FF0FF3397
:104B6C0030E000230122F969F86819F0F3FE38618E
:104B7C003B69002B01DA3B6924E0FB690133FB61E3
:104B8C00BB69013BBB617B6901337B617B69042B96
:104B9C0009D9FB69043B04220C49184632F0AEF8E3
:104BAC000346002B03D0BB69002BDAD100E000BF19
:104BBC00BB69002B02D14FF0FF3303E03B687A69ED
:104BCC001A60002318462037BD4680BDE08C0308D0
:104BDC0080B487B000AFF860B9607A6000237B6165
:104BEC00FB681B78002B24D01BE07B699B00BA6808
:104BFC001344FA681A6002E0FB680133FB60FB683F
:104C0C001B78002B03D0FB681B780A2BF4D17B6933
:104C1C0001337B61FB681B78002B02D0FB680133EE
:104C2C00FB607A697B689A4203D2FB681B78002B85
:104C3C00DBD17B6918461C37BD465DF8047B704799
:104C4C0080B483B000AF78600B46FB7002E07B68E9
:104C5C0001337B607B681B78002B04D07B681B784E
:104C6C00FA789A42F3D17B681B78002B02D07B68D0
:104C7C0001337B607B6818460C37BD465DF8047BBE
:104C8C00704780B483B000AF78600B46FB707B68D4
:104C9C00002B0CD002E07B6801337B607B681B78B7
:104CAC00002B04D07B681B78FA789A42F3D07B688F
:104CBC0018460C37BD465DF8047B704780B483B052
:104CCC0000AF78600B46FB707B68002B0CD002E0C9
:104CDC007B6801337B607B681B78002B04D07B687E
:104CEC001B78FA789A42F3D17B6818460C37BD468C
:104CFC005DF8047B7047000080B592B000AF78601F
:104D0C00396007F1100328220021184631F0EEFF1C
:104D1C0007F110030A2219463868FFF759FF386467
:104D2C0079684FF0FF324FF0FF33C1E902234FF4A3
:104D3C00C8727B685A6079684FF000024FF000032C
:104D4C00C1E904233B6C002B02D14FF0FF335EE032
:104D5C003B69FB632021F86BFFF7B0FFF863202160
:104D6C00F86BFFF78EFFF8637B6804331A462A4909
:104D7C00F86B31F08BFE00237B6435E07B6C9B0081
:104D8C0048333B4453F8383C0E222449184631F042
:104D9C00B5FF0346002B24D17B6C9B0048333B446E
:104DAC0053F8383C3A211846FFF74AFFB8632021E4
:104DBC00B86BFFF766FFB863BB6B002B11D04FF0DD
:104DCC0000024FF00003C7E9022307F108031A465B
:104DDC001349B86B31F05AFED7E902237968C1E95F
:104DEC0002237B6C01337B647A6C3B6C9A42C5D397
:104DFC007B685B68C822934205D37B685B684FF481
:104E0C009672934202D34FF0FF3300E00023184612
:104E1C004837BD4680BD00BFE88C0308EC8C030806
:104E2C00FC8C03082DE9F04FA3B002AF7862396215
:104E3C00FA6100237B640023FB670023BB6700231C
:104E4C007B6700233B6700233B644FF000024FF06D
:104E5C000003C7E91A2307F1280300221A605A60DD
:104E6C009A60DA601A615A61994B7B66994B1868A3
:104E7C0007F14401002340F2096230F037F8034691
:104E8C00002B0BD040F227129349944831F086FC4A
:104E9C00934831F0F1FC4FF0FF3313E14FF4C16351
:104EAC003B667A6C3B6E1A4400231370786C3B6A39
:104EBC000093FB698B4A396E31F0B4FD7C6C7B6CD2
:104ECC001846FBF705FB03461A4600232146786A71
:104EDC0019F008FC0346002B08DA40F233127E4925
:104EEC007E4831F05BFC804831F0C6FC796C07F1F0
:104EFC0040033A6E786AFFF71DFE0346002B0CD078
:104F0C0040F239127449754831F048FC774831F059
:104F1C00B3FC4FF0FF337B67CCE07B6C07F12802CE
:104F2C0019461046FFF7E8FE0346002B17D07A6CA3
:104F3C003B6EDB08134400221A707B6C19466C48DC
:104F4C0031F02CFC4FF4A1726349644831F026FC1B
:104F5C00684831F091FC4FF0FF337B67AAE0D7E94A
:104F6C000C23C7E91A23BB6E1946634831F016FCB3
:104F7C007B6E002298469146D7E91A23904579EB2F
:104F8C0003030ED242F210731A46796E5B4831F06D
:104F9C0005FC7B6E0022BB60FA60D7E90234C7E9DE
:104FAC001A3402F0DDFFF867FB6FBB6767E03B6EFE
:104FBC0000229A469346D7E91A2392457BEB0303CA
:104FCC0001D3BB6E00E03B6EFB65796CFA6D002380
:104FDC00786A19F0BFFCB865BB6DB3F1FF3F03D124
:104FEC004FF0FF337B6750E0BB6D002B4CD02E2075
:104FFC0031F0E6FBBB6D3A6F13443B6702F0B0FF38
:10500C000246BB6FD31A7B6542F210727B6D9342E2
:10501C0012D93B6FDA007B6DB2FBF3F33B65BA6ED2
:10502C003B6D396F364831F0B9FB00233B6702F01A
:10503C0097FFF867FB6FBB67BB6DDA171D4616460B
:10504C00D7E91A23AA42B34113D3BB6DDA173B61DC
:10505C007A61D7E91A23D7E904894146511A396094
:10506C00494663EB01037B60D7E90034C7E91A3486
:10507C0005E04FF000024FF00003C7E91A23D7E90F
:10508C001A23134393D100E000BF786A19F0F2FEA3
:10509C0002F066FF0246FB6FD31AFB643B6FDA002B
:1050AC00FB6CB2FBF3F3BB64BB6CFA6C396F154849
:1050BC0031F074FB786A19F0DDFE7B6C184630F029
:1050CC0053F87B6F18468437BD46BDE8F08F00BFA0
:1050DC00E02202004C8F0220149E0308048D03086A
:1050EC00148D0308BC9D0308308D0308408D030804
:1050FC005C8D03086C8D03088C8D0308A48D03084C
:10510C00E88D0308248E0308B0B5A0B002AF786018
:10511C0039600023BB65002387F853300023FB66FE
:10512C000223BB6607F1400300221A605A609A60A2
:10513C00DA607B68012B02D1924B7B6702E03B6803
:10514C005B687B6707F1530307F1540207F15801C1
:10515C00786FFFF797FCBB6D002B02D07B6D002B9B
:10516C000CD140F2C3128849884831F017FB796F93
:10517C00874831F013FB4FF0FF33FEE0BB6D7A6DC7
:10518C001946844831F00AFB5023A7F8723097F87F
:10519C005330002B03D040F2BB13A7F87230B7F892
:1051AC0072305BBA9BB2A7F842300023FB6307F165
:1051BC00080320220021184631F098FD0223FB60E1
:1051CC0002233B610123BB60B86D07F13C0307F17F
:1051DC00080200211CF0BEFA0346002B0ED04FF43F
:1051EC00ED726949694831F0D9FABB6D7A6F19468D
:1051FC00694831F0D3FA4FF0FF33BEE0FB6B5B68CC
:10520C00BA6E9A420BD1BB6E9BB2A7F84030FB6BC7
:10521C005B695B687B64FB6B18461CF0BBFD786CB0
:10522C001AF050F8034619465C4831F0B7FA0622DA
:10523C000121B86E18F040FB78667B6E002B0BDA00
:10524C0040F2ED125049514831F0A8FA544831F06F
:10525C0013FB4FF0FF3390E00023BB6343F6FF7367
:10526C00BB6307F138030422009208220121786EF7
:10527C001AF0D8F938663B6EB3F1FF3F08D140F213
:10528C0003224149414831F089FA464831F0F4FA99
:10529C0007F1280300221A605A609A60DA604FF016
:1052AC000A024FF00003C7E90A2307F12803102272
:1052BC00009214220121786E1AF0B4F9F865FB6D96
:1052CC00B3F1FF3F08D140F20F222F492F4831F0A4
:1052DC0065FA344831F0D0FA07F128031022009215
:1052EC0015220121786E1AF09DF9F865FB6DB3F16A
:1052FC00FF3F08D140F215222349244831F04EFAE1
:10530C00284831F0B9FA07F1400310221946786E9B
:10531C0018F056FD0346002B19D17B6D5C1CBD6D3E
:10532C00786C19F0CFFF0246B7F842305BBA9BB2EB
:10533C00009313462A4621461B4831F02FFABB6DC9
:10534C007A6D1946786EFFF76DFDF86614E040F241
:10535C0029220D490D4831F021FAB96DB7F84230C8
:10536C005BBA9BB21A46114831F018FA786E19F0F4
:10537C0081FD4FF0FF33FB66FB6E18467837BD4658
:10538C00B0BD00BFF09D0308289E0308048D0308E0
:10539C00608E0308748E0308888E0308B48E03088D
:1053AC00BC8E0308DC8E0308F08E03081C8F0308E8
:1053BC0080B489B000AF786039607B68FB610023F2
:1053CC00FB8100237B61FB6903F001033B613B69BB
:1053DC00002B0DD03B68002B0ADDFA69531CFB61D6
:1053EC0007F10E03013312781A703B68013B3B60E6
:1053FC00FB69BB610AE0BB699A1CBA611B881A463F
:10540C007B6913447B613B68023B3B603B68012B2F
:10541C00F1DC3B68002B04DD07F10E03BA6912784E
:10542C001A70FB891A467B6913447B617B691A0CE1
:10543C007B699BB213447B617B691A0C7B699BB2C1
:10544C0013447B613B69002B07D07B691B029AB22A
:10545C007B691B0ADBB213437B617B699BB2DB4329
:10546C009BB218462437BD465DF8047B704780B567
:10547C0084B000AF78600B467B8013463B807B8802
:10548C00083BBB607B6808221A707B6800225A704C
:10549C007B6800225A807B684AF6AF729A803B8800
:1054AC005BBA9AB27B68DA800023FB6009E0FB6888
:1054BC0008337A681344FA68D2B21A70FB68013365
:1054CC00FB60FA68BB689A42F1D37B88194678680E
:1054DC00FFF76EFF03461A467B685A8000BF1037F1
:1054EC00BD4680BDB0B5AEB002AFF860B9607A60B1
:1054FC003B600023C7F8AC300123A7F8AA30002387
:10550C00FB672823C7F89C3007F1680300221A6058
:10551C005A609A60DA603B6800221C461546C7E95F
:10552C001A450023C7F8A4300DE0D7F8A4309B002F
:10553C00D7F8C02013444FF0FF321A60D7F8A430CC
:10554C000133C7F8A430D7F8A4207B689A42ECD377
:10555C0001220321022018F0AFF9C7F89800D7F800
:10556C009830B3F1FF3F0CD197228B498B4831F027
:10557C0015F98B4831F080F94FF0FF33C7F8AC3098
:10558C0040E007F168031022009214220121D7F8A1
:10559C0098001AF047F80346002B0CDA9C227E493F
:1055AC007E4831F0FBF87F4831F066F94FF0FF335D
:1055BC00C7F8AC3026E07C4B186807F17C0100235F
:1055CC00D7F89C202FF092FC0346002B0BD0A32283
:1055DC007149724831F0E2F8744831F04DF94FF0EE
:1055EC00FF33C7F8AC30FB6F002B0BD1A9226A49F3
:1055FC006A4831F0D3F86D4831F03EF94FF0FF3383
:10560C00C7F8AC30D7F8AC30002B40F0BB8000238F
:10561C00C7F8A030ACE0FB6F002B08D0FB6FD7F8BD
:10562C009C2091B2B7F8AA201846FFF720FF02F091
:10563C0097FCC7F89400F96FD7F89C20BB680193CE
:10564C00FB6800930023D7F8980019F0ABF80346D9
:10565C00002B08DABB225049504831F09FF85448CF
:10566C0031F00AF98AE007F1580300221A605A60F7
:10567C009A60DA6010237B6500237B6107F11803C5
:10568C003C220021184631F031FBD7F89C2007F161
:10569C00140107F15403019307F1580300930023FD
:1056AC00D7F8980019F066FBC7F8900002F058FC88
:1056BC00C7F88C00D7F890301B2B3DDD07F1140395
:1056CC00C7F88830D7F888301B681BBA1B0E03F05C
:1056DC000F039B0007F114021344C7F88430B7F88A
:1056EC00AA305BBAA7F88230D7F884309B884AF688
:1056FC00AF72934229D1D7F88430DB88B7F8822077
:10570C009A4222D1D7F884301B78002B10D1D7F8CD
:10571C008C20D7F89430D11AD7F8A0309B00D7F84A
:10572C00C02013440A461A600023C7F8AC3015E0B9
:10573C00204831F0A1F808E0D7F88C30D7F8942045
:10574C00D7F890101C4831F029F802F009FC0146FA
:10575C00D7F894203B681344994284D3B7F8AA3005
:10576C000133A7F8AA30D7F8A0300133C7F8A0301E
:10577C00D7F8A0207B689A42FFF44DAFFB6F184618
:10578C002FF0F2FCD7F8980019F074FBD7F8AC3076
:10579C001846B037BD46B0BD3C9E03083C8F03088D
:1057AC004C8F03085C8F03084C8F0220808F0308FA
:1057BC00948F0308A08F0308C08F030880B58EB0A8
:1057CC0000AF786039604FF0FF337B6307F1100353
:1057DC0020220021184631F089FA0023FB607B68F7
:1057EC001B887B610223BB6101233B6107F10C0326
:1057FC0007F11002002138681BF0ACFF0346002BA8
:10580C0012D1FB685B687A681288934208D17B6876
:10581C003B63FB685B695A683B6B5A6000237B6394
:10582C00FB6818461CF0B6FA7B6B18463837BD4639
:10583C0080BD000080B596B002AF78603960394BFE
:10584C00FB6407F10C0300221A605A609A60DA605C
:10585C000223BB810023FB810023BB640AE0BB6CE9
:10586C009B0050333B444FF0FF3243F8342CBB6C5D
:10587C000133BB64BB6C092BF1D97B68022B02D1C1
:10588C003B685B68FB64F96C274830F087FF07F1D5
:10589C000C03F96C1846FFF791FF0346002B06DA50
:1058AC00F96C224830F07AFF4FF0FF3336E038695C
:1058BC0019F008FD0246FB89F96C1D4830F06EFFAB
:1058CC0007F10C0007F11C03009301230A2210219D
:1058DC00FFF708FE0346002B1CDB00237B6415E05E
:1058EC007B6C9B0050333B4453F8343C002B0ADB5D
:1058FC007B6C9B0050333B4453F8343C1A46796C18
:10590C000C4830F04BFF7B6C01337B647B6C092BB8
:10591C00E6D902E0084830F0AFFF002318465037B4
:10592C00BD4680BDE08F0308EC8F0308F88F030899
:10593C00189003083C9003086090030880B584B06D
:10594C0000AF03463960FB710023FB603B68002B02
:10595C0004D03868FAF7BCFD0346FB6001F022FC6A
:10596C00F979FB683A6801F085FE0346BB60BB68B9
:10597C0018461037BD4680BD80B584B000AF786046
:10598C000B46FB70FB78FB737B68002B02D0FB7B18
:10599C00002B02D16FF00303BB6001F003FCFB7B17
:1059AC001A46796801F0D6FE0346BB60BB68184600
:1059BC001037BD4680BD000080B485B000AF0346F3
:1059CC00FB71FB79002B02D1174BFB6025E0FB79B7
:1059DC00012B02D1154BFB601FE0FB79022B02D18E
:1059EC00134BFB6019E0FB79032B02D1114BFB60CD
:1059FC0013E0FB79042B02D10F4BFB600DE0FB791C
:105A0C00052B02D10D4BFB6007E0FB79062B02D175
:105A1C000B4BFB6001E00B4BFB60FB68184614372B
:105A2C00BD465DF8047B70477090030878900308BE
:105A3C00849003089090030898900308A49003089E
:105A4C00B0900308BC900308F0B595B00AAFF861AC
:105A5C00B96100210020FFF771FF78627B6A002B8F
:105A6C000AD14FF4F0720021564831F03FF90A2167
:105A7C005448FFF781FF78627B6A002B40F39480D7
:105A8C00796A514830F08AFE00233B6283E04D492D
:105A9C003A6A13465B0013441B010B442433002267
:105AAC001A703A6A13465B0013441B01454A1344AF
:105ABC001D1D44493A6A13465B0013441B010B44F9
:105ACC002833D3F803603F493A6A13465B0013440A
