:020000040800F2
:1000000000000A20618B0008612C0008632C0008A6
:10001000652C0008672C0008692C0008B18B0008CB
:10002000000000000000000000000000B16B0008AC
:100030006B2C000800000000416B00085987000885
:10004000B18B0008B18B0008B18B0008B18B0008A0
:10005000B18B0008B18B0008B18B0008B18B000890
:10006000B18B0008B18B0008B18B0008B18B000880
:10007000B18B0008B18B00086D2C0008B18B000813
:10008000B18B0008B18B0008732C0008B18B0008FD
:10009000B18B0008B18B0008B18B0008B18B000850
:1000A000B18B0008B18B0008B18B0008B18B000840
:1000B000B18B0008B18B0008B18B0008B18B000830
:1000C000B18B0008B18B0008B18B0008B18B000820
:1000D000B18B0008B18B0008B18B0008B18B000810
:1000E000B18B0008B18B0008B18B0008B18B000800
:1000F000B18B0008B18B0008B18B0008B18B0008F0
:10010000B18B0008792C0008B18B0008B18B000876
:10011000B18B0008B18B0008B18B0008B18B0008CF
:10012000B18B0008B18B0008B18B0008B18B0008BF
:10013000B18B0008B18B0008B18B0008B18B0008AF
:10014000B18B0008B18B0008B18B0008B18B00089F
:10015000B18B0008B18B0008B18B0008B18B00088F
:10016000B18B0008B18B0008B18B0008B18B00087F
:10017000B18B0008B18B0008B18B0008B18B00086F
:10018000B18B0008B18B0008B18B0008B18B00085F
:10019000B18B0008B18B0008B18B0008B18B00084F
:1001A000B18B0008B18B0008B18B0008B18B00083F
:1001B000B18B0008B18B0008B18B0008B18B00082F
:1001C000852C0008B18B0008B18B0008B18B0008AA
:1001D000B18B0008B18B0008B18B0008B18B00080F
:1001E000B18B0008B18B0008B18B0008B18B0008FF
:1001F000B18B0008B18B0008B18B0008B18B0008EF
:10020000B18B0008B18B0008B18B0008B18B0008DE
:10021000B18B0008B18B0008B18B0008B18B0008CE
:10022000B18B0008B18B0008B18B0008B18B0008BE
:10023000B18B0008B18B0008B18B0008B18B0008AE
:0C024000B18B0008B18B0008B18B0008E6
:1002500010B5054C237833B9044B13B1044800E0C2
:1002600000BF0123237010BD0C010020000000001E
:10027000A41E020808B5034B1BB10349034800E064
:1002800000BF08BD0000000010010020A41E0208ED
:1002900081F0004102E000BF83F0004330B54FEA37
:1002A00041044FEA430594EA050F08BF90EA020FA4
:1002B0001FBF54EA000C55EA020C7FEA645C7FEA37
:1002C000655C00F0E2804FEA5454D4EB5555B8BF5A
:1002D0006D420CDD2C4480EA020281EA030382EACB
:1002E000000083EA010180EA020281EA0303362D5D
:1002F00088BF30BD11F0004F4FEA01314FF4801C30
:100300004CEA113102D0404261EB410113F0004F41
:100310004FEA03334CEA133302D0524263EB4303F8
:1003200094EA050F00F0A780A4F10104D5F1200E96
:100330000DDB02FA0EFC22FA05F2801841F10001F1
:1003400003FA0EF2801843FA05F359410EE0A5F1C5
:1003500020050EF1200E012A03FA0EFC28BF4CF0F6
:10036000020C43FA05F3C01851EBE37101F00045AC
:1003700007D54FF0000EDCF1000C7EEB00006EEBB9
:100380000101B1F5801F1BD3B1F5001F0CD3490843
:100390005FEA30004FEA3C0C04F101044FEA44529A
:1003A00012F5800F80F09A80BCF1004F08BF5FEA21
:1003B000500C50F1000041EB045141EA050130BD01
:1003C0005FEA4C0C404141EB010111F4801FA4F1A4
:1003D0000104E9D191F0000F04BF01460020B1FAF9
:1003E00081F308BF2033A3F10B03B3F120020CDA31
:1003F0000C3208DD02F1140CC2F10C0201FA0CF00F
:1004000021FA02F10CE002F11402D8BFC2F1200C73
:1004100001FA02F120FA0CFCDCBF41EA0C01904029
:10042000E41AA2BF01EB0451294330BD6FEA040472
:100430001F3C1CDA0C340EDC04F11404C4F120025D
:1004400020FA04F001FA02F340EA030021FA04F36F
:1004500045EA030130BDC4F10C04C4F1200220FAC6
:1004600002F001FA04F340EA0300294630BD21FA04
:1004700004F0294630BD94F0000F83F4801306BFCA
:1004800081F480110134013D4EE77FEA645C18BFBE
:100490007FEA655C29D094EA050F08BF90EA020F55
:1004A00005D054EA000C04BF1946104630BD91EA4D
:1004B000030F1EBF0021002030BD5FEA545C05D150
:1004C0004000494128BF41F0004130BD14F580048F
:1004D0003CBF01F5801130BD01F0004545F0FE4103
:1004E00041F470014FF0000030BD7FEA645C1ABF38
:1004F000194610467FEA655C1CBF0B46024650EA6F
:10050000013406BF52EA033591EA030F41F400219A
:1005100030BD00BF90F0000F04BF0021704730B520
:100520004FF4806404F132044FF000054FF00001F5
:1005300050E700BF90F0000F04BF0021704730B5B6
:100540004FF4806404F1320410F0004548BF40428B
:100550004FF000013EE700BF42004FEAE2014FEAE0
:1005600031014FEA02701FBF12F07F4393F07F4FBB
:1005700081F06051704732F07F4208BF704793F0BE
:100580007F4F04BF41F40021704730B54FF46074D1
:1005900001F0004521F000411CE700BF50EA0102D4
:1005A00008BF704730B54FF000050AE050EA01027D
:1005B00008BF704730B511F0004502D5404261EBED
:1005C00041014FF4806404F132045FEA915C3FF42E
:1005D000D8AE4FF003025FEADC0C18BF03325FEACB
:1005E000DC0C18BF033202EBDC02C2F1200300FA7C
:1005F00003FC20FA02F001FA03FE40EA0E0021FAA1
:1006000002F11444BDE600BF70B54FF0FF0C4CF48E
:10061000E06C1CEA11541DBF1CEA135594EA0C0F40
:1006200095EA0C0F00F0DEF82C4481EA030621EA7B
:100630004C5123EA4C5350EA013518BF52EA0335B6
:1006400041F4801143F4801338D0A0FB02CE4FF068
:100650000005E1FB02E506F00042E0FB03E54FF098
:100660000006E1FB03569CF0000F18BF4EF0010E90
:10067000A4F1FF04B6F5007F64F5407404D25FEA8C
:100680004E0E6D4146EB060642EAC62141EA55513F
:100690004FEAC52040EA5E504FEACE2EB4F1FD0C81
:1006A00088BFBCF5E06F1ED8BEF1004F08BF5FEAFF
:1006B000500E50F1000041EB045170BD06F00046B1
:1006C00046EA010140EA020081EA0301B4EB5C045E
:1006D000C2BFD4EB0C0541EA045170BD41F4801156
:1006E0004FF0000E013C00F3AB8014F1360FDEBF7B
:1006F000002001F0004170BDC4F10004203C35DA57
:100700000C341BDC04F11404C4F1200500FA05F3D9
:1007100020FA04F001FA05F240EA020001F000427A
:1007200021F0004110EBD37021FA04F642EB0601F0
:100730005EEA430E08BF20EAD37070BDC4F10C041A
:10074000C4F1200500FA04F320FA05F001FA04F2DE
:1007500040EA020001F0004110EBD37041F10001CA
:100760005EEA430E08BF20EAD37070BDC4F12005D5
:1007700000FA05F24EEA020E20FA04F301FA05F23D
:1007800043EA020321FA04F001F0004121FA04F2E5
:1007900020EA020000EBD3705EEA430E08BF20EAB5
:1007A000D37070BD94F0000F0FD101F000464000EF
:1007B00041EB010111F4801F08BF013CF7D041EA71
:1007C000060195F0000F18BF704703F00046520075
:1007D00043EB030313F4801F08BF013DF7D043EA46
:1007E0000603704794EA0C0F0CEA135518BF95EAFC
:1007F0000C0F0CD050EA410618BF52EA4306D1D183
:1008000081EA030101F000414FF0000070BD50EAA1
:10081000410606BF1046194652EA430619D094EA2B
:100820000C0F02D150EA013613D195EA0C0F05D115
:1008300052EA03361CBF104619460AD181EA030169
:1008400001F0004141F0FE4141F470014FF0000021
:1008500070BD41F0FE4141F4780170BD70B54FF0BC
:10086000FF0C4CF4E06C1CEA11541DBF1CEA13553C
:1008700094EA0C0F95EA0C0F00F0A7F8A4EB05041E
:1008800081EA030E52EA03354FEA013100F0888015
:100890004FEA03334FF0805545EA131343EA1263DE
:1008A0004FEA022245EA111545EA10654FEA002693
:1008B0000EF000419D4208BF964244F1FD0404F54C
:1008C000407402D25B084FEA3202B61A65EB0305A8
:1008D0005B084FEA32024FF480104FF4002CB6EB65
:1008E000020E75EB030E22BFB61A754640EA0C00E5
:1008F0005B084FEA3202B6EB020E75EB030E22BF25
:10090000B61A754640EA5C005B084FEA3202B6EB65
:10091000020E75EB030E22BFB61A754640EA9C0024
:100920005B084FEA3202B6EB020E75EB030E22BFF4
:10093000B61A754640EADC0055EA060E18D04FEAB2
:10094000051545EA16754FEA06164FEAC30343EA52
:1009500052734FEAC2025FEA1C1CC0D111F4801F1F
:100960000BD141EA00014FF000004FF0004CB6E718
:1009700011F4801F04BF01430020B4F1FD0C88BFB7
:10098000BCF5E06F3FF6AFAEB5EB030C04BFB6EBC2
:10099000020C5FEA500C50F1000041EB045170BDB5
:1009A0000EF0004E4EEA113114EB5C04C2BFD4EBE2
:1009B0000C0541EA045170BD41F480114FF0000E66
:1009C000013C90E645EA060E8DE60CEA135594EAE2
:1009D0000C0F08BF95EA0C0F3FF43BAF94EA0C0FE5
:1009E0000AD150EA01347FF434AF95EA0C0F7FF45A
:1009F00025AF104619462CE795EA0C0F06D152EAAE
:100A000003353FF4FDAE1046194622E750EA410691
:100A100018BF52EA43067FF4C5AE50EA41047FF4A2
:100A20000DAF52EA43057FF4EBAE12E74FEA410205
:100A3000B2F1E04324BFB3F5001CDCF1FE5C0DD93C
:100A400001F0004C4FEAC0024CEA5070B2F1004F86
:100A500040EB830008BF20F00100704711F0804F89
:100A600021D113F13872BCBF01F00040704741F44E
:100A700080114FEA5252C2F11802C2F1200C10FA52
:100A80000CF320FA02F018BF40F001004FEAC12336
:100A90004FEAD32303FA0CFC40EA0C0023FA02F3DA
:100AA0004FEA4303CCE77FEA625307D150EA0133B0
:100AB0001EBF4FF0FE4040F44000704701F0004080
:100AC00040F0FE4040F40000704700BF7BB972B9AF
:100AD0000029BEBF00204FF0004106E008BF0028FB
:100AE0001CBF6FF000414FF0FF3000F0AFB9ADF127
:100AF000080C6DE904CE002909DB002B1ADB00F09D
:100B000035F8DDF804E0DDE9022304B07047404227
:100B100061EB4101002B1BDB00F028F8DDF804E05D
:100B2000DDE9022304B0404261EB4101524263EB34
:100B300043037047524263EB430300F017F8DDF8BC
:100B400004E0DDE9022304B0404261EB410170475B
:100B5000524263EB430300F009F8DDF804E0DDE9FD
:100B6000022304B0524263EB430370472DE9F04780
:100B70008C46089D04468A46002B4AD18A42174675
:100B800062D9B2FA82F64EB1C6F1200E01FA06F32E
:100B9000B740B44020FA0EFE4EEA030A4FEA174867
:100BA000230C1FFA87F9BAFBF8FE08FB1EAA0EFBFE
:100BB00009F243EA0A439A420BD9FB180EF1FF31BE
:100BC0002CBF012000209A4202D9002800F02A817F
:100BD0008E469A1AA3B2B2FBF8F008FB102200FB73
:100BE00009F943EA0244A14507D93C1900F1FF3352
:100BF00002D2A14500F210811846A4EB090440EA94
:100C00000E4000211DB1F4400023C5E90043BDE8BA
:100C1000F0878B4208D9002D00F0F2800021C5E951
:100C2000000C0846BDE8F087B3FA83F100294ED1E5
:100C30006345C0F0E880824240F2E5800846002D1E
:100C4000E5D0C5E9004AE2E702B9FFDEB2FA82F672
:100C5000002E40F099808B1A4FEA124E1FFA82F84C
:100C600001214FEA144CB3FBFEF20EFB123008FBDD
:100C700002F94CEA004CE14508D917EB0C0C02F1E3
:100C8000FF3302D2E14500F2CA801A46ACEB090CF0
:100C9000A3B2BCFBFEF00EFB10CC08FB00F843EA4D
:100CA0000C44A0450ED93C1900F1FF332CBF4FF086
:100CB000010C4FF0000CA04503D9BCF1000F00F06F
:100CC000A8801846A4EB080440EA02409AE7C1F164
:100CD00020048B4002FA01FE0CFA01F6E24020FAF1
:100CE00004F72CFA04FC00FA01F813433E431F0CEE
:100CF000320C1FFA83F9BCFBF7F007FB10CC00FBAA
:100D000009FA42EA0C4CE24508D913EB0C0C00F14D
:100D1000FF3202D2E24500F289801046ACEB0A0CA9
:100D2000B6B2BCFBF7FA07FB1ACC0AFB09F946EA94
:100D30000C42914506D99A180AF1FF3601D2914525
:100D40007AD8B2464AEA0040A2EB0902A0FB0E673D
:100D5000BA42B446B94602D307D1B04505D2B6EB84
:100D60000E0C67EB030301389946002D6BD0B8EBEE
:100D70000C0362EB090202FA04F4CB40CA400021E2
:100D80001C43C5E9004242E7B740C6F1200201FA20
:100D900006F3B44021FA02FC4FEA174E20FA02F2A1
:100DA0001FFA87F8BCFBFEF11A430EFB11CC01FBC6
:100DB00008F0130C43EA0C4C604507D917EB0C0CF8
:100DC00001F1FF3301D2604533D81946ACEB000C7A
:100DD00092B2BCFBFEF00EFB10CC00FB08F342EA23
:100DE0000C4C634507D917EB0C0C00F1FF3201D214
:100DF000634525D81046ACEB030340EA014130E7D8
:100E00002946284603E7841A6CEB030301209A461F
:100E100015E702383C4455E702383C44EDE6023A17
:100E2000BC4433E7AEF1020E3B44D2E602389C44A8
:100E300074E70239BC44C9E7AAF1020A1A4481E7FF
:100E40000238BC44D7E72946E1E600BF704700BF3F
:100E5000704704387047704710B5044610211EF0E3
:100E600083FF204610BDA0F10400F5E7002210B575
:100E70008260044AC16002F10804203204604260CA
:100E800010BD00BF341F020870477047704770479D
:100E90007047034670B4C66845687410F60705EBE2
:100EA00004009B6844BF2C59E35870BC1847436842
:100EB0002BB183682BB9C06800F001007047184659
:100EC00070470120704710B5044610211EF04CFFFA
:100ED000204610BD10B50446024B036000F0E8F850
:100EE000204610BD7C1F020810B50446FFF7F2FF34
:100EF000204641F2E4111EF037FF204610BD0000ED
:100F000010B5044600F086F9084B0949236041F208
:100F1000D413E150E21841F2DC135460054A204634
:100F2000E250002204F58F531A6010BD7C1F0208A6
:100F3000641F0208650F000810B5044600F0A6F80B
:100F400004F58E531433C4F80C31C4F8CC31C4F812
:100F50002C32C4F88C32C4F8EC32C4F84C33C4F8E8
:100F6000AC3310BD00F1C4038B4206D1012300F560
:100F7000927080F825300BF013B9704700220260A0
:100F800070477047704700F598730868496803C355
:100F90007047704700F0B2BB10B504464FF4AE7115
:100FA0001EF0E2FE204610BD10B50446D0F85801F0
:100FB000FFF7E7FF2046BDE810400DF087BB10B5F6
:100FC0000446D0F8400158B10368DB68984738B14F
:100FD000D4F8400103689B6898470023C4F8403167
:100FE00010BD000010B5044600F054FB014B204634
:100FF000236010BDB01F020890F8252012B10368CD
:101000005B69184770470020704781807047C18036
:101010007047018170474181704770477047704742
:1010200070477047C38810B4D21A838812B2C91AA5
:10103000036809B25B6D5DF8044B18474FF6FF7308
:1010400083814FF0FF3303621368C3611060704700
:1010500090F825201AB190F8242002B1186070474A
:101060007047704700207047B1F904308380012039
:101070007047704780F82610704790F82600704738
:101080000022028042808280C28070477047704791
:1010900010B504464C211EF067FE204610BD10B569
:1010A000D1E90E2304460AF052FD204610BD00008F
:1010B00010B50446024B03600CF006FA204610BD42
:1010C0005821020810B50446054B03600CF0FCF9EA
:1010D000204641F2D4111EF047FE204610BD00BF4D
:1010E0005821020870B50446806C0D4658B103685B
:1010F000DB68984738B1A06C2A4603682146BDE8F2
:1011000070409B68184770BD2DE9F04104461746B2
:101110001E460368BDF918501B6B98472368394673
:1011200020465B6B98472368314620469A6B904770
:10113000236829462046BDE8F041DB6B18470000D4
:10114000012180F825100B4900220160FF218280D7
:10115000C280028142818281C28102824282C0E9D0
:101160000522C2610284428480F8242080F826107F
:10117000826270473C320208002370B58380114BB5
:10118000114D03602A68064692F8581009B1D06CD8
:1011900000B990680368DB6A9847B0FA80F42B685E
:1011A0006409D86C28B10368DB6A9847002808BF37
:1011B00001242CB9054B064A2C2106481FF05CFE81
:1011C000304670BD0420020898E8002094200208F0
:1011D00084210208F220020838B504460D46FFF7C4
:1011E000CBFF034BE56023602433A360204638BD6A
:1011F000882F020810B504460AF0E8FA044B20468E
:1012000023600023A364012384F8243010BD00BFB1
:10121000242002082DE9F04F04460025A14695B090
:101220000FF0D4F8E74BE56349F8403B04F16C0B51
:101230004846FFF785FF5846FFF782FF4FF6FF73DA
:101240000DF1500A04F198082AF8043D5146404631
:101250000BF02AF804F1C403F02718460293FFF7B5
:10126000C9FF04F58873294618460A93FFF7B4FFAF
:1012700004F5927318460393FFF7BCFF04F5B873A7
:10128000294618460B93FFF7A7FF04F5C2731846CB
:101290000493FFF7AFFF04F5E873294618460C9353
:1012A000FFF79AFF04F5F27318460593FFF7A2FFC4
:1012B00004F50C73294618460D93FFF78DFF04F5CE
:1012C000117318460693FFF795FF04F5247329461A
:1012D00018460E93FFF780FF04F52973184607930D
:1012E000FFF788FF04F53C73294618460F93FFF774
:1012F00073FF04F5417318460893FFF77BFF04F56D
:101300005473294618461093FFF766FF04F5597386
:1013100018460993FFF76EFF04F56C7329461846CB
:101320001193FFF759FF04F571704FF461610CF0F0
:10133000C1F82A4600973B4629464846FFF7E4FE97
:101340004FF07F43261DA3664946304607F06AFCEE
:101350002A4600973B4629465846FFF7D5FE4FF0F0
:10136000FF335946C4F89430304607F05BFC5146D1
:101370004FF0270A4046ADF84C500BF09CF93B4625
:101380002A46009729464046FFF7BEFE29464046BA
:101390000AF045FF4146304607F044FC2A462946FC
:1013A0000298CDF800A02423FFF7AEFE4FF4187288
:1013B0004FF420734FF434594EF6AA274FF4D07BE4
:1013C000DFF80482C4E93C230A9B0299C4F8EC309C
:1013D0003046C4F8F8B0C4F80451C4F8FC50C4F85E
:1013E0000091C4F81C81A4F8207107F01BFCC922ED
:1013F00029460398CDF800A02423FFF785FE4FF47B
:101400002873C4F85031C4F854314FF4E073C4F871
:1014100058310B9B0399C4F84C313046C4F86451E1
:10142000C4F85C51C4F86091C4F87C81A4F8807160
:1014300084F8495107F0F6FB24232A4619460498FC
:10144000CDF800A0FFF760FE4FF41073C4F8B03180
:101450004FF42073C4F8B4310C9B0499C4F8AC3138
:101460003046C4F8B8B1C4F8C451C4F8BC51C4F88B
:10147000C091C4F8DC81A4F8E07107F0D3FB2A46E0
:101480000598CDF800A021234821FFF73DFE4FF439
:10149000F073C4F810324FF42073C4F814320D9B6B
:1014A0000599C4F80C323046C4F818B2C4F8245276
:1014B000C4F81C52C4F82092C4F83C82A4F84072CC
:1014C00007F0B0FB2A460698CDF800A0212368213A
:1014D000FFF71AFE4FF40073C4F870324FF4207314
:1014E000C4F874320E9B0699C4F86C323046C4F8C6
:1014F00078B2C4F88452C4F87C52C4F88092C4F81C
:101500009C82A4F8A07207F08DFB2A460798CDF8BC
:1015100000A021238921FFF7F7FD4FF40073C4F8E1
:10152000D0324FF42073C4F8D4320F9B0799C4F81B
:10153000CC323046C4F8D8B2C4F8E452C4F8DC5215
:10154000C4F8E092C4F8FC82A4F8007307F06AFBC8
:101550002A460898CDF800A02123AA21FFF7D4FD40
:101560004FF40073C4F830334FF42073C4F83433AD
:10157000109B0899C4F82C333046C4F838B3C4F82B
:101580004453C4F83C53C4F84093C4F85C83A4F8B3
:10159000607307F047FB2A460998CDF800A0212385
:1015A000CB21FFF7B1FD4FF40073C4F890334FF433
:1015B0002073C4F89433119B3046C4F898B3C4F830
:1015C000A45303E0582102085757EBFFC4F89C537B
:1015D000C4F8A093C4F8BC83A4F8C073C4F88C33D7
:1015E000099907F01FFB204615B0BDE8F08F00BF3A
:1015F000704770477047416070477047012303721E
:10160000704770477047034610B4C4684168621061
:10161000E40701EB02009B6848BF8A585DF8044B61
:1016200048BFD358184743682BB183682BB9C068AB
:1016300000F001007047184670470120704710B550
:1016400004460C211EF090FB204610BD10B5044648
:101650004FF4AE711EF088FB204610BD10B5044655
:1016600010211EF081FB204610BD10B50CF0ACFF20
:10167000BDE810400368DB6B18470000044B1B6893
:1016800093F858200AB1D86C00B99868704700BF29
:1016900098E8002070B504460D4616460DF056F841
:1016A0000021124AC4F83C111460114AC4F84011D8
:1016B0002260104AC4F84811C4F844210E4AC4F804
:1016C0004C111068C4F85011C4F85461C4F8585152
:1016D000026892689047FFF7D1FF16F082F9FFF792
:1016E000CDFF16F0F5F9204670BD00BFECE80020F4
:1016F000E0210208C821020898E80020064BC0F843
:101700004801C0F84C310023C0F8503100F5A273F5
:10171000C0F84031704700BF611800082DE9F0475C
:10172000074690689946036888461B6A1546DDF8A7
:1017300020A0984741F2E313984205D8A321424BD9
:10174000424A43481FF098FB686803681B6A984741
:101750000F2803D83F4B3D4AA421F2E7E86803680D
:101760001B6A98470B2803D83B4B384AA521E8E76A
:101770000CF02AFF04300CF04CFFD9F8000010B137
:101780000368DB689847D9F8000010B103681B684C
:101790009847386810B103685B699847D8F800002B
:1017A00010B103685B689847386810B103681B681C
:1017B0009847D8F8000010B103689B689847E8681C
:1017C000002103685B6A9847044620B10023436008
:1017D0000372224B0360A868002103685B6A984784
:1017E000064608B1FFF78CFB6868002103685B6A56
:1017F0009847054610B13146FFF738FBC9F800405D
:10180000C8F800503E60E5B12B1DCAF80030C5F89D
:1018100008A03368F5633046DB6898472B68284694
:101820001B689847214630460EF07CFF236820460F
:101830001B699847236820465B6998472846BDE89E
:10184000F0872B46E1E700BF50220208652402081A
:10185000DE2202081F230208C223020834220208E3
:1018600007B5D0F8583100F59E710093D0F8542197
:10187000034B0448FFF752FF03B05DF804FB00BFC1
:10188000E0E80020DCE8002013B5002249B102ABFB
:10189000019203F8052D0268946801AAA04702B0DE
:1018A00010BD0846FBE7C0897047008A7047C088B2
:1018B000704780887047807A00F07F007047807A98
:1018C000C00970470020704700207047406A704789
:1018D000806A704770478B88C069DB0A0A6850F8D5
:1018E00023001044704710B5C2B1137BB3B1547BD1
:1018F000D27A240204F4E0641443026A98B202EB40
:10190000840213888B4202D192F9020010BD05D8DF
:10191000013880B204320028F3D1F7E70020F5E760
:1019200010B504462C211EF01FFA204610BD000001
:1019300030B504468BB0BDF860500895BDF85C50DA
:1019400007959DF8505006959DF84C5005959DF8CB
:10195000485004959DF8445003959DF840500295D9
:101960009DF83C500195BDF8385000950EF086FA70
:101970002046064B2360159BE361169B2362199B4F
:1019800063621A9BA3620BB030BD00BF74250208CE
:101990007047000030B5124D8FB02B6813F0010373
:1019A0001BD13F2209920F4A012408920E4ACDE929
:1019B0000B33CDE906320A9305930422CDE90133B6
:1019C0000A23CDE903240093224608490848FFF77B
:1019D000AFFF08482C601FF06DFA05480FB030BD0E
:1019E00028010020C83D0208C43D0208783D0208D5
:1019F0002C0100209119000810B5002404600C602F
:101A000014601C6010BD704730B5124D8FB02B684C
:101A100013F001031BD13F2209920F4A01240892BF
:101A20000E4ACDE90B33CDE906320A930593042221
:101A3000CDE901332823CDE9032400932246084948
:101A40000848FFF775FF08482C601FF033FA054877
:101A50000FB030BD58010020C03D0208D03D020843
:101A6000A03D02085C010020071A00087047000032
:101A700030B5124D8FB02B6813F001031BD13F22FC
:101A800009920F4A012408920E4ACDE90B33CDE9A1
:101A900006320A9305930422CDE901331423CDE9DC
:101AA00003240093224608490848FFF741FF0848ED
:101AB0002C601FF0FFF905480FB030BD88010020F1
:101AC000CC3D0208D43D0208B03D02088C01002044
:101AD0006D1A0008704710B5044604211EF044F941
:101AE000204610BD012908B508D003D3022909D02A
:101AF000002002E000F012F8006808BD00F00EF8C7
:101B00004068FAE700F00AF88068F6E70048704796
:101B1000E825020801207047002070470048704700
:101B2000B801002010B5FFF7A3FF044C2060FFF7B9
:101B30006BFF6060FFF72EFFA06010BDB8010020B2
:101B400000207047002070470EB403B503AB53F874
:101B5000042B002101930DF083FC02B05DF804EB2F
:101B600003B070470CB407B504AB53F8042B0193D2
:101B70000DF076FC03B05DF804EB02B07047000096
:101B800010B5436C044673B3038F2BB9C521184BB2
:101B9000184A19481FF070F9C38E00EB43035B8CA1
:101BA0000BB30FF086FA238F012B03D8134B144A83
:101BB000CB21EEE7E28E40F63F10531C9BB2194654
:101BC000092B88BFA3F10A0104EB4101498C814232
:101BD00009D10A2B28BF002304EB4202508C04EBEE
:101BE0004303588451842046BDE810400FF064B987
:101BF000FC250208292702080526020849260208B2
:101C0000572602080FF01FB938B5D8B9114B124842
:101C10001B681249BBB11A689C681A4402605A6872
:101C20001C441A440A606CB100220D4B1A80FFF765
:101C300075FF0546FFF770FF0A4B1C600A4B1D60DD
:101C40000A4B188038BD0A4B03600A4B0B600A4BE5
:101C50001C68E8E7C4010020C8010020CC01002076
:101C6000D0010020F0E80020F8E80020F4E800208F
:101C70000C4508080045080808450808012380F8B5
:101C8000781080F879307047002070474164003147
:101C900018BF0121014B1970704700BF97E8002061
:101CA00000207047836B0BB10846184770474FF60A
:101CB000FF707047406803689B691847704770471A
:101CC000002210B5B1F90840B1F90A100280428033
:101CD0008480C18010BD017770470162704780F831
:101CE0002410704780F82510704701207047983005
:101CF00070478C307047843070477047704770472A
:101D00007047704710B504462C211EF02DF8204670
:101D100010BD10B50446BC211EF026F8204610BDAB
:101D200010B531B90A4B0B4A40F2D2210A481FF0D4
:101D3000A3F8C0E90F12003218BF012207490A7048
:101D400002681946BDE81040D2F88C20104700BF49
:101D5000FB280208B52902083329020896E800206A
:101D600008B5094B1B888B4203D8084B1B8893424C
:101D700005D9074B074A9E2107481FF07DF8074BFE
:101D80001980074B1A8008BD8CE800208EE80020DF
:101D900098280208722902083329020892E80020D4
:101DA00094E8002070B5044607F023FA23685D6EBE
:101DB0000CF00AFC01462046A8472368054AD3F8E0
:101DC00088502046AC46BDE870400023A2F5E131C2
:101DD000604700BF70CF022007F0F2B907F0FCB9EE
:101DE00007F0B8B907F027BB10B5044607F05CFF51
:101DF00023682046BDE81040D3F8AC30184790F86F
:101E00007A301BB1406803681B6818471846704752
:101E100010B590F8784090F834100C4B8C421A783A
:101E200009D03AB90A490B4A08881488108001225F
:101E30000C801A7010BD002AFCD0064A0449148890
:101E400008880C8010800022F3E700BF90E8002093
:101E50008EE800208CE80020704700002DE9F0415A
:101E6000FF2B00EB4101BDF8184005D120F8024BD3
:101E70008142FBD8BDE8F081174D04F4FC6704EA09
:101E8000050C04F01F0403FB0CFC5F435C43DB43C5
:101E9000FF26DBB2B0F800E00EEA05020EF4FC68A3
:101EA00003FB02C203FB08780EF01F0E03FB0E4E6D
:101EB00092FBF6F298FBF6F89EFBF6FE2A4008F439
:101EC000FC6842EA08020EF01F0E42EA0E0220F8F9
:101ED000022B8142DED8CDE700F8FFFF70B5244E1B
:101EE000356815F0010540D1224C234B04F1340034
:101EF000C4E90035C4E902552561E5842585658579
:101F0000A5850DF0EAFE04F158000AF065F92046B7
:101F10001A4BA3651A4B40F8843BFFF72DF9194B78
:101F20001948C4F884302433C4F88C306423A4F8EE
:101F3000A0300023C4F8AC30C4F8B030C4F8B430DA
:101F4000C4F8B830114BC4F89050C4F8983001234D
:101F5000C4F89C50C4F8A45084F8A85084F8A95040
:101F600084F8AA5033601EF0A5FF024870BD00BF80
:101F7000D4010020D8010020D42F0208DC27020859
:101F800054280208882F0208FB1C0008682F02084A
:101F9000024B1880BFF34F8F704700BF02000060F4
:101FA0004FF0C0431880BFF34F8F70477047002039
:101FB00070477047704700207047704708B5034A64
:101FC000034B222103481EF057FF00BFA02A02083E
:101FD000032A0208262A020808B5034A034B2721D0
:101FE00003481EF049FF00BFDE2A0208032A020848
:101FF000262A020810B5044644211DF0B5FE2046ED
:1020000010BD000038B5044600252146064B0C30B3
:10201000606025726572012241F8203B07F0B4FF31
:10202000E562204638BD00BF582A0208012108B5E4
:102030000022084606F02FFC0A4B186028B9282118
:10204000094B0A4A0A481EF017FF0022042101200A
:1020500006F0C8FC074B186018B9074B034A2C213F
:10206000F0E708BD980200201C2B0208D02B0208C4
:10207000652B0208940200208E2B0208024B4FF0C1
:10208000FF31186806F056BC98020020014B186812
:1020900006F07EBC98020020024B0021186806F072
:1020A00049BC00BF98020020FFF7F0BF002303489F
:1020B0001A460349006806F0D5BC00BF9402002010
:1020C00004000020002313B5074C1A4601A920681C
:1020D00006F0FCFC4FF0FF33002201A9206806F057
:1020E000F5FC02B010BD00BF940200200120704733
:1020F0000C2070470C2303FB0100083070470C23B1
:1021000003FB0100083070470120704741F2E410E2
:10211000704741F2E41303FB01000830704741F2BD
:10212000E41303FB010008307047012070471020C2
:10213000704700EB01100830704700EB01100830C9
:1021400070470846FFF7DABA10B50446024B036041
:1021500006F052FD204610BD702C020810B5044652
:10216000FFF7F2FF204614211DF0FEFD204610BDB2
:1021700010B50446024B036006F03EFD204610BD3C
:102180003C2C020810B50446FFF7F2FF204641F24E
:10219000EC111DF0E9FD204610BD000010B504460D
:1021A000024B036006F028FD204610BD082C0208F3
:1021B00010B50446FFF7F2FF204618211DF0D4FDAC
:1021C000204610BD10B50446084B036000F5905042
:1021D0001830FFF7B9FF04F12C00FFF7C9FF04F135
:1021E0001400FFF7DBFF204610BD00BFA42C02083F
:1021F00008B50248FFF7E6FF08BD00BFA0020020B7
:1022000010B50446FFF7DEFF204641F28C311DF089
:10221000ABFD204610BD00002DE9F341FFF776FC31
:1022200000240546FFF776FC234601462246284651
:1022300000940FF013FA224B224A20461A60FFF74F
:10224000E3FC214B214A224F9A6022480FF06EF99D
:102250003B68DB072ED4204C204E214B06F118059D
:1022600004F1140004F12C086060C4F80880E660F2
:102270002561236006F0C2FC1A4B4046636106F0FC
:10228000BDFC194B3046E36206F0B8FC174B06F173
:1022900014003360FEF772FE224606F11401284650
:1022A000FEF7A0FE2846FFF729FA012310483B60FD
:1022B0001EF000FE0F4802B0BDE8F04100F082BA07
:1022C000FCE80020181700201C1700202C16002006
:1022D0009C02002008000020A0020020B81400206A
:1022E000A42C0208082C02083C2C0208702C0208BE
:1022F000F12100089016002070470000014806F008
:102300008CBF00BF9016002070B5304E304B314C62
:10231000314D30462360FFF775FE284613F04EFD21
:102320002E480DF07DFA002201212D4B2D48C3E9E6
:102330000422C3E90622C3E908221A8583F82A2069
:10234000DA621A86C3E90E22C3E9102283F8482014
:1023500083F8491083F84A2083F84B20C3E91322FD
:102360005A6583F85820C3E917225A66986683F89D
:102370006C2083F86D2083F86E20C3E90165DC6072
:1023800083F86F2083F87A1083F87B10164917487A
:102390000B60F02101801648C3F8802001801548A9
:1023A00083F87020018014485A670180134983F82C
:1023B00078200A7083F8792083F834201049C3F814
:1023C0008420104A1960DA6770BD00BF4C160020E7
:1023D000AC2D0208481600201C1700202C160020E7
:1023E000901600200100000198E800208CE80020F1
:1023F00092E800208EE8002094E8002090E8002079
:10240000D42C0208C42D02087047704700230371C2
:1024100000F0B8BA70B504460E4600F087FF0B4DC9
:102420002B68C01AB0F5487F04D900F07FFF002365
:102430002860237100F0A8FAC0B2307028B1237967
:10244000834216BF20710020012070BDA417002018
:1024500010B5044608211DF087FC204610BD000081
:10246000014B1868704700BFA8170020034B834238
:1024700002BF0122024B1A70704700BF94F3002084
:102480000C00002072B6FEE770470000014B196097
:10249000FFF735BCA8170020FFF7A2BCFFF7A2BCCE
:1024A000FFF72CBC10B504460E2003F001FF2046B8
:1024B000BDE81040FFF722BC10B504460E2003F023
:1024C00005FF2046BDE81040FFF718BCFFF716BC1B
:1024D0000022024B1A70FFF77FBC00BFAC17002030
:1024E00010B50446FFF77AFC94F84B3013B1012283
:1024F000014B1A7010BD00BFAC17002006F024BEBF
:1025000010B5044688211DF02FFC204610BD2DE992
:10251000F041054690460C461E462A20EFB2FFF7D2
:102520003FFDC5F30F20FFF733FD08F1FF383846B4
:10253000FFF72EFD08EB0500C0F30F20FFF728FD85
:1025400007EB0800C0B2FFF723FD2B20FFF728FDA3
:10255000E5B2C4F30F20FFF71BFD013E2846FFF74D
:1025600017FD3019C0F30F20FFF712FDA819C0B2F4
:10257000BDE8F041FFF70CBD70B5454D454C2A68EC
:102580009CB092F86A30013382F86A30FFF78EFD12
:10259000237893B9404802F073FF08B100F086FD3C
:1025A0003D4802F06DFE08B100F080FD3B4A00217D
:1025B000394803F0F8FD01232370394B1B78002BB9
:1025C00063D0286807F070FBF02300211A46084604
:1025D000FFF79DFF2C20FFF7E3FC00232E4A23701A
:1025E000126D140651D52F4A222011684FF4007243
:1025F000CDE90102CDE9033208224FF48030CDE964
:1026000005230122CDE907204FF040404FF6FE742C
:102610000C93CDE91423CDE9163318931293CDE929
:102620000F33214B0D902148CDE90A221991CDE9B4
:102630001A3403F051F940BB1D4901A803F006F814
:1026400018BB1B49194803F0B7F8F0B90346194DF8
:10265000164E199A2244199243B114490E4803F0B8
:102660007FF990B90C4802F08FFF0EE04CF2022384
:10267000294601A81B9302F0E9FF30B929463046EC
:1026800003F0DAF801230028E3D01CB070BD00BFCE
:1026900098E800200C00002094F300206D2400082E
:1026A000AC170020A817002002000060F8170020D7
:1026B000B0170020D4170020082808B506D1002044
:1026C00000F0C0F8BDE80840FFF756BF08BD8028FD
:1026D00001D100F01FB9082802D1002000F0CCB8C9
:1026E00070470000F0B500228FB04FF4005132481F
:1026F00003F054FF012000F01FFE01224FF40051AF
:102700002D4803F04BFF782000F016FE3A20FFF72B
:1027100047FC0520FFF73CFC2120FFF741FC6A46FF
:102720001546264B03F118061446186859680833F5
:1027300003C4B3422246F7D107AA16461868204BB5
:10274000206003F11807144618685968083303C459
:10275000BB422246F7D118682060E020FFF720FC3A
:10276000002435F814000134FFF712FC0E2CF8D1C8
:10277000E120FFF715FC002436F814000134FFF7C0
:1027800007FC0E2CF8D12C20FFF70AFC4FF4614413
:102790000020FFF7FDFB013CFAD12920FFF700FCE8
:1027A0001120FFF7FDFB3520FFF7FAFB20460FB0A5
:1027B000BDE8F040FFF7ECBB001C0242BC1E020863
:1027C000D81E020838B504460D4DFFF78BFF0D4AA1
:1027D0000021284603F0E7FC0B4A0221284604F1B9
:1027E0007C0503F0E0FC284600F0E0F801232561B9
:1027F00084F870302046FFF7D5FA044B636138BD8A
:1028000094F300206D24000885240008101800208F
:1028100008B5054B01461B6800B10121184607F0B9
:102820005DFA012008BD00BF98E800200248034B74
:102830000360FFF7EBBD00BF10180020B82C0208A2
:1028400070470000032813D8DFE800F002070A0EE3
:1028500001221021074803F0A1BE01222021F9E73F
:1028600001224FF48071F5E701224FF40041F1E7B6
:10287000704700BF00180242032813D8DFE800F0B9
:1028800002070A0E00221021074803F087BE00222B
:102890002021F9E700224FF48071F5E700224FF480
:1028A0000041F1E7704700BF0018024203280FD82B
:1028B000DFE800F00206080B1021064803F073BEA3
:1028C0002021FAE74FF48071F7E74FF40041F4E775
:1028D000704700BF001802427047704710B50446A9
:1028E00004211DF041FA204610BD000010B5064B32
:1028F000187838B1054C24680C60054909681160E6
:1029000000221A7010BD00BF1C18002020180020E3
:10291000241800207FB54FF0FF360323144D154CCB
:1029200004AA02F8013D702100960123284603F015
:1029300041FA2246009604237021284603F0CEFA7D
:10294000237862781B0203F47063C3F1EF039B1AD0
:10295000094A1360A378E2781B0203F470631344FE
:10296000064A13600122064B1A7004B070BD00BF06
:102970000CF4002018180020241800202018002033
:102980001C1800207047000008B54FF4005104489F
:1029900003F0FEFD01280CBF3520002008BD00BF5C
:1029A000000802424068704741607047094A136856
:1029B00043F080731360A2F54E424C3A1168064B07
:1029C0000B431360A2F57B62136843F001031360AD
:1029D000704700BFFCED00E055CEACC5521A02EBCB
:1029E0005302B2FBF3F07047014B1868704700BF09
:1029F000041000E0704710B504460C211DF0B4F936
:102A0000204610BD10B5036804461B6931B19847D4
:102A1000A26863689B1A1844606010BD9847A06064
:102A2000FBE708B5012005F027FFFBE7014900207F
:102A300005F07ABA1128000808B5074A00210748AE
:102A400005F0CEFE064B074A18600021064805F047
:102A5000C7FE064B186008BD082E0208232A00088E
:102A60008CF30020E42D0208AB6A000890F30020EC
:102A7000012210B51C491D48D1F8883043F4700379
:102A8000C1F888301A4B1A600022DA611A621C6899
:102A90002040186017489A62DA621A6358639A6392
:102AA000D8631A6458649A64186820F48020186007
:102AB0001A654FF000638B600F4B9A6902F0404239
:102AC000B2F1404F0FD1DA69D20741BF0B4ADA6049
:102AD00002F14432DA60DA6942F00202DA61DA695C
:102AE00042F00102DA6110BD00ED00E0E3EAE2EA43
:102AF000000C024480020101002002403B2A190818
:102B000010B54D4A4D49D36903F01803082B5FD027
:102B100003D8002B55D04A4B58E0102B5AD0182B15
:102B2000F9D1906A936AC3F3052307EE103A936ACA
:102B3000946BC3F30013C4F3CC04634307EE903AE1
:102B400000F00303022BF8EEE76A45D0032B5BD0BD
:102B5000012B6DD11068536B394AC0F3C100C240DC
:102B600007EE902AB8EEE76AF8EEC77AC3F30803D7
:102B700086EE277A07EE903A9FED326AF8EEE77A12
:102B8000E6EE867AF7EE006A77EEA67A67EE277AA7
:102B9000294B5B6BC3F34623013307EE103AB8EEC3
:102BA000C77AC7EE876AFCEEE66AC1ED006A224B7F
:102BB000254A1B6A03F00F03D25C0B68D3400B60FD
:102BC00010BD12681E4BC2F3C102D3400B60EEE78A
:102BD0001E4BFBE71E4BF9E7536B9FED1A6AC3F3DD
:102BE000080307EE903AF8EEE77AE6EE867AF7EE1B
:102BF000006AB8EEC77A77EEA67A9FED166AC6EE3F
:102C0000076A67EEA67AC3E7536B9FED0E6AC3F3BC
:102C1000080307EE903AF8EEE77AE6EE867AF7EEEA
:102C2000006AB8EEC77A77EEA67A9FED0B6AE6E700
:102C3000DFED0A7AACE700BF000C02441000002070
:102C40000090D00300000039412E020800093D0029
:102C500040787D010024744A20BCBE4B0000000077
:102C6000FEE7FEE7FEE7FEE7FEE77047082003F019
:102C7000A3BC802003F0A0BC014803F01BBD00BF33
:102C8000DCF40020014803F0BDB900BF94F300203C
:102C900030B59DB05022002108A81EF076F9182208
:102CA000002102A81EF071F91C4B1A6942F0300293
:102CB0001A611A6902F030020192019A5A691007EA
:102CC000FCD501224FF4A0230524CDE9082364227A
:102CD00002230325CDE914420422CDE912351693CF
:102CE000CDE917230821002308A8CDE919131B9368
:102CF00001F01CFF08B172B6FEE71F23CDE9040006
:102D0000CDE90600214602A8CDE9023501F0D2FD49
:102D100008B172B6FEE71DB030BD00BF0008024426
:102D200010B50A4C00220821204603F037FC0A2087
:102D300000F002FB20460122082103F02FFCBDE831
:102D400010404FF4967000F0F7BA00BF001802422E
:102D500080B5C04C92B000F0BDFAFFF799FFFFF7C5
:102D6000CFFE142200210AA81EF00FF9D4F88C30EF
:102D7000002243F00203C4F88C30D4F88C3048F2BF
:102D8000381103F002030293029BD4F88C30B2484E
:102D900043F04003C4F88C30D4F88C30012603F0A3
:102DA00040030393039BD4F88C30002543F00803C1
:102DB000C4F88C30D4F88C30082703F0080304934F
:102DC000049BD4F88C3043F48073C4F88C30D4F86E
:102DD0008C3003F480730593059BD4F88C3043F05A
:102DE0008003C4F88C30D4F88C3003F08003069351
:102DF000069BD4F88C3043F00403C4F88C30D4F82C
:102E00008C3003F004030793079BD4F88C3043F015
:102E10002003C4F88C30D4F88C3003F020030893DE
:102E2000089BD4F88C3043F01003C4F88C30D4F8ED
:102E30008C3003F010030993099B03F0AFFB0122D0
:102E40000821864803F0AAFB01224FF40051844870
:102E500003F0A4FB00224021824803F09FFB48F2CC
:102E60003003CDE90A3603230AA97B48CDE90C5388
:102E700003F0F2FA7C4B0AA97C48CDE90A730C9561
:102E800003F0EAFACDE90A764FF400570AA973482D
:102E9000CDE90C5503F0E0FA0AA97148CDE90A76AC
:102EA000CDE90C5503F0D8FA0AA96E48CDE90A75A8
:102EB0000C9503F0D1FA40230AA96A48CDE90A36F5
:102EC000CDE90C5503F0C8FA4FF4847380270AA9A2
:102ED0006148CDE90A36CDE90C5503F0BDFA644BE3
:102EE0000AA95D48CDE90A730C9503F0B5FA2A46A4
:102EF00005210E2003F0A8F90E2003F0D9F92A4687
:102F00000521122003F0A0F9122003F0D1F90E20C0
:102F100003F0DCF9FFF704FFD4F888302A4643F0C9
:102F20000203C4F88830D4F88830052103F0020386
:102F300001936020019B03F087F9602003F0B8F94A
:102F40004C4C4D4B204623604FF44003C4E90E35F2
:102F50004FF040432564C4E9113702F091F908B1FC
:102F600072B6FEE71021204603F036F908B172B6BA
:102F7000FEE7424B424A9880C3E905001A601846B2
:102F80001E6201F053FB08B172B6FEE701F08AFB46
:102F900008B172B6FEE73B4C3B4B3C4FC4E902061E
:102FA000C4E90400C4E9060020622046C4E90073B5
:102FB00002F0A3FE014608B172B6FEE7204601F01A
:102FC0007BFB014608B172B6FEE7204601F0A0FB8C
:102FD000024608B172B6FEE72D4B2E4911901960DA
:102FE00001F58271C3E901101021C3E90300C3E9AF
:102FF0000510C3E907004FF48050C3E909024FF4FC
:1030000000100A24D8630F200725CDE90A400220CA
:10301000CDE90C500420CDE90E0111211846109184
:103020000AA9C3E90B22C3E90D22C3E9102283F8E0
:10303000482002F069F808B172B6FEE703F02EFDF1
:1030400003F02BFD05F096FBFFF7F6FC05F0A8FB5F
:10305000FEE700BF000C02440018024200200242BA
:10306000001C02420008024200003110000C024223
:103070000000211094F300205013024060F400205F
:10308000003002400CF40020E543C010002C004446
:1030900084F40020000400470268034B9A4201D1E7
:1030A00000F038B9704700BF0010004072B6FEE76C
:1030B00070B5214B88B0D3F89C20064642F0100230
:1030C000C3F89C20D3F89C30694603F010030193A9
:1030D00002A8019B01F0F8FF059B3BBB01F0E2FF5A
:1030E000164C174B23606323E360164BB0FBF3F0E1
:1030F00000230138606020462361A36003F078FC60
:10310000054668B9204603F06DFA054640B90F2E12
:1031100010D802463146312003F096F80A4B1E6063
:10312000312003F0C5F8284608B070BD01F0BAFFA1
:103130004000D5E70125F3E7000C0244DCF4002051
:1031400000100040A08601001800002000220F217E
:103150006FF0010003F078B80268094B82B09A4220
:103160000CD1084BD3F8882042F48052C3F8882051
:10317000D3F8883003F480530193019B02B0704769
:1031800000300240000C024410B50446CAB01422BC
:10319000002103A81DF0F9FE4FF48472002108A855
:1031A0001DF0F3FE2268224B9A423FD100224FF4D9
:1031B000806308A8CDE9082300F0A8F908B1FFF75B
:1031C00075FF1C4C4FF44072D4F88C30002143F052
:1031D0000203C4F88C30D4F88C30174803F0020393
:1031E0000193019B1223CDE903230323CDE90513AA
:1031F000062303A9079303F02FF9104BD3F80021FE
:1032000042F40022C3F80021D3F8002142F48022C6
:10321000C3F80021D4F8A83043F48073C4F8A83070
:10322000D4F8A83003F480730293029B4AB010BD17
:10323000002C0044000C024400040242000400443C
:103240002DE9F04186B01422002101A81DF09DFE59
:103250001B4B1E688EBB4FF00108C3F80080194B52
:103260000227D3F89420032542F48032C3F8942037
:10327000D3F894300C2403F480330093009B4CF279
:10328000B37301A91048CDE90137CDE9045403F027
:10329000E3F801A90D48CDE90187CDE9036505945F
:1032A00003F0DAF84FF6807301A90948CDE9013738
:1032B000CDE90365059403F0CFF806B0BDE8F081D1
:1032C00028180020000C0244000C024200140242A4
:1032D0000010024210B5032002F0A4FF01F042FAF0
:1032E000094B0A4A1B6A03F00F03D35CD840084B12
:1032F00018600420FFF7DCFE044618B9FFF726FF2C
:10330000204610BD0124FBE7000C0244412E0208B8
:1033100010000020034A044B11681B780B44136013
:10332000704700BF28F5002014000020014B1868EA
:10333000704700BF28F5002038B50446FFF7F6FFB8
:103340000546631C1EBF044B1B78E418FFF7EEFF15
:10335000401BA042FAD338BD1400002070B5344C95
:103360000546236823F080632360FFF7DFFF0646EE
:1033700023681A014ED4E36A2A6823F47C5323F0AD
:10338000030313436A6843EA0223E362EB682A6992
:10339000013B013A5B02120402F4FE029BB21343AA
:1033A000AA68013AC2F3080213436A69013A120695
:1033B00002F0FE421343E363E36AAA6923F00C03BD
:1033C0001343E362E36AEA6923F020031343E362F1
:1033D000E36A6A6A1343E362E36A23F01003E36279
:1033E000236C2A6A23F47F4323F0F80343EAC203E1
:1033F0002364E36A43F01003E362236843F08063CD
:103400002360FFF793FF0546094C23681B0108D58D
:10341000002005E0FFF78AFF801B0228A8D90320BF
:1034200070BDFFF783FF401B0228EED9F7E700BF0E
:10343000000C024470B5344C0546236823F08053D9
:103440002360FFF773FF064623689A004ED4236B70
:103450002A6823F47C5323F0030313436A6843EA86
:1034600002232363EB682A69013B013A5B021204E1
:1034700002F4FE029BB21343AA68013AC2F30802A7
:1034800013436A69013A120602F0FE421343636471
:10349000236BAA6923F00C0313432363236BEA69AC
:1034A00023F0200313432363236B6A6A13432363CC
:1034B000236B23F010032363A36C2A6A23F47F4356
:1034C00023F0F80343EAC203A364236B43F0100321
:1034D0002363236843F080532360FFF727FF0546EB
:1034E000094C23689B0008D5002005E0FFF71EFF6C
:1034F000801B0228A8D9032070BDFFF717FF401BCF
:103500000228EED9F7E700BF000C024400212DE9A4
:10351000F8430446D0E9002302F0807050EA01032A
:1035200008D0A04AA16DD2F8E83023F040430B4305
:10353000C2F8E8300021D4E9002302F0010050EA8B
:10354000010316D0E36D052B2BD8DFE803F0090348
:103550002509090904F10800FFF700FF064648B9EC
:10356000904AE16DD2F8D83023F007030B43C2F83C
:10357000D8300026D4E90023002102F0020050EAEE
:10358000010307D0236E102B36D00CD88BB1082B3B
:1035900011D0012635461DE004F13000FFF74AFF47
:1035A000DCE70126E6E7202B03D0282B01D0182BDF
:1035B000EFD1354604E004F10800FFF7CFFE0546E1
:1035C000FDB9784A216ED2F8D83023F038030B4386
:1035D000C2F8D8300021D4E9002302F0040050EAF8
:1035E000010322D0636E802B39D00CD89BB1402BC5
:1035F0002FD00126354618E004F13000FFF71AFFFE
:10360000DDE72E46E6E7B3F5807F04D0B3F5A07F73
:1036100001D0C02BEDD13DBB624A616ED2F8D830EB
:1036200023F4E0730B43C2F8D8300021D4E900231F
:1036300002F0080050EA01032BD0A36EB3F5806FAF
:1036400041D013D8DBB1B3F5007F36D00126354623
:103650001FE004F10800FFF781FE0546DBE704F1F7
:103660003000FFF7E7FEF8E72E46DEE7B3F5006F20
:1036700005D0B3F5206F02D0B3F5C06FE6D13DBBE6
:10368000484AA16ED2F8D83023F460630B43C2F8E5
:10369000D8300021D4E9002302F0100050EA0103E1
:1036A0002BD0E36EB3F5005F41D013D8DBB1B3F597
:1036B000805F36D0012635461FE004F10800FFF791
:1036C0004DFE0546DBE704F13000FFF7B3FEF8E7F7
:1036D0002E46DEE7B3F5804F05D0B3F5A04F02D0FC
:1036E000B3F5405FE6D13DBB2E4AE16ED2F8D8304B
:1036F00023F4E0430B43C2F8D8300021D4E900237F
:1037000002F0200050EA01032BD0236FB3F5803F75
:1037100041D013D8DBB1B3F5004F36D00126354682
:103720001FE004F10800FFF719FE0546DBE704F18E
:103730003000FFF77FFEF8E72E46DEE7B3F5003FE7
:1037400005D0B3F5203F02D0B3F5C03FE6D13DBB75
:10375000144A216FD2F8D83023F460330B43C2F8F7
:10376000D8300021D4E9002302F0400050EA0103E0
:103770002DD0636FB3F5002F43D015D8EBB1B3F55F
:10378000802F38D00126354621E004F10800FFF7EC
:10379000E5FD0546DBE704F13000FFF74BFEF8E7F7
:1037A0002E46DEE7000C0244B3F5801F05D0B3F5CA
:1037B000A01F02D0B3F5402FE4D13DBB934A616F07
:1037C000D2F8D83023F4E0130B43C2F8D8300021EC
:1037D000D4E9002302F0800050EA01032BD0A36F4C
:1037E000B3F5800F41D013D8DBB1B3F5001F36D04D
:1037F000012635461FE004F10800FFF7AFFD05463E
:10380000DBE704F13000FFF715FEF8E72E46DEE7B0
:10381000B3F5000F05D0B3F5200F02D0B3F5C00FFC
:10382000E6D13DBB794AA16FD2F8D83023F46003CA
:103830000B43C2F8D8300021D4E9002302F4807091
:1038400050EA01032BD0E36FB3F1007F42D013D8CD
:10385000DBB1B3F1807F37D0012635461FE004F19C
:103860000800FFF77BFD0546DBE704F13000FFF7BA
:10387000E1FDF8E72E46DEE7B3F1806F05D0B3F146
:10388000A06F02D0B3F1407FE6D145BB5F4AE16F44
:10389000D2F8D83023F0E0630B43C2F8D8300021CF
:1038A000D4E9002302F4007050EA01032DD0D4F8CB
:1038B0008030B3F1805F3FD013D8DBB1B3F1006F3C
:1038C00034D00126354620E004F10800FFF746FD1C
:1038D0000546DAE704F13000FFF7ACFDF8E72E46C5
:1038E000DDE7B3F1005F05D0B3F1205F02D0B3F1A3
:1038F000C05FE6D12DBB454AD4F88010D2F8D8304D
:1039000023F060530B43C2F8D8300021D4E90023E0
:1039100002F4806050EA010325D0D4F88430052BEE
:1039200039D8DFE803F015103315151504F1080038
:10393000FFF714FD0546DDE704F13000FFF77AFDDF
:10394000F8E72E46E1E704F10800FFF707FD05461A
:1039500025BB2E4AD4F88410D2F8DC3023F00703BC
:103960000B43C2F8DC300021D4E9002302F40060EC
:1039700050EA010325D0D4F88830202B3ED00FD850
:10398000A3B1102B34D0012635461AE004F13000E3
:10399000FFF750FDDBE701263546E4E72E46E2E778
:1039A000402B03D0502B01D0302BECD15DBB174AFC
:1039B000D4F88810D2F8DC3023F070030B43C2F83F
:1039C000DC300021D4E9002302F4805050EA0103E6
:1039D00034D0D4F88C30B3F1007F00F0018117D8D7
:1039E000FBB1B3F1807F00F0F5800126354625E07C
:1039F00004F10800FFF7B2FC0546D7E704F13000F8
:103A0000FFF718FDF8E72E46DBE700BF000C024485
:103A1000B3F1806F05D0B3F1A06F02D0B3F1407F56
:103A2000E3D1002D40F0E180B74AD4F88C10D2F8F1
:103A3000E03023F0E0630B43C2F8E0300021D4E92A
:103A4000002302F4005050EA010317D0D4F890305C
:103A5000B3F5803F00F0D68000F2C980002B40F023
:103A6000CE80002D40F0D480A74AD4F89010D2F830
:103A7000E43023F440330B43C2F8E4300021D4E9AE
:103A8000002302F4804050EA010317D0D4F89430A8
:103A9000B3F5802F00F0C98000F2BC80002B40F00D
:103AA000C180002D40F0C780974AD4F89410D2F816
:103AB000E43023F440230B43C2F8E4300021D4E97E
:103AC000002302F4004050EA010317D0D4F89830E4
:103AD000B3F5801F00F0BC8000F2AF80002B40F0F7
:103AE000B480002D40F0BA80874AD4F89810D2F8FC
:103AF000E43023F440130B43C2F8E4300020D4E94F
:103B0000002303F4806150EA010317D0D4F89C30FD
:103B1000B3F5800F00F0AF8000F2A280002B40F0E0
:103B2000A780002D40F0AD80774AD4F89C10D2F8E1
:103B3000E43023F440030B43C2F8E4300021D4E91D
:103B4000002302F4803050EA010318D0D4F8A030EA
:103B5000B3F1807F00F09780B3F1007F02D0002B9B
:103B600040F09780002D40F09780674AD4F8A0106D
:103B7000D2F8E43023F040730B43C2F8E430002065
:103B8000D4E9002303F4006150EA010309D05E4B3D
:103B9000DA6922F40042DA61DA69D4F804110A43DE
:103BA000DA610021D4E9002302F4003050EA010375
:103BB00000F08880D4F8A430B3F5007F00F09D8039
:103BC0006CD8002B73D0B3F5807F00F09080012675
:103BD000354677E004F10800FFF7C0FB054620E713
:103BE00004F13000FFF726FCF8E72E4626E7B3F590
:103BF000003F3FF436AFB3F5403F3FF432AF01260C
:103C000035463BE704F13000FFF714FC054628E792
:103C10002E4633E7B3F5002F3FF443AFB3F5402F03
:103C20003FF43FAF0126354648E704F13000FFF787
:103C300001FC054635E72E4640E7B3F5001F3FF48B
:103C400050AFB3F5401F3FF44CAF0126354655E762
:103C500004F13000FFF7EEFB054642E72E464DE744
:103C6000B3F5000F3FF45DAFB3F5400F3FF459AF2C
:103C70000126354662E704F13000FFF7DBFB05461D
:103C80004FE72E465AE704F13000FFF7D3FB054615
:103C900068E70126354672E72E4670E7B3F5806F78
:103CA00005D0B3F5A06F02D0B3F5407F8FD14DBBE7
:103CB000154AD4F8A410D2F8DC3023F4E0630B43A7
:103CC000C2F8DC300021D4E9002302F4802050EA5D
:103CD00001032FD0D4F8A830B3F5005F45D015D834
:103CE000EBB1B3F5805F3AD00126354622E004F10E
:103CF0000800FFF733FB0546D9E704F13000FFF772
:103D000099FBF8E72E46DDE7000C0244B3F5804F3F
:103D100005D0B3F5A04F02D0B3F5405FE4D14DBB61
:103D2000A04AD4F8A810D2F8DC3023F4E0430B43C7
:103D3000C2F8DC300020D4E9002303F0200150EA6F
:103D400001032DD0D4F8AC30B3F5003F43D013D8E5
:103D5000DBB1B3F5803F38D00126354620E004F1D1
:103D60000800FFF7FBFA0546D9E704F13000FFF73A
:103D700061FBF8E72E46DDE7B3F5802F05D0B3F5FC
:103D8000A02F02D0B3F5403FE6D14DBB854AD4F811
:103D9000AC10D2F8DC3023F4E0230B43C2F8DC3063
:103DA0000020D4E9002303F0400150EA01032DD0A4
:103DB000D4F8B030B3F5001F43D013D8DBB1B3F55E
:103DC000801F38D00126354620E004F10800FFF7B7
:103DD000C5FA0546D9E704F13000FFF72BFBF8E7F9
:103DE0002E46DDE7B3F5800F05D0B3F5A00F02D066
:103DF000B3F5401FE6D14DBB6A4AD4F8B010D2F8F3
:103E0000DC3023F4E0030B43C2F8DC300020D4E9BB
:103E1000002303F0800150EA01032DD0D4F8B43020
:103E2000B3F1007F43D013D8DBB1B3F1807F38D03A
:103E30000126354620E004F10800FFF78FFA054619
:103E4000D9E704F13000FFF7F5FAF8E72E46DDE791
:103E5000B3F1806F05D0B3F1A06F02D0B3F1407F12
:103E6000E6D14DBB4F4AD4F8B410D2F8DC3023F081
:103E7000E0630B43C2F8DC300020D4E9002303F4F4
:103E8000807150EA01032DD0D4F8B830B3F1005F4F
:103E900044D013D8DBB1B3F1805F39D00126354669
:103EA00020E004F10800FFF759FA0546D9E704F1CC
:103EB0003000FFF7BFFAF8E72E46DDE7B3F1804F99
:103EC00005D0B3F1A04F02D0B3F1405FE6D155BBAE
:103ED000344AD4F8B810D2F8DC3023F0E0430B4376
:103EE000C2F8DC300021D4E9002302F4002050EABB
:103EF00001032BD0D4F8C030B3F5003F4BD014D819
:103F0000002B3CD0B3F5803F3FD0012635461DE065
:103F100004F10800FFF722FA0546D8E704F1300063
:103F2000FFF788FAF8E72E46DCE7B3F5403F02D00A
:103F3000B3F5802FE9D19DBB1A4AD4F8C010D2F84E
:103F4000E83023F4E0230B43C2F8E8300021D4E941
:103F5000002302F4801050EA010338D0D4F8C430B2
:103F6000B3F5801F00F0D3801ED8002B00F0C38073
:103F7000B3F5002F00F0C5800126354627E0094A39
:103F8000936A43F400339362D5E704F10800FFF726
:103F9000E5F90546CFE704F13000FFF74BFAF8E703
:103FA0002E46D3E7000C0244B3F5C01F02D0B3F590
:103FB000001FE1D1002D40F0AF80B24AD4F8C41008
:103FC000D2F8E83023F460130B43C2F8E830002144
:103FD000D4E9002302F4001050EA01031FD0D4F802
:103FE000D4300122052B00F2998002FA03F313F07A
:103FF0003B0F07D1580740F1918004F10800FFF70B
:10400000ADF90546002D40F08C809E4AD4F8D410BE
:10401000D2F8E83023F007030B43C2F8E830002061
:10402000D4E9002303F4007150EA01030ED0D4F860
:10403000D8200AB1082A76D1002D77D19149D1F83C
:10404000E83023F008031343C1F8E8300021D4E935
:10405000002302F0007050EA010371D08A4F7B6A9E
:1040600043F001037B62FFF761F980467B6AD90761
:104070005ED5002D40F0A380824AD2F8F03013F4D0
:10408000407315D0D4F8F810994211D0D2F8F0301E
:10409000D2F8F01023F4407341F48031C2F8F010EC
:1040A000D2F8F01021F48031C2F8F010C2F8F030EC
:1040B000DA076FD4D4F8F800724A00F44073B3F50D
:1040C000407F78D1D169714B21F47C5103EA101300
:1040D0000B43D3616B4AD2F8F03023F44073C2F83B
:1040E000F030D4F8F830D2F8F010C3F30B030B43E0
:1040F000C2F8F03024E0634A936A43F400339362D9
:1041000058E704F10800FFF729F9054652E704F1E2
:104110003000FFF78FF9F8E72E4658E716461546A8
:104120007DE72E467BE7012635468FE72E468DE755
:10413000FFF7FCF8A0EB0800022897D903263546C4
:10414000D4E90023002102F0806050EA010311D07D
:10415000D4F8C830102B3BD033D8B3BB002D3DD1A1
:10416000484AD4F8C810D2F8E83023F030030B43A3
:10417000C2F8E8300021D4E9002302F4800050EABC
:1041800001033DD0D4F8CC3053B3402B48D00126A6
:10419000354635E0FFF7CAF841F288398046394F95
:1041A000D7F8F0309B0785D4FFF7C0F8A0EB0800E4
:1041B0004845F5D9C2E7D36923F47C5389E72E46F5
:1041C000BEE7202BCAD0302BC8D001263546D1E718
:1041D0002C4A936A43F400339362BFE72E46C9E743
:1041E000284A936A43F400339362FDB9254AD4F810
:1041F000CC10D2F8E43023F040030B43C2F8E43093
:104200000021D4E9002302F4000050EA01031FD08A
:10421000D4F8D03063B1802B2BD00126354617E07F
:1042200004F10800FFF79AF80546DEE72E46E7E7B7
:10423000144A936A43F40033936205BB114AD4F8DD
:10424000D010D2F8E43023F080030B43C2F8E430FE
:104250000021D4E9002302F0006050EA010327D0D6
:10426000D4F8E030042B41D8DFE803F012353B17D7
:10427000170004F10800FFF771F80546DDE72E4648
:10428000E6E700BF000C024400080244CFFFFF0035
:104290009E4A936A43F40033936255BB9B4AD4F819
:1042A000E010D2F8E03023F007030B43C2F8E0300F
:1042B0000021D4E9002302F0805050EA010329D004
:1042C000D4F8E430102B45D015D8BBB3082B3BD025
:1042D000012635461EE004F10800FFF73FF80546C9
:1042E000DBE704F13000FFF7A5F8F8E701263546D3
:1042F000DEE72E46DCE7182B01D0202BE8D175BB7A
:10430000824AD4F8E410D2F8E03023F038030B43AB
:10431000C2F8E0300021D4E9002302F0005050EA56
:1043200001032ED0D4F8E830802B4BD019D8002BC5
:104330003CD0402B40D00126354622E0734A936A98
:1043400043F400339362DAE704F10800FFF706F85C
:104350000546D4E704F13000FFF76CF8F8E72E4685
:10436000D8E7C02B02D0B3F5807FE4D17DBB674A8C
:10437000D4F8E810D2F8E03023F4E0730B43C2F82D
:10438000E0300021D4E9002302F0804050EA01032C
:1043900033D0D4F8EC30B3F5806F49D019D80BB3D3
:1043A000B3F5007F3ED00126354626E0574A936A92
:1043B00043F400339362D9E704F10800FEF7CEFF1F
:1043C0000546D3E704F13000FFF734F8F8E72E464E
:1043D000D7E7B3F5006F05D0B3F5206F02D0B3F582
:1043E000C06FE0D14DBB494AD4F8EC10D2F8E030B0
:1043F00023F460630B43C2F8E0300021D4E90023CA
:1044000002F0004050EA01032DD0D4F8F030B3F5AB
:10441000005F43D013D8DBB1B3F5805F38D00126FD
:10442000354620E004F10800FEF798FF0546D9E77D
:1044300004F13000FEF7FEFFF8E72E46DDE7B3F5A6
:10444000804F05D0B3F5A04F02D0B3F5405FE6D161
:104450004DBB2E4AD4F8F010D2F8E03023F4E043FC
:104460000B43C2F8E0300020D4E9002303F001013F
:1044700050EA01032DD0D4F8F430B3F5803F3ED09C
:1044800013D8DBB1B3F5004F33D00126354620E019
:1044900004F10800FEF762FF0546D9E704F1300099
:1044A000FEF7C8FFF8E72E46DDE7B3F5003F05D07D
:1044B000B3F5203F02D0B3F5C03FE6D125BB134A88
:1044C000D4F8F410D2F8E03023F460330B43C2F890
:1044D000E0300020D4E9002303F0020150EA010398
:1044E00027D0D4F8DC30032B7DD8DFE803F0161199
:1044F000761604F10800FEF731FF0546DEE704F109
:104500003000FEF797FFF8E72E46E2E7000C024482
:10451000454A936A43F400339362002D66D1424AC0
:10452000D4F8DC10D2F8E43023F003030B43C2F8D4
:10453000E4300020D4E9002303F0040150EA010331
:1045400015D0D4F8BC30B3F5807F51D0B3F5007FDF
:1045500054D0002B58D1002D59D1334AD4F8BC1077
:10456000D2F8E83023F440730B43C2F8E83000205F
:10457000D4E9002303F0100150EA010318D0D4F865
:104580000031202B45D0302B06D0102B47D1264AA6
:10459000936A43F400339362002D42D1224AD4F847
:1045A0000011D2F8E43023F030030B43C2F8E430BA
:1045B0000020D4E9002303F0080150EA010309D0E8
:1045C000194AD4F8FC10D2F8E83023F0C0030B43AA
:1045D000C2F8E8303046BDE8F88304F10800FEF781
:1045E000BDFE054699E701263546A2E72E46A0E71F
:1045F0000D4A936A43F400339362ACE704F1080078
:10460000FEF7ACFE0546A6E701263546AFE72E4687
:10461000ADE704F13000FEF70DFF0546BCE70126CB
:10462000C6E72E46C4E700BF000C024410B504469E
:1046300008B9012010BD437F03F0FF0213B90277D0
:10464000FEF78AFD022363772379FBB92368144AB6
:104650005A612268936823F0180393606279236893
:10466000E2B94FF0FF321A61226861699368002055
:1046700023F060030B4393602268A169936823F0E1
:1046800080030B43936001236377D3E7D4E90212DD
:10469000204602F0DDF90028E0D0CAE72269E2E70F
:1046A000B71DC104034A0020136843F001031360DF
:1046B000704700BF0004034010B590F84130DBB2F2
:1046C000202B23D190F84020012A1FD0012280F80E
:1046D00040202422046880F84120226822F0010250
:1046E00022600468226822F48052226004682268F2
:1046F0001143216001680A6842F001020A6080F8F3
:104700004130002380F84030184610BD0220FCE7FD
:1047100010B590F84120D2B2202A21D190F8403033
:10472000012B1DD0012380F840302423046880F839
:104730004130236823F0010323600468236823F4D5
:10474000706343EA0121216001680B6843F00103B3
:104750000B60002380F8412080F84030184610BDDF
:104760000220FCE710B54C4BDA6902F01802082A67
:1047700000F08C80DA6912F0180F09D11A684748E6
:1047800012F0200F03D01B68C3F3C103D84010BD43
:10479000DA6902F01802102A7AD0DA6902F01802F7
:1047A000182A77D1996A986A9C6AC0F305209A6B97
:1047B0000028ECD007EE900AC2F3CC02C4F300103C
:1047C0004243F8EEE76A07EE902A01F00302012A5D
:1047D000FAEEE97AF7EE005A0FD0032A48D05B6B65
:1047E0009FED2F6AC3F3080307EE103AB8EEC77ABD
:1047F00077EE277A77EEA57A37E01A68920627D502
:104800001968264AC1F3C101CA4007EE102AB8EE62
:10481000C76A5B6B86EE267AC3F3080306EE903A0E
:10482000F8EEE66A76EEA77A77EEA57A1A4B67EE8F
:10483000877A5B6BC3F34623013307EE103AF8EE39
:10484000C76A87EEA67AFCEEC77A17EE900A9EE753
:104850005B6B9FED146AC3F3080307EE103AB8EEE2
:10486000C77A77EE277A77EEA57A86EE267ADDE7A5
:104870005B6B9FED0D6AC3F3080307EE103AB8EEC9
:10488000C77A77EE277A77EEA57AEEE707487EE7D4
:1048900007487CE701487AE7000C02440090D00307
:1048A0000024744A0024744C20BCBE4B00093D0017
:1048B00040787D012DE9F0410D46044610B90120F4
:1048C000BDE8F081894A136803F00F038B4276D369
:1048D0002368D9067FD423681A070DD58449206937
:1048E0000A6A120902F07002904281BF0B6A23F437
:1048F000E06343EA00130B6223685B070BD57C4A35
:10490000E068116A01F07001884281BF136A23F0E8
:1049100070030343136223689F070BD5744AA06892
:10492000116A01F00F01884281BF136A23F00F035F
:10493000034313622368DE075CD42368980700F101
:10494000AF806A4A136803F00F03AB4200F2B580F0
:104950002368590700F1BD8023681A070DD5644903
:1049600020690A6A120902F0700290423FBF0B6A86
:1049700023F4E06343EA00130B622368DB060DD5E2
:104980005B4960690A6A120A02F0700290423FBFF6
:104990000B6A23F4E04343EA00230B62FFF7E2FED5
:1049A000534B544A1B6A03F00F03D35CD840524B5D
:1049B0001860524BBDE8F0411868FEF779BB1368E8
:1049C00023F00F030B431360136803F00F038B42B4
:1049D0007FF475AF7CE7464960690A6A120A02F003
:1049E0007002904281BF0B6A23F4E04343EA002344
:1049F0000B6270E761683E4B03291A681DD112F003
:104A0000007F3FF45CAFDA69394F22F003020A43BA
:104A1000DA61FEF78BFC63680646032B41F28838A7
:104A200018D1FB6903F01803182B86D0FEF77EFC23
:104A3000801B4045F5D9032042E7022902D112F438
:104A4000003FDEE7012902D112F4007FD9E712F01E
:104A5000020FD6E7022B0BD1FB6903F01803102BD2
:104A60003FF46BAFFEF762FC801B4045F4D9E2E7F0
:104A7000012B10D1FB6903F01803082B3FF45DAF45
:104A8000FEF754FC801B4045F4D9D4E7FEF74EFCFA
:104A9000801B4045CFD8FB6913F0180FF6D14CE7C7
:104AA000134AA068116A01F00F0188423FBF136AE0
:104AB00023F00F030343136243E7136823F00F034C
:104AC0002B431360136803F00F03AB427FF4F7AE80
:104AD0003EE7074AE068116A01F0700188423FBF73
:104AE000136A23F070030343136235E7002002408A
:104AF000000C0244412E0208100000201800002083
:104B000008B5FFF72FFE064B064A1B6A03F00F039A
:104B1000D35C03F01F03D840034B186008BD00BFEF
:104B2000000C0244412E0208100000202DE9F04143
:104B3000044608B901204EE0A44BDE699F6A036871
:104B400006F01806DA0607F0030710D5082EC36929
:104B500003D0182E24D1022F22D1002BEAD09B4A59
:104B6000216A936923F47C1343EA01439361236828
:104B7000D90743D423689A0700F1A0802368180757
:104B800000F1F9802368590700F1248123689D060C
:104B900000F19F81A06A002840F0C08100201AE047
:104BA0008A4DD3B12B6843F480732B60FEF7BEFBB4
:104BB00080462B689B0507D5AB69226A23F47C13DA
:104BC00043EA0243AB61D2E7FEF7B0FBA0EB08007B
:104BD0000228EED90320BDE8F0812B6823F480730E
:104BE0002B60FEF7A3FB80462B689805BFD5FEF728
:104BF0009DFBA0EB08000228F6D9EBE7102E6268B7
:104C000003D0182E04D1032F02D1002AB2D191E78C
:104C1000B2F5803F6D4B03D11A6842F480320BE04D
:104C2000DAB91A6822F480321A601A6822F4801203
:104C30001A601A6822F480221A6063687BB3FEF758
:104C400075FB8046614D2B689B0393D4FEF76EFB8A
:104C5000A0EB08006428F6D9BCE7B2F5A02F08D174
:104C60001A6842F480221A601A6822F480121A60CC
:104C7000D2E7B2F5A81F1A6806D142F480221A6062
:104C80001A6842F48012F2E722F480321A601A683D
:104C900022F480221A601A6822F48012CCE7FEF710
:104CA00045FB8046494D2B6898037FF563AFFEF7BF
:104CB0003DFBA0EB08006428F5D98BE7E3681EB143
:104CC000182E2FD1012F2DD1002B3FF433AF76B109
:104CD000FEF72CFB07463D4D2B6899071CD52B6929
:104CE000626923F4FE0343EA02432B6146E7374A35
:104CF0002069116801F018018142E9D0136823F09E
:104D0000180303431360FFF7FBFE314B1868FEF7EF
:104D1000CFF90028DCD00DE7FEF708FBC01B022806
:104D2000DAD957E7294DABB12B68226923F0180374
:104D300013432B602B6843F001032B60FEF7F6FA58
:104D400007462B689A07CAD4FEF7F0FAC01B022860
:104D5000F7D93FE72B6823F001032B60FEF7E6FA53
:104D600007462B689B077FF509AFFEF7DFFAC01BEC
:104D70000228F6D92EE7A369144D9BB1D5F8F0307F
:104D800043F08063C5F8F030FEF7D0FA0746D5F857
:104D9000F0301A013FF5F6AEFEF7C8FAC01B022844
:104DA000F5D917E7D5F8F03023F08063C5F8F03077
:104DB000FEF7BCFA0746D5F8F0301B017FF5E2AEEE
:104DC000FEF7B4FAC01B0228F5D903E7000C024431
:104DD00018000020B14D6B6AD80708D5A268B04B07
:104DE000012A14D1D3F8F02042F0010220E06B6ACE
:104DF00043F001036B62FEF799FA07466B6AD90725
:104E0000ECD4FEF793FAC01B0228F7D9E2E622BBE6
:104E1000D3F8F02022F00102C3F8F020D3F8F020FC
:104E200022F08002C3F8F020D3F8F02022F0040230
:104E3000C3F8F020A368DBB3FEF778FA41F28838B4
:104E40000746974DD5F8F0309A073FF59FAEFEF72D
:104E50006DFAC01B4045F5D9BCE6052A0CD1D3F844
:104E6000F02042F00402C3F8F020D3F8F02022F042
:104E70008002C3F8F020B5E7852AD3F8F02008D1E6
:104E800042F00402C3F8F020D3F8F02042F0800290
:104E9000EFE722F00102C3F8F020D3F8F02022F06F
:104EA0000402C3F8F020D3F8F02022F08002BFE71C
:104EB000FEF73CFA41F288380746794DD5F8F030D4
:104EC0009B077FF563AEFEF731FAC01B4045F5D96D
:104ED00080E6636A724D83B12B6843F480532B6084
:104EE000FEF724FA07462B6898043FF553AEFEF709
:104EF0001DFAC01B0228F6D96CE62B6823F48053F8
:104F00002B60FEF713FA07462B6899047FF542AE33
:104F1000FEF70CFAC01B0228F6D95BE6182E604D8E
:104F200073D02B68022823F080732B6059D1FEF7D1
:104F3000FDF906462B689A014DD4AB6AE26A23F468
:104F40007C5323F003031343226B43EA0223AB6237
:104F5000A36BE26B013B013A5B02120402F4FE0216
:104F60009BB21343626B013AC2F308021343226CF3
:104F7000013A120602F0FE4213436B63AB6A23F060
:104F80001003AB62E36CDB00AB63AB6A43F010036E
:104F9000AB62AB6A626C23F00C031343AB62AB6A87
:104FA000A26C23F020031343AB62AB6A3C4C43F486
:104FB0008033AB622B6843F080732B60FEF7B6F949
:104FC000054623689B013FF5E9ADFEF7AFF9401BAD
:104FD0000228F6D9FEE5FEF7A9F9801B0228A9D917
:104FE000F8E5FEF7A3F90446286810F0007006D132
:104FF000AB6A23F4E02323F00303AB62EBE5FEF797
:1050000095F9001B0228EFD9E4E50128AA6A6B6B29
:105010003FF4E1ADE06A02F0030181427FF48AAD22
:10502000216BC2F305228A427FF484AD626BC3F325
:105030000801013A91427FF47DADA26BC3F3462192
:10504000013A91427FF476ADE26BC3F30641013A37
:1050500091427FF46FAD226CC3F30663013A934231
:105060007FF468ADAB6BE26CC3F3CC0393423FF4C7
:1050700095AD0B4DAB6A23F01003AB62FEF756F90A
:105080000646FEF753F9B042FBD0E36CDB00AB639E
:10509000AB6A43F01003AB6280E500BF0008024436
:1050A000000C024408B5FFF72BFD054B054A1B6AAF
:1050B000C3F30213D35C03F01F03D84008BD00BF45
:1050C000000C0244512E02081F230D4A0360D369CD
:1050D00003F003034360136A03F00F02826003F0DE
:1050E0007002C2601A091B0A03F07003436102F0E8
:1050F0007002044B02611B6803F00F030B607047E2
:10510000000C02440020024070B50E4615460446CD
:1051100050B390F8513003F0FF021BB980F85020D3
:10512000FEF78EF804F10801206801F0E3F8A268A8
:105130003146206801F044F9E36AA26829466068B4
:1051400001F06BF92268A168002052F8213043F089
:10515000010342F82130054A136843F0004313600D
:10516000012384F8513070BD0120FCE700040047A2
:1051700010B541EA0203064C0343234018B9002945
:1051800014BF084610462040C01A18BF012010BDA9
:105190000000FFFF28B190F8200029B972B910462D
:1051A000704739B191F8200091F820308342F5D052
:1051B00002207047002AF2D092F8200092F82020B6
:1051C000824214BF03200020704700002DE9F04305
:1051D0001768D0F808C000293BD000254FF6FC7EA8
:1051E0002B462C46DFF8948001EA0E014FEA87092E
:1051F00064453FD08B420CD00668A4BB06EA0E0380
:105200000134F5E70168ECB901EA060301346445AD
:10521000F8D194600168194C21400D435560016834
:1052200021400B43D36053F8273043B1006823F08B
:1052300003031B0420401B0C034313610023184687
:10524000BDE8F08308EB030501EA0E0169581D462D
:10525000DAE70D460B460C46DFF820E04FEA8708F8
:105260004FF6FC76D3E709EB030506EA0806AE59CC
:105270001D46C3E78B42CCD00123E0E70000FFFFCF
:1052800038B50446FEF752F80546002C00F0EF80D2
:10529000002384F84C300223226884F85430536988
:1052A00043F00603536123685A69D20700F1D480A2
:1052B000D4E90E1211436F4A6F48934200F089807F
:1052C00002F18052934200F0848002F170428032F9
:1052D00093427ED002F1805293427AD002F1704222
:1052E0008032934275D002F18052934271D002F124
:1052F0007042803293426CD002F18052934268D067
:1053000002F170428032934263D002F180529342A4
:105310005FD002F17042803293425AD002F1805243
:10532000934256D0834254D08032934251D002F1FE
:105330007042803293424CD002F18052934248D066
:1053400002F1704202F54862934242D002F180526B
:1053500093423ED002F170428032934239D002F142
:105360008052934235D002F170428032934230D065
:1053700002F1805293422CD002F17042803293426B
:1053800027D002F18052934223D002F17042803242
:1053900093421ED002F1805293421AD002F1704221
:1053A0008032934215D002F18052934211D002F123
:1053B0007042803293420CD002F18052934208D066
:1053C00002F170428032934203D002F18052934244
:1053D00001D1226C11435A6922F443020A435A61F3
:1053E0000023226813642268616C5164226893640C
:1053F0002268D36422681365236883421ED01F4A43
:1054000093421BD002F170428032934216D002F1D7
:105410008052934212D002F1704202F578629342B8
:105420000CD002F18052934208D002F170428032D7
:10543000934203D002F18052934203D100225A6575
:1054400023689A6500202368D867A36CA06523654C
:10545000012384F8543038BDFDF768FF401B052850
:105460007FF621AF1023A365032384F85430012075
:10547000F1E700BF500002405003024050030250C9
:1054800070B50446FDF752FF0646002C77D025681C
:105490006B6943F006036B612268536913F00103E3
:1054A00063D15361226813602268136422685364D5
:1054B000226893642268D364226813652268D367E4
:1054C0002368304A93421FD002F1805293421BD08E
:1054D00002F170428032934216D002F18052934220
:1054E00012D002F1704202F5786293420CD002F1C0
:1054F0008052934208D002F170428032934203D02E
:1055000002F18052934203D100225A6523689A65C2
:105510000120236825F47F62C3F30B0322F00F02FE
:10552000503B5168C3F3C41300FA03F321EA0303A9
:1055300053604FF4FE422368DA600023626FC4E9CF
:105540001833C4E91A3323671AB11073626F1361F9
:105550006367E26D002302B1E3650020A365236564
:1055600084F8543084F84C3070BDFDF7DFFE801BAA
:10557000052891D91023A365032384F85430012012
:10558000F2E700BF50030240002856D0416F0029C7
:1055900053D090F854300268DBB2012B526903D02B
:1055A000022B45D1D30343D590F85420D2B2012A1F
:1055B00037D190F84C30012B4FF002033FD080F8E8
:1055C000543080F84C200B730023426F83651361C5
:1055D0000268536943F4BA435361436E23B10268CE
:1055E000536943F400735361036F23B10268536935
:1055F00043F400535361436F12491B681A6A1B0C32
:1056000012F0020F104A18BF0A4601681B040B6013
:10561000436F01681B6823F003031B041B0C134337
:10562000CB6702680020536943F001035361704760
:1056300040238365002380F84C30012070471846D2
:10564000704700BF000001FE000001F830B50028DF
:1056500000F0AB80002900F0A880C26943691343C1
:10566000C26B13430269134382691A430A600368D9
:105670009D0610D5836AC46A856B013B1B052C43CC
:1056800003F07C732343446A013C240104F47C74DA
:10569000234313430B604368026B23F480739B0521
:1056A0009B0D13434B60C268B2F5806F77D10268DF
:1056B000940602D543F480634B604A68446B1443FC
:1056C0004C60426C42B1836C056C1B042A4303F4AA
:1056D0007C13224313434B60B0F868408C6003682E
:1056E0009A0727D5C36C5A1E314B03EA0243234362
:1056F0008B60026D002ABCBF43F080538B60426D0B
:105700008B68002AB4BF43F0005323F000538B6032
:10571000826D8B68002AB4BF43F0804323F080433E
:105720008B60C26D8B68002AB4BF43F0004323F046
:1057300000438B60036ECB60436E0B6103689B0775
:105740001ED5036D002BB8BF5B42C3F30C034B6146
:10575000426D184B002AB8BF52424C6903EA02431B
:1057600023434B61836D002BB8BF5B429BB28B61BF
:10577000C26D8B69002AB8BF524243EA02438B6173
:1057800003680B62006810F002001BBF002043F4A6
:10579000E06343F4A0630B6208BF0B6230BDB2F557
:1057A000007F8AD143F4007386E70120F6E700BF4B
:1057B0000000FF070000FF1F70B50E46044678B1D9
:1057C00071B14069012802D10423236170BD2568AD
:1057D00000222846FFF7CCFC024618B105232361BE
:1057E0000120F3E72846FFF7D5FC08B10423F6E7CC
:1057F00002232373206145B9A36800200133A3600D
:105800000123206126602373E0E70B6A084903F057
:105810000203002B074B0ABF0B460722052225F087
:1058200003052D042D0C1D4346F82250E4E700BF6C
:10583000000001F8000001FEF0B50D4687B00446F7
:1058400080B179B14069012803D10423236107B0F5
:10585000F0BD266800223046FFF78AFC024618B1E8
:10586000052323610120F2E73046FFF793FC014650
:1058700008B10423F5E746B92560A3680020013389
:10588000A360012320612373E1E72B6A06AA03F0DA
:105890000203002B14BF072705270D4B42F8147D88
:1058A00020460C4E08BF1E46FFF790FC636833B1DC
:1058B00023F003031B041B0C334345F8273025F06A
:1058C00003052D042D0C049B354343F82750D4E7E2
:1058D000000001F8000001FEF0B500283BD0037B7A
:1058E000022B03D1012303611846F0BD4369012B4C
:1058F00002D104220261F7E7022303730023026846
:10590000036132B9002303610360C0E9013303730B
:10591000EAE7126A194612F0020F0CBF05250725A7
:105920004FF6FC749C460D4FAE0082689142E9D25E
:10593000026802EA070E51B902EA040352F8252070
:105940003344224043F80EC001311346EDE7F2180C
:1059500052F80E20F4E70123C6E700BF0000FFFF66
:1059600070B169B190F8543090F85420DBB2022A3B
:1059700001D0052B06D140238365002380F84C30ED
:10598000012070470B7B022B02D101200861704778
:1059900003681B4A934226D002F18052934222D0E0
:1059A00002F17042803293421DD002F18052934244
:1059B00019D002F1704202F57862934213D002F1DD
:1059C000805293420FD002F17042803293420AD04B
:1059D00002F18052934206D00B681B6A9B0702D5E6
:1059E00003230B61CCE7026D4B68812A02D11BB9FE
:1059F0000423F6E7002BFBD141670020704700BF6E
:105A00005003024003689A69910744BF00229A62DA
:105A100003689A69D2075EBF9A6942F001029A61EF
:105A20007047000030B5039D04682B4343EA0243EE
:105A3000064A6068C1F309010B4342EA555223F05C
:105A4000004320EA02000343636030BDFF63FF03AD
:105A50002DE9F041036805469C690F4614F01004D7
:105A6000904671D0002410222646DA612B689A698C
:105A7000900664D4002E38D0012044F004042A6833
:105A80009369D90541BF4FF4807144F00104D1619D
:105A900001205A0506D54FF4806101202A6844F0A0
:105AA0000804D1619B0551D54FF400722B6844F076
:105AB0000204DA612846FFF7A5FF2A68012053682F
:105AC00023F0FF7323F48B3323F4FF7323F00103DC
:105AD00053606B6C1C4320236C6485F841300023B9
