:020000040806EC
:10E40000000600207D1B0708471B0708491B07085B
:10E410004B1B07084D1B07084F1B0708A51B0708C8
:10E42000000000000000000000000000511B070871
:10E43000531B070800000000551B0708571B07085F
:10E44000A91B0708AD1B0708B11B0708B51B070868
:10E45000B91B0708BD1B0708C11B0708C51B070818
:10E46000C91B0708CD1B0708D11B0708D51B0708C8
:10E47000D91B0708DD1B0708E11B0708E51B070878
:10E48000E91B0708ED1B0708F11B0708F51B070828
:10E49000F91B0708FD1B0708011C0708051C0708D6
:10E4A000091C07080D1C0708111C0708151C070884
:10E4B000191C07081D1C0708211C0708251C070834
:10E4C000291C07082D1C0708311C0708351C0708E4
:10E4D000391C07083D1C0708411C0708451C070894
:10E4E000491C07084D1C0708511C0708551C070844
:10E4F000591C07085D1C0708611C0708651C0708F4
:10E50000691C07086D1C0708711C0708751C0708A3
:10E51000791C07087D1C0708811C0708851C070853
:10E52000891C07088D1C0708911C0708951C070803
:10E53000991C07089D1C0708A11C0708A51C0708B3
:10E54000A91C0708AD1C0708B11C0708B51C070863
:10E55000B91C0708BD1C0708C11C0708C51C070813
:10E56000C91C0708CD1C0708D11C0708D51C0708C3
:10E57000D91C0708DD1C0708E11C0708E51C070873
:10E58000E91C0708ED1C0708F11C0708F51C070823
:10E59000F91C0708FD1C0708011D0708051D0708D1
:10E5A000091D07080D1D0708111D0708151D07087F
:10E5B000191D07081D1D0708211D0708251D07082F
:10E5C000291D07082D1D0708311D0708351D0708DF
:10E5D000391D07083D1D0708411D0708451D07088F
:10E5E000491D07084D1D0708511D0708551D07083F
:10E5F000591D07085D1D0708611D0708651D0708EF
:10E60000691D07086D1D0708711D0708751D07089E
:10E61000791D07087D1D0708811D0708851D07084E
:10E62000891D07088D1D0708911D0708951D0708FE
:10E63000991D07089D1D0708A11D0708A51D0708AE
:10E64000A91D0708AD1D0708B11D070870B58D4B42
:10E6500000F048F8844C00F04BF88B4A00F060F86A
:10E6600017D000F067F8920100F0B6F8920100F0C0
:10E6700099F889010BD52168490305D500F040F8C8
:10E6800010EE101A816070BD9FED730AF8E700214B
:10E69000F8E701604160F5E770B5754B00F022F8CE
:10E6A000724C00F025F8734A00F03AF817D000F0E9
:10E6B00041F8120100F090F8120100F073F809011E
:10E6C0000BD52168490305D500F01AF810EE101A91
:10E6D000816070BD9FED600AF8E70021F8E70160F6
:10E6E0004160F5E71968C1F3080100EE101A7047A0
:10E6F00025682168C1F30521266806F010067047D9
:10E700001968C1F3066100EE901AF8EE600AB7EEE0
:10E71000001A70EE810A80EE200ABCEEC00A704733
:10E720001268C2F3CC02564300EE906AF8EE600A1B
:10E730000029704705F00305012D13D012D3032DD6
:10E7400007D00FD201EE101AB8EE411ADFED431ACE
:10E7500005E001EE101AB8EE411ADFED411A81EE24
:10E76000811A0FE0494A1268494DC2F3C102D540EF
:10E7700001EE105AB8EE411A01EE901AF8EE611A45
:10E7800081EE211AB8EE400ADFED361A00EEA10A3A
:10E79000F7EE000A30EE200A21EE000A3B490A6833
:10E7A0007047000012D5226892030FD51A68C2F391
:10E7B000064200EE902AF8EE600AB7EE001A70EEFC
:10E7C000810AC0EE200AFCEEE00A01E0DFED220A39
:10E7D000C0ED010A0968704712D52268D2030FD52F
:10E7E0001A68C2F3462200EE902AF8EE600AB7EEED
:10E7F000001A70EE810AC0EE200AFCEEE00A01E089
:10E80000DFED150AC0ED000A0A68704770B51B4BB2
:10E81000FFF768FF184CFFF76BFF194AFFF780FFFF
:10E8200017D0FFF787FF9200FFF7D6FF9200FFF7A0
:10E83000B9FF89000BD52168490305D5FFF760FFB3
:10E8400010EE101A816070BD9FED030AF8E70021F9
:10E85000F8E701604160F5E7000000000024744A19
:10E8600020BCBE4B00000039280C02442C0C024492
:10E870003C0C0244400C0244300C0244440C024460
:10E88000480C0244340C0244380C0244000C02448C
:10E890000090D00300B589B04FF000720023994278
:10E8A00008BF90422DD1DFF8240A016801F44071BD
:10E8B0000268920703D5B1F5807F00F0F285006809
:10E8C000000103D5B1F5007F00F0F385DFF8000A01
:10E8D0000068800340F10F86B1F5407F40F00B8661
:10E8E000DFF8F009016801F47C51B1F5007FC0F058
:10E8F0000286DFF8E4190068C0F30520B1FBF0F0F0
:10E90000F3E2002908BF012800F03C81002908BF7C
:10E91000022800F05981002908BF042800F06F8107
:10E92000002908BF082800F08A81002908BF1028A4
:10E9300000F0AA81002908BF202800F0CC8100291E
:10E9400008BF402800F0EA81002908BF802800F0B5
:10E950000882002908BFB0F5807F00F025820029D9
:10E9600008BFB0F5007F00F03282002908BFB0F583
:10E97000806F00F05282002908BFB0F5006F00F0F0
:10E980006B82002908BFB0F5805F00F08382002908
:10E9900008BFB0F5005F00F0CE82002908BFB0F5D7
:10E9A000804F00F0DC82002908BFB0F5004F00F076
:10E9B000EA82002908BFB0F5803F00F00D830029EE
:10E9C00008BFB0F5003F00F01683002908BFB0F57E
:10E9D000802F00F03983002908BFB0F5002F76D0D2
:10E9E000002908BFB0F5801F00F09480002908BFFF
:10E9F000B0F5001F00F06F82002908BFB0F5800F4E
:10EA000000F0AF80002908BFB0F5000F00F0B08023
:10EA1000002908BFB0F1806F00F02F85002908BFE2
:10EA2000B0F1006F00F0F883002908BFB0F1805FFB
:10EA300000F01084002908BFB0F1005F00F02884C6
:10EA4000002908BFB0F1804F00F05984002908BFA9
:10EA5000B0F1004F00F07684012908BF002800F0D3
:10EA60009784022908BF002800F0BF84042908BF4A
:10EA7000002800F0BE83082908BF002800F0E684C3
:10EA8000102908BF002800F01785202908BF00289A
:10EA900000F00483402908BF002800F02683802965
:10EAA00008BF002800F04683B1F5807F08BF00282A
:10EAB00000F06683B1F5007F08BF002800F02B82CC
:10EAC000B1F5806F3AD1002800F0718202E2DFF8E0
:10EAD0007809016811F4E0214ED0B1F5803F21D0D2
:10EAE000B1F5003F22D0B1F5403F23D0B1F5802FE2
:10EAF00024D100F028FD01D5002857D00A689205DE
:10EB000002D5B0F1804F57D00968890358D5B0F1CC
:10EB1000004F98E2DFF83009016811F460112BD042
:10EB2000B1F5002F00F0C483B1F5801F00F0C5835C
:10EB3000B1F5C01F00F0C683B1F5001F40F0DB84C3
:10EB400000F001FD01D5002830D00A68920502D5F9
:10EB5000B0F1804F30D00968890331D5B0F1004F52
:10EB600071E200F0DDFC10F0400005D0402806E026
:10EB700000F0D6FC10F0800000F0A484802800F0A3
:10EB80004184A7E100F0D0FC10F0070000F00584FC
:10EB900000F0D2FC01D501285BD00A68920001D5B3
:10EBA00002285DD00A68920702D5032800F033845A
:10EBB0000968890502D5042800F03A8400F0ABFC0E
:10EBC00040F19984052884E100F0AEFC10F0380093
:10EBD0005ED000F0B1FC01D508283AD010283FD013
:10EBE0000A68920701D5182865D00968890501D5FA
:10EBF000202867D000F08FFC68D5282869E100F054
:10EC000093FC10F4E07043D000F096FC01D540284E
:10EC10001FD00A68920001D5802821D00A68920787
:10EC200001D5C02847D00968890502D5B0F5807F95
:10EC300048D000F070FC49D5B0F5A07F49E100F064
:10EC400073FC10F4606023D000F076FC03D5B0F5BF
:10EC5000007F00F0AB830A68920003D5B0F5806FA7
:10EC600000F03C840A68920702D5B0F5C06F22D04C
:10EC70000968890502D5B0F5006F23D000F04BFC80
:10EC800024D5B0F5206F24E100F04EFC10F4E040F4
:10EC900000F0EF8100F050FC02D5B0F5805FD8D0D5
:10ECA0000A68920002D5B0F5005FD9D00A689207D1
:10ECB00003D5B0F5405F00F0AE830968890503D540
:10ECC000B0F5804F00F0B48300F025FC40F11384D0
:10ECD000B0F5A04FFDE000F027FC10F4603067D0E5
:10ECE00000F02AFC02D5B0F5004FB2D00A689200BD
:10ECF00002D5B0F5803FB3D00A68920702D5B0F5CF
:10ED0000C03FD8D00968890502D5B0F5003FD9D0F9
:10ED100000F001FCDAD5B0F5203FDAE000F004FCA9
:10ED200010F4E01044D000F007FC02D5B0F5802FBD
:10ED300057D00A68920002D5B0F5002F58D00A6863
:10ED4000920702D5B0F5402FB5D00968890502D5E4
:10ED5000B0F5801FB6D000F0DEFBB7D5B0F5A01F30
:10ED6000B7E000F0E1FB10F4600021D000F0E4FB1C
:10ED700002D5B0F5001F34D00A68920002D5B0F574
:10ED8000800F35D00A68920702D5B0F5C00F92D037
:10ED90000968890502D5B0F5000F93D000F0BBFBE0
:10EDA00094D5B0F5200F94E000F0BEFB10F0E060C9
:10EDB00000F05F8100F0C0FB02D5B0F1807F10D081
:10EDC0000A68920002D5B0F1007F11D070E000F027
:10EDD000ABFB10F06050EBD000F0AEFB03D5B0F110
:10EDE000006F00F0E3820A68920003D5B0F1805F03
:10EDF00000F074830A68920702D5B0F1C05F1FD09B
:10EE00000968890503D5B0F1005F00F0118300F0B7
:10EE100082FB5FD5B0F1205F5BE000F078FB10F083
:10EE20000700C5D000F088FB01D50128D9D00A68B9
:10EE3000920001D50228DBD00A68920702D5032888
:10EE400000F0E9820968890501D50428DDD000F0C9
:10EE500062FB3FD505283CE000F059FB10F0700044
:10EE6000A6D000F069FB01D51028BAD00A6892003C
:10EE700001D52028BCD00A68920701D53028DFD000
:10EE80000968890501D54028BFD000F044FB21D591
:10EE900050281EE000F037FB10F0E06000F05782D1
:10EEA000B0F1807F9DD0B0F1007FA1D0DFF82014B9
:10EEB0000A68920702D5B0F1407FC1D00968890580
:10EEC00002D5B0F1806FA0D000F025FB02D5B0F1E3
:10EED000A06F28D00FE300F02BFB10F0070000F02C
:10EEE0008E82012802D100F0E9FF05E3022800F03C
:10EEF0008982DFF8DC130A68920302D5032800F048
:10EF0000A0820A68920701D5042899D0096889056A
:10EF1000E0D505285EE000F00BFB00F0080000F0F3
:10EF2000EDFA02D5002800F0BC8209680901D1D5AC
:10EF30000828CFD1BDE200F0F3FA10F440304FD0F2
:10EF4000B0F5803F62D000F001FB02D5B0F5003F84
:10EF500050D009688905BDD5B0F5403F3AE000F0D2
:10EF6000DFFA10F440203BD0B0F5802F4ED000F0F7
:10EF7000EDFA02D5B0F5002F3CD0096889052AD5F5
:10EF8000B0F5402F26E000F0CBFA10F4401036D058
:10EF9000B0F5801F3AD000F0D9FA02D5B0F5001FC5
:10EFA00028D00968890516D5B0F5401F12E000F099
:10EFB000B7FA10F4400022D0B0F5800F26D000F050
:10EFC000C5FA02D5B0F5000F14D00968890502D53D
:10EFD000B0F5400F5AD08EE200F0A2FA10F0407067
:10EFE00047D0B0F1807F11D000F0B0FAF3D5B0F186
:10EFF000007FF0D10FE200F08AFA10F4E06000F038
:10F00000A681B0F5807F50D0B0F5007F00F0CD80B4
:10F01000B0F5407F00F0CE80B0F5806F00F0D18079
:10F02000B0F5A06FD7D100F08CFA01D50028E1D05F
:10F030000A68920502D5B0F1804F27D0096889038C
:10F0400016D5B0F1004FCEE100F061FA10F4E040C7
:10F050000FD0B0F5805F28D0B0F5005F4FD0B0F58D
:10F06000405F4FD0B0F5804F4FD0B0F5A04F03D0E8
:10F0700041E200F0BFFF3FE200F063FA01D5002853
:10F08000B8D00A68920503D5B0F1804F00F0D08166
:10F0900009688903ECD5B0F1004FA4E100F037FA1C
:10F0A00010F4E0204AD0B0F5803F00F00181B0F5C7
:10F0B000003F24D0B0F5403F24D0B0F5802F24D0BD
:10F0C000B0F5A02FD4D100F03CFA02D5002800F012
:10F0D000A2810A68920502D5B0F1804FD6D00968A6
:10F0E0008903C5D5B0F1004F7DE100F010FA10F4AE
:10F0F000E00023D0B0F5801FD7D0B0F5001F54D06A
:10F10000B0F5401F56D0B0F5800F5AD0B0F5A00F23
:10F110004AD100F016FA01D500285BD00A689205A2
:10F1200002D5B0F1804F5CD0096889033CD5B0F1BD
:10F13000004F58E100F0EBF910F0E06000F00781BB
:10F14000B0F1807FB1D0B0F1007F2ED0B0F1407F20
:10F1500030D0B0F1806F34D0B0F1A06F24D100F086
:10F16000F0F901D5002835D00A68920502D5B0F132
:10F17000804F36D00968890316D5B0F1004F32E1CF
:10F1800000F0C5F910F0E040D8D0B0F1805F67D052
:10F19000B0F1005F09D0B0F1405F0BD0B0F1804F0B
:10F1A0000FD0B0F1A04F11D0A5E16846FFF72EFBBC
:10F1B0000298A1E145480068400800F00100C00342
:10F1C0009AE1424800680001EED572E100F0B9F919
:10F1D00002D5002800F01F810A68920503D5B0F11E
:10F1E000804F00F025810968890314D5B0F1004FE4
:10F1F000F9E000F09DF900F4407035490968890391
:10F2000002D5002800F01D81B0F5807F44D0B0F514
:10F21000007F00F0CB806EE100F075F900F0070090
:10F220000428F8D8DFE810F04E01440049004E00F1
:10F23000050000F086F901D50028CBD00A689205B8
:10F2400002D5B0F1804FCCD009688903E3D5B0F185
:10F25000004FC8E000F057F910F038001CD0082823
:10F2600026D0102829D018282CD020281FD100F013
:10F2700068F901D50028ADD00A68920502D5B0F131
:10F28000804FAED00968890311D5B0F1004FAAE0D4
:10F2900000F039F910F4E07000F01481402807D034
:10F2A00080280AD0C0280DD0B0F5807F16D022E18A
:10F2B00003A8FFF7F1F903981EE16846FFF7A6FAE5
:10F2C000009819E1DFF8900216E100BFF00C02444B
:10F2D000000C02441C0C024440787D0100F031F91E
:10F2E00001D5002847D00A68920502D5B0F1804FB9
:10F2F00047D009688903DAD5B0F1004F73E000F018
:10F3000002F910F4606048D000F016F902D5B0F5AB
:10F31000007F4BD00A68920002D5B0F5806F4FD0C5
:10F320000A68920702D5B0F5C06F24D00A6892052A
:10F3300002D5B0F5006F24D009688903B7D5B0F5C0
:10F34000206F50E000F0DFF810F4E04002D100F050
:10F3500073FED1E000F0F0F802D5B0F5805F25D063
:10F360000A68920002D5B0F5005F29D00A689207BA
:10F3700002D5B0F5405F4ED00A68920502D5B0F5CF
:10F38000804F55D0096889032ED5B0F5A04F2AE0EB
:10F3900000F0B9F810F4603002D100F033FEABE0B9
:10F3A00000F0CAF807D5B0F5004F04D103A8FFF765
:10F3B00073F90498A0E00A68920003D5B0F5803F85
:10F3C00000F08C800A68920702D5B0F5C03F22D0C9
:10F3D0000A68920502D5B0F5003F29D00968890373
:10F3E00002D5B0F5203F2CD085E000F099F800F070
:10F3F00003000328F8D8DFE800F00265050A00F0F2
:10F40000E7FD79E003A8FFF747F9059874E000F0FD
:10F4100098F807D530B9DFF844010968C1F3C10194
:10F42000C84069E00A68920505D5B0F1804F02D165
:10F43000DFF82C0160E0096889035CD5B0F1004F6A
:10F4400059D1DFF8200157E0E80C024400F070F8D1
:10F4500000F0C00000F052F800D510B309680901AF
:10F4600001D5402825D0DFF800110968890542D56B
:10F47000802840D148F212003EE000F059F800F038
:10F480003000DFF8E4100A68920400D580B3096800
:10F49000890101D5102815D000F030F804D52028B6
:10F4A00002D14FF4004027E00968090123D5302834
:10F4B00021D14FF4FA401FE000F032F800F03000A4
:10F4C000102804D106A8FFF7C1F8079814E0DFF868
:10F4D00098100A68920006D5202804D16846FFF7E4
:10F4E00095F9019808E00968890404D5302802D10B
:10F4F000DFF8780000E0002009B000BDDFF87010F0
:10F500000A6892077047DFF86C0000687047DFF800
:10F51000680000687047DFF858100968890770476D
:10F52000DFF8580000687047DFF854000068704743
:10F53000DFF8500000687047DFF82C100A681201ED
:10F540007047DFF84000006800F04040DFF8181016
:10F550000A689207704700000080BB000090D0034B
:10F5600000093D0040787D01000C0244006CDC0283
:10F57000F00C0244E00C0244DC0C0244E40C0244B3
:10F58000D80C0244E80C0244F8B5DFF8644A20685D
:10F5900000F00F00032802D200F0B6F81ED100F0F0
:10F5A00091FD0646DFF87C5A286840F0010028608B
:10F5B0002868800706D400F085FD801B0328F7D358
:10F5C0000320F2BD286820F0180028604FF4800066
:10F5D000DFF8541A086000F03EFB002840F09280EB
:10F5E00000F070FD0746DFF8446A00203060DFF865
:10F5F000401A0860306810F0180F05D000F062FD66
:10F6000000F024FBF6D3DBE72868DFF8281A08406F
:10F610002860286820F48010286000F053FD06461A
:10F62000286820F0807028602868800105D500F0E7
:10F6300049FD801B0328F7D3C2E700F043FD0646CF
:10F64000286820F0806028602868000105D500F057
:10F6500039FD801B0328F7D3B2E700F033FD29689A
:10F6600021F08051296006462868800005D500F009
:10F6700029FD801B0328F7D3A2E70020DFF8C81973
:10F680000860DFF8C809DFF8C81908600021DFF852
:10F69000C4291160DFF8C0291160DFF8C0190860C3
:10F6A0000021DFF8BC291160DFF8B8291160DFF80C
:10F6B000B81908600020DFF8B4190860286820F441
:10F6C000802028600020DFF8A81908604FF0FF3084
:10F6D000DFF8A0190860DFF8A009016841F4000113
:10F6E0000160DFF89809DFF8A8190860206800F0C9
:10F6F0000F00042802D300F007F803D10F2000F018
:10F70000E7FC00B10120F2BD0320216860F3030192
:10F710002160206800F00F00032870472DE9F843AE
:10F72000050036D0DFF80409046804F01804DFF897
:10F730001869376807F003072878C00611D5082C28
:10F7400003D0182C08BF022F4BD1E869002820D025
:10F75000DFF84009016821F47C112A6A41EA02417C
:10F7600001602878C00708D5102C03D0182C08BFDA
:10F77000032F5DD1686800280BD02878800740F1FE
:10F78000B78024B1182C08BF012F40F0CA80E86868
:10F79000002800F03182A4B9DFF8FC18086800F0F6
:10F7A00018002A6990420CD00A6822F018022869D1
:10F7B00002430A6000F00CFC00F04DFA002840F013
:10F7C0001B8200F07FFC0746DFF8CC08006880074A
:10F7D00000F1858000F076FCC01B0328F4D30320E1
:10F7E000DFE1E8690028DFF8B088D8F800000FD022
:10F7F00040F4807000F034FA8146D8F800008005AB
:10F80000A6D400F05FFCA0EB09000328F5D3E6E7DF
:10F8100020F4807000F024FA8146D8F800008005BA
:10F820009FD500F04FFCA0EB09000328F5D3D6E7E5
:10F830006868B0F5803F02D1DFF85C0824E058B971
:10F84000DFF85408016821F4803100F0FAF9016012
:10F85000016821F4802123E0B0F5A02F07D1DFF863
:10F860003808016841F4802100F0EBF90BE0B0F5B5
:10F87000A81FDFF8240801680AD141F48021016043
:10F88000016841F480110160016841F4803107E0B2
:10F8900021F480310160016821F4802100F0D1F968
:10F8A0000160686868B100F00DFC804600F0F1FA74
:10F8B0003FF563AF00F006FCA0EB08006528F5D328
:10F8C0008DE700F0FFFB804600F0E3FA7FF555AFCF
:10F8D00000F0F8FBA0EB08006528F5D37FE7DFF820
:10F8E0004807016821F4FE016A6941EA02410160AA
:10F8F000287800074BD5A8690028DFF8A087D8F83A
:10F90000000035D040F0806000F0AAF90746D8F832
:10F91000000000013BD400F0D5FBC01B0328F6D348
:10F920005DE7E8680028DFF8707711D0396821F0CA
:10F93000180128690143396000F096F9804638685B
:10F940008007CCD400F0BEFB00F072F9F7D346E795
:10F95000386840084000386000F0B4FB80463868E2
:10F960008007C5D500F0AEFB00F062F9F7D336E7AB
:10F9700020F0806000F074F90746D8F8000000011C
:10F9800005D500F09FFBC01B0328F6D327E7287896
:10F99000400764D5DFF808773868C0070BD400F05B
:10F9A00063F980463868C00705D400F08BFB00F08F
:10F9B0003FF9F7D313E7A868012802D1DFF8DC0686
:10F9C00022E058B9DFF8D40601684908490000F080
:10F9D00033F90160016821F0040121E0052807D115
:10F9E000DFF8B806016841F0040100F025F90AE0EB
:10F9F0008528DFF8A80601680AD141F004010160FA
:10FA0000016841F080010160016841F0010107E0F7
:10FA1000490849000160016821F0040100F00CF977
:10FA20000160A86868B100F04DFB0746DFF86C067E
:10FA30000068800713D400F045FB00F007F9F5D308
:10FA4000CDE600F03FFB0746DFF850060068800770
:10FA500005D500F037FB00F0F9F8F5D3BFE62878BC
:10FA6000800623D5686A0028DFF82C7638680ED027
:10FA700040F48050386000F025FB804638688004F0
:10FA800014D400F01FFB00F0D3F8F7D3A7E620F45E
:10FA90008050386000F016FB80463868800405D539
:10FAA00000F010FB00F0C4F8F7D398E6A86A00282D
:10FAB00076D0182C77D00228DFF8DC45206820F0BB
:10FAC000807020605BD100F0FDFA0746206880015D
:10FAD00005D500F0F7FAC01B0328F7D37FE630689E
:10FAE000DFF8C0150840E96A0843296B40EA0120A5
:10FAF0003060686B401EC0F30800A96B491E4902C4
:10FB000001F47E410843E96B491E090401F4FE013A
:10FB10000843296C491E090601F0FE410843DFF83D
:10FB200030150860306820F010003060E86CC000CC
:10FB3000DFF820150860306840F010003060306851
:10FB400020F00C00696C08433060306820F0200021
:10FB5000A96C08433060306840F480303060206821
:10FB600040F08070206000F0ADFA0546206880010A
:10FB700016D400F0A7FA401B0328F7D32FE600F0B5
:10FB8000A1FA05462068800105D500F09BFA401BCC
:10FB90000328F7D323E63068DFF80C1508403060FF
:10FBA0000020BDE8F2833168DFF8A4040068AA6A87
:10FBB000012A21D001F00302EB6A9A4202BFC1F38D
:10FBC00005212A6B914217D1C0F308016A6B521EBE
:10FBD000914201BFC0F34621AA6B521E91420BD144
:10FBE000C0F30641EA6B521E914201BFC0F30660AA
:10FBF000296C491E884201D00120D2E7DFF8544425
:10FC00002068C0F3CC00E96C8842C9D0306820F08D
:10FC10001000306000F056FA074600F053FAC01B9F
:10FC2000FBD0E86CC0002060306840F01000B6E700
:10FC3000A0EB0800032870470160016821F08001F3
:10FC400070470160016821F480117047C01B41F2C8
:10FC5000893188427047DFF85404006800F038BAF0
:10FC6000C8F8000000F02EBA386840F00100386093
:10FC700000F028BA2DE9F0410400884666D0DFF88C
:10FC80007053286800F00F00404502D200F00BF9D5
:10FC90005CD12078C0060ED5DFF894030168090A0C
:10FCA00001F070016269914205D2016821F4E041DE
:10FCB00041EA02210160207800070ED5DFF87003C9
:10FCC0000168090901F070012269914205D20168B9
:10FCD00021F4E06141EA02110160207840070DD56E
:10FCE000DFF84C13086800F07000E268904205D21B
:10FCF0000A6822F07002E06802430A6020788007F8
:10FD00000DD5DFF82C13086800F00F00A2689042B0
:10FD100005D20A681209A06840EA02120A60207837
:10FD2000C00754D56068032804D1DFF86C0300686D
:10FD300080010AE0022802D100F0ABF805E00128BA
:10FD4000DFF85403006802D1800502D456E0800732
:10FD500054D5DFF8D87239688908606840EA8101B3
:10FD6000396000F0AFF90646606803280BD13868A7
:10FD700000F0180018282AD000F0A4F900F08EF83E
:10FD8000F5D3032083E002280AD1386800F0180078
:10FD900010281CD000F096F900F080F8F5D3F0E7B9
:10FDA00001280AD1386800F0180008280FD000F0A8
:10FDB00089F900F073F8F5D3E3E7386810F0180F0D
:10FDC00005D000F07FF900F069F8F6D3D9E7207884
:10FDD00080070BD59649A0680A6802F00F0290428E
:10FDE00004D20A68120940EA02120A60286800F088
:10FDF0000F00804504D200F056F801D0012046E003
:10FE0000207840070BD58A49E0680A6802F0700242
:10FE1000904204D20A6822F0700202430A602078FD
:10FE200000070ED5824821690268120902F07002AB
:10FE3000914206D2016821F4E061226941EA02118F
:10FE400001602078C0060ED5794861690268120AFF
:10FE500002F07002914206D2016821F4E041626929
:10FE600041EA0221016000F029F8DFF84412704AEB
:10FE7000126802F00F02895CC840DFF814120860B3
:10FE8000DFF828020068BDE8F04100F021B9BDE8C4
:10FE9000F081DFF80402006880037047801B41F2A4
:10FEA0008931884270472868000948EA00102860B4
:10FEB000286800F00F004045704700005B4801686B
:10FEC00001F01801082901D17A487047016811F042
:10FED000180F09D1534908688006684877D5096822
:10FEE000C1F3C101C8407047016801F01801102931
:10FEF00001D171487047006800F01800182865D1DA
:10FF000051490A680868C0F305200968C1F3001365
:10FF100050490968C1F3CC014B4300EE103AB8EEEA
:10FF2000400A002853D002F00302012A02D0032A1B
:10FF30001BD021E03B490A6892060FD509684F4A59
:10FF4000C1F3C101CA4000EE902AF8EE600A01EE4A
:10FF5000100AB8EE411AC0EE810A15E000EE900AD0
:10FF6000F8EE600A9FED461A0CE000EE900AF8EEFB
:10FF7000600A9FED441A05E000EE900AF8EE600A70
:10FF80009FED411AC1EE200A31480068C0F3080015
:10FF900001EE100AB8EE411ADFED3C1A00EE211A0C
:10FFA000B7EE000A31EE000A20EE800A2848006809
:10FFB000C0F34620401C00EE900AF8EE600A80EE86
:10FFC000200ABCEEC00A10EE100A70472B4870479A
:10FFD00080B5FFF773FF164909682D4A344B01F0CD
:10FFE0000F01595C01F01F01C840106002BD000004
:10FFF0000020024080B5FFF7EBFF00F00FF8C2F3DE
:020000040807EB
:10000000021206E080B5FFF7E3FF00F007F8C2F345
:100010000222895C01F01F01C84002BD2749284A1D
:1000200012687047000C0244100C02441C0C02447D
:10003000200C0244FBEAF6FF80B5FFF7C9FFFFF78B
:10004000EDFFC2F30232E4E7280C02448002010112
:10005000340C0244380C02442C0C02443C0C024484
:10006000400C0244300C0244440C0244480C02444C
:10007000500C0244580C0244F40C02440090D0038B
:100080000024744C20BCBE4B0024744A000000398C
:1000900014000020180C0244000C0244F00C02442E
:1000A00024080244FCC0FFFFFCFFF8FF1000002002
:1000B0006C1B070800093D0040787D019C1B070868
:1000C000200C024401480068704700BFF80100207E
:1000D00010B504460E490878B8B14FF47A70097823
:1000E000B0FBF1F00B490968B1FBF0F000F07AF8D1
:1000F00058B9102C09D2002221464FF0FF3000F0F1
:1001000062F805480460002010BD012010BD00BF4A
:10011000600000201400002010000020324A136804
:100120004FF6FF010B40000200F4E06018432F4936
:100130000843106070472C480068C0F302207047E5
:10014000020003D409012A4A115470470901294ABF
:1001500000F00F00104400F8041C704710B500F0C8
:100160000700C0F10703052B2FBF0F23012404FA5A
:1001700003F35B1E041D072C34BF0020C01E194072
:100180008140012303FA00F0401E1040084310BDD7
:1001900010B50446601EB0F1807F0CD2164908608D
:1001A0000F214FF0FF30FFF7CBFF0020134908600D
:1001B000072013490860641EB4F1807F8041C0436A
:1001C000C00F10BDAAE770B504460D461646FFF7EE
:1001D000B2FF32462946FFF7C1FF01462046BDE87F
:1001E0007040ADE7D4E700000CED00E00000FA0538
:1001F00000E400E018ED00E014E000E018E000E0AA
:1002000010E000E0130003D00A46194600F02EBBB0
:10021000704710B5002302E0CC5CC4545B1C9342D1
:10022000FAD310BD80B588B0684644F201218847F2
:100230000698DFF8081608600798DFF804160860CB
:1002400009B000BD10B5DFF8F445206808B9FFF724
:10025000E9FF206810BD80B5DFF8E005006808B947
:10026000FFF7E0FFDFF8D805006802BD01466FF038
:100270008600142909DADFF8CC0500220B4640F885
:10028000332000EBC10082800120704730B5014669
:10029000002200200D68DFF8AC35D4B253F83440AA
:1002A000AC4207D1D4B203EBC4039B888C88A34231
:1002B00008BF1046521CD3B2142BECDBC0B230BDC9
:1002C00030B5024600236FF08B00DFF87845DDB2D1
:1002D00054F83540944204D05B1CDCB2142CF4DB9F
:1002E00030BD0B70002030BD0022DFF8583553F8C8
:1002F0003210002902BF03EBC2018988002903D014
:10030000521C142AF3DB08E0016843F8321080889D
:1003100003EBC2018880012070476FF08D007047A9
:1003200000200022DFF81C3553F83210002901BFED
:1003300003EBC20189880029401C521C142AF3DBFC
:10034000C0B2704710B503466FF08500DFF8F44483
:100350001A4654F83220002A02BF04EBC3029288E6
:10036000002A08D0184654F83000086004EBC30097
:1003700080888880012010BD7047DFF8CC140860A9
:1003800070473EB50446002508220021684600F06B
:1003900076FA002C44D00020DFF8B41451F8302055
:1003A000A24204BF01EBC0018D88401C0528F3DB8D
:1003B000280035D0FFF7B4FF002833D0FFF742FF05
:1003C000DFF8901441EA0502026010F1080427D01A
:1003D00000F06AF8A4BF002101700078400760F0C7
:1003E000604060604FF0FF30A06000F066F844F2BB
:1003F0000320804710F10B0FF9D010F1160F11D028
:1004000074B1606A60B924680094ADF8045068461D
:10041000FFF73CFF10B96846FFF766FF20463EBD78
:10042000FFF7AAFF00203EBD3EB5054600F0B1F93A
:10043000012D02DA15F1010F35D169462846FFF783
:100440003FFF00282AD100F0A0F900F094F901281C
:1004500024D1BDF80840FFF7F5FEDFF8F8130C4390
:10046000046010F1080419D000F01EF8A4BF0021A8
:1004700001700078DFF8E01341EA40716160A56027
:1004800000F01BF844F20320804710F10B0FF9D065
:1004900010F1160F04D00CB1606A08B1FFF76CFFC1
:1004A0000020FFF7E3FE37BDDFF89C030068206003
:1004B000DFF898030178042970470020E0620021EA
:1004C00004EB8002D160D161401C0428F8D370474E
:1004D0002DE9F84F86B082460F4614461E4600F0BE
:1004E00058F900200590002504904FEA174BC7F3F8
:1004F0000728039607F0FF09BAF1010F02DA1AF193
:10050000010F26D1BBF1000F00F1168109EB0800A5
:10051000052880F01181B8F1000F00D15CB9B9F164
:10052000000F00D13EB9B8F1000F00D01CB1B9F1F5
:10053000000F03D016B96FF0860401E169465046FA
:10054000FFF7BEFE002804D100F01FF900F013F9F8
:10055000012840F0F180BDF80860002C18BFB8F108
:10056000000F0FD020468DF8005005E041684D196E
:100570000830511C8DF80010A8F101019DF80020F1
:100580009142F3D20398002818BFB9F1000F0DD0A3
:10059000002103E041684D190830511C8DF800100E
:1005A000A9F101019DF800209142F3D2FFF74AFE24
:1005B0000746FFF750FEA7490E4347F8086B38354A
:1005C000A842C0F0B6802546B8F1000F18BF002C35
:1005D00013D000208DF80000049E0AE06A682968A4
:1005E000B8193030FFF715FE68688619083500F035
:1005F000C6F89DF800004045F0D3002F00F096802B
:1006000000F0918090480068386090480178042993
:10061000A4BF0021017000784BEA40707860C7F8F1
:1006200008A00020F862039800218DF80010002136
:1006300000F090F800F088F89DF80010491C00F0D8
:100640008FF80429F3D3002106E0616800F082F8F6
:1006500008349DF80010491C00F082F84145F4D39D
:10066000002106E0416800F06FF808309DF80010A6
:10067000491C00F075F84945F4D344F20320804743
:1006800010F10B0FF9D010F1160F18BF002F53D037
:10069000786A002818BF10F19C0F3FD100208DF818
:1006A0000000059900F061F800B1491C00F067F8FE
:1006B0009DF800000428F5D389453DD300208DF82E
:1006C0000000039C26E054F8300000281FBF9DF86E
:1006D000000007EB80004068002812D09DF8000061
:1006E00007EB800042689DF8000007EB800040693E
:1006F000384400F130019DF8000054F83000FFF755
:1007000088FD00F032F89DF8001004EBC10148604C
:1007100000F035F89DF800004845D4D37C6A14F108
:10072000810F0DD10AE06FF0830409E06FF09004AF
:1007300006E06FF08C0403E06FF08004FFF71CFE0E
:10074000204607B0BDE8F08F9DF8002007EB82023D
:10075000D16170479DF8002007EB8202D16070479D
:100760008DF800109DF8001070479DF8000007EB11
:1007700080004068704701A99DF80000E2E59DF8FF
:100780000000401C8DF8000070470822002101A8DD
:1007900038E500208DF800000822002101A800F0B3
:1007A0006EB800F076F802BD0146002000900023EC
:1007B0000022704780B50A460021009100230146BF
:1007C0002648EEE738B51C4601F50043B3F5803FF7
:1007D0003EBFB4F5807F059DB5F5807F02D36FF0F5
:1007E000800032BD049B00931346240204F47F442E
:1007F00044EA014405F0FF0545EA040201461848B1
:1008000000F047F832BD80B5FFF7CEFF154800F085
:1008100040F80D4800680090684600F042F801BDBD
:100820001CB50446019401A800F03CF8FFF7BDFF99
:1008300021460D4800F02DF813BD0000F001002006
:10084000F401002064000020EC010020FD010020E4
:10085000CC190708000067C7FEFFFF1F83030708C6
:10086000D1040708290407087B0307084018491C1E
:100870001CBFB1F1010100F8012DF9D1704710B58D
:10088000044610460A4601462046FFF7EFFF204681
:1008900010BD10B50446084611461A46029BA047F3
:1008A00010BD7047704730B50168846842184168D0
:1008B00002EB5103C90703D54C4401E0491C08D1A0
:1008C0009A4218BF12F9011B01D10C3030BD12F849
:1008D000015B002904F8015BF0D4491EF7D5EFE76E
:1008E00010B5040001D1012010BDD4F8880008B96A
:1008F00000F023F800F026F808B100F01BF800F033
:1009000016F8012802D000F028F800E010BD216898
:10091000886000F004F8BDE8104000F00FBA2068CD
:10092000006840F0010021680860204670472046BA
:1009300000F098B8204600F094B984F8840020466E
:1009400000F00ABB2420C4F8880020680068400832
:10095000400021680860A06A70472068406820F461
:100960009040216848602068806820F02A00704725
:100970002DE9FC4106460D4614461F46D6F8880070
:10098000202851D10DB1200001D101204DE0306867
:100990008068000605D53068806820F080003168E6
:1009A00088600020C6F890002120C6F88800FFF774
:1009B00089FB8046A6F85440A6F85640B068B0F5CA
:1009C000805F04BF306900281ABF2C460025002430
:1009D00014E000228021304600F009FAF8B9002C1A
:1009E00012BF14F8010B35F8020BC0F30800316890
:1009F0008862B6F85600401EA6F85600B6F85600B3
:100A0000002800974346E4D100224021304600F000
:100A1000EEF920B92020C6F88800002005E020204B
:100A2000C6F88800032000E00220BDE8F6812020FF
:100A3000C4F888007047206850E8001F024621F47F
:100A4000907142E80010002870472068083050E894
:100A5000001F206800F108024908490042E8001020
:100A60000028704738B50446002520680168DFF883
:100A700064040140A06801432069014360690143A7
:100A8000E0690143206801602068416821F4405119
:100A9000E068014320684160A269DFF83C142068E7
:100AA00088421FBFDFF838349842206A024320682A
:100AB0008368DFF8280403401A43206882602068B6
:100AC000C26A1209606A40EA02122068C2622068A3
:100AD000DFF81024904220D10120E169B1F5004FE8
:100AE000294640F09780FDF7D5FE002814D000F08D
:100AF000AFF8490801EB40016068B1FBF0F04FF638
:100B0000F071A0F110028A4280F097800140C0F39A
:100B1000420001432068C16090E0DFF8CC2390429E
:100B200008BF0220D9D0DFF8C423904208BF0420B8
:100B3000D3D0DFF8BC23904208BF0820CDD0DFF827
:100B4000B423904208BF1020C7D0DFF8AC239042F6
:100B500008BF2020C1D0DFF8A423904208BF402066
:100B6000BBD0DFF89C23904208BF8020B5D0DFF8CF
:100B70009423904208BF4FF48070AED0DFF88823F2
:100B8000904208BF4FF40070A7D0DFF88023904256
:100B900008BF4FF48060A0D0DFF87423904208BFF4
:100BA0004FF4006099D0884208BF4FF480501FBFB7
:100BB00000202168DFF8282391428ED10021FDF723
:100BC00069FE00283AD0DFF84C13626A31F812202F
:100BD000B0FBF2F2636803EB43039A4222BF6368FF
:100BE0001B03934229D3626A31F81210B0FBF1F271
:100BF00060684008002110EB022051EB126162682E
:100C0000002300F025FAA0F54071DFF80C23914293
:100C100013D20FE0FDF73EFE80B100F019F800EBB3
:100C20005100B0FBF1F0A0F110014FF6F0729142CB
:100C300003D280B22168C86000E001250120A4F839
:100C40006A00A4F8680000206067A067284632BDEB
:100C5000DFF8C012626A31F81210B0FBF1F061687F
:100C6000704790F82810090707D501684A6822F4F0
:100C70000042816B0A4301684A6090F82810C90756
:100C800007D501684A6822F40032C16A0A43016844
:100C90004A6090F82810890707D501684A6822F44D
:100CA0008032016B0A4301684A6090F828104907B6
:100CB00007D501684A6822F48022416B0A43016823
:100CC0004A6090F82810C90607D501688A6822F49E
:100CD0008052C16B0A4301688A6090F82810890627
:100CE00007D501688A6822F40052016C0A43016842
:100CF0008A6090F82810490613D501684A6822F4E2
:100D00008012416C0A4301684A60416CB1F5801F52
:100D100007D101684A6822F4C002816C0A43016865
:100D20004A6090F82810090607D501684A6822F43D
:100D30000022C16C0A4300684260704738B504461F
:100D400000F049F8FFF7BEF9054620680068000783
:100D500013D500F032F84FF40011204600F047F8A8
:100D600058B1206850E8001F024621F0800100F0D1
:100D70002DF8F6D1FFF75BFE14E02068006840070D
:100D800015D500F01AF84FF48001204600F02FF836
:100D900068B1FFF750FEFCD1FFF757FEFCD12020D1
:100DA000C4F88C00002084F88400032032BD00F0D9
:100DB00016F8206784F8840032BD6FF07E40009002
:100DC0002B4600227047DFF85401014042E8001032
:100DD0000028704700000020C4F8900070472020D1
:100DE000C4F88800C4F88C000020E06670472DE944
:100DF000F04105460E4690461F46069C2868C0698D
:100E00003040B0420CBF01200020404528D114F1F1
:100E1000010FF3D0FFF756F9C01B844200D314B979
:100E20000320BDE8F081286800684007E6D52868FF
:100E3000C069000704D42868C0690005DED507E052
:100E4000082000F015F8082000F00CF80120E8E771
:100E50004FF4006000F00CF8202000F003F8DFE70A
:100E60000020DEE7C5F89000002085F88400704778
:100E7000296808622846FFE7016851E8002F0B4601
:100E800022F4907243E800210029F5D1016808316D
:100E900051E8002F016801F108030D490A4043E8B9
:100EA00000210029F2D1C16E012909D1016851E860
:100EB000002F0B4622F0100243E800210029F5D153
:100EC0002021C0F88C100021C166416770470000E6
:100ED000FEFFFFEFF369FFCF00240044FFF4FF1192
:100EE0000024005400380140004400400048004005
:100EF000004C00400050004000640040007800407A
:100F0000007C00400080004000680040006C004011
:100F100000840040001B070800FD0F00FEFF7FEF6C
:100F200010B5434C434820604FF4E130606000202E
:100F3000A060E0602061A0610C2060610020A062E0
:100F4000E0632046FFF7CCFC010004D12046BDE859
:100F5000104000F001B910BD00683649884200D049
:100F6000704710B586B03448016841F48041016093
:100F7000006800F48040059005983048016841F011
:100F800001010160016801F0010105910599016805
:100F900041F001010160006800F001000590059832
:100FA0004FF4007000F00FF8254C6946204600F021
:100FB00025F94FF4806000F006F86946204600F0FD
:100FC0001DF906B010BD0090022001900020029093
:100FD000032003900720049070472DE9F84305464D
:100FE0000E469046174F3868B0B10524DFF84090A0
:100FF0004346012214494846FFF7BAFC010014D1C8
:10100000641EF5D143461A2210494846FFF7B0FC4A
:1010100001000AD100203860434632462946044880
:1010200001B0BDE8F043FFF7A3BCBDE8F2830000C8
:101030000401002000380140A40C02448C0C02443E
:1010400000000242E8010020FC010020C81A070845
:10105000D3BBD9B1B2F5803F5BD2022A1ED98C46F0
:10106000B1FBF2F102FB11C31B0443EA1043B3FBD3
:10107000F2FC02FB1C3380B240EA0343B3FBF2F004
:1010800002FB103240EA0C4000237047022A05D9C7
:101090008446B0FBF2F002FB10C270474AB105D1A2
:1010A00000F0010249085FEA300070470022002387
:1010B000704700F05BB90B00020000210020704770
:1010C000F7D3002200237047904271EB030CF2D358
:1010D00070B5B1FA81F4B3FA83F52C1BA340C4F1C7
:1010E000200532FA05F63343A2405FF00046E640A1
:1010F00002E05B085FEA3202841A71EB030524BF49
:10110000204629467641F4D302000B00300000212E
:1011100070BD70B5B1FA81F4B2FA82F5C4F1200461
:101120006419B4F12006DAD3B2405FF00044F44011
:10113000002502E052085FEA3303C61A71EB020E83
:1011400024BF3046714664416D41F3D302000B0069
:101150002000290070BD000010B500F021F801D179
:10116000022010BD012084F8840000F013F82168EB
:10117000096849084900226811604FF00051616612
:1011800040F0005021680860204600F015F800F09B
:101190000CF810BD2420C4F888002068006870474F
:1011A000044694F88400012870472020C4F8880081
:1011B000002084F88400704730B5416E11B90121D8
:1011C000012212E001688A68520E02F00702896863
:1011D000490F084B084C655CED00595C95FBF1F13B
:1011E000A45CE4009A5C94FBF2F2A0F86A10A0F808
:1011F000682030BD941B07088C1B0708F0B5024619
:1012000000238EE00124086804FA03F5284000F06A
:1012100087804D68022D18BF122D11D1DD0802EB19
:1012200085052D6ADE0802EB86060F2700F07EF8A2
:10123000BD430F7C07F00F0700F078F83D4335629F
:10124000166803255F0005FA07F7BE430F7907F01C
:1012500003074FEA430C07FA0CF73E4316604E684B
:10126000012E18BF022E03D0112E18BF122E13D13B
:1012700096685F0005FA07F7BE43CF6807FA0CF7D8
:101280003E43966056689C4026EA04044E68C6F3C6
:1012900000169E40344354604C68032C08D0D46838
:1012A0005E00B54024EA05058C68B4402543D5604E
:1012B0004C68E40034D5274C9D0854F825500F267F
:1012C000DF0007F01807BE40B543234E06EA92261A
:1012D000DF0007F01807BE4035439E0844F826504B
:1012E0001E4C256885434E68F60248BF05432560BD
:1012F0001B4D2C6884434E68B60248BF04432C60E3
:10130000184D2C6884434E68B60348BF04432C60D4
:10131000154D2C6884434E68F60348BF04432C6087
:101320005B1C0868D8407FF46DAFF0BD4FEA830CBA
:101330000CF01C0C07FA0CF770470AB1816170477A
:1013400081627047426901EA0203914341EA034125
:1013500081617047602002447F7F2F00002002449B
:10136000042002448420024480200244704700008C
:1013700001B5642201216846FFF72FFE009802BDE7
:1013800070B50C461546002604E014F8010BFFF773
:10139000EFFF761CAE42F8D3284670BD80B500F052
:1013A000C3F808B100F0BEF800F0BAF800F05CF83D
:1013B000FFF7B6FD08B100F0B5F8002000F0D4F852
:1013C000012000F0D1F8022000F0CEF8032000F058
:1013D000CBF8642000F028F900F010F8002000F0AD
:1013E00002F9012000F0FFF8022000F0FCF80320D1
:1013F00000F0F9F8FA2000F017F9EFE718B59FB000
:10140000404800F025F900213F4800F021F97C22F6
:1014100000216846FFF733FA6946012000F036F9EB
:101420006946012000F032F900F017F8374800F063
:101430000FF941F601746946204600F027F9694624
:10144000204600F023F900F008F8314800F000F9D8
:10145000304800F0FDF820B010BDBDF826309DF8F2
:1014600025209DF82410704700B59BB0182200215C
:1014700001A8FFF704FA5022002107A8FFF7FFF99F
:10148000FEF782F808B100F04DF82348016841F0FA
:1014900030010160006800F03000009000981F48A3
:1014A00000680007FBD5012007904FF4A8100890B2
:1014B00002201190032012900520139064201490B4
:1014C000022017901590169000201A90082018906E
:1014D0000020199007A8FEF721F908B100F022F8C2
:1014E0001F2001900320029000200390049005909B
:1014F0000690052101A8FEF7BDFB08B100F012F827
:101500001BB000BDC018070878190708A419070800
:10151000601A07080019070810080244140802445A
:1015200000F0EAB8FEE7000080B50320FEF74AFEAF
:10153000FEF7C4FC09490A4A126802F00F02895CEE
:10154000C840084908600F20FEF7C2FD08B101201D
:1015500002BD00F0DBF8002002BD00006C1B070894
:10156000200C024414000020F8B586B00546002483
:10157000280018BF012D0FD0022D04D0032D02D05A
:101580006FF001042CE02548016841F02001016062
:10159000006800F0200007E02048016841F48071F5
:1015A0000160006800F480700090009801200290B3
:1015B0000394022004901A4E284656F82000019009
:1015C000184F01A9284657F82000FFF717FE0122FF
:1015D000284656F8201089B257F82500FFF7ADFECF
:1015E000204607B0F0BD10B50024010018BF012847
:1015F00005D002281CBF03286FF0010403D100F0BE
:1016000004F8FFF79FFE204610BD0549024651F839
:10161000221089B2034A52F8200070478C0C024411
:101620005C1B07080000002038B50446FEF74AFDA1
:10163000054614F1010F02D0044800780419FEF7A2
:1016400041FD401BA042FAD331BD00BF6000002025
:101650000EB4C0B5024603A800210190009101AB71
:101660000121044878440C3000F05DF806BC5DF8B8
:1016700010FB00BFBD04000010F1010F01D00128D4
:1016800001DB002070476FF087007047F1B586B02E
:101690000C0008BF6FF0860024D00020049004AD39
:1016A0006860029002AE706000F01EF800F01FF853
:1016B0000746FFF7E1FFA8B906A804900420686078
:1016C00002947C2070600120019002A80090012308
:1016D00004AA40213846FFF775F804463846FFF75C
:1016E00092F8204607B0F0BD8020FFF799B800219E
:1016F0000420FFF75FB800000348016841F00101D2
:10170000016000207047000000040340704770B57E
:1017100005461C000846164604D016F8011BA847CB
:10172000641EFAD170BD2DE9FC4383B08146884622
:1017300017461D4607E001233A4641464846FFF753
:10174000E6FF80467F1C3878E0B12528F3D1797810
:10175000BF1C252912D0582959D0632915D06429D6
:1017600018BF692917D06F2951D0702954D0732917
:1017700058D0752918BF782949D0E4E74046C847B2
:101780008046E0E705B0BDE8F083286850F8041B08
:101790002860C9B2F2E7286850F8046B2860002E70
:1017A00003D52D214046C847804664216F2908BFD4
:1017B000082205D041F02000782814BF0A22102208
:1017C0000B246429304602D1002E48BF4042B0FBB2
:1017D000F2FC02FB1C003030641EC3B23A2B05DA67
:1017E0000DF804005FEA0C0003D104E04018513802
:1017F000F6E7002CEBDC0DEB0406D4F10B044046BD
:10180000BED016F8011BC847641EFAD1B8E7286895
:1018100050F8046B2860C9E7286850F8046B28600A
:101820007821C3E7286850F8046B2860304600F040
:1018300009F804004046A3D016F8011BC847641EEF
:10184000FAD19DE700F10103810704D010F8011BD4
:10185000820781B1FAD10268A2F10131914311F0FE
:10186000803104BF50F8042FF6E709BAB1FA81F1CC
:1018700000EBD100401CC01A7047000080B50D4934
:10188000794430310C4A7A442E32914203D00B49CC
:10189000AFF3008002BD8DF80000012269460120EF
:1018A000FFF76EFD012802D19DF8000002BD4FF048
:1018B000FF3002BD4CE7F8F748E7F8F718000020C2
:1018C0000D0A3D3D3D3D3D3D3D3D3D3D3D3D3D3DAB
:1018D0003D3D3D2047656E6572616C20496E666FC7
:1018E00073203D3D3D3D3D3D3D3D3D3D3D3D3D3D0F
:1018F0003D3D3D3D3D3D3D3D3D3D3D3D0D0A0A00EB
:101900000D0A3D3D3D3D3D3D3D3D3D3D3D3D3D3D6A
:101910003D3D3D3D3D3D3D3D3D3D3D3D3D3D3D3DF7
:101920003D3D3D3D3D3D3D3D3D3D3D3D3D3D3D3DE7
:101930003D3D3D3D3D3D3D3D3D3D3D3D0D0A0A00AA
:1019400030B4002512E050F8042BD30744BF4A44BA
:10195000521E091F042942F8045BFAD213468C0771
:1019600044BF15809B1CC90748BF1D7050F8041B5D
:101970000029E8D130BC7047466C617368204C6127
:10198000796F757420636F6E6669677572617469CB
:101990006F6E20696E6465783A203C307825643E2D
:1019A0000D0A0000536563757265204D616E6167B5
:1019B00065722056657273696F6E3A203C25642EFD
:1019C00025642E25643E0D0A000000000100000081
:1019D00022A200000200000001A00000030000009D
:1019E00002A000000400000004A0000005000000A8
:1019F00003A0000010B5074979441831064C7C4417
:101A0000163404E00A68081D114488470146A142C3
:101A1000F8D110BD2C000000480000004EF688519F
:101A2000CEF20001086840F470000860BFF34F8FE9
:101A3000BFF36F8F4FF00170E1EE100A70470000A6
:101A400001FFFFFF9C010000640000200000000077
:101A500057EEFFFF64030000840000000000002038
:101A6000535475526F542056657273696F6E3A20E5
:101A70003C25642E25642E25643E0D0A00000000DE
:101A800000F00DF8002801D0FFF7B4FFAFF300809D
:101A90000020AFF30080FFF781FC00F002F8012086
:101AA000704700F001B800000746384600F002F821
:101AB000FBE7000080B5AFF30080024A1100182058
:101AC000ABBEFBE7260002000D0A596D6F64656D21
:101AD0002073746F70206279207072696E74660D65
:101AE0000A0000000548014603B4684680F30988EF
:101AF000AFF30080FFF792FFFFF7C2FFA5EDF5FE01
:101B0000010002000400060008000A000C0010009A
:101B1000200040008000000103490A680348007863
:101B200082180A60704700BFF801002060000020A2
:101B300038B504460D462846FFF7A0FEA84218BF58
:101B40000024204632BD7047FEE7FEE7FEE7FEE7D1
:101B50007047FEE7FEE7FFF7DFBF0000000200006E
:101B60000001000002000000100000000000000062
:101B7000000000000102030406070809014880472D
:101B800001480047B51D0708E51A070801010103D0
:101B90000701000008040204080101010000000020
:101BA00001020304FFF7FEBFFFF7FEBFFFF7FEBF12
:101BB000FFF7FEBFFFF7FEBFFFF7FEBFFFF7FEBF59
:101BC000FFF7FEBFFFF7FEBFFFF7FEBFFFF7FEBF49
:101BD000FFF7FEBFFFF7FEBFFFF7FEBFFFF7FEBF39
:101BE000FFF7FEBFFFF7FEBFFFF7FEBFFFF7FEBF29
:101BF000FFF7FEBFFFF7FEBFFFF7FEBFFFF7FEBF19
:101C0000FFF7FEBFFFF7FEBFFFF7FEBFFFF7FEBF08
:101C1000FFF7FEBFFFF7FEBFFFF7FEBFFFF7FEBFF8
:101C2000FFF7FEBFFFF7FEBFFFF7FEBFFFF7FEBFE8
:101C3000FFF7FEBFFFF7FEBFFFF7FEBFFFF7FEBFD8
:101C4000FFF7FEBFFFF7FEBFFFF7FEBFFFF7FEBFC8
:101C5000FFF7FEBFFFF7FEBFFFF7FEBFFFF7FEBFB8
:101C6000FFF7FEBFFFF7FEBFFFF7FEBFFFF7FEBFA8
:101C7000FFF7FEBFFFF7FEBFFFF7FEBFFFF7FEBF98
:101C8000FFF7FEBFFFF7FEBFFFF7FEBFFFF7FEBF88
:101C9000FFF7FEBFFFF7FEBFFFF7FEBFFFF7FEBF78
:101CA000FFF7FEBFFFF7FEBFFFF7FEBFFFF7FEBF68
:101CB000FFF7FEBFFFF7FEBFFFF7FEBFFFF7FEBF58
:101CC000FFF7FEBFFFF7FEBFFFF7FEBFFFF7FEBF48
:101CD000FFF7FEBFFFF7FEBFFFF7FEBFFFF7FEBF38
:101CE000FFF7FEBFFFF7FEBFFFF7FEBFFFF7FEBF28
:101CF000FFF7FEBFFFF7FEBFFFF7FEBFFFF7FEBF18
:101D0000FFF7FEBFFFF7FEBFFFF7FEBFFFF7FEBF07
:101D1000FFF7FEBFFFF7FEBFFFF7FEBFFFF7FEBFF7
:101D2000FFF7FEBFFFF7FEBFFFF7FEBFFFF7FEBFE7
:101D3000FFF7FEBFFFF7FEBFFFF7FEBFFFF7FEBFD7
:101D4000FFF7FEBFFFF7FEBFFFF7FEBFFFF7FEBFC7
:101D5000FFF7FEBFFFF7FEBFFFF7FEBFFFF7FEBFB7
:101D6000FFF7FEBFFFF7FEBFFFF7FEBFFFF7FEBFA7
:101D7000FFF7FEBFFFF7FEBFFFF7FEBFFFF7FEBF97
:101D8000FFF7FEBFFFF7FEBFFFF7FEBFFFF7FEBF87
:101D9000FFF7FEBFFFF7FEBFFFF7FEBFFFF7FEBF77
:101DA000FFF7FEBFFFF7FEBFFFF7FEBFFFF7FEBF67
:101DB000FFF7FEBF70470000100020024200200223
:101DC00042001402420014024210FC001690D0039C
:101DD0000204010198010020E80100209801002080
:101DE00098010020FC000398010020FC00075C0023
:0A1DF000002048000020E000000180
:0400000508071AE5E9
:00000001FF
