:020000040800F2
:1000000000000A20E5290008251000082710000834
:10001000291000082B1000082D100008352A0008B0
:10002000000000000000000000000000352A000869
:100030002F1000080000000035030008E10200084E
:10004000352A0008352A0008352A0008352A000814
:10005000352A0008352A0008352A0008352A000804
:10006000352A0008352A0008352A0008352A0008F4
:10007000352A0008352A000831100008371000081A
:10008000352A0008352A0008352A0008352A0008D4
:10009000352A0008352A0008352A0008352A0008C4
:1000A000352A0008352A0008352A0008352A0008B4
:1000B000352A0008352A0008352A00083D100008B6
:1000C00049100008352A0008352A0008352A00089A
:1000D000352A0008352A0008352A0008352A000884
:1000E000352A0008352A0008352A0008352A000874
:1000F000352A0008352A0008352A0008352A000864
:10010000352A000855100008352A0008352A00084D
:10011000352A0008352A0008352A0008352A000843
:10012000352A0008352A000861100008352A000821
:10013000352A0008352A0008352A0008352A000823
:10014000352A0008352A0008352A0008352A000813
:10015000352A0008352A0008352A0008352A000803
:10016000352A0008352A0008352A0008352A0008F3
:10017000352A0008352A0008352A0008352A0008E3
:10018000352A0008352A0008352A00086D100008B5
:10019000352A0008352A0008352A0008352A0008C3
:1001A000352A0008352A0008352A0008352A0008B3
:1001B000352A0008352A0008352A0008352A0008A3
:1001C000352A0008352A0008352A0008352A000893
:1001D000352A0008352A0008352A0008352A000883
:1001E000352A0008352A0008352A0008352A000873
:1001F000352A0008352A0008352A0008352A000863
:10020000352A0008352A0008352A0008352A000852
:10021000352A0008352A0008352A0008352A000842
:10022000352A0008352A0008352A0008352A000832
:10023000352A0008352A0008352A0008352A000822
:0C024000352A0008352A0008352A00087D
:1002500010B5054C237833B9044B13B10448AFF300
:1002600000800123237010BD2C010020000000003D
:10027000DCD6010808B5034B1BB103490348AFF3B3
:10028000008008BD0000000030010020DCD601081D
:1002900072B64FF0E0201749C0F8081D16480168F3
:1002A00041F00101016015481249096801604FF0F1
:1002B000E020134941614FF0070101614FF0000157
:1002C000C0F8181D4FF07F41C0F81C1D0D49C0F843
:1002D000201D7047FFF7FEBF01B5BDE80140704724
:1002E00001B500F097F8BDE801407047FFF7FEBF89
:1002F000FFF7FEBF00000008001000E004560320D6
:100300007FA903000000FF404FF000002D4A10605D
:10031000EFF3148020F0040080F3148862B64FF0ED
:1003200080504FF0E021C1F8040DBFF34F8FBFF3B1
:100330006F8FFEE72448254A4FF00003016891B112
:100340000360EFF3098C2CE9F00F1EF0100F01D1C0
:100350002CED108A1E4C4CF804EDC1F808C025683D
:100360000DB18D61236072B61168D1B1016062B6C2
:100370004F68174C8D6907F101074F602560D1F870
:100380000CC08CF30B88D1F808C05CF804EB1EF0AD
:10039000100F01D1BCEC108ABCE8F00F8CF3098877
:1003A000704772B61168016009B962B6F9E74FF09B
:1003B00000674FF0E028C8F8047D62B6D8E700BFB8
:1003C000704700007C5503206C55032070550320B6
:1003D0006C5B0320026922F00702A2F144026FF075
:1003E000430313604FF0000353609360D3601361C5
:1003F00053619361D361136253629362D362136357
:1004000053634FF0FF339363D1634FF080731364F2
:10041000826070472249086800F101000860214BA2
:100420001A683AB1A2F101021A601AB91E4B4FF0D4
:10043000010018601D490868026822B11C4B4FF08A
:1004400001021A6008E000F104001A4B1A68904299
:1004500001D1194B18680860134B1A6812B9144976
:100460000868C8B101B51249086808B11AF034F833
:100470000D4B1A6872B119F01BFF1048016849B999
:100480000F4801680F4A13680F484FF08052994295
:1004900000D00260BDE80140BFF34F8F70470000FD
:1004A000B45603206C5B032018560320105603201B
:1004B00014560320A0560320A45603207C55032085
:1004C0006C5503207055032004ED00E010F8012B5B
:1004D00011F8013B012A28BF9A42F7D0D01A704781
:1004E000034613F8012B002AFBD1181A0138704774
:1004F00053B94AB9002908BF00281CBF4FF0FF318B
:100500004FF0FF3000F082B9ADF1080C6DE904CE78
:1005100000F006F8DDF804E0DDE9022304B07047DE
:100520002DE9F04F099E0D4604460F46002B46D19B
:100530008A4294465ED9B2FA82F343B102FA03FCCE
:10054000C3F120029F409C4020FA02F217434FEA79
:100550001C4E1FFA8CF5220CB7FBFEF10EFB117737
:1005600001FB05F042EA0742904208D91CEB020267
:1005700001F1FF3702D2904200F234813946121A5B
:10058000A4B2B2FBFEF00EFB102200FB05F544EA1C
:100590000244A54208D91CEB040400F1FF3202D248
:1005A000A54200F21981104640EA0140641B002177
:1005B0001EB1DC400023C6E90043BDE8F08F8B424A
:1005C00008D9002E00F0FC800021C6E9000508468D
:1005D000BDE8F08FB3FA83F100294CD1AB42C0F0F3
:1005E000F280824240F2EF800846002EE5D0C6E954
:1005F0000047E2E702B9FFDEB2FA82F3002B40F0D7
:100600009F808A1A4FEA1C4E1FFA8CF70121B2FB19
:10061000FEF50EFB1520220C42EA004207FB05F016
:1006200090420FD91CEB020205F1FF382CBF4FF0AE
:1006300001094FF00009904203D9B9F1000F00F011
:10064000CE804546121AA4B2B2FBFEF00EFB102279
:1006500000FB07F744EA0244A74208D91CEB040454
:1006600000F1FF3202D2A74200F2B3801046E41B31
:1006700040EA05409CE7C1F120048B4005FA01FCEB
:1006800022FA04F7E5408A401F4320FA04F3884029
:100690004FEA174843EA0C031FFA87FC4FEA134955
:1006A000B5FBF8FE08FB1E5549EA05450EFB0CF9A3
:1006B000A9450ED97D190EF1FF3A2CBF4FF0010B61
:1006C0004FF0000BA94503D9BBF1000F00F08D805E
:1006D000D646A5EB09051FFA83F9B5FBF8F308FB2D
:1006E000135503FB0CFC49EA0545AC4506D97D19B9
:1006F00003F1FF3801D2AC457ED8434643EA0E43AE
:10070000A5EB0C05A3FB02984545CE46C44602D393
:1007100006D1484504D2013BB9EB020E68EB070C49
:10072000002E6FD0B0EB0E0265EB0C05CA4005FA47
:1007300004F4CD40184614430021C6E900453CE7C7
:1007400002FA03FCC3F1200299409C40D5404FEAD5
:100750001C4E20FA02F21FFA8CF7B5FBFEF00A439A
:100760000EFB1055110C41EA054100FB07F58D42C7
:100770000ED91CEB010100F1FF382CBF4FF001092D
:100780004FF000098D4202D9B9F1000F31D0404637
:10079000491B92B2B1FBFEF50EFB151142EA014274
:1007A00005FB07F1914207D91CEB020205F1FF3866
:1007B00001D2914223D84546521A45EA004126E724
:1007C00031463046F9E6841A65EB030201201746EC
:1007D0000BE7644402384AE764440238E4E6023D29
:1007E00062442FE702396244C9E6AEF1020E3D448D
:1007F0006FE702386144CBE7023B3D447EE7023DB0
:100800006244D9E718463146D7E600BF704700BFBB
:10081000342307B50F4A00930F494FF400630F4884
:100820001AF098F820B90D4800F020F800B1FEE762
:1008300034230B4A00930B494FF420330A481AF033
:1008400089F820B9084800F0A3FE00B1FEE703B024
:100850005DF804FBB081022030D701087C810220C2
:100860007C01002043D70108480100200020704788
:1008700018F0BABA07B54FF6FF730190012201A92B
:1008800003480AF087FB019803B05DF804FB00BF42
:10089000488B0220074B08481A6801689142FCD037
:1008A000511C06483C29805C08BF0022196008BF23
:1008B0001A607047188C02201C8C0220DC8B0220EE
:1008C000024B834201D102F021BC7047B88A02205A
:1008D000FFF7F6BFFFF7F4BF082808B502D01028CD
:1008E00000D008BD02F020FCBDE808400BF056BB6C
:1008F000094B83420FD1094B09491A680648013256
:100900001A601A683C2A04BF00221A601B68012280
:1009100019440AF093BD7047488B02201C8C0220BA
:10092000DC8B0220034B1B685A68D207FCD5986801
:10093000704700BFA48A02200268034B9A4201D18B
:1009400003F036B9704700BF0010004008B50248F8
:100950001BF034F872B6FEE756D7010800B59DB01B
:100960002022002109A81BF063FA1822002102A806
:100970001BF05EFA1E4B1A6942F030021A611A69C6
:1009800002F030020192019A5A691207FCD5222323
:1009900008934023012100224FF4805C0D93022331
:1009A0004FF0080ECDE90B12CDE911C3CDE9163396
:1009B000139118933C210C2308A8CDE914E1CDE94B
:1009C00019321B9204F062FB08B1FFF7BFFF1F2230
:1009D0000323CDE90400CDE90600052102A8CDE9F5
:1009E000022304F099F90028EFD11DB05DF804FB53
:1009F000000802442DE9F043A7B0B04C0DAD03F060
:100A0000B7F8FFF7ABFF1422002128461BF010FABD
:100A1000D4F88C30012243F00203C4F88C30D4F8AF
:100A20008C30402103F002030993099BD4F88C30E9
:100A3000A34843F00103C4F88C30D4F88C3000266E
:100A400003F001030A930A9BD4F88C30DFF8BC92C0
:100A500043F02003C4F88C30D4F88C30012703F025
:100A600020030B930B9BD4F88C304FF0020843F01B
:100A70008003C4F88C30D4F88C3003F080030C93DE
:100A80000C9B04F063F801224FF480718D4804F050
:100A90005DF801228C48114604F058F808232946D5
:100AA0008748CDE90D390F9603F096FE402329467D
:100AB0008348CDE90D370F96CDF8408003F08CFECA
:100AC0004FF4807329467F48CDE90D37CDE90F6695
:100AD00003F082FE102329467A48CDE90D390F969E
:100AE00003F07AFE29467848CDE90D77CDE90F6607
:100AF00003F072FE324641460E2003F09BF80E20B2
:100B000003F0DAF8324641460F2003F093F80F2045
:100B100003F0D2F8D4F8883032463B43C4F888302A
:100B2000D4F8883041463B401F200893089B03F0CF
:100B300081F81F2003F0C0F832464146202003F020
:100B400079F8202003F0B8F804F030F808B1FFF786
:100B5000FDFE4FF4E1335D4C5D4EC4E90200C4E993
:100B600000630C23C4E905302023A3624FF4005333
:100B7000C4E9070020616062204623640AF0C4FAD9
:100B800001460028E3D120460AF044FD0146002832
:100B9000DDD120460AF0EAFD0028D8D120460AF02F
:100BA000A1FC0028D3D14FF480024A4B4A494FF0B0
:100BB0008064C3E9001207224FF00051C3E903200B
:100BC000C3E90800C3E90A02C3E90D00C3E9120042
:100BD000C3E91400C3E9160098605861D863186629
:100BE0001846C3E9064108F0A9F80028AFD13B4BED
:100BF0003B4AC3E90020184607F0D6FF0028A6D1DB
:100C00002C46384B03F118062246186859680833F9
:100C100003C2B3421446F7D12846FFF761FC002710
:100C2000314E82B24FF6FF73294628480AF0B2F9D6
:100C30003368002198681AF0E1FE602239460EA858
:100C40000D971BF0F5F8294928461BF0F9F802F03A
:100C5000BBFF04460797264A264F079B934225D39E
:100C600002F0B2FF3B68041B0146234A0293CDE920
:100C70000054224B22481AF033FEFFF753FE059032
:100C80001AF054FC1AF080FC059902461D481AF02F
:100C900027FE01221C490D480AF0D0FB33680021D1
:100CA00058681AF0ABFEFFF7E3FDFEE73B6801333F
:100CB0003B60079B01330793CFE700BF000C024462
:100CC00000140242001C024200040242488B02202F
:100CD00000380140B88A022000200044A48A022083
:100CE00000080C42E2D701082801002069D701085A
:100CF000009F2400B08902207CD7010873D7010827
:100D000088D70108BED70108DC8B02200000111033
:100D10000A4608B5014602481AF0E2FDFEE700BFA8
:100D2000FAD701087047000010B50446C4B04FF46C
:100D30008472002102A81BF07BF822680E4B9A42B5
:100D400017D14FF08062002302A8CDE9022304F0FE
:100D500055FF08B1FFF7FAFD084BD3F88C2042F499
:100D60008022C3F88C20D3F88C3003F480230193C5
:100D7000019B44B010BD00BF00080C42000C0244AF
:100D800070B50546CAB01422002103A81BF050F824
:100D90004FF48472002108A81BF04AF82A68494BD6
:100DA0009A4240F08D804FF00042002308A8CDE920
:100DB000082304F023FF08B1FFF7C8FD424B0026CB
:100DC000D3F8A8204FF4607042F02002C3F8A820A6
:100DD000D3F8A82003A902F020020192019AD3F8C7
:100DE0008C203A4C42F02002C3F88C20D3F88C308F
:100DF00003F020030293029B0223CDE90303CDE914
:100E0000056305233248079303F0E6FC3223DFF83D
:100E1000CCC04FF4806EC4E900C308234FF4000235
:100E2000C4E903E30123C4E90823A3624FF080432C
:100E30002046C4E90566C4E90B36A660E661666330
:100E400002F04EFF08B1FFF781FD10211F48C5F8E1
:100E50008040E56503F02AFC08B1FFF777FD3123F8
:100E60001C4C1D4A4FF40001C4E9002300234FF439
:100E70000022C4E905230122C4E90812A2624FF04E
:100E800080422046C4E90233C4E90B232361E361B5
:100E9000636302F025FF08B1FFF758FD10210D48EC
:100EA000C5F88440E56503F001FC08B1FFF74EFD8D
:100EB00053200022022102F0BDFE532002F0FCFE6E
:100EC0004AB070BD00200044000C02442C8A02206D
:100ED00000140242B489022050020240D0020240B3
:100EE00010B50446CAB01422002103A81AF0A0FFCE
:100EF0004FF48472002108A81AF09AFF22681F4B51
:100F00009A4238D10122002308A8CDE9082304F031
:100F100075FE08B1FFF71AFD194B0024D3F8A42081
:100F2000184842F48042C3F8A420D3F8A42003A9AF
:100F300002F480420192019AD3F88C2042F001021F
:100F4000C3F88C20D3F88C304FF4C06203F0010357
:100F50000293029B0223CDE90323CDE90543072336
:100F6000079303F039FC3A202246032102F062FE87
:100F70003A2002F0A1FE4AB010BD00BF0038014087
:100F8000000C024400000242214B70B5D3F89C20B3
:100F900088B042F01002C3F89C20D3F89C3005467C
:100FA00003F010030193694602A8019B04F050FC72
:100FB000059B3BBB04F016FC164E174B33606323B6
:100FC000F360164BB0FBF3F3013B73600023304634
:100FD0003361B36008F0EEFF044668B9304608F0AC
:100FE00071FD044640B90F2D10D802462946312024
:100FF00002F020FE0A4B1D60312002F05DFE20460B
:1010000008B070BD04F0EEFB4000D5E70124F3E723
:10101000000C0244208C022000100040A086010039
:101020005C000020FEE7FEE7FEE7FEE7FEE7704714
:10103000082003F0A7BD102003F0A4BD014803F071
:101040006CBA00BFB4890220014803F066BA00BF41
:101050002C8A0220014808F013BE00BF208C022019
:10106000014809F0DFB800BF488B0220014808F0B2
:1010700021BC00BFB88A02200120704708B51AF0D1
:10108000C5FF162303604FF0FF3008BD08B51AF006
:10109000BDFF16230360FEE770B50D4614460E46ED
:1010A000731B9C4201DC204670BDFFF7F3FB06F882
:1010B000010BF5E770B50D4614460E46731B9C42B6
:1010C00001DC204670BD16F8010BFFF7D3FBF5E7F6
:1010D0004FF0FF3070474FF4005300204B607047D3
:1010E00001207047002070470B4A0346116810B575
:1010F00009B90A491160106809490A4C0344091BDF
:101100008B4206D91AF082FF0C2303604FF0FF30A8
:1011100010BD1360FCE700BF6C8C0220C05C032094
:1011200000000A2000200000012370B50024094DB2
:10113000094E2B702B7803B970BD4FF47A700134CF
:1011400018F0B8FE142CF5D130461AF037FCFFF732
:10115000FDFBEFE71100002027D80108F0B50022C1
:101160008BB05449544816F027F908B1FFF7EEFB4D
:1011700052480BF041FE08B1FFF7E8FB4FF0FF319A
:101180004F4819F043FF50B14FF4C7724D494E48D4
:101190001AF0A6FB4D481AF011FCFFF7D7FB00240C
:1011A0004B4B09AD1C704FF0FF3340F2BF1221468C
:1011B000009341482B46099416F06CFA099945486A
:1011C0001AF08EFB08AE07AF06AB2146009304AAC7
:1011D00005AB3948039502960197CDE90444CDE962
:1011E0000644CDE9084411F0B3F8079A04993A4847
:1011F0001AF076FB324639462F48CDE90744099468
:1012000016F002F908B1FFF7A1FB29462A4816F0AB
:10121000E7F908B1FFF79AFB30481AF061FB07992C
:101220002F48CBB2C1F307420093C1F30723090E45
:101230001AF056FB0A201AF065FB2A481AF050FBF8
:1012400008992748CBB2C1F307420093C1F30723A3
:10125000090E1AF045FB24481AF042FB0999204870
:10126000CBB2C1F307420093C1F30723090E1AF072
:1012700037FB04233246099303212B460F480CF019
:101280002DF808B1FFF762FB29460B4816F0A8F9C4
:1012900008B1FFF75BFB0999074816F0CDF908B1D3
:1012A000FFF754FB114819F0A9FF19F097FF0BB095
:1012B000F0BD00BFF11200080CE00220CC8E02202D
:1012C000B0AE0220DBDC01084DD801085DD8010872
:1012D0001100002087D80108A0D80108B5D801085E
:1012E000D6D80108E7D80108EED80108188E0220E8
:1012F000014819F0ABBE00BFB0AE022070B5854A00
:10130000064690B0844985480CF05AFC08B1FFF7B6
:101310001DFB4FF40062824980480DF04BF8042316
:1013200006210E937F480EAB0DAA0BF0D7FF08B134
:10133000FFF70CFB0DA80BF0F8FF01BA77480CF093
:10134000ABFC18B1FFF702FBFFF700FB02F030F82F
:1013500000F1140174481AF0C3FA02F029F800F100
:10136000340172481AF0BCFA02F022F800F154017C
:101370006F481AF0B5FA02F01BF890F86C1007915C
:1013800002F016F890F86D20069202F011F890F82D
:101390006E30059302F00CF890F86F4002F008F8F8
:1013A00090F8705002F004F8DDE9053290F8710011
:1013B00000940024CDE9015007995E481AF090FA94
:1013C0000E9401F0F5FF01220EA902F093FA9DF8A8
:1013D0003B309DF839209DF83810009356489DF811
:1013E0003A301AF07DFA0E9401F0E2FF22460EA97F
:1013F00002F080FA9DF83B309DF839209DF83810B6
:1014000000934E489DF83A301AF06AFA4C4B4D4D15
:1014100018689B880E90ADF83C3001F0C9FF062299
:101420000EA902F0E5F80EA947481AF059FA21462C
:1014300020462E6001F002F94449454800F002FCC4
:1014400044481AF0BBFA37480BF08EFE014642487A
:101450001AF046FA31480CF0F5FB01463F481AF005
:101460003FFA3F481AF0AAFA2B4816F099F80146BD
:101470003C481AF035FA0EAB02930CAE0DAB01935B
:1014800000960BAB0AAA09A92868CDE909440B9478
:1014900019F0C0FA2B680999DA69334B3348A14235
:1014A00008BF19461AF01CFA0A9931481AF018FABE
:1014B0000B9930481AF014FA0D992F481AF010FAC7
:1014C000CDE90A44CDE90C440E940EAB2B4C0193AC
:1014D0000DAB00930BAA33460AA9204616F074FA06
:1014E000A26A616826481AF0FBF90A9925481AF0A1
:1014F000F7F90B9924481AF0F3F90E9923481AF0DA
:10150000EFF92E201AF0FEF94FF4FA6018F0D2FC31
:10151000F7E700BFF8D801080CE00220CCAE0220AB
:101520000CD80220CC8E022003D901081CD9010856
:1015300035D901084ED9010882D90108A4D901087A
:1015400025DB0108708C02203FD90108F4DC01087A
:10155000C6D90108CBD90108ECD901080EDA010877
:101560002FDA01083FDA0108D2DD0108B1DA0108FB
:101570005FDA010878DA010891DA0108DC8D0220CF
:10158000AADA0108C2DA0108E3DA010804DB01087B
:10159000F0B504468BB07C481AF010FA7B481AF07C
:1015A0000DFA7B4B7B4A01937B4B7C4900937C4833
:1015B0007C4B1AF095F94FF47A717B481AF090F948
:1015C0004FF47A7179481AF08BF911F0FDFE00237F
:1015D0004FF4FA42204609A919F082F9002840F098
:1015E000D0804FF4FA433C20714DCDE900304FF4E8
:1015F000C162099B28466F4916F064F9034658BB3F
:101600004FF4A052204609A919F06AF903460028B0
:1016100040F0B7800A224FF4F161CDE904214FF484
:10162000A0520392099A64490292644ACDE9005299
:101630000246634815F012FF024668B961496048E6
:1016400015F0BAFE08B1FFF781F95F4A5C495F48BF
:101650000BF0F6FC034608B114248FE04FF48062CF
:10166000204609A919F03CF9002840F08A804FF47F
:1016700080620999524815F0B1FD0028ECD150481C
:1016800015F0DEFD0028E7D14D4816F00BFD0028CF
:10169000E2D14B4816F050FA03460028DCD14FF453
:1016A0004062204609A919F01BF9002869D14FF4BE
:1016B00040630126B4270D250193099B04900093F4
:1016C000CDE905672346CDE90255414A41494248E3
:1016D00019F0C8FC03460028BED14FF40062204632
:1016E00009A919F0FDF800284BD14FF400630193CC
:1016F000099BCDE903500093CDE905672346374A9E
:1017000037493848029519F0ADFC0028A4D10023D0
:101710004FF4C052204609A919F0E2F8002830D150
:10172000B423CDE905034FF4C0530C250193099B65
:1017300004900093CDE9025523462B4A2B492C48AF
:1017400019F090FC0346002886D120464FF4006231
:1017500009A919F0C5F8044698B94FF40063099A2D
:101760001349174800950CF0D9FE00287FF474AF98
:101770001C2322461F49204819F0D6FB20460BB0F7
:10178000F0BD0224FAE700BF2CDB010859DB010899
:101790007CD70108A6DB010873D70108ABDB010881
:1017A000AFDB010896DB0108CADB0108EBDB0108AF
:1017B000DC8D02200CDC01083800002049BD000847
:1017C0000CE00220F112000863EC0108CC8E02202C
:1017D0005D11000812000020288D02202911000848
:1017E00000000020748C0220FD120008220000205E
:1017F000188E02201DDC0108B0AE022008B5054B92
:101800001B6858681AF03CF8431C08BF0020C0B29F
:1018100008BD00BF2801002013B50190FEF760FE4F
:10182000421C1046009219F0C5FD044618B1DDE9CE
:1018300000211AF01FFC204602B010BD2DE9F74F21
:101840000025804614460F46156019B9002003B0E4
:10185000BDE8F08F0846FEF743FE06460028F5D0A7
:101860004FF00C0BDFF84CA0EBB20BFB03F308EBD3
:10187000030958F803301BB92368002B11DCE5E796
:1018800032463946184601931AF0E9FA80B9019BAD
:101890001846FEF725FE864205D101232360CAF8CB
:1018A00000900448D3E723684AF82390013323606B
:1018B0000135D9E79CE7022070B50024074D084E9A
:1018C0002B6830461A19195952681AF009F82B6812
:1018D0000C3418590028F3D170BD00BFECE702208A
:1018E00048DD01080122024B00201A60704700BF4A
:1018F00098E702202DE9F04F2DED028B054608EE0A
:10190000101ADFF838A385B000244FF0FF392646BF
:101910002C70FFF773FF1B28074640F09180FFF7FC
:101920006DFF0746FFF76AFF5B2F0FD1322851D1B9
:10193000FFF764FFB64A1368C3F101031360002B7D
:1019400000F09E80B34819F0CBFF76E04F2F77D19F
:10195000532800F04381522800F04281512808BFEB
:101960002F27AB4B04F1010B1A68B4420CBF0022C5
:1019700002F00102002A00F0E680621E9642A4EB0B
:101980000600B8BF012006F1010806EB0001404443
:10199000A8EB04022944B8BF002228441AF02EFA0A
:1019A00050462F5519F09CFF9B4B9C48196819F025
:1019B00097FF2946994819F093FFD84503D99848CD
:1019C000311B19F08DFFB8F1500F40F0C7804FF078
:1019D0004F08C9E0412824D1B9F1030F52DD914FDE
:1019E00057F829304BB3504619F07AFF8A4B8B4891
:1019F000196819F075FF57F82910884819F070FF19
:101A000057F8291008460191FEF76AFD80460199B2
:101A100028461AF027FBC346B8F1500F40F0A080CB
:101A2000D5E7422800F0E78043282ED0442898D1FB
:101A30001CB17D4819F054FF013CA346B0468FE02D
:101A40007F2F27D07E2F3FF475AF802FC4D00D2F6E
:101A500000F2C880072F84D9A7F10803052B80D88E
:101A600001A252F823F000BF951A0008D91A000805
:101A7000671B00086319000863190008591B000858
:101A80006A4860E709F10109A9E7B442D5D268487C
:101A9000013458E7002CD0D004F1FF3B371B291943
:101AA0007A1C05EB0B001AF0A9F900225046AA5542
:101AB00019F016FF584B5948196819F011FF06F133
:101AC000FF382946554819F00BFFC345A4D23946C3
:101AD000534819F005FF9FE74FF00008294618EE1C
:101AE000100A05F8068003AACDF80C80FFF7A6FEC1
:101AF000039F8346012F18D10368284619681AF0FE
:101B0000B1FA504619F0ECFE434B4448196819F0FD
:101B1000E7FE2946414819F0E3FE2846FEF7E0FCBF
:101B200006460446A346B04676E7FBDD0A2019F0D8
:101B3000E9FE5BF8282008F10108106819F03EFF63
:101B40004745F6D1DDE738462F5519F0DBFE5E45F7
:101B500038BF5E46B04636E7A346B0460D2F03D0E9
:101B60005C464646D5E6B04600230A2005F8083014
:101B700019F0C8FE2B78212B15D1681C19F016FC22
:101B80000028FFF6C1AE2B4B1B6898423FF6BCAE57
:101B9000244B53F82010284605B0BDEC028BBDE85D
:101BA000F04F1AF05FBA28462349FEF78FFC50BB6E
:101BB00004461C4E1F4FDFF888803B689C4205D3CB
:101BC000154B1648196819F08BFE9DE621464046D4
:101BD00056F8042B19F084FE0134EEE72D27C0E6F9
:101BE0002A27BEE6822F3FF423AF832F3FF44DAF69
:101BF000812F7FF4B6AEB9F1000FC8BF09F1FF39EC
:101C000029EAE979EBE605B0BDEC028BBDE8F08F7F
:101C10004C0000205EDD010894E7022072DD01081F
:101C20007FDD0108F0E7022075DD010865DD0108B0
:101C30007ADD010804E8022086DD01086CDD010878
:101C40008EDD01082DE9F04F04460E46554DB5B026
:101C50002B680021986819F0D1FE2B680021586884
:101C600019F0CCFE504B51481C60514BDFF8589195
:101C70001E6019F035FE4F4819F0A0FE00210846FD
:101C8000FFF71AFEDFF84481474B4846196819F000
:101C900027FE31460CA8FFF72DFE9DF83030002BB3
:101CA00046D00CA920A81AF0DDF943490CA81AF077
:101CB000FBF800240146029001AA30460194FFF788
:101CC000BDFD019B012B67D10768002F64D002ADD9
:101CD000AB46DFF8E4A055F8043B3BB15146002089
:101CE0001AF0E2F801340A2C2860F4D15946204653
:101CF000BB689847D8F800A0BAF1000F04D11422AD
:101D000051462E481AF094F8DFF8B0B000255C4632
:101D10005BF8047BFFB92949AA00081D1AF06EF888
:101D200020A8FFF779FD0AF101032060C8F8003010
:101D3000234B1B68002BA7D0052400261F4D55F808
:101D4000040B18B119F03EFB45F8046C013CF6D1C8
:101D500035B0BDE8F08F384620A9FEF7B7FB40B993
:101D6000002DE5D01549AA00081D1AF047F8276094
:101D7000DEE70135052DCBD1206919F023FBE3689F
:101D800020A82361A368E3606368A360236863609D
:101D9000FFF742FD2060CBE720A90A4819F0A0FD1B
:101DA000C6E700BF2801002094E7022096DD010865
:101DB000ECE702209CDD0108CFDD0108F0E70220FE
:101DC00098E70220D3DD010872DD010804E8022053
:101DD0002DE9F0472DED028B05469CB00C461022F4
:101DE000002108A81AF024F8012D3FD064680722CA
:101DF0002046A2491AF033F8002839D14FF00008E4
:101E0000E31D9F4A17461D4613F8011B09B12F29F0
:101E100039D100269A4916709A482A4619F060FD71
:101E2000B04540F2BB1308BF502314225BBA3146C1
:101E300015A8ADF822300C9619F0FAFF0223CDE96F
:101E400013330123314612938D480CAB12AA0EF0C6
:101E5000F7FA40B34FF4ED728B498C4819F040FD0E
:101E6000224687498A4819F03BFD19E0894CC5E7AD
:101E700008222046884919F0F2FF38B94FF00108CE
:101E800004F10803BDE702F8011BBCE77E4940F2FC
:101E9000C3127E4819F024FD2146804819F020FD28
:101EA0004FF0FF34E2E00C984368022B06D1ADF806
:101EB000203043695B6809930EF0B0FA09980CF082
:101EC0003BFC0146764819F00BFD06220121022059
:101ED0000DF048F8061E09DA40F2ED126A496B4827
:101EE00019F0FEFC6F4819F069FDD9E743F6FF735E
:101EF0001293042308220093012112AB0EF048F93B
:101F0000013008D140F203225F49604819F0E8FC33
:101F1000654819F053FD00230A22CDE9143300234C
:101F2000CDE912231023142200930121304612AB75
:101F30000EF02EF9013008D140F20F2252495348D9
:101F400019F0CEFC584819F039FD102315220093E2
:101F50000121304612AB0EF01BF9013008D140F2DE
:101F600015224949494819F0BBFC4F4819F026FD94
:101F70001022304608A90DF069F90446002840F007
:101F80008F8109980CF0D8FBBDF82220034652BA85
:101F900092B20092691C3A4A444819F0A1FC2146C9
:101FA00018220CA8059419F043FF4148234640F23B
:101FB0000962006805A918F093FC044638B140F2A4
:101FC00027123C49314819F08BFC3B488BE70598B8
:101FD0002B463A4A4FF4C16180F80846009719F041
:101FE000C3FD059908460391FEF77AFA2346024697
:101FF000039930460DF052FD002808DA40F2331202
:102000002C49224819F06CFC2D4819F0D7FC00250A
:10201000DDF81480DFF8B09000230122304608EB91
:1020200005010DF0EFFD00280FDB6F1C042F23D9F5
:10203000A8F1040004224946384419F010FF044670
:10204000002843D0B7F5C16F16D140F239121949B3
:102050000E4819F045FC1B4819F0B0FC4FF0FF3456
:1020600030460DF053FF059818F0E4FC20461CB0F4
:10207000BDEC028BBDE8F0873D46CDE7F2DD0108FF
:1020800008E8022003DE01088EE001084DD80108AF
:1020900028DE010858E00108FADD010816DE010813
:1020A00051DE010859DE010876DE010888DE0108EC
:1020B000708C02207BE00108B3DE010826E00108F5
:1020C000CCDE0108DFDE0108DADE010840F207633A
:1020D0009D42BAD0059D0146282212A819F0A8FEFB
:1020E0002B78002B60D11C464FF0FF324FF0FF33AE
:1020F000CDE90E234FF4C87300220D930023CDE9E0
:102100001023002C41D0129860B10346197818466C
:102110001A46013331B12029F8D110460378013233
:10212000202BFAD06A490DAA19F052FD4FF0000A8F
:102130009FED658BDFF8C891DFF8C88112AD55F8C7
:10214000047B0E224946384619F089FEA8B93B4661
:10215000184613F8012B32B13A2AF9D11846027801
:102160000133202AFAD006AA41468DED068B19F0DC
:102170002FFDDDE90623CDE90E230AF1010AA24570
:10218000DDD10D9BC83B632B21D900230599514814
:1021900081F8C13019F0A4FB4FF4A1724E494F48A9
:1021A00019F09EFB4E4857E712A92A4641F8045BF6
:1021B000154612F8013B0BB10A2BF9D1013403B1DA
:1021C00001350A2C90D02B78002BEED18CE74FF004
:1021D0000008DDE90E57434C2946434819F080FBBF
:1021E000AC4278EB070307D242F2107221463F4817
:1021F00019F076FB2546474601F0E6FC4FF0000853
:102200008146DFF804A155EA070312D040F20963C2
:102210009D4277F100032A464FF0000328BF4FF498
:10222000C162304605990DF0EDFC431C044601D017
:1022300080B9002430460DF069FE01F0C5FC4FEA7C
:10224000C803A0EB0902B3FBF2F34146284819F09A
:1022500047FB05E72E2019F055FB01F0B5FC42F2D3
:102260001073A0EB09009842A0440DD94FEAC803AF
:10227000B3FBF0F341462A46504619F031FB01F01A
:10228000A3FC4FF000088146E317A54277EB030259
:1022900003D32D1B67EB0307B5E700252F46B2E7F5
:1022A00040F2292213490D4819F01AFBBDF82220EB
:1022B000114952BA92B2114819F012FB30460DF092
:1022C00025FEEDE5AFF300800000000000000000F7
:1022D00071E7010809DF01087BE001084DD801081A
:1022E00017DF0108E022020036DF01084BDF01089A
:1022F000C7DF01088EE0010808E8022001E00108BC
:10230000FADE010821E001088CDF01082DE9F04F19
:10231000ADB005460C46102200210AA819F088FD30
:1023200002232822FF2112A8ADF8283019F080FDE1
:10233000022D0CBF6568B24DB248294619F0D0FA9B
:10234000142200211FA819F073FDBDF828300021C8
:102350001D9302231E9301230DF138081C93284678
:1023600043461CAA0E910EF06BF8044668B90E980D
:10237000BDF8283042689A4211BF4FF0FF344369DC
:102380005B680B930EF04AF84CB129469E4819F051
:10239000A7FA4FF0FF3420462DB0BDE8F08F0B9820
:1023A0000CF0CAF929460246BDF82A30974819F0C0
:1023B00097FA002301220024CDE90623FF212822D9
:1023C00012A8CDE90844049419F032FD012203213A
:1023D00002200CF0C7FD431C05460AD197228C4908
:1023E0008C4819F07DFA8C4819F0E8FA4FF0FF3468
:1023F000DDE0102314220093012106AB0DF0C8FE8E
:10240000002806DA9C228249824819F069FA83483A
:10241000EAE7834823462822006804A918F060FAF6
:1024200090B1A3227A497B4819F05AFA7D4819F0F5
:10243000C5FA4FF0FF34049B43B9A922744975488B
:1024400019F04EFA7748CFE70446F4E7002CCDD1D7
:10245000012712AEBBB20393049B002B4AD0082283
:102460001A804FF000025A804AF6AF729A80039A9F
:10247000D91D52BADA80002201F8012F0132202A38
:10248000FAD11846002213F0010917BF10F8011BFA
:10249000282161F31F22272186464FF0000C00EB14
:1024A000010B3EF802ABD444ABEB0E0ABAF1010FBC
:1024B000F7DC6FF0010B02394FEA510E0BFB0E11E6
:1024C0000EF1010A012902BF10F81A1061F3070288
:1024D00092B2624491B201EB12418AB202EB114214
:1024E000B9F1000F04D0110289B2C2F307220A43E6
:1024F000D2435A8001F068FB102301930AAB00938A
:10250000814600232822284604990DF0F5FA002878
:1025100042DBDFF824B14FF0100A0021524640465A
:1025200019F086FC00233C2219461DA8CDF814A002
:102530001C9319F07DFC05AB2822CDE900831CA972
:10254000002328460DF09AFC824601F03DFBBAF1CB
:102550001B0F034648DD4AF6AF701C9A1CA912BA3D
:10256000C2F3036201EB820CBCF804E0864534D16F
:102570000398BCF806C040BA80B284452DD111F84A
:1025800022203ABBA3EB0903336001370B2F06F17E
:1025900004067FF45FAF07E0BB221D491D4819F018
:1025A0009FF9214819F00AFA049818F043FA2846CE
:1025B0000DF0ACFCF4B925461C4F12AE56F8042BB6
:1025C000002A03DB2946384619F08AF901350A2D1D
:1025D000F4D1E0E6584619F0F1F901F0F5FA09F105
:1025E0000103984297D3D0E74A465146104819F064
:1025F00077F9F2E70F4819F0E1F90024CBE600BFC4
:10260000A0E00108ABE00108B6E00108D4E0010851
:10261000B4E101084DD80108F7E0010807E101081D
:10262000708C022028E101083AE1010883E10108E9
:1026300063E10108A7E1010846E101082DE9F0473F
:102640008AB000F0B5FE00231A46194601F028F8BA
:10265000054660B901464FF4F0722F4819F0E8FBC7
:1026600000F0A6FE0A222C4901F06CF80546002D68
:1026700048DD294C2946294819F032F90026274619
:10268000DFF8B090DFF8B0A0DFF8B0803021002391
:10269000714384F8243078587B1894F82F1094F8FC
:1026A0002AC0062988BF4946D3F82B30CDF820C070
:1026B00094F829C098BF5AF82110CDF81CC094F89E
:1026C00028C0CDE90001CDF818C094F827C03146E4
:1026D000CDF814C094F826C0221DCDF810C094F88F
:1026E00025C00F48CDE9028C013619F0F9F8B54242
:1026F00004F13004CAD10B4819F060F900200AB087
:10270000BDE8F087A2220849084819F0E9F82946EF
:10271000074819F0E5F8F1E73AE80220C6E10108B8
:10272000E9E1010847E20108E0E201084DD80108AB
:1027300068E20108BEE10108C4E2010843E20108C1
:102740002DE9F04F2DED028B012293B002280B46AC
:10275000099204D18E49586809AA19F039FA01235F
:102760009FED898B0393099A039B9A4205DA002017
:1027700013B0BDEC028BBDE8F08F0399854819F0CA
:10278000AFF84FF47A74DFF858A20026824B504617
:102790000FA9CDE90E36CDE910660BF0E7FF013049
:1027A00010D14F227D497E4819F09AF87D4819F0E2
:1027B00005F940F69803C8349C42E6D1039B0133E7
:1027C0000393D0E70622012102200CF0CBFB431C2F
:1027D000054606D157227149714819F081F87248AF
:1027E000E5E710231422009301210AAB8DED0A8B3B
:1027F000CDE90C660DF0CCFC013007D162226749AF
:10280000674819F06DF8694819F0D8F810231522B7
:102810000093012128460AAB0DF0BAFC013007D124
:1028200068225E495E4819F05BF8604819F0C6F806
:1028300051465F4819F054F8102228460EA90CF0B2
:1028400005FD0646002840F094805146594819F08D
:1028500047F8594819F044F83046584B04F10A0239
:1028600003F8010B01308242FAD801F0ADF94FF0C4
:1028700000080590C34601F0A7F94FF000094F4842
:1028800009EB0B0101440023A4EB090228460DF0DB
:1028900005F906462E2019F035F8002E04DA3146E7
:1028A000474819F01DF80026B144A145E7D340F28E
:1028B000DA720021434819F0BBFA0026414900238F
:1028C0002846A21B31440DF09DF9071E09DA334951
:1028D0009E22334819F004F839463B4819F000F8B5
:1028E00040E03E44A642E9D3002701F06DF9354BA4
:1028F000069004933B46049A12F8011B04920BEBDA
:102900000302D2B291420FD03A22304924480793B1
:1029100018F0E6FF079B049AD9B212F8012C2C4854
:1029200018F0DEFF079B01370133A342E3D1782083
:102930000BF1010B18F0E6FF09EB0603BBF10A0FE0
:1029400098449AD197B9DDE905239B1A4FEAC8024A
:10295000B2FBF3F25946CDE900321E484346224607
:1029600018F0BEFF28460DF0D1FA22E739461A4882
:10297000B4E7BB2209490A4818F0B2FF3246514673
:10298000164818F0ADFFEDE70A0000000000000057
:10299000E9E20108ECE2010802000007E1E40108B5
:1029A0004DD8010825E30108F7E0010876DE0108AB
:1029B00036E301085DE301087BE30108F4F102203E
:1029C00090E301081AEA0220C5E30108D5E40108F2
:1029D000DFE3010827E4010885E40108B6E4010803
:1029E00017E301080D48854601F07AF80C480D49B7
:1029F0000D4A002302E0D458C4500433C4188C425A
:102A0000F9D30A4A0A4C002301E013600432A242BF
:102A1000FBD319F001FBFDF7EDFFFEE700000A20F4
:102A2000000000202C010020B0EF01082C01002044
:102A3000BC5C0320FEE7F0B585B06C46042500229F
:102A400026460378A3F13001092942D8302B19D149
:102A5000437803F0DF02582A13BF08271027837832
:102A6000013008BF023000220130A3F130010929F2
:102A700000F1FF3E08D807FB0233A3F130020378D0
:102A80000130F2E70A27EEE7102F17D123F02001DB
:102A90004139C9B2A3F1610C05295FFA8CFC0DD84C
:102AA000BCF11A0F34BF4FF0610C4FF0410C03F131
:102AB0000A01A1EB0C0141EA0212E0E72E2B17D12B
:102AC000013D38D09EF8013044F8042B0EF101008E
:102AD000B8E7002013F0DF0F02D0093B042B2AD8FF
:102AE000A31B9B10032B26D8DFE803F00B04101A5E
:102AF0000120EFE7B2F1807F28BF0020009B42EA6F
:102B00000362012800D110BA05B0F0BDB2F5803FD4
:102B100011D2019B00991B0443EA01631A43F0E7B9
:102B2000FF2A08D8019B00991B0443EA016302991C
:102B300043EA0123F2E70020E6E700002DE9F34134
:102B40004FF0000E0A2674464FF02E0C03681D4FFE
:102B5000019301AD002315F8012BB2FBF6F090466E
:102B600006FB1021C2B203F1080068443031013382
:102B7000B8F1090F00F8081CDBB2EED8B3B9BEF10A
:102B8000030F04D00F2CDCBF07F804C001340EF192
:102B900001035FFA83FEBEF1040FDBD10F2CFDDCD5
:102BA00000230848035502B0BDE8F081013B0F2C1B
:102BB000DBB2E3DC03F108026A4412F8082C3A5550
:102BC0000134DBE7CEF9022008B5044B0C22186073
:102BD0000349044808F00AFF002008BD18FA022043
:102BE000F0E40108E0F9022008B5024808F013FFFC
:102BF000002008BDE0F90220074B10B51B680C4609
:102C000098478442014605D0044818F069FE4FF009
:102C1000FF3010BD0020FCE718FA0220FEE4010896
:102C20000146014808F009BFE0F9022008B108F0A8
:102C30009BBE704707B5019080B18268436A6AB154
:102C400063B14FF0FF32074801A908F0F2FE28B146
:102C5000054818F0B3FE019808F086FE03B05DF851
:102C600004FB00BFE0F902201FE5010808B1FFF7EF
:102C7000DDBF704770B590B1836883B19D79FFF770
:102C8000D5FF00F095FBD0F8144200F091FBD0F88E
:102C9000181224B128462346BDE87040184770BD7D
:102CA00037B50446B8B1856800F082FBD0F81C3215
:102CB0009BB16B8B8BB1D5F806300193A3681C33A5
:102CC000A360636A1C3B636200F072FB01A9D0F849
:102CD0001C322046984703B030BD204603B0BDE803
:102CE000304008F041BE70B520B383689C79FFF78F
:102CF0009DFF032C01D824B9FEE7231F012B0FD918
:102D0000FAE700F055FBD0F8045200F051FBD0F880
:102D10000C22012075B121462B46BDE870401847B2
:102D200000F046FBD0F8085200F042FBD0F8102229
:102D30000020EFE770BD00004FF0FF3310B50446F0
:102D40000648002240F8043B05491C2318F0ECF823
:102D50002046BDE81040FFF737BF00BF1CFA022035
:102D600039E5010808B5034818F032F9BDE8084014
:102D7000FFF73ABF20FA02202DE9F74FDDF834A023
:102D800091460D469B46074600F012FB4FF0FF317F
:102D900000F5C26017F0A2FFB9F5C06F0BD94FF074
:102DA000FF3600F005FB00F5C26017F0C9FF3046A2
:102DB00003B0BDE8F08F09F10606B7F5877FB6B21C
:102DC0001CD14FF00008AC1F234AA7801368591C80
:102DD00011602360B8F1000F09D0B9F1000F06D0DF
:102DE0004A462946A01D019319F044F9019B1B4D49
:102DF000D5F80090B9F1FF3F09D0FEE7304608F062
:102E000077FD04460028CAD04FF00108DCE72B60AC
:102E10000C9B31462046C5F824B02B62FFF7ECFE30
:102E20000646A0B95146281D18F0F0F840B14E46AC
:102E3000524639462B680A4818F052FDC5F80090F2
:102E4000B8F1000FADD0204608F064FDA9E70548B1
:102E500018F0B4FDFEE700BF500000201CFA02206D
:102E600052E501088DE5010870B5FFF7D9FE04466B
:102E7000002852D0436A002B4BD085685DB1052BEA
:102E800009D9B5F904002A680028A98808DBCAB95D
:102E9000224818F025FD2046BDE87040FFF7C6BE69
:102EA00048F2010399422BD048F2020399422CD0F8
:102EB00048F2011399422AD048F202139942E7D10D
:102EC000174B1EE0174E31688A42E4D1316A59B17E
:102ED0000A884AB1706A38B1063B9A4228BF9AB252
:102EE0000A80A91D19F0C6F84FF0FF330E48336071
:102EF00018F0ACF80028CED00C4818F05FFDFEE7C3
:102F00000B4B2046BDE8704018470A4BF9E70A4BC7
:102F1000F7E7BDE8704008F027BD70BDABE50108DC
:102F2000A12C00081CFA022020FA0220C4E50108A6
:102F30006D2C0008752C0008E72C00080020704755
:102F4000014610B5094818F061F8003818BF012093
:102F500008214442064801F0E7FD20B9054818F071
:102F60002DFD4FF0FF34204610BD00BF400103206F
:102F700000140242E6E5010870B505460C46124809
:102F80004FF0FF3117F0AAFE104E2DB140F205624E
:102F9000631E9BB293420AD9214600240C4818F0C4
:102FA0009FFC3480084817F0CBFE204670BD094BCB
:102FB00009481D60348018F049F80028F2D007480D
:102FC00018F0FCFCEEE700BF800103207C01032029
:102FD000F2E5010878010320B401032024E601088A
:102FE000012801D118F0FAB84FF47A735843B0FBB6
:102FF000F3F016F05FBF0000012813B5044615D1A9
:1030000000224FF48071204801F0A0FD642000F000
:10301000E1FD1D4822464FF4807101F097FD4FF409
:10302000966000F0D7FD002002B010BD34230022CE
:103030001649174817F0D8FD1C23002215491648D9
:1030400017F072FF1C2300221449154817F06CFF7B
:103050001C2300221349144817F066FF4FF48063C5
:1030600008221249CDE9003211480023114A08F024
:1030700087FC28B9012240210F4801F067FDD2E703
:103080004FF0FF30D0E700BF001C024255E60108B8
:10309000800103205FE60108B40103206AE601080D
:1030A0004001032079E601085C0103208CE6010859
:1030B00044FA0220393300080014024238B50123D3
:1030C0000D4C0E48237017F0C1FF237803F0FF0565
:1030D0006BB90B4808F075FC084817F079FF0948F0
:1030E00017F076FF084817F0DBFD284638BD4FF48F
:1030F000FA7016F0DFFEE8E73C010320B40103207C
:1031000044FA02204001032080010320014817F007
:103110009DBF00BF5C010320024B834200D1FEE74C
:10312000704700BFB88A0220102802D1034817F068
:103130008DBF082801D10248F9E77047B401032088
:10314000400103202DE9FF4705460122402169483F
:1031500001F0FCFC684E336843B32946674817F01A
:1031600055FF0446002840F0C180DFF8C8814FF0C9
:10317000FF31634817F0B2FDD8F80070CDE9004484
:10318000CDE90244E7B910215E4801F0CDFC0128E9
:103190001AD05D4B1B781BB1306808F0E5FB376037
:1031A000574804B0BDE8F04717F0CABD40F20660CA
:1031B00008F0B8FB30600028CDD118F00FF8CAE74E
:1031C000524B1B88ADF801300A238DF80030BDF852
:1031D00001304848DB4300224021ADF8033001F0C4
:1031E000B5FC2846FFF7ACFE40B1494818F0E6FBB5
:1031F000012240213F4801F0A9FCD1E7082369469C
:1032000044480DEB030206F07FF904462946424884
:1032100017F0FCFE0CB14148E8E79DF808100B29B7
:1032200003D03F4818F05CFBE2E74FF6FF73BDF8B0
:1032300009A0BDF80B208AEA0201994204D0514648
:10324000384818F04DFBD3E7BDF80140BAF1000F44
:1032500007D1002CCCD040F206639C4205D8D14661
:103260003DE040F206639A4534D9224651462E4845
:10327000E7E7A245524638BF2246CFB1234BC8F8F4
:1032800000001880B9F1000F0DD0134639464A46A8
:10329000204806F039F9044629461F4817F0B6FEC3
:1032A0005CB12248A2E739461A4805F01BFFF2E755
:1032B0004946184806F01CF8EDE7BDF80920002A39
:1032C00096D03068836842621344C360FFF7B2FC53
:1032D00034608DE79C42C8D83368D3F808902846FC
:1032E000FFF72EFE0028C4D011487FE704B0BDE8E8
:1032F000F08700BF00140242D0010320B401032074
:1033000080010320001C02423C0103207C010320B9
:10331000A1E60108B88A02205C010320B5E6010895
:10332000C8E60108DFE60108F9E6010828E7010818
:1033300014E7010878010320002310B5084C23701E
:10334000237843B10023237008F04AFBBDE8104006
:10335000044808F036BB4FF0FF30FFF7F3FEEFE70D
:103360003C01032044FA022037B50B4B0B4D01936F
:103370000B4B0446009328460A4B0B4A0B4900F0BE
:103380001BF818B92CB1256003B030BD4FF0FF30E9
:10339000FAE72046F8E700BF3D2F0008F8FA0220C0
:1033A000792F0008E12F0008BD300008F92F000830
:1033B00000487047F8FA022030B5DDE9035458B1EF
:1033C00051B14AB145B13CB133B1C0E90012C0E9D5
:1033D00003548360002030BD4FF0FF30FBE708B599
:1033E00038B1036801209847003818BF01204042D7
:1033F00008BD4FF0FF30FBE72DE9F04104468AB0ED
:10340000002800F0938090F80E56002D40F089803F
:1034100042F210762A464749342300F5C26017F07D
:10342000E3FB23682846C4F800629847E068FFF78A
:1034300083FC034620B14FF0FF300AB0BDE8F081B5
:103440004FF4C06209213C48CDE900213B4A3C4988
:1034500008F096FA05460028EDD14FF0180804F15F
:10346000540701464246384618F0E2FC01960DF139
:103470000E063B462A46294603200096ADF80E80EC
:10348000FFF77AFC0028D6D12E4BCDE90400069038
:1034900007AD93E8070006AB85E8070000933846C0
:1034A000294905AB04AA18F093FB002803DC274840
:1034B00018F084FAFEE7032204AB53F8040B55F826
:1034C000041B884208D803D2214818F077FAFEE797
:1034D000013A12F0FF02F0D11F221E4904F114003C
:1034E00018F0CFFC1F221C4904F1340018F0C9FC6D
:1034F00006210022ADF80E1042F2107104F16C03A7
:10350000E26640F201109A80CDE900611146FFF7B2
:1035100033FC00288FD194F80E36013384F80E3630
:103520008BE7013580F80E56002086E76FF0030028
:1035300083E700BF46E70108D4010320BD3500083A
:1035400053E70108F4D6010868E7010875E70108A8
:10355000A3E70108CBE70108D7E7010870B50546E6
:10356000E8B190F80E06012815D10E4E3070337870
:103570006BB90D4808F025FAFFF7F4FB6B68984724
:1035800095F80E36013B002085F80E3670BD3220CE
:1035900016F090FCEBE70028F8D0431EF3E76FF03D
:1035A0000300F3E788020320D401032008B510B11B
:1035B0000846FFF759FC002008BD0000002310B5A5
:1035C000094C2370237843B10023237008F008FAD4
:1035D000BDE81040054808F0F4B9FFF7E9FE4FF4E4
:1035E000FA71FFF7E3FFEDE788020320D40103201F
:1035F0002DE9FF410E46174638B331B302F1FF38CB
:10360000B8F1170F21D8182200F1540500212846DF
:10361000ADF80E2018F00CFC42F21073002201935A
:103620000DF10E03009311462B460320FFF7A4FB78
:10363000044650B93A462946304618F01BFD20464C
:1036400006F8084004B0BDE8F0814FF0FF30F9E71C
:103650007FB50D460446F8B1F1B106230022ADF85E
:103660000E3042F21073C0F87220A0F8762000F1FC
:10367000720601930DF10E0300931146334640F29A
:103680001510FFF779FB38B9D4F872302B60B4F815
:103690007630AB8004B070BD4FF0FF30FAE7000029
:1036A0002DE9F041174605461A468CB0002844D053
:1036B000012904D1002F40D0013B1F2B3DD803AE80
:1036C000B0461F4C04F1200C334620686168083472
:1036D00003C364451E46F7D12378202A337040F295
:1036E000E933A8BF202239464046ADF80A3018F029
:1036F000C1FC41F2883305F5097601930DF10A0307
:1037000000932122334641464FF48170FFF734FB8A
:10371000044678B995F82472304607EB4702120147
:1037200005F2252118F06AFB204685F80D760CB0CD
:10373000BDE8F0814FF0FF30F9E76FF00300F6E7E6
:1037400000D7010838B50D46144680B189B162B181
:1037500090F80D2600F50971944228BF144604EB39
:1037600044022846120118F085FC60B238BD0446B8
:10377000FBE70C46F9E750B1B3FA83F35B0900EBC2
:103780008300C0F80412C0F80C22002070474FF0EC
:10379000FF3070472DE9F0410E4615460446C2B091
:1037A000002800F0828000297FD0002A7DD00846C2
:1037B000FCF796FE80462846FCF792FEB8F1200FF3
:1037C000074675D8402873D8902200211EA818F00B
:1037D0002FFB4FF0FF33049304232022314616A819
:1037E000ADF80E3018F04DFB294640220DF179005E
:1037F00018F047FB94F8DB10CDF8BA7000293ED1E1
:10380000342209A818F014FBD4F8DD3005A805937C
:10381000FFF794F90F22014606A818F032FBD4F8FE
:10382000E13005A80593FFF789F90F2201460AA8A0
:1038300018F027FBD4F8E53005A80593FFF77EF9CB
:103840000F2201460EA818F01CFBD4F8E93005A899
:103850000593FFF773F90F22014612A818F011FB28
:10386000012332AD06AC8DF8BF300FCC0FC50FCCA5
:103870000FC50FCC0FC594E80F0085E80F0042F28A
:10388000107301930DF10E030093B02240F2031068
:1038900004AB16A9FFF770FA38B90498003818BFBE
:1038A0000120404242B0BDE8F0814FF0FF30F9E71F
:1038B0006FF00300F6E71FB54FF0FF34C0B10423EB
:1038C000ADF80A3043F69823002201930DF10A0364
:1038D000009311464FF4827003AB0394FFF74CFA48
:1038E00030B90398003818BF0120404204B010BD21
:1038F0002046FBE7F0B50F461546044695B0002874
:103900003BD04022002104A818F092FA4423003D45
:1039100018BF0125ADF80A304FF47A738DF80950BD
:103920004FF0FF3501930DF10A030093012203AB21
:1039300040F207100DF109010395FFF71DFA039BF3
:1039400050EA030619D104A8FFF775F8C4F8DD00A2
:1039500008A8FFF770F8C4F8E1000CA8FFF76BF8AF
:10396000C4F8E50010A8FFF766F8C4F8E90030468F
:10397000D4F8DD303B6015B0F0BD4FF0FF30FAE712
:10398000F0B50A464FF0FF33AFB0002843D000290E
:1039900044D00493042305ACADF80E3026460B4604
:1039A00001F12007254618685968083303C5BB4252
:1039B0002C46F7D102F121030DAD02F161072C462F
:1039C00018685968083303C4BB422546F7D192F8FA
:1039D00062301EAD1D9302F16303A3322C461868BA
:1039E0005968083303C493422546F7D140F6B833EB
:1039F00001930DF10E030093A422314640F205100D
:103A000004ABFFF7B9F930B90498003818BF0120AA
:103A100040422FB0F0BD4FF0FF30FAE71846F8E70C
:103A200010B54FF0FF3486B005940424ADF80E4075
:103A3000E0B112B1012901D000221346C0E9872369
:103A400042F2107301930DF10E03049100930422CE
:103A50004FF4867005AB04A9FFF78EF948B90598B5
:103A6000003818BF0120404206B010BD6FF00300BF
:103A7000FAE74FF0FF30F7E77FB54FF0FF34042649
:103A800002F11605ADB20394ADF80A6010B3002A36
:103A900020DD012B1ED840F2EA5041F8163CB5F566
:103AA000C06F88BF024642F2107321F8022C0193C6
:103AB0000DF10A0300932A464FF4877003AB1639C1
:103AC000FFF75AF948B90398003818BF012040425F
:103AD00004B070BD6FF00300FAE72046F8E700007D
:103AE00001221D4910B5D1F888301C4843F47003F9
:103AF000C1F888301A4B1A600022DA611A621C6819
:103B00002040186017489A62DA621A6358639A6311
:103B1000D8631A6458649A64186820F48020186086
:103B20001A654FF000638B600F4B9A6902F04042B8
:103B3000B2F1404F0FD1DA69D20741BF0B4ADA60C8
:103B400002F14432DA60DA6942F00202DA61DA69DB
:103B500042F00102DA6110BD00ED00E0E3EAE2EAC2
:103B6000000C024480020101002002403B2A190897
:103B700010B5032000F040F801F022F8094B0A4A82
:103B80001B6A03F00F03D35CD840084B1860002079
:103B9000FDF7FAF9044618B9FDF7C4F8204610BD40
:103BA0000124FBE7000C0244E0E701085400002078
:103BB000034A044B11681B780B441360704700BF25
:103BC0008C02032058000020014B1868704700BF8A
:103BD0008C02032038B50446FFF7F6FF0546631C48
:103BE0001EBF044B1B78E418FFF7EEFF431BA342F4
:103BF000FAD338BD58000020C31E042B10B504466C
:103C000003D9BB210948FDF783F809492302CA6893
:103C100003F4E06322F4E0621204120C134343F055
:103C2000BF6343F40033CB6010BD00BFF8E7010869
:103C300000ED00E00F2A70B505460C46164603D984
:103C4000D4211A48FDF764F80F2C03D9D521174861
:103C5000FDF75EF8164BD968C1F30221C1F10703E5
:103C60000A1D042B28BF0423062A4FF0FF3294BFFD
:103C70000021033902FA03F324EA03038A4026EA07
:103C800002068B40002D43EA0603ACBF05F16045F8
:103C9000084A4FEA0313DBB2ABBF05F5614505F0F7
:103CA0000F0585F80033535570BD00BFF8E70108D4
:103CB00000ED00E014ED00E0002803DAE9210648F9
:103CC000FDF726B801234109044A00F01F00834094
:103CD00042F82130704700BFF8E7010800E100E03A
:103CE00070B50446FFF770FF0646002C00F05983BC
:103CF0002368B04DAB4200F09280AF4A934200F08F
:103D00008E8002F170428032934200F0888002F18E
:103D10008052934200F0838002F1704280329342DD
:103D20007DD002F18052934279D002F1704280320C
:103D3000934274D002F18052934270D002F17042EB
:103D4000803293426BD002F18052934267D002F1ED
:103D500070428032934262D002F1805293425ED030
:103D600002F170428032934259D002F18052934264
:103D700055D002F170428032934250D002F180520D
:103D800093424CD002F1704202F54862934246D011
:103D900002F18052934242D002F17042803293424B
:103DA0003DD002F18052934239D002F1704280320C
:103DB000934234D002F18052934230D002F17042EB
:103DC000803293422BD002F18052934227D002F1ED
:103DD00070428032934222D002F1805293421ED030
:103DE00002F170428032934219D002F18052934224
:103DF00015D002F170428032934210D002F180520D
:103E000093420CD002F170428032934207D002F10B
:103E10008052934203D0FD216848FCF779FFE368A4
:103E200033F4007206D0B3F5806F03D0FE216348EF
:103E3000FCF76EFFE368B3F5806F02D0B3F5007F47
:103E40000AD16368B3F5007F06D0872B04D940F20E
:103E500001115A48FCF75CFFA36833F4006304D0F7
:103E600040F203115548FCF753FF236933F0080370
:103E700004D04FF482715148FCF74AFF636933F470
:103E8000002304D040F205114C48FCF741FFA36920
:103E9000022B04D94FF483714848FCF739FFE369DA
:103EA00033F4803207D0B3F5003F04D040F207115D
:103EB0004248FCF72DFF236A33F4400304D04FF44B
:103EC00084713E48FCF724FF236B33F0404304D059
:103ED00040F209113948FCF71BFF636B33F4805340
:103EE00004D04FF485713548FCF712FF2368AB42CC
:103EF00000F09780304A934200F0938002F17042C4
:103F00008032934200F08D8002F18052934200F0A3
:103F1000888002F170428032934200F0828002F188
:103F2000805293427DD002F170428032934278D029
:103F300002F18052934274D002F170428032934277
:103F40006FD002F1805293426BD002F17042803206
:103F5000934266D002F18052934262D002F17042E5
:103F6000803293425DD002F18052934259D002F1E7
:103F700070428032934254D002F18052934250D02A
:103F800002F1704202F5486293424AD002F1805237
:103F9000934246D002F170428032934241D002F106
:103FA000805293423DD002F170428032934238D029
:103FB00006E000BF500002405000025063E80108D4
:103FC00002F1805293422CD002F17042803293422F
:103FD00027D002F18052934223D002F17042803206
:103FE00093421ED002F1805293421AD002F17042E5
:103FF0008032934215D002F18052934211D002F1E7
:104000007042803293420CD002F18052934208D029
:1040100002F170428032934203D002F18052934207
:104020001AD1636A013B3F2B04D94FF48771B14821
:10403000FCF76EFEA36A013B3F2B04D940F20F113F
:10404000AC48FCF765FEE36A33F0402304D04FF43C
:104050008871A848FCF75CFE002384F84C300223EA
:10406000226884F85430536943F00603536123688F
:104070005A69D20700F18A815A69216A22F44302FF
:104080000A435A61E1696269AB4242EA010221696D
:10409000994842EA0102A16942EA010200F08880DF
:1040A00096498B4200F0848001F1704180318B424F
:1040B0007ED001F180518B427AD001F17041803184
:1040C0008B4275D001F180518B4271D001F170416A
:1040D00080318B426CD001F180518B4268D001F16C
:1040E000704180318B4263D001F180518B425FD0AF
:1040F00001F1704180318B425AD001F180518B42E5
:1041000056D0834254D080318B4251D001F170415E
:1041100080318B424CD001F180518B4248D001F16B
:10412000704101F548618B4242D001F180518B42D0
:104130003ED001F1704180318B4239D001F1805184
:104140008B4235D001F1704180318B4230D001F18A
:1041500080518B422CD001F1704180318B4227D0AD
:1041600001F180518B4223D001F1704180318B42AB
:104170001ED001F180518B421AD001F17041803183
:104180008B4215D001F180518B4211D001F1704169
:1041900080318B420CD001F180518B4208D001F16B
:1041A000704180318B4203D001F180518B420DD19F
:1041B000A16A0139090501F07C711143E26A1143DA
:1041C000626A013A120102F47C720A43196C01F02E
:1041D00080210A431A64A168226B1143227911439A
:1041E000E268B2F5806F40F0DE80AB4200F0918073
:1041F000424A934200F08D8002F170428032934235
:1042000000F0878002F18052934200F0828002F138
:104210007042803293427CD002F18052934278D037
:1042200002F170428032934273D002F18052934285
:104230006FD002F17042803293426AD002F1805214
:10424000934266D002F170428032934261D002F113
:10425000805293425DD083425BD08032934258D0EB
:1042600002F170428032934253D002F18052934265
:104270004FD002F1704202F54862934249D002F1F8
:104280008052934245D002F170428032934240D036
:1042900002F1805293423CD002F17042803293424C
:1042A00037D002F18052934233D002F17042803213
:1042B00093422ED002F1805293422AD002F17042F2
:1042C0008032934225D002F18052934221D002F1F4
:1042D0007042803293421CD002F18052934218D037
:1042E00002F170428032934213D002F18052934225
:1042F0000FD005E063E8010850030240500002506F
:1043000002F170428032934203D002F18052934214
:1043100001D141F480615A6C656B22F0434222F472
:104320007F1222F4F75222F01F022A430A435A64F2
:10433000002283429A641ED01E4A93421BD002F18F
:1043400070428032934216D002F18052934212D0D2
:1043500002F1704202F5786293420CD002F1805271
:10436000934208D002F170428032934203D002F1AE
:104370008052934202D100225A659A650020D86784
:104380000123A065256584F8543070BDFFF71CFC3F
:10439000801B05287FF66BAE1023A365032384F8EA
:1043A00054300120F1E7B2F5007F08BF41F40071FD
:1043B000B1E700BF500302502DE9F0410F4690468F
:1043C0001E460446002843D05A1E4FF6FE739A42FA
:1043D00004D94FF404712048FCF79AFC94F84C304F
:1043E000012B37D0012094F8543084F84C008342DC
:1043F0004FF0000327D1022284F85420A3654FF424
:10440000FE432068B6B2856C2D0C2D0435438564BF
:10441000C360C764C0F85080436943F4BA43436142
:10442000636E1BB1436943F400734361236F1BB197
:10443000436943F400534361436943F0010343611B
:104440000020BDE8F081402284F84C30A265F8E7F6
:104450000120F6E70220F4E763E8010838B50446D6
:10446000FFF7B2FB054644B194F85430022B06D056
:104470002023A365002384F84C30012024E0226827
:10448000536943F004035361052384F854302368CF
:104490001A69900419D55A69216D42F002025A61D5
:1044A000042284F854204FF4FE42DA600122090607
:1044B00048BF616F84F854204FF0000042BF0A7378
:1044C00000229A6484F84C0038BDFFF77DFB401B46
:1044D0000528DCD9A36D43F01003A365032384F8FA
:1044E0005430236D1D0642BF0122636F1A73C1E76A
:1044F00028B190F85430022B03D02023836501208B
:1045000070470423026880F854305369002043F454
:10451000005343F00403536170470121036810B551
:1045200023F47F6222F00F020446D068C3F30B022B
:10453000503AC2F3C41201FA02F2024200F0B38010
:104540001A69520508D55A69500505D54FF480629D
:10455000DA60A26D0A43A2651A69120509D55A6983
:10456000100506D54FF40062DA60A26D42F0020237
:10457000A2651A69D10409D55A69D20406D54FF447
:104580008052DA60A26D42F00402A2651A695004FA
:1045900009D55A69510406D54FF48042DA60A26DFC
:1045A00042F00802A2651A69920509D55A69900578
:1045B00006D54FF40072DA60636E0BB1204698475F
:1045C00023681A69910431D55A6992042ED54FF4A3
:1045D0000052DA6094F85420042A20D15A6922F457
:1045E00000525A615A6942F002025A615A69D00770
:1045F0004CBF0322012284F85420226D110604D5F9
:104600000121626F117300229A64002384F84C30F8
:10461000E36E002B47D02046BDE810401847052325
:1046200084F85430236F0BB12046984723681A69E9
:10463000D20518D55A69D00515D5226D11062BD58E
:10464000DA6F32B99A6C22B90122616F84F8542072
:104650000A734FF44072DA60002384F84C30236E02
:104660000BB120469847A36DEBB123685A6942F01D
:1046700002025A615B69DA074CBF0323012384F805
:104680005430236D1B0642BF0122636F1A7300234F
:1046900084F84C30A36EBCE79A6C002AD9D1012271
:1046A00084F85420D5E710BD806D704738B50C46AE
:1046B000054618B3A1F11003012B04D940F2735140
:1046C0001048FCF725FB14F0100319D0012100203D
:1046D0002B6804F0110423F47F62C3F30B03503BF7
:1046E00022F00F02C3F3C41301FA03F35168112C33
:1046F0000CBF0B4321EA0303536038BD0120FCE7E4
:104700001846FAE763E80108830706D509B1064BA6
:104710000B600AB107231360704709B1034B0B60AC
:10472000002AF9D00523F6E7000001FE000001F899
:1047300037B500284CD0426F002A49D090F8543049
:104740000468012B6169DDB203D0022D3BD1CB039C
:1047500039D590F85430012BD9B22DD190F84C3086
:10476000012B4FF0020335D080F8543080F84C1004
:104770001373002383651361636943F4BA43636170
:10478000436E1BB1636943F400736361036F1BB134
:10479000636943F400536361156801A9286A002224
:1047A000FFF7B2FF2B0C1B0425F0030523602D043B
:1047B000019B2D0C1D43E5670020636943F0010355
:1047C000636103B030BD40238365002380F84C3023
:1047D0000120F6E71846F4E7434B2DE9F74F9842DE
:1047E00004460D463FD003F1805398423BD03F4BE7
:1047F000984238D003F18053984234D03C4B9842D1
:1048000031D003F1805398422DD03A4B98422AD0B0
:1048100003F18053984226D0374B984223D003F1BE
:10482000805398421FD0354B98421CD003F18053DF
:10483000984218D0324B984215D003F180539842D9
:1048400011D0304B98420ED003F1805398420AD0D9
:104850002D4B984207D003F18053984203D0BA21E0
:104860002A48FCF755FA2B689AB212B11B0C1B04AC
:104870001BB1BB212548FCF74BFA6B68012B15D9FE
:10488000234A934212D027D8A2F5801293420DD02A
:1048900009D8032B0AD9113B012B07D9BC211B488E
:1048A000FCF736FA02E01B4A9342F7D1AB68022BC1
:1048B00003D9BD211548FCF72BFA0026164BDFF86B
:1048C000608003EA9423114801932F6837FA06F3B6
:1048D00028D103B0BDE8F08F104A9342E6D023F40C
:1048E0008013A2F57022DFE70000024200040242BA
:1048F00000080242000C0242001002420014024270
:1049000000180242001C024200200242CBE80108CB
:1049100000002110000012107F7F2F0000003110D6
:10492000002002444FF0010A0AFA06FA1AEA0707C1
:1049300000F0E4806B6823F01003022B5DD1704B14
:104940009C423FD003F180539C423BD06D4B9C4234
:1049500038D003F180539C4234D06B4B9C4231D011
:1049600003F180539C422DD0684B9C422AD003F126
:1049700080539C4226D0664B9C4223D003F1805347
:104980009C421FD0634B9C421CD003F180539C423D
:1049900018D0614B9C4215D003F180539C4211D03A
:1049A0005E4B9C420ED003F180539C420AD05C4B7C
:1049B0009C4207D003F180539C4203D0CC21FCF7EA
:1049C000A7F958482B690F2B03D9CD21FCF7A0F983
:1049D00054484FF00F0CF20804EB820206F0070176
:1049E000136A89000CFA01FC23EA0C0C2B6903F012
:1049F0000F038B4043EA0C031362032221684FEA42
:104A0000460902FA09F221EA020C6FEA020B6A680F
:104A100002F0030122F0100201FA09F1013A41EA21
:104A20000C01012A216017D8EA68032A03D9E12181
:104A3000FCF76EF93B48A168EA680BEA010102FA4B
:104A400009F20A43A2606A686168C2F3001221EAAF
:104A50000A01B2400A4362606A68032A0FD0AA685A
:104A6000022A03D9F321FCF753F92E48E2680BEA36
:104A7000020BAA6802FA09F242EA0B02E2606968D4
:104A8000CB003BD54FF00F0E26F0030202F1884910
:104A900006F00303019ADB000EFA03FE02FA03F3A9
:104AA000FA4309F50839D9F860C011F4801F2CEADF
:104AB0000E0C43EA0C03C9F86030D8F800300CBF84
:104AC00013403B43C8F80030D8F8043011F4001FFD
:104AD0000CBF13403B43C8F80430D8F8843011F4BD
:104AE000003F0CBF13403B43C8F88430D8F88030F7
:104AF000C90354BF13403B43C8F880300136E4E695
:104B0000000002420004024200080242000C02427D
:104B1000001002420014024200180242001C02422D
:104B200000200242CBE8010838B505460C4621B901
:104B300040F28B110448FCF7EBF82B691C4214BFC0
:104B40000120002038BD00BFCBE8010870B5054644
:104B500016460C4621B94FF4D6710848FCF7D8F830
:104B6000012E06D940F2AD110448FCF7D1F8AC6132
:104B700070BD002EFBD1AC62FAE700BFCBE80108A4
:104B80007047000038B5084D0446EB68034202D078
:104B9000E860FBF7A1FE2B691C4203D020462C6184
:104BA000FFF7EEFF38BD00BF00200244034A00209B
:104BB000136843F001031360704700BF0004034013
:104BC0004E4B30B5DA6902F01802082A00F08F80E7
:104BD000DA6912F0180F09D11A68494812F0200F4B
:104BE00003D01B68C3F3C103D84030BDDA6902F0BB
:104BF0001802102A7DD0DA6902F01802182A7AD138
:104C0000996A9D6A9A6A15F47C5F9C6BC5F30520CE
:104C1000EBD0C2F30012C4F3CC04624307EE900A57
:104C200006EE902A01F00302012AB8EEE77AFAEEC6
:104C3000E96AF7EE005A0FD0032A4AD05B6B9FED6A
:104C4000316AC3F3080307EE903AF8EEE77A77EE9D
:104C5000A67A77EEA57A37E01A68920627D5196802
:104C6000274AC1F3C101CA4007EE902AB8EEE76AAD
:104C70005B6BC6EE077AC3F3080307EE103AB8EE93
:104C8000C77A37EE267A37EE257A67EE877A1B4B9E
:104C90005B6BC3F34623013307EE103AF8EEC76AA5
:104CA00087EEA67AFCEEC77A17EE900A9DE75B6B5B
:104CB0009FED156AC3F3080307EE903AF8EEE77A22
:104CC00077EEA67A77EEA57AC6EE076A67EEA67A41
:104CD000DDE75B6B9FED0D6AC3F3080307EE903AC7
:104CE000F8EEE77A77EEA67A77EEA57AECE7084851
:104CF0007BE7084879E7024877E700BF000C0244E9
:104D00000090D0030024744A0024744C20BCBE4B95
:104D100000093D0040787D012DE9F0410D46044633
:104D200010B90120BDE8F0810368013B1E2B04D9B6
:104D300040F21441A248FBF7EBFF0F2D04D940F2DB
:104D400015419F48FBF7E4FF9E4A136803F00F03E9
:104D5000AB42C0F0B0802368D90600F1B880236868
:104D60001A0717D5984E2269336A1B0903F070039E
:104D70009A420FD922F03002402A04D04FF48761C2
:104D80008F48FBF7C5FF336A226923F4E06343EAE7
:104D90000213336223685B0715D58B4EE368326AD2
:104DA00002F0700293420ED923F03003402B04D05E
:104DB00040F242418248FBF7ABFF336AE26823F0DE
:104DC00070031343336223689F0714D57E4EA36894
:104DD000326A02F00F0293420DD9083B072B04D927
:104DE00040F24C417648FBF793FF336AA26823F008
:104DF0000F03134333622368DE0700F182802368C8
:104E0000980700F1E9806F4A136803F00F03AB4283
:104E100000F2FA802368590700F1028123681A071B
:104E20001AD5694D22692B6A1B0903F070039A4257
:104E300012D232F0400308D0502A06D0602A04D0A3
:104E40004FF49B615E48FBF763FF2B6A226923F4F2
:104E5000E06343EA02132B622368DB061AD55A4D3E
:104E600062692B6A1B0A03F070039A4212D232F075
:104E7000400308D0502A06D0602A04D040F2E24114
:104E80004F48FBF745FF2B6A626923F4E04343EA8E
:104E900002232B62FFF794FEBDE8F0414A4B4B4AD8
:104EA0001B6A03F00F03D35CD840494B1860494B91
:104EB0001868FCF769B8136823F00F032B431360DD
:104EC000136803F00F03AB427FF42BAF43E73E4E72
:104ED0006269336A1B0A03F070039A427FF63FAFA0
:104EE00022F03002402A04D040F22F413448FBF730
:104EF0000FFF336A626923F4E04343EA022333621B
:104F00002DE76368032B04D940F254412C48FBF78A
:104F1000FFFE61682C4B03291A681ED112F0007F36
:104F20003FF4FFAEDA6941F2883822F003020A4307
:104F3000DA61FEF749FE63680646032B224F19D15A
:104F4000FB6903F01803182B3FF459AFFEF73CFE42
:104F5000801B4045F4D90320E4E6022902D112F473
:104F6000003FDDE7012902D112F4007FD8E712F0FB
:104F7000020FD5E7022B0BD1FB6903F01803102BAE
:104F80003FF43DAFFEF720FE801B4045F4D9E2E739
:104F9000012B10D1FB6903F01803082B3FF42FAF4E
:104FA000FEF712FE801B4045F4D9D4E7FEF70CFE55
:104FB000801B4045CFD8FB6913F0180FF6D11EE7D0
:104FC00034E9010800200240000C0244E0E7010837
:104FD000540000205C0000201F4EA368326A02F0DB
:104FE0000F029342BFF40FAF3BB1083B062B04D92D
:104FF00040F2B6411948FBF78BFE336AA26823F0F2
:105000000F0313433362FEE6136823F00F032B43B1
:105010001360136803F00F03AB427FF482AEF9E62E
:105020000D4DE3682A6A02F070029342BFF4F6AEB7
:1050300033F0400208D0502B06D0602B04D040F251
:10504000CE410648FBF764FE2B6AE26823F070034A
:1050500013432B62E2E600BF000C024434E901086E
:1050600008B5FFF7ADFD064B064A1B6A03F00F03B8
:10507000D35C03F01F03D840034B186008BD00BF8A
:10508000000C0244E0E70108540000202DE9F04143
:10509000044608B9012071E003683BB133F03F03D7
:1050A00004D040F2DB119248FBF732FE914BDE69EF
:1050B0009F6A236806F01806D90607F0030721D572
:1050C000E36933F4807304D040F2E3118848FBF7BE
:1050D0001FFE236A3F2B04D94FF4F2718448FBF77B
:1050E00017FE082EE36903D0182E2CD1022F2AD1E7
:1050F000002BCFD07F4A216A936923F47C1343EAC3
:10510000014393612368D8074BD42368990700F1C2
:105110009E8023681D0700F11C812368580700F159
:105120004F8123689B0600F1D481A36A022B04D926
:1051300040F24E316E48FBF7EBFDA16A002940F0CA
:10514000FF8100201AE06B4DD3B12B6843F48073CC
:105150002B60FEF739FD80462B689A0507D5AB69B1
:10516000226A23F47C1343EA0243AB61CAE7FEF7E9
:105170002BFDA0EB08000228EED90320BDE8F0814A
:105180002B6823F480732B60FEF71EFD80462B688E
:105190009B05B7D5FEF718FDA0EB08000228F6D94D
:1051A000EBE76368002B00F0168323F48022B2F54E
:1051B000803F00F0EE82B3F5A81F00F0EA824FF4C2
:1051C00009714B48FBF7A4FD102E40F0E58263689F
:1051D000002B9AD15EE7C3B92B6823F480332B6090
:1051E0002B6823F480132B602B6823F480232B601F
:1051F000FEF7EAFC80462B689B0386D5FEF7E4FCAD
:10520000A0EB08006428F6D9B7E7B3F5A02F08D1C2
:105210002B6843F480232B602B6823F480132B60CE
:10522000C5E2B3F5A81F2B6806D143F480232B6099
:105230002B6843F48013F2E723F480332B602B6850
:1052400023F480232B602B6823F48013B2E2E368FD
:10525000012B04D940F257212548FBF759FD22695B
:1052600052B1182A03D8244BD340D80704D44FF4A2
:1052700016711F48FBF74CFD63697F2B04D940F280
:1052800059211B48FBF744FDE3681EB1182E37D1A6
:10529000012F35D1002B3FF4FDAE76B1FEF794FC23
:1052A0000746144D2B6899071CD52B69626923F4B6
:1052B000FE0343EA02432B612BE70E4A2169136880
:1052C00003F018038B42E9D0136823F018030B4353
:1052D0001360FFF7C5FE094B1868FBF755FE002861
:1052E000DCD0D7E6FEF770FCC01B0228DAD944E711
:1052F00034E90108000C0244000101015C000020B7
:105300008C4DABB12B68226923F0180313432B603B
:105310002B6843F001032B60FEF756FC07462B6811
:105320009A07C2D4FEF750FCC01B0228F7D924E725
:105330002B6823F001032B60FEF746FC07462B6821
:105340009B077FF5E6AEFEF73FFCC01B0228F6D9AF
:1053500013E7A369FBB1B3F1806F14D1754DD5F894
:10536000F03043F08063C5F8F030FEF72DFC0746BF
:10537000D5F8F03019013FF5D0AEFEF725FCC01B83
:105380000228F5D9F9E64FF42F716B48FBF7C0FC02
:10539000A369002BE2D1674DD5F8F03023F080638C
:1053A000C5F8F030FEF710FC0746D5F8F0301A01CA
:1053B0007FF5B3AEFEF708FCC01B0228F5D9DCE68A
:1053C000A368012B08D923F08003052B04D040F2F9
:1053D000EA215948FBF79CFC584D6B6ADF071AD548
:1053E000A368544D012B26D1D5F8F03043F00103CA
:1053F000C5F8F030FEF7E8FB41F2883805464D4F1E
:10540000D7F8F03099073FF58CAEFEF7DDFB401B77
:105410004045F5D9B1E66B6A43F001036B62FEF7D4
:10542000D3FB07466B6AD807DAD4FEF7CDFBC01B67
:105430000228F7D9A1E60BBBD5F8F03041F2883845
:1054400023F00103C5F8F030D5F8F03023F08003E5
:10545000C5F8F030D5F8F03023F00403C5F8F0308B
:10546000FEF7B2FB0746D5F8F0309A077FF559AE44
:10547000FEF7AAFBC01B4045F5D97EE6052B0CD1F3
:10548000D5F8F03043F00403C5F8F030D5F8F0302B
:1054900023F08003C5F8F030A6E7852BD5F8F0306F
:1054A00008D143F00403C5F8F030D5F8F03043F0EC
:1054B0008003EFE723F00103C5F8F030D5F8F030B2
:1054C00023F00403C5F8F030D5F8F03023F0800362
:1054D0008EE7636AE3B1B3F5805F11D1154D2B6898
:1054E00043F480532B60FEF76FFB07462B689B0449
:1054F0003FF51BAEFEF768FBC01B0228F6D93CE661
:1055000040F225310C48FBF703FC636A002BE5D120
:10551000084D2B6823F480532B60FEF755FB07469C
:105520002B6898047FF501AEFEF74EFBC01B0228E6
:10553000F6D922E6000C024434E9010800080244CE
:10554000182EA64D00F0D580022940F0BA80E36AFB
:10555000013B022B04D94FF45671A148FBF7D8FB4D
:10556000236B013B3E2B04D940F259319C48FBF799
:10557000CFFB636B043BB3F5FE7F04D940F25A3195
:105580009748FBF7C5FBA36B023B7E2B04D940F287
:105590005B319348FBF7BCFBE36B013B7F2B04D9EA
:1055A0004FF457718E48FBF7B3FB236C013B7F2B05
:1055B00004D940F25D318A48FBF7AAFB874D2B687E
:1055C00023F080732B60FEF7FFFA06462B689901E3
:1055D00071D4AB6AE26A23F47C5323F003031343D0
:1055E000226B43EA0223AB62A36BE26B013B013AFD
:1055F0005B02120402F4FE029BB21343626B013A97
:10560000C2F308021343226C013A120602F0FE4272
:1056100013436B63E36CB3F5005F04D340F2763160
:105620006F48FBF775FB6D4B9A6A22F010029A6285
:10563000E26CD2009A639A6A42F010029A62636C3A
:105640006BB1043B082B05D840F2111222FA03F388
:10565000DA0704D440F281316148FBF759FB5F4D12
:10566000626CAB6A23F00C031343AB62A36C33F0A0
:10567000200304D040F286315948FBF749FBAB6A5E
:10568000A26C23F020031343AB62AB6A43F4803374
:10569000AB622B6843F080732B60FEF795FA0446EB
:1056A0004E4D2B689B013FF54CADFEF78DFA001B6C
:1056B0000228F6D961E5FEF787FA801B022885D912
:1056C0005BE52B6823F080732B60FEF77DFA0446C0
:1056D0002B6813F0007306D1AA6A22F4E02222F0AC
:1056E0000302AA622DE5FEF76FFA001B0228EFD92C
:1056F00043E50129AA6A6B6B3FF4CCACE06A02F087
:10570000030181427FF4C6AC216BC2F305228A42B9
:105710007FF4C0AC626BC3F30801013A91427FF49D
:10572000B9ACA26BC3F34621013A91427FF4B2AC0B
:10573000E26BC3F30641013A91427FF4ABAC226CB9
:10574000C3F30663013A93427FF4A4ACAB6BE26C03
:10575000C3F3CC0393423FF4F4ACB2F5005F04D33F
:1057600040F2CB311E48FBF7D3FA1C4DAB6A23F055
:105770001003AB62FEF728FA0646FEF725FAB042A0
:10578000FBD0E36CDB00AB63AB6A43F01003AB62AE
:10579000D7E4102E3FF4B9AC182E02D1032F3FF4FA
:1057A00016AD63680D4DB3F5803F7FF414AD2B68E3
:1057B00043F480332B60FEF707FA0546DFF81C80C0
:1057C000D8F800309A033FF5A0ACFEF7FDF9401B76
:1057D0006428F5D9D1E4102EDED15BE4000C02443C
:1057E00034E9010808B5FFF73BFC054B054A1B6A85
:1057F000C3F30213D35C03F01F03D84008BD00BFFE
:10580000000C0244F0E7010808B5FFF729FC054B3E
:10581000054A1B6AC3F30223D35C03F01F03D8407D
:1058200008BD00BF000C0244F0E7010808B5FFF70F
:1058300017FC054B054A1B6AC3F30233D35C03F024
:105840001F03D84008BD00BF000C0244F0E7010868
:1058500038B50D46044620B940F25D611248FBF7A9
:1058600057FA25B940F25E610F48FBF751FA1F2342
:105870000E4A2360D36903F003036360136A03F0E5
:105880000F02A26003F07002E2601A091B0A03F023
:105890007003636102F07002054B22611B6803F024
:1058A0000F032B6038BD00BF34E90108000C02442F
:1058B00000200240036870B5013B022B044604D966
:1058C00041F2DC716248FBF723FA6368013B3E2B2F
:1058D00004D941F2DD715E48FBF71AFAA368043B74
:1058E000B3F5FE7F04D941F2DE715948FBF710FA97
:1058F000E368013B7F2B04D941F2DF715448FBF789
:1059000007FA2369013B7F2B04D94FF4BF5150485C
:10591000FBF7FEF96369013B7F2B04D941F2E1718A
:105920004B48FBF7F5F9636AA3F58033B3F5C02F55
:1059300004D941F2E2714648FBF7EAF9A3696BB179
:10594000043B082B05D840F2111222FA03F3D907C1
:1059500004D441F2E3713E48FBF7DAF9E36933F02E
:10596000200304D041F2E4713948FBF7D1F9236AEE
:10597000B3F5005F04D341F2E5713548FBF7C8F990
:10598000344D2B6823F080632B60FEF71DF906462B
:105990002B681A014ED4EB6A226823F47C5323F05F
:1059A00003031343626843EA0223EB62E36822695C
:1059B000013B013A5B02120402F4FE029BB2134364
:1059C000A268013AC2F3080213436269013A12065F
:1059D00002F0FE421343EB63EB6AA26923F00C036F
:1059E0001343EB62EB6AE26923F020031343EB629B
:1059F000EB6A626A1343EB62EB6A23F01003EB621B
:105A00002B6C226A23F47F4323F0F80343EAC2039A
:105A10002B64EB6A43F01003EB622B6843F0806366
:105A20002B60FEF7D1F804460A4D2B681B0108D500
:105A3000002005E0FEF7C8F8801B0228A8D9032043
:105A400070BDFEF7C1F8001B0228EED9F7E700BFD2
:105A50009CE90108000C0244036870B5013B022B6D
:105A6000044604D941F62E016248FBF751F96368F8
:105A7000013B3E2B04D941F62F015E48FBF748F964
:105A8000A368043BB3F5FE7F04D941F630015948C1
:105A9000FBF73EF9E368013B7F2B04D941F6310166
:105AA0005448FBF735F92369013B7F2B04D941F6B4
:105AB00032015048FBF72CF96369013B7F2B04D975
:105AC00041F633014B48FBF723F9636AA3F58033B2
:105AD000B3F5C02F04D941F634014648FBF718F955
